{
  "_format": "hh-sol-artifact-1",
  "contractName": "LiquidityPoolContract",
  "sourceName": "contracts/LiquidityPoolContract.sol",
  "abi": [
    {
      "inputs": [
        {
          "internalType": "address",
          "name": "_registry",
          "type": "address"
        }
      ],
      "stateMutability": "nonpayable",
      "type": "constructor"
    },
    {
      "inputs": [
        {
          "internalType": "address",
          "name": "owner",
          "type": "address"
        }
      ],
      "name": "OwnableInvalidOwner",
      "type": "error"
    },
    {
      "inputs": [
        {
          "internalType": "address",
          "name": "account",
          "type": "address"
        }
      ],
      "name": "OwnableUnauthorizedAccount",
      "type": "error"
    },
    {
      "inputs": [],
      "name": "ReentrancyGuardReentrantCall",
      "type": "error"
    },
    {
      "inputs": [
        {
          "internalType": "address",
          "name": "token",
          "type": "address"
        }
      ],
      "name": "SafeERC20FailedOperation",
      "type": "error"
    },
    {
      "anonymous": false,
      "inputs": [
        {
          "indexed": true,
          "internalType": "address",
          "name": "user",
          "type": "address"
        },
        {
          "indexed": true,
          "internalType": "address",
          "name": "tokenA",
          "type": "address"
        },
        {
          "indexed": true,
          "internalType": "address",
          "name": "tokenB",
          "type": "address"
        },
        {
          "indexed": false,
          "internalType": "uint256",
          "name": "amountA",
          "type": "uint256"
        },
        {
          "indexed": false,
          "internalType": "uint256",
          "name": "amountB",
          "type": "uint256"
        },
        {
          "indexed": false,
          "internalType": "uint256",
          "name": "lpTokens",
          "type": "uint256"
        }
      ],
      "name": "LiquidityAdded",
      "type": "event"
    },
    {
      "anonymous": false,
      "inputs": [
        {
          "indexed": true,
          "internalType": "address",
          "name": "user",
          "type": "address"
        },
        {
          "indexed": true,
          "internalType": "address",
          "name": "tokenA",
          "type": "address"
        },
        {
          "indexed": true,
          "internalType": "address",
          "name": "tokenB",
          "type": "address"
        },
        {
          "indexed": false,
          "internalType": "uint256",
          "name": "amountA",
          "type": "uint256"
        },
        {
          "indexed": false,
          "internalType": "uint256",
          "name": "amountB",
          "type": "uint256"
        },
        {
          "indexed": false,
          "internalType": "uint256",
          "name": "lpTokens",
          "type": "uint256"
        }
      ],
      "name": "LiquidityRemoved",
      "type": "event"
    },
    {
      "anonymous": false,
      "inputs": [
        {
          "indexed": true,
          "internalType": "address",
          "name": "previousOwner",
          "type": "address"
        },
        {
          "indexed": true,
          "internalType": "address",
          "name": "newOwner",
          "type": "address"
        }
      ],
      "name": "OwnershipTransferred",
      "type": "event"
    },
    {
      "anonymous": false,
      "inputs": [
        {
          "indexed": true,
          "internalType": "address",
          "name": "user",
          "type": "address"
        },
        {
          "indexed": true,
          "internalType": "address",
          "name": "tokenIn",
          "type": "address"
        },
        {
          "indexed": true,
          "internalType": "address",
          "name": "tokenOut",
          "type": "address"
        },
        {
          "indexed": false,
          "internalType": "uint256",
          "name": "amountIn",
          "type": "uint256"
        },
        {
          "indexed": false,
          "internalType": "uint256",
          "name": "amountOut",
          "type": "uint256"
        }
      ],
      "name": "Swapped",
      "type": "event"
    },
    {
      "inputs": [],
      "name": "FEE_DENOMINATOR",
      "outputs": [
        {
          "internalType": "uint256",
          "name": "",
          "type": "uint256"
        }
      ],
      "stateMutability": "view",
      "type": "function"
    },
    {
      "inputs": [],
      "name": "FEE_PERCENT",
      "outputs": [
        {
          "internalType": "uint256",
          "name": "",
          "type": "uint256"
        }
      ],
      "stateMutability": "view",
      "type": "function"
    },
    {
      "inputs": [],
      "name": "MINIMUM_LIQUIDITY",
      "outputs": [
        {
          "internalType": "uint256",
          "name": "",
          "type": "uint256"
        }
      ],
      "stateMutability": "view",
      "type": "function"
    },
    {
      "inputs": [
        {
          "internalType": "address",
          "name": "user",
          "type": "address"
        },
        {
          "internalType": "address",
          "name": "tokenA",
          "type": "address"
        },
        {
          "internalType": "address",
          "name": "tokenB",
          "type": "address"
        },
        {
          "internalType": "uint256",
          "name": "amountA",
          "type": "uint256"
        },
        {
          "internalType": "uint256",
          "name": "amountB",
          "type": "uint256"
        }
      ],
      "name": "addLiquidity",
      "outputs": [
        {
          "internalType": "uint256",
          "name": "lpTokens",
          "type": "uint256"
        }
      ],
      "stateMutability": "nonpayable",
      "type": "function"
    },
    {
      "inputs": [
        {
          "internalType": "address",
          "name": "tokenA",
          "type": "address"
        },
        {
          "internalType": "address",
          "name": "tokenB",
          "type": "address"
        }
      ],
      "name": "createPool",
      "outputs": [],
      "stateMutability": "nonpayable",
      "type": "function"
    },
    {
      "inputs": [
        {
          "internalType": "address",
          "name": "tokenA",
          "type": "address"
        },
        {
          "internalType": "address",
          "name": "tokenB",
          "type": "address"
        }
      ],
      "name": "getPoolId",
      "outputs": [
        {
          "internalType": "bytes32",
          "name": "",
          "type": "bytes32"
        }
      ],
      "stateMutability": "pure",
      "type": "function"
    },
    {
      "inputs": [
        {
          "internalType": "address",
          "name": "tokenA",
          "type": "address"
        },
        {
          "internalType": "address",
          "name": "tokenB",
          "type": "address"
        }
      ],
      "name": "getPoolInfo",
      "outputs": [
        {
          "components": [
            {
              "internalType": "address",
              "name": "tokenA",
              "type": "address"
            },
            {
              "internalType": "address",
              "name": "tokenB",
              "type": "address"
            },
            {
              "internalType": "uint256",
              "name": "reserveA",
              "type": "uint256"
            },
            {
              "internalType": "uint256",
              "name": "reserveB",
              "type": "uint256"
            },
            {
              "internalType": "uint256",
              "name": "totalLPTokens",
              "type": "uint256"
            },
            {
              "internalType": "bool",
              "name": "active",
              "type": "bool"
            }
          ],
          "internalType": "struct LiquidityPoolContract.Pool",
          "name": "",
          "type": "tuple"
        }
      ],
      "stateMutability": "view",
      "type": "function"
    },
    {
      "inputs": [
        {
          "internalType": "address",
          "name": "user",
          "type": "address"
        }
      ],
      "name": "getUserPools",
      "outputs": [
        {
          "internalType": "bytes32[]",
          "name": "",
          "type": "bytes32[]"
        }
      ],
      "stateMutability": "view",
      "type": "function"
    },
    {
      "inputs": [
        {
          "internalType": "address",
          "name": "user",
          "type": "address"
        },
        {
          "internalType": "address",
          "name": "tokenA",
          "type": "address"
        },
        {
          "internalType": "address",
          "name": "tokenB",
          "type": "address"
        }
      ],
      "name": "getUserPosition",
      "outputs": [
        {
          "components": [
            {
              "internalType": "uint256",
              "name": "lpTokens",
              "type": "uint256"
            },
            {
              "internalType": "uint256",
              "name": "tokenADeposited",
              "type": "uint256"
            },
            {
              "internalType": "uint256",
              "name": "tokenBDeposited",
              "type": "uint256"
            }
          ],
          "internalType": "struct LiquidityPoolContract.LPPosition",
          "name": "",
          "type": "tuple"
        }
      ],
      "stateMutability": "view",
      "type": "function"
    },
    {
      "inputs": [],
      "name": "owner",
      "outputs": [
        {
          "internalType": "address",
          "name": "",
          "type": "address"
        }
      ],
      "stateMutability": "view",
      "type": "function"
    },
    {
      "inputs": [
        {
          "internalType": "bytes32",
          "name": "",
          "type": "bytes32"
        }
      ],
      "name": "pools",
      "outputs": [
        {
          "internalType": "address",
          "name": "tokenA",
          "type": "address"
        },
        {
          "internalType": "address",
          "name": "tokenB",
          "type": "address"
        },
        {
          "internalType": "uint256",
          "name": "reserveA",
          "type": "uint256"
        },
        {
          "internalType": "uint256",
          "name": "reserveB",
          "type": "uint256"
        },
        {
          "internalType": "uint256",
          "name": "totalLPTokens",
          "type": "uint256"
        },
        {
          "internalType": "bool",
          "name": "active",
          "type": "bool"
        }
      ],
      "stateMutability": "view",
      "type": "function"
    },
    {
      "inputs": [
        {
          "internalType": "bytes32",
          "name": "",
          "type": "bytes32"
        },
        {
          "internalType": "address",
          "name": "",
          "type": "address"
        }
      ],
      "name": "positions",
      "outputs": [
        {
          "internalType": "uint256",
          "name": "lpTokens",
          "type": "uint256"
        },
        {
          "internalType": "uint256",
          "name": "tokenADeposited",
          "type": "uint256"
        },
        {
          "internalType": "uint256",
          "name": "tokenBDeposited",
          "type": "uint256"
        }
      ],
      "stateMutability": "view",
      "type": "function"
    },
    {
      "inputs": [],
      "name": "registry",
      "outputs": [
        {
          "internalType": "contract IRegistry",
          "name": "",
          "type": "address"
        }
      ],
      "stateMutability": "view",
      "type": "function"
    },
    {
      "inputs": [
        {
          "internalType": "address",
          "name": "user",
          "type": "address"
        },
        {
          "internalType": "uint256",
          "name": "lpTokens",
          "type": "uint256"
        },
        {
          "internalType": "address",
          "name": "tokenA",
          "type": "address"
        },
        {
          "internalType": "address",
          "name": "tokenB",
          "type": "address"
        }
      ],
      "name": "removeLiquidity",
      "outputs": [
        {
          "internalType": "uint256",
          "name": "amountA",
          "type": "uint256"
        },
        {
          "internalType": "uint256",
          "name": "amountB",
          "type": "uint256"
        }
      ],
      "stateMutability": "nonpayable",
      "type": "function"
    },
    {
      "inputs": [],
      "name": "renounceOwnership",
      "outputs": [],
      "stateMutability": "nonpayable",
      "type": "function"
    },
    {
      "inputs": [
        {
          "internalType": "address",
          "name": "user",
          "type": "address"
        },
        {
          "internalType": "address",
          "name": "tokenIn",
          "type": "address"
        },
        {
          "internalType": "address",
          "name": "tokenOut",
          "type": "address"
        },
        {
          "internalType": "uint256",
          "name": "amountIn",
          "type": "uint256"
        }
      ],
      "name": "swap",
      "outputs": [
        {
          "internalType": "uint256",
          "name": "amountOut",
          "type": "uint256"
        }
      ],
      "stateMutability": "nonpayable",
      "type": "function"
    },
    {
      "inputs": [
        {
          "internalType": "address",
          "name": "newOwner",
          "type": "address"
        }
      ],
      "name": "transferOwnership",
      "outputs": [],
      "stateMutability": "nonpayable",
      "type": "function"
    },
    {
      "inputs": [
        {
          "internalType": "address",
          "name": "",
          "type": "address"
        },
        {
          "internalType": "uint256",
          "name": "",
          "type": "uint256"
        }
      ],
      "name": "userPools",
      "outputs": [
        {
          "internalType": "bytes32",
          "name": "",
          "type": "bytes32"
        }
      ],
      "stateMutability": "view",
      "type": "function"
    }
  ],
  "bytecode": "0x6080346100ca57601f61163538819003918201601f19168301916001600160401b038311848410176100cf578084926020946040528339810103126100ca57516001600160a01b0390818116908190036100ca5733156100b15760005460018060a01b0319903382821617600055604051933391167f8be0079c531659141344cd1fd0a4f28419497f9722a3daafe3b4186f6b6457e0600080a360018055600254161760025561154f90816100e68239f35b604051631e4fbdf760e01b815260006004820152602490fd5b600080fd5b634e487b7160e01b600052604160045260246000fdfe6080604052600436101561001257600080fd5b60003560e01c80631064aa55146110c957806329d885941461105c5780632ef61c2114611028578063486e51f414610f375780634ea5efef14610b87578063715018a614610b2e578063719b67ce1461092e5780637b103999146109055780638da5cb5b146108dc5780639816af5814610828578063a9678a18146104b7578063b5217bb414610444578063ba9a7a5614610427578063d73792a91461040a578063e343361514610239578063e8aa691b1461018c578063eaf98d23146101705763f2fde38b146100e257600080fd5b3461016b57602036600319011261016b576100fb611121565b610103611191565b6001600160a01b0390811690811561015257600054826001600160601b0360a01b821617600055167f8be0079c531659141344cd1fd0a4f28419497f9722a3daafe3b4186f6b6457e0600080a3005b604051631e4fbdf760e01b815260006004820152602490fd5b600080fd5b3461016b57600036600319011261016b576020604051601e8152f35b3461016b57606036600319011261016b576101a5611121565b6101d86101b0611137565b6101b861114d565b906000604080516101c8816111d9565b8281528260208201520152611217565b600052600460205260406000209060018060a01b031660005260205260606040600020604051610207816111d9565b815491828252604060026001830154926020850193845201549201918252604051928352516020830152516040820152f35b3461016b57604036600319011261016b57610252611121565b61025a611137565b6001600160a01b0381811692808216929091908385146103d257831515806103c9575b156103945761028c8184611217565b9485600052600360205260ff60056040600020015416610361576005941092831561035a5780935b1561035357505b81604051936102c9856111bd565b168352816020840191168152604083016000815260608401916000835260808501936000855260a0860197600189526000526003602052806040600020965116906001600160601b0360a01b91828854161787556001870192511690825416179055516002840155516003830155516004820155019051151560ff80198354169116179055600080f35b90506102bb565b81936102b4565b60405162461bcd60e51b815260206004820152600b60248201526a506f6f6c2065786973747360a81b6044820152606490fd5b60405162461bcd60e51b815260206004820152600d60248201526c24b73b30b634b2103a37b5b2b760991b6044820152606490fd5b5084151561027d565b60405162461bcd60e51b815260206004820152601060248201526f4964656e746963616c20746f6b656e7360801b6044820152606490fd5b3461016b57600036600319011261016b5760206040516127108152f35b3461016b57600036600319011261016b5760206040516103e88152f35b3461016b57602036600319011261016b57600435600052600360205260c0604060002060018060a01b0390818154169160018201541690600281015460038201549060ff6005600485015494015416936040519586526020860152604085015260608401526080830152151560a0820152f35b3461016b57608036600319011261016b576104d0611121565b6104d8611137565b6104e061114d565b90606435916104ed6113aa565b82156107f2576001600160a01b039281841692808516928385146107c05761051491611217565b6000526020946003865260406000209461053460ff600588015416611268565b8554811684149586156107b5576002810154905b87156107aa576003810154975b6126f286026126f119878204016106a6576105708a826112a6565b61271094858102908082048714901517156106a65761059892610592916112d9565b906112b9565b988915610765578910156107275790600492916105b78730888b6112f3565b6105c28a878b6113cd565b1561070057806002600392016105d98882546112d9565b9055016105e78982546112e6565b90555b8883600254166040519384809263796b1c1360e11b82525afa9182156106f4576000926106bc575b5082821661065b575b50506040907f6782190c91d4a7e8ad2a867deed6ec0a970cab8ff137ae2bd4abd92b3810f4d392825194855287898601521692a460018055604051908152f35b919092601e8502858104601e036106a6577f6782190c91d4a7e8ad2a867deed6ec0a970cab8ff137ae2bd4abd92b3810f4d39460409461069d920490886113cd565b9281925061061b565b634e487b7160e01b600052601160045260246000fd5b9091508881813d83116106ed575b6106d481836111f5565b8101031261016b5751828116810361016b579089610612565b503d6106ca565b6040513d6000823e3d90fd5b806003600292016107128882546112d9565b9055016107208982546112e6565b90556105ea565b60405162461bcd60e51b8152600481018b90526016602482015275496e73756666696369656e74206c697175696469747960501b6044820152606490fd5b60405162461bcd60e51b8152600481018c9052601a60248201527f496e73756666696369656e74206f757470757420616d6f756e740000000000006044820152606490fd5b600281015497610555565b600381015490610548565b60405162461bcd60e51b815260206004820152600a60248201526929b0b6b2903a37b5b2b760b11b6044820152606490fd5b60405162461bcd60e51b815260206004820152600e60248201526d125b9d985b1a5908185b5bdd5b9d60921b6044820152606490fd5b3461016b5760208060031936011261016b576001600160a01b0361084a611121565b1660005260058152604060002060405190818382549182815201908192600052846000209060005b868282106108c8578686610888828803836111f5565b604051928392818401908285525180915260408401929160005b8281106108b157505050500390f35b8351855286955093810193928101926001016108a2565b835485529093019260019283019201610872565b3461016b57600036600319011261016b576000546040516001600160a01b039091168152602090f35b3461016b57600036600319011261016b576002546040516001600160a01b039091168152602090f35b3461016b57608036600319011261016b57610947611121565b60243561095261114d565b6001600160a01b0391606435838116929083810361016b576109726113aa565b8215610af5576109829082611217565b938460005260036020526040600020946109a260ff600588015416611268565b60005260046020526040600020918187169283600052602052604060002096875496858810610ab7578381600288930180546109de90856112a6565b9060048301805492836109f0916112b9565b9d60038501938454610a0290896112a6565b90610a0c916112b9565b9d8e97610a18916112e6565b90558a815490610a27916112e6565b90558c815490610a36916112e6565b905583815490610a45916112e6565b9055838b8383541691610a57926113cd565b600101541691610a66926113cd565b60408051888152602081018890529081019490945216917fd765e08eef31c0983ecca03ecd166297ac485ecd5dd69e291c848f0a020333c190606090a4600180556040519182526020820152604090f35b60405162461bcd60e51b8152602060048201526016602482015275496e73756666696369656e74204c5020746f6b656e7360501b6044820152606490fd5b60405162461bcd60e51b8152602060048201526011602482015270125b9d985b1a5908131408185b5bdd5b9d607a1b6044820152606490fd5b3461016b57600036600319011261016b57610b47611191565b600080546001600160a01b0319811682556001600160a01b03167f8be0079c531659141344cd1fd0a4f28419497f9722a3daafe3b4186f6b6457e08280a3005b3461016b5760a036600319011261016b57610ba0611121565b610ba8611137565b90610bb161114d565b9160843591610bbe6113aa565b8290606435151580610f2e575b15610ef757610bda8584611217565b806000526003602052604060002094610bf960ff600588015416611268565b60028601549081159182610eea575b8215610e6f575b50610c29905060643530856001600160a01b0389166112f3565b610c3e8430856001600160a01b038b166112f3565b15610e1157610c57610c52846064356112a6565b61141d565b946103e7198601908682116106a6576003919660048201555b610c8060643560028301546112d9565b600282015501610c918482546112d9565b9055806000526004602052610d248160406000209360018060a01b03811694856000526020526040600020610cc78982546112d9565b90558160005260046020526040600020856000526020526001604060002001610cf360643582546112d9565b90558160005260046020526040600020856000526020526002604060002001610d1d8782546112d9565b9055611467565b610d84575b5060408051606435815260208082019490945290810185905291946001600160a01b039081169316917f43c967b388d3a4ccad3f7ab80167852e322e5a3fde9893f530252281b2ae8b7090606090a460018055604051908152f35b9481600052600560205260406000209081549068010000000000000000821015610dfb57602097610ddd837f43c967b388d3a4ccad3f7ab80167852e322e5a3fde9893f530252281b2ae8b709560018b96018155611163565b819291549060031b91821b91600019901b1916179055965050610d29565b634e487b7160e01b600052604160045260246000fd5b6003600486015495610e5e610e36610e2b896064356112a6565b6002840154906112b9565b610e4d610e438a896112a6565b85850154906112b9565b80821015610e6857505b80986112d9565b6004820155610c70565b9050610e57565b610e8890610e8360038a01546064356112a6565b6112b9565b90818110610ea5578110610e9d575b80610c0f565b935087610e97565b60405162461bcd60e51b815260206004820152601a60248201527f496e73756666696369656e7420746f6b656e4220616d6f756e740000000000006044820152606490fd5b6003880154159250610c08565b60405162461bcd60e51b815260206004820152600f60248201526e496e76616c696420616d6f756e747360881b6044820152606490fd5b50831515610bcb565b3461016b57604036600319011261016b57610f8e610f53611121565b610f5b611137565b90600060a0604051610f6c816111bd565b8281528260208201528260408201528260608201528260808201520152611217565b600052600360205260c06040600020604051610fa9816111bd565b60018060a01b03918281541692838352806001830154169060208401918252600283015490604085019182526003840154926060860193845260a060ff600560048801549760808a01988952015416960195151586526040519687525116602086015251604085015251606084015251608083015251151560a0820152f35b3461016b57604036600319011261016b576020611054611046611121565b61104e611137565b90611217565b604051908152f35b3461016b57604036600319011261016b57611075611137565b600435600052600460205260406000209060018060a01b0316600052602052604060002080546110c560026001840154930154604051938493846040919493926060820195825260208201520152565b0390f35b3461016b57604036600319011261016b576110e2611121565b6001600160a01b031660009081526005602052604090208054602435919082101561016b5760209161111391611163565b90546040519160031b1c8152f35b600435906001600160a01b038216820361016b57565b602435906001600160a01b038216820361016b57565b604435906001600160a01b038216820361016b57565b805482101561117b5760005260206000200190600090565b634e487b7160e01b600052603260045260246000fd5b6000546001600160a01b031633036111a557565b60405163118cdaa760e01b8152336004820152602490fd5b60c0810190811067ffffffffffffffff821117610dfb57604052565b6060810190811067ffffffffffffffff821117610dfb57604052565b90601f8019910116810190811067ffffffffffffffff821117610dfb57604052565b6001600160a01b038281169082161015611262575b6040519060208201926001600160601b0319809260601b16845260601b1660348201526028815261125c816111d9565b51902090565b9061122c565b1561126f57565b60405162461bcd60e51b815260206004820152600f60248201526e506f6f6c206e6f742061637469766560881b6044820152606490fd5b818102929181159184041417156106a657565b81156112c3570490565b634e487b7160e01b600052601260045260246000fd5b919082018092116106a657565b919082039182116106a657565b6040516323b872dd60e01b60208201526001600160a01b03928316602482015292909116604483015260648083019390935291815260a081019181831067ffffffffffffffff841117610dfb5761134c9260405261134e565b565b906000602091828151910182855af1156106f4576000513d6113a157506001600160a01b0381163b155b61137f5750565b604051635274afe760e01b81526001600160a01b039091166004820152602490fd5b60011415611378565b6002600154146113bb576002600155565b604051633ee5aeb560e01b8152600490fd5b60405163a9059cbb60e01b60208201526001600160a01b039092166024830152604480830193909352918152608081019167ffffffffffffffff831182841017610dfb5761134c9260405261134e565b80156114615760018082018083116106a657811c90825b8383106114415750505090565b909192506114588361145381846112b9565b6112d9565b821c9190611434565b50600090565b909160009160018060a01b03168252600592602084815260408420604051808284829454938481520190885284882092885b86828210611503575050506114b0925003826111f5565b845b81518110156114f757838382891b84010151146114ee5760001981146114da576001016114b2565b634e487b7160e01b86526011600452602486fd5b50505050915090565b50505050915050600190565b855484526001958601958795509301920161149956fea26469706673582212205fa19b9c0148b5b9d536065df90fc76938cebcb26f79f323417dfc739569ba6364736f6c63430008140033",
  "linkReferences": {},
  "deployedLinkReferences": {}
}