{
  "_format": "hh-sol-artifact-1",
  "contractName": "PumpFunLaunchpad",
  "sourceName": "contracts/PumpFunLaunchpad.sol",
  "abi": [
    {
      "inputs": [
        {
          "internalType": "address",
          "name": "_feeRecipient",
          "type": "address"
        },
        {
          "internalType": "address",
          "name": "_wokbAddress",
          "type": "address"
        }
      ],
      "stateMutability": "nonpayable",
      "type": "constructor"
    },
    {
      "inputs": [
        {
          "internalType": "address",
          "name": "owner",
          "type": "address"
        }
      ],
      "name": "OwnableInvalidOwner",
      "type": "error"
    },
    {
      "inputs": [
        {
          "internalType": "address",
          "name": "account",
          "type": "address"
        }
      ],
      "name": "OwnableUnauthorizedAccount",
      "type": "error"
    },
    {
      "inputs": [],
      "name": "ReentrancyGuardReentrantCall",
      "type": "error"
    },
    {
      "inputs": [
        {
          "internalType": "address",
          "name": "token",
          "type": "address"
        }
      ],
      "name": "SafeERC20FailedOperation",
      "type": "error"
    },
    {
      "anonymous": false,
      "inputs": [
        {
          "indexed": true,
          "internalType": "address",
          "name": "previousOwner",
          "type": "address"
        },
        {
          "indexed": true,
          "internalType": "address",
          "name": "newOwner",
          "type": "address"
        }
      ],
      "name": "OwnershipTransferred",
      "type": "event"
    },
    {
      "anonymous": false,
      "inputs": [
        {
          "indexed": true,
          "internalType": "address",
          "name": "tokenAddress",
          "type": "address"
        },
        {
          "indexed": true,
          "internalType": "address",
          "name": "creator",
          "type": "address"
        },
        {
          "indexed": false,
          "internalType": "string",
          "name": "name",
          "type": "string"
        },
        {
          "indexed": false,
          "internalType": "string",
          "name": "symbol",
          "type": "string"
        },
        {
          "indexed": false,
          "internalType": "string",
          "name": "imageUri",
          "type": "string"
        },
        {
          "indexed": false,
          "internalType": "string",
          "name": "description",
          "type": "string"
        }
      ],
      "name": "TokenCreated",
      "type": "event"
    },
    {
      "anonymous": false,
      "inputs": [
        {
          "indexed": true,
          "internalType": "address",
          "name": "tokenAddress",
          "type": "address"
        },
        {
          "indexed": true,
          "internalType": "address",
          "name": "poolAddress",
          "type": "address"
        },
        {
          "indexed": false,
          "internalType": "uint256",
          "name": "liquidityLocked",
          "type": "uint256"
        }
      ],
      "name": "TokenGraduated",
      "type": "event"
    },
    {
      "anonymous": false,
      "inputs": [
        {
          "indexed": true,
          "internalType": "address",
          "name": "tokenAddress",
          "type": "address"
        },
        {
          "indexed": true,
          "internalType": "address",
          "name": "buyer",
          "type": "address"
        },
        {
          "indexed": false,
          "internalType": "uint256",
          "name": "okbAmount",
          "type": "uint256"
        },
        {
          "indexed": false,
          "internalType": "uint256",
          "name": "tokensReceived",
          "type": "uint256"
        },
        {
          "indexed": false,
          "internalType": "uint256",
          "name": "newPrice",
          "type": "uint256"
        }
      ],
      "name": "TokenPurchased",
      "type": "event"
    },
    {
      "anonymous": false,
      "inputs": [
        {
          "indexed": true,
          "internalType": "address",
          "name": "tokenAddress",
          "type": "address"
        },
        {
          "indexed": true,
          "internalType": "address",
          "name": "seller",
          "type": "address"
        },
        {
          "indexed": false,
          "internalType": "uint256",
          "name": "tokensAmount",
          "type": "uint256"
        },
        {
          "indexed": false,
          "internalType": "uint256",
          "name": "okbReceived",
          "type": "uint256"
        },
        {
          "indexed": false,
          "internalType": "uint256",
          "name": "newPrice",
          "type": "uint256"
        }
      ],
      "name": "TokenSold",
      "type": "event"
    },
    {
      "inputs": [],
      "name": "CREATION_FEE",
      "outputs": [
        {
          "internalType": "uint256",
          "name": "",
          "type": "uint256"
        }
      ],
      "stateMutability": "view",
      "type": "function"
    },
    {
      "inputs": [],
      "name": "CREATOR_FEE_PERCENT",
      "outputs": [
        {
          "internalType": "uint256",
          "name": "",
          "type": "uint256"
        }
      ],
      "stateMutability": "view",
      "type": "function"
    },
    {
      "inputs": [],
      "name": "FEE_DENOMINATOR",
      "outputs": [
        {
          "internalType": "uint256",
          "name": "",
          "type": "uint256"
        }
      ],
      "stateMutability": "view",
      "type": "function"
    },
    {
      "inputs": [],
      "name": "GRADUATION_THRESHOLD",
      "outputs": [
        {
          "internalType": "uint256",
          "name": "",
          "type": "uint256"
        }
      ],
      "stateMutability": "view",
      "type": "function"
    },
    {
      "inputs": [],
      "name": "LOCKED_LIQUIDITY_AMOUNT",
      "outputs": [
        {
          "internalType": "uint256",
          "name": "",
          "type": "uint256"
        }
      ],
      "stateMutability": "view",
      "type": "function"
    },
    {
      "inputs": [],
      "name": "PLATFORM_FEE_PERCENT",
      "outputs": [
        {
          "internalType": "uint256",
          "name": "",
          "type": "uint256"
        }
      ],
      "stateMutability": "view",
      "type": "function"
    },
    {
      "inputs": [],
      "name": "POOL_FEE",
      "outputs": [
        {
          "internalType": "uint24",
          "name": "",
          "type": "uint24"
        }
      ],
      "stateMutability": "view",
      "type": "function"
    },
    {
      "inputs": [],
      "name": "QUICKSWAP_FACTORY",
      "outputs": [
        {
          "internalType": "address",
          "name": "",
          "type": "address"
        }
      ],
      "stateMutability": "view",
      "type": "function"
    },
    {
      "inputs": [],
      "name": "QUICKSWAP_POSITION_MANAGER",
      "outputs": [
        {
          "internalType": "address",
          "name": "",
          "type": "address"
        }
      ],
      "stateMutability": "view",
      "type": "function"
    },
    {
      "inputs": [],
      "name": "WOKB_ADDRESS",
      "outputs": [
        {
          "internalType": "address",
          "name": "",
          "type": "address"
        }
      ],
      "stateMutability": "view",
      "type": "function"
    },
    {
      "inputs": [
        {
          "internalType": "uint256",
          "name": "",
          "type": "uint256"
        }
      ],
      "name": "allTokens",
      "outputs": [
        {
          "internalType": "address",
          "name": "",
          "type": "address"
        }
      ],
      "stateMutability": "view",
      "type": "function"
    },
    {
      "inputs": [
        {
          "internalType": "address",
          "name": "tokenAddress",
          "type": "address"
        }
      ],
      "name": "buyTokens",
      "outputs": [],
      "stateMutability": "payable",
      "type": "function"
    },
    {
      "inputs": [
        {
          "internalType": "string",
          "name": "name",
          "type": "string"
        },
        {
          "internalType": "string",
          "name": "symbol",
          "type": "string"
        },
        {
          "internalType": "string",
          "name": "imageUri",
          "type": "string"
        },
        {
          "internalType": "string",
          "name": "description",
          "type": "string"
        }
      ],
      "name": "createToken",
      "outputs": [
        {
          "internalType": "address",
          "name": "",
          "type": "address"
        }
      ],
      "stateMutability": "payable",
      "type": "function"
    },
    {
      "inputs": [],
      "name": "feeRecipient",
      "outputs": [
        {
          "internalType": "address",
          "name": "",
          "type": "address"
        }
      ],
      "stateMutability": "view",
      "type": "function"
    },
    {
      "inputs": [],
      "name": "getAllTokens",
      "outputs": [
        {
          "internalType": "address[]",
          "name": "",
          "type": "address[]"
        }
      ],
      "stateMutability": "view",
      "type": "function"
    },
    {
      "inputs": [
        {
          "internalType": "address",
          "name": "tokenAddress",
          "type": "address"
        },
        {
          "internalType": "uint256",
          "name": "tokenAmount",
          "type": "uint256"
        }
      ],
      "name": "getOkbForTokens",
      "outputs": [
        {
          "internalType": "uint256",
          "name": "",
          "type": "uint256"
        }
      ],
      "stateMutability": "view",
      "type": "function"
    },
    {
      "inputs": [
        {
          "internalType": "address",
          "name": "tokenAddress",
          "type": "address"
        }
      ],
      "name": "getTokenInfo",
      "outputs": [
        {
          "components": [
            {
              "internalType": "address",
              "name": "tokenAddress",
              "type": "address"
            },
            {
              "internalType": "address",
              "name": "creator",
              "type": "address"
            },
            {
              "internalType": "uint256",
              "name": "createdAt",
              "type": "uint256"
            },
            {
              "internalType": "uint256",
              "name": "totalSupply",
              "type": "uint256"
            },
            {
              "internalType": "uint256",
              "name": "soldSupply",
              "type": "uint256"
            },
            {
              "internalType": "uint256",
              "name": "okbCollected",
              "type": "uint256"
            },
            {
              "internalType": "bool",
              "name": "graduatedToDeX",
              "type": "bool"
            },
            {
              "internalType": "string",
              "name": "name",
              "type": "string"
            },
            {
              "internalType": "string",
              "name": "symbol",
              "type": "string"
            },
            {
              "internalType": "string",
              "name": "imageUri",
              "type": "string"
            },
            {
              "internalType": "string",
              "name": "description",
              "type": "string"
            }
          ],
          "internalType": "struct PumpFunLaunchpad.TokenInfo",
          "name": "",
          "type": "tuple"
        }
      ],
      "stateMutability": "view",
      "type": "function"
    },
    {
      "inputs": [
        {
          "internalType": "address",
          "name": "tokenAddress",
          "type": "address"
        }
      ],
      "name": "getTokenPrice",
      "outputs": [
        {
          "internalType": "uint256",
          "name": "",
          "type": "uint256"
        }
      ],
      "stateMutability": "view",
      "type": "function"
    },
    {
      "inputs": [
        {
          "internalType": "address",
          "name": "tokenAddress",
          "type": "address"
        },
        {
          "internalType": "uint256",
          "name": "okbAmount",
          "type": "uint256"
        }
      ],
      "name": "getTokensForOkb",
      "outputs": [
        {
          "internalType": "uint256",
          "name": "",
          "type": "uint256"
        }
      ],
      "stateMutability": "view",
      "type": "function"
    },
    {
      "inputs": [
        {
          "internalType": "address",
          "name": "",
          "type": "address"
        }
      ],
      "name": "okbPoolBalances",
      "outputs": [
        {
          "internalType": "uint256",
          "name": "",
          "type": "uint256"
        }
      ],
      "stateMutability": "view",
      "type": "function"
    },
    {
      "inputs": [],
      "name": "owner",
      "outputs": [
        {
          "internalType": "address",
          "name": "",
          "type": "address"
        }
      ],
      "stateMutability": "view",
      "type": "function"
    },
    {
      "inputs": [],
      "name": "renounceOwnership",
      "outputs": [],
      "stateMutability": "nonpayable",
      "type": "function"
    },
    {
      "inputs": [
        {
          "internalType": "address",
          "name": "tokenAddress",
          "type": "address"
        },
        {
          "internalType": "uint256",
          "name": "tokenAmount",
          "type": "uint256"
        }
      ],
      "name": "sellTokens",
      "outputs": [],
      "stateMutability": "nonpayable",
      "type": "function"
    },
    {
      "inputs": [
        {
          "internalType": "address",
          "name": "_feeRecipient",
          "type": "address"
        }
      ],
      "name": "setFeeRecipient",
      "outputs": [],
      "stateMutability": "nonpayable",
      "type": "function"
    },
    {
      "inputs": [
        {
          "internalType": "address",
          "name": "",
          "type": "address"
        }
      ],
      "name": "tokens",
      "outputs": [
        {
          "internalType": "address",
          "name": "tokenAddress",
          "type": "address"
        },
        {
          "internalType": "address",
          "name": "creator",
          "type": "address"
        },
        {
          "internalType": "uint256",
          "name": "createdAt",
          "type": "uint256"
        },
        {
          "internalType": "uint256",
          "name": "totalSupply",
          "type": "uint256"
        },
        {
          "internalType": "uint256",
          "name": "soldSupply",
          "type": "uint256"
        },
        {
          "internalType": "uint256",
          "name": "okbCollected",
          "type": "uint256"
        },
        {
          "internalType": "bool",
          "name": "graduatedToDeX",
          "type": "bool"
        },
        {
          "internalType": "string",
          "name": "name",
          "type": "string"
        },
        {
          "internalType": "string",
          "name": "symbol",
          "type": "string"
        },
        {
          "internalType": "string",
          "name": "imageUri",
          "type": "string"
        },
        {
          "internalType": "string",
          "name": "description",
          "type": "string"
        }
      ],
      "stateMutability": "view",
      "type": "function"
    },
    {
      "inputs": [],
      "name": "totalPlatformFees",
      "outputs": [
        {
          "internalType": "uint256",
          "name": "",
          "type": "uint256"
        }
      ],
      "stateMutability": "view",
      "type": "function"
    },
    {
      "inputs": [
        {
          "internalType": "address",
          "name": "newOwner",
          "type": "address"
        }
      ],
      "name": "transferOwnership",
      "outputs": [],
      "stateMutability": "nonpayable",
      "type": "function"
    },
    {
      "inputs": [],
      "name": "withdrawPlatformFees",
      "outputs": [],
      "stateMutability": "nonpayable",
      "type": "function"
    },
    {
      "stateMutability": "payable",
      "type": "receive"
    }
  ],
  "bytecode": "0x60a0346200011957601f6200477438819003918201601f19168301916001600160401b038311848410176200011e57808492604094855283398101031262000119576200005a6020620000528362000134565b920162000134565b600160005533156200010057600180546001600160a01b0319808216339081179093556040519490926001600160a01b039283167f8be0079c531659141344cd1fd0a4f28419497f9722a3daafe3b4186f6b6457e0600080a31690600654161760065560805261462a90816200014a82396080518181816105030152818161054901528181610612015281816106540152818161068b01528181610b50015261106e0152f35b604051631e4fbdf760e01b815260006004820152602490fd5b600080fd5b634e487b7160e01b600052604160045260246000fd5b51906001600160a01b0382168203620001195756fe60808060405260043610156200001f575b5036156200001d57600080fd5b005b600090813560e01c9081630bd67e8e146200224b575080631f69565f146200204d5780632a5c792a1462001f7f5780633ba7863f1462001f4e578063469048401462001f2357806349a2104d1462001eff578063560d52d41462000f34578063634282af1462001eb6578063715018a61462001e555780638da5cb5b1462001e2a578063a076965914620014e9578063b5e90d4e14620014bb578063c464fe6514620010ce578063c9d88f2e146200109d578063caa245c21462001056578063d02641a0146200102c578063d0b7830b1462000f9f578063d3631fa51462000f7f578063d73792a91462000f60578063d7dadb171462000f3a578063da23eb631462000f34578063dd1b9c4a1462000f15578063e48603391462000dfb578063e74b981b1462000d70578063ec7dd4211462000d3a578063ec8ac4d81462000232578063f2fde38b14620001a05763fcfc0c09036200001057346200019d57806003193601126200019d5760206040516804563918244f4000008152f35b80fd5b50346200019d5760203660031901126200019d57620001be62002285565b620001c862002502565b6001600160a01b039081169081156200021957600154826001600160601b0360a01b821617600155167f8be0079c531659141344cd1fd0a4f28419497f9722a3daafe3b4186f6b6457e0600080a380f35b604051631e4fbdf760e01b815260048101849052602490fd5b5060203660031901126200019d576200024a62002285565b6200025462002553565b6001600160a01b03818116835260026020526040832054620002799116151562002577565b6001600160a01b038116825260026020526040822060060154620002a19060ff1615620025b6565b341562000d05576001600160a01b0381168252600260205260408220346064818102918204900362000c1857620002e86127108204620002e281346200262a565b6200262a565b91600481015492620002fb8482620029b5565b93841562000cca576b0295be96e6406697200000006200031c86836200252f565b1162000c8f57846200032e916200252f565b6004830155620003438160058401546200252f565b60058301556001600160a01b0385168652600360205260408620805490916200036c916200252f565b905560405163a9059cbb60e01b6020820152336024820152836044820152604481528060808101106001600160401b0360808301111762000c7b5760808101604052620003c3906001600160a01b03861662002638565b8480808060018060a01b03600186015416819061271088041562000c70575b612710880491f11562000c65576804563918244f400000926200040d6127106005940484546200252f565b83556200041e600483015462002932565b60408051348152602081019390935282015233906001600160a01b038616907f0a9521815fb3c5bc7dd6f4c9f89dc270322e46b945b104c18981f81c3f2cd1aa90606090a30154101562000475575b506001815580f35b6001600160a01b0381168252600260205260408220600601805460ff1662000c2c576001600160a01b0382168352600360205260408320546801f399b1438a0fffff1981019190821162000c18576001600160a01b0383163b1562000bf3576040516322a3148f60e21b81528481600481836001600160a01b0389165af1801562000bac5762000c02575b507f00000000000000000000000000000000000000000000000000000000000000006001600160a01b03163b1562000bf357604051630d0e30db60e41b815284908181600481877f00000000000000000000000000000000000000000000000000000000000000006001600160a01b03165af1801562000bf75762000bdb575b505060405163095ea7b360e01b815273f6ad3ccf71abb3e12becf6b3d2a74c963859adcd60048201526aa56fa5b99019a5c80000006024820152602081604481886001600160a01b0389165af1801562000bac5762000bb7575b5060405163095ea7b360e01b815273f6ad3ccf71abb3e12becf6b3d2a74c963859adcd600482015260248101839052602081604481887f00000000000000000000000000000000000000000000000000000000000000006001600160a01b03165af1801562000bac5762000b76575b506001600160a01b037f0000000000000000000000000000000000000000000000000000000000000000811690841610801562000b4e5783905b1562000b47577f00000000000000000000000000000000000000000000000000000000000000005b600160601b606085901b85158682048314171562000b33576aa56fa5b99019a5c8000000900490818060601b04148115171562000b1f576001600160a01b0390620006f99060601b620026be565b6040516309f56ab160e11b81526001600160a01b03858116600483015284166024820152610bb86044820152911660648201526020816084818a73f6ad3ccf71abb3e12becf6b3d2a74c963859adcd5af187918162000ad0575b50620007965760405162461bcd60e51b815260206004820152601560248201527411985a5b1959081d1bc818dc99585d19481c1bdbdb605a1b6044820152606490fd5b936001600160a01b038681169084160362000ac9576aa56fa5b99019a5c80000005b6001600160a01b038781169085160362000ab65781905b6001600160a01b038881169086160362000aaf576aa56fa5b99019a5c8000000925b83605f810204605f148415171562000a87576001600160a01b038981169087160362000a9b57935b84605f810204605f148515171562000a875761012c4201421162000a8757605f93606495938693869360405199620008518b6200234f565b60018060a01b03168a5260018060a01b031660208a0152610bb860408a0152620d89b31960608a0152620d89b460808a015260a089015260c0880152020460e0850152020461010082015261dead61012082015261012c420161014082015261014060405191634418b22b60e11b835260018060a01b03815116600484015260018060a01b03602082015116602484015262ffffff6040820151166044840152606081015160020b6064840152608081015160020b608484015260a081015160a484015260c081015160c484015260e081015160e484015261010081015161010484015260018060a01b03610120820151166101248401520151610144820152608081610164818873f6ad3ccf71abb3e12becf6b3d2a74c963859adcd5af1908162000a2d575b50620009c35760405162461bcd60e51b815260206004820152601760248201527f4661696c656420746f20616464206c69717569646974790000000000000000006044820152606490fd5b805460ff191660011790556001600160a01b039182168084526003602090815260408086206801f399b1438a100000908190559051908152929093169290917f70b5b5b20b694c936694a8281642d8b82f708ee091bbc31c6223383d5724cb419190a3386200046d565b6080813d60801162000a7e575b8162000a496080938362002396565b8101031262000a7a57602001516fffffffffffffffffffffffffffffffff81160362000a76573862000978565b8480fd5b8580fd5b3d915062000a3a565b634e487b7160e01b8a52601160045260248afd5b506aa56fa5b99019a5c80000009362000819565b82620007f1565b6aa56fa5b99019a5c800000090620007cf565b80620007b8565b9091506020813d60201162000b16575b8162000aef6020938362002396565b8101031262000b1257516001600160a01b038116810362000b1257903862000753565b8780fd5b3d915062000ae0565b634e487b7160e01b87526011600452602487fd5b634e487b7160e01b88526011600452602488fd5b83620006ab565b7f00000000000000000000000000000000000000000000000000000000000000009062000683565b62000b9c9060203d60201162000ba4575b62000b93818362002396565b810190620026a4565b503862000649565b503d62000b87565b6040513d87823e3d90fd5b62000bd39060203d60201162000ba45762000b93818362002396565b5038620005da565b62000be69062002382565b62000bf357833862000580565b8380fd5b6040513d84823e3d90fd5b62000c109094919462002382565b923862000500565b634e487b7160e01b84526011600452602484fd5b60405162461bcd60e51b8152602060048201526011602482015270105b1c9958591e4819dc98591d585d1959607a1b6044820152606490fd5b6040513d86823e3d90fd5b6108fc9150620003e2565b634e487b7160e01b86526041600452602486fd5b60405162461bcd60e51b8152602060048201526013602482015272115e18d959591cc818dd5c9d99481b1a5b5a5d606a1b6044820152606490fd5b60405162461bcd60e51b81526020600482015260136024820152724e6f20746f6b656e7320617661696c61626c6560681b6044820152606490fd5b60405162461bcd60e51b815260206004820152600d60248201526c26bab9ba1039b2b7321027a5a160991b6044820152606490fd5b50346200019d5760403660031901126200019d57602062000d6862000d5e62002285565b60243590620027e7565b604051908152f35b50346200019d5760203660031901126200019d5762000d8e62002285565b62000d9862002502565b6001600160a01b0316801562000dbe576001600160601b0360a01b600654161760065580f35b60405162461bcd60e51b8152602060048201526015602482015274125b9d985b1a5908199959481c9958da5c1a595b9d605a1b6044820152606490fd5b50346200019d5760203660031901126200019d576001600160a01b03908162000e2362002285565b16815260026020526040902090808254169060018301541691600281015490600381015460048201546005830154600684015460ff16906007850162000e699062002450565b9262000e786008870162002450565b9462000e876009880162002450565b96600a0162000e969062002450565b976040519a8b9a8b5260208b015260408a01526060890152608088015260a0870152151560c08601526101608060e0870152850162000ed591620022a1565b84810361010086015262000ee991620022a1565b83810361012085015262000efd91620022a1565b82810361014084015262000f1191620022a1565b0390f35b50346200019d57806003193601126200019d576020604051610bb88152f35b620022e3565b50346200019d57806003193601126200019d5760206040516801f399b1438a1000008152f35b50346200019d57806003193601126200019d5760206040516127108152f35b50346200019d57806003193601126200019d576020600554604051908152f35b50346200019d57806003193601126200019d5762000fbc62002502565b600554801562000ff15781808080938160055560018060a01b036006541682f11562000fe55780f35b604051903d90823e3d90fd5b60405162461bcd60e51b81526020600482015260136024820152724e6f206665657320746f20776974686472617760681b6044820152606490fd5b50346200019d5760203660031901126200019d57602062000d686200105062002285565b62002710565b50346200019d57806003193601126200019d576040517f00000000000000000000000000000000000000000000000000000000000000006001600160a01b03168152602090f35b50346200019d57806003193601126200019d57602060405173d2480162aa7f02ead7bf4c127465446150d584528152f35b50346200019d5760403660031901126200019d57620010ec62002285565b6024803591620010fb62002553565b60018060a01b0380911691828552602090600282526200112383604088205416151562002577565b838652600282526200114060ff60066040892001541615620025b6565b841562001478576040516370a0823160e01b815233600482015282818381885afa80156200146d578691889162001432575b5010620013f8578386526002825260408620926004840193845493848811620013b557620011a1858962002a36565b9384156200137e57878a526003825260408a205485116200133b57606485028581046064036200132857612710900494620011ee8a620011e788620002e281866200262a565b986200262a565b885560058401620012018282546200262a565b9055888b52600383526200121b60408c209182546200262a565b9055604051916323b872dd60e01b9083015233818301523060448301528860648301526064825260a08201908282106001600160401b03831117620013165750899392916200126e916040528862002638565b82808680156200130b575b8280929181923390f11562000bf757828481936001839401541682821562001301575bf11562000bac577f9387a595ac4be9038bbb9751abad8baa3dcf219dd9e19abb81552bd521fe354692620012d7620012e1926005546200252f565b6005555462002932565b604080519586526020860192909252908401523392606090a36001815580f35b506108fc6200129c565b6108fc915062001279565b634e487b7160e01b8b5260416004528afd5b50634e487b7160e01b8a52601160045289fd5b9060186064926040519262461bcd60e51b845260048401528201527f496e73756666696369656e74204f4b4220696e20706f6f6c00000000000000006044820152fd5b9060116064926040519262461bcd60e51b84526004840152820152704e6f204f4b4220746f207265636569766560781b6044820152fd5b606490601a856040519262461bcd60e51b845260048401528201527f43616e6e6f742073656c6c206d6f7265207468616e20736f6c640000000000006044820152fd5b9060146064926040519262461bcd60e51b8452600484015282015273496e73756666696369656e742062616c616e636560601b6044820152fd5b809250848092503d831162001465575b6200144e818362002396565b8101031262001461578590513862001172565b8680fd5b503d62001442565b6040513d89823e3d90fd5b9060196064926040519262461bcd60e51b845260048401528201527f4d7573742073656c6c20706f73697469766520616d6f756e74000000000000006044820152fd5b50346200019d5760403660031901126200019d57602062000d68620014df62002285565b6024359062002890565b5060803660031901126200019d576004356001600160401b03811162001e265762001519903690600401620023b8565b6024356001600160401b03811162001e22576200153b903690600401620023b8565b906044356001600160401b03811162000bf3576200155e903690600401620023b8565b6064356001600160401b03811162000a765762001580903690600401620023b8565b906200158b62002553565b66038d7ea4c68000341062001ddd57825115158062001dd2575b1562001d9457604051611b78808201908282106001600160401b0383111762001d805790829162002a7d833960c081526200161d6200160e620015ff620015f060c085018a620022a1565b84810360208601528a620022a1565b838103604085015286620022a1565b828103606084015286620022a1565b9033608082015260a030910152039086f093841562000bac5760405163902d55a560e01b81526020816004816001600160a01b038a165afa9081156200146d57879162001d48575b506040519062001675826200234f565b60018060a01b038716825233602083015242604083015260608201528660808201528660a08201528660c08201528460e082015281610100820152826101208201528361014082015260018060a01b03861687526002602052604087209060018060a01b038151166001600160601b0360a01b8354161782556001820160018060a01b036020830151166001600160601b0360a01b82541617905560408101516002830155606081015160038301556080810151600483015560a081015160058301556006820160c0820151151560ff8019835416911617905560e08101518051906001600160401b03821162001b8857819062001777600786015462002413565b601f811162001cf2575b50602090601f831160011462001c7e578b9262001c72575b50508160011b916000199060031b1c19161760078301555b6101008101518051906001600160401b03821162001b88578190620017da600886015462002413565b601f811162001c1c575b50602090601f831160011462001ba8578b9262001b9c575b50508160011b916000199060031b1c19161760088301555b6101208101518051906001600160401b03821162001b88576200183b600985015462002413565b601f811162001b3e575b50602090601f831160011462001ac8576101409392918b918362001abc575b50508160011b916000199060031b1c19161760098401555b01518051906001600160401b03821162001aa8576200189f600a84015462002413565b601f811162001a5f575b50602090601f8311600114620019ed57600a92918a9183620019e1575b50508160011b916000199060031b1c1916179101555b60045468010000000000000000811015620019cd57620019986001959362001989602099969462001934858a7fbf7c04c85cf6065fe470bdd2e5f178d16c57630df24f464a6e1c297aab97872b970160045562002301565b81549060031b908b8060a01b038d16821b918c8060a01b03901b191617905562001961346005546200252f565b6005556200197b60405197608089526080890190620022a1565b908782038c890152620022a1565b908582036040870152620022a1565b92808403606082015280620019b73395888060a01b038a1695620022a1565b0390a3556040516001600160a01b039091168152f35b634e487b7160e01b87526041600452602487fd5b015190503880620018c6565b90600a84018a5260208a20918a5b601f198516811062001a465750918391600193600a95601f1981161062001a2c575b505050811b01910155620018dc565b015160001960f88460031b161c1916905538808062001a1d565b91926020600181928685015181550194019201620019fb565b600a84018a5260208a20601f840160051c81016020851062001aa0575b601f830160051c8201811062001a94575050620018a9565b8b815560010162001a7c565b508062001a7c565b634e487b7160e01b89526041600452602489fd5b01519050388062001864565b90600985018b5260208b20918b5b601f198516811062001b2557509183916001936101409695601f1981161062001b0b575b505050811b0160098401556200187c565b015160001960f88460031b161c1916905538808062001afa565b9192602060018192868501518155019401920162001ad6565b600985018b5260208b20601f840160051c81016020851062001b80575b8c601f840160051c8301821062001b755750505062001845565b815560010162001b5b565b508062001b5b565b634e487b7160e01b8a52604160045260248afd5b015190503880620017fc565b9250600885018b5260208b20908b935b601f198416851062001c00576001945083601f1981161062001be6575b505050811b01600883015562001814565b015160001960f88460031b161c1916905538808062001bd5565b8181015183556020948501946001909301929091019062001bb8565b909150600885018b5260208b20601f840160051c81016020851062001c6a575b90849392915b8d601f840160051c8301821062001c5c57505050620017e4565b815585945060010162001c42565b508062001c3c565b01519050388062001799565b9250600785018b5260208b20908b935b601f198416851062001cd6576001945083601f1981161062001cbc575b505050811b016007830155620017b1565b015160001960f88460031b161c1916905538808062001cab565b8181015183556020948501946001909301929091019062001c8e565b909150600785018b5260208b20601f840160051c81016020851062001d40575b90849392915b8d601f840160051c8301821062001d325750505062001781565b815585945060010162001d18565b508062001d12565b90506020813d60201162001d77575b8162001d666020938362002396565b810103126200146157513862001665565b3d915062001d57565b634e487b7160e01b88526041600452602488fd5b60405162461bcd60e51b8152602060048201526016602482015275125b9d985b1a59081b985b59481bdc881cde5b589bdb60521b6044820152606490fd5b5083511515620015a5565b60405162461bcd60e51b815260206004820152601960248201527f496e73756666696369656e74206372656174696f6e20666565000000000000006044820152606490fd5b8280fd5b5080fd5b50346200019d57806003193601126200019d576001546040516001600160a01b039091168152602090f35b50346200019d57806003193601126200019d5762001e7262002502565b600180546001600160a01b0319811690915581906001600160a01b03167f8be0079c531659141344cd1fd0a4f28419497f9722a3daafe3b4186f6b6457e08280a380f35b50346200019d5760203660031901126200019d57600435906004548210156200019d57602062001ee68362002301565b905460405160039290921b1c6001600160a01b03168152f35b50346200019d57806003193601126200019d57602060405166038d7ea4c680008152f35b50346200019d57806003193601126200019d576006546040516001600160a01b039091168152602090f35b50346200019d57806003193601126200019d57602060405173f6ad3ccf71abb3e12becf6b3d2a74c963859adcd8152f35b50346200019d57806003193601126200019d5760405180916004549081835260208093018092600483527f8a35acfbc15ff81a39ae7d344fd709f28e8600b4aa8c65c6b64bfe7fe36bd19b90835b8181106200202f575050508462001fe691038562002396565b60405193838594850191818652518092526040850193925b8281106200200e57505050500390f35b83516001600160a01b03168552869550938101939281019260010162001ffe565b82546001600160a01b03168452928601926001928301920162001fcd565b50346200019d5760203660031901126200019d57604062000f11916200207262002285565b6060610140845162002084816200234f565b848152846020820152848682015284838201528460808201528460a08201528460c08201528260e08201528261010082015282610120820152015260018060a01b0316815260026020522062002177600a60405192620020e4846200234f565b80546001600160a01b0390811685526001820154166020850152600281015460408501526003810154606085015260048101546080850152600581015460a0850152600681015460ff16151560c0850152620021436007820162002450565b60e0850152620021566008820162002450565b6101008501526200216a6009820162002450565b6101208501520162002450565b6101408201526040519182916020835260018060a01b03815116602084015260018060a01b0360208201511660408401526040810151606084015260608101516080840152608081015160a084015260a081015160c084015260c0810151151560e084015260e0810151620021fc6101609182610100870152610180860190620022a1565b90610140620022396200222461010086015194601f1995868a8303016101208b0152620022a1565b6101208601518589830301848a0152620022a1565b930151918584030190850152620022a1565b90503462001e2657602036600319011262001e26576020916040906001600160a01b036200227862002285565b1681526003845220548152f35b600435906001600160a01b03821682036200229c57565b600080fd5b919082519283825260005b848110620022ce575050826000602080949584010152601f8019910116010190565b602081830181015184830182015201620022ac565b346200229c5760003660031901126200229c57602060405160648152f35b600454811015620023395760046000527f8a35acfbc15ff81a39ae7d344fd709f28e8600b4aa8c65c6b64bfe7fe36bd19b0190600090565b634e487b7160e01b600052603260045260246000fd5b61016081019081106001600160401b038211176200236c57604052565b634e487b7160e01b600052604160045260246000fd5b6001600160401b0381116200236c57604052565b90601f801991011681019081106001600160401b038211176200236c57604052565b81601f820112156200229c578035906001600160401b0382116200236c5760405192620023f0601f8401601f19166020018562002396565b828452602083830101116200229c57816000926020809301838601378301015290565b90600182811c9216801562002445575b60208310146200242f57565b634e487b7160e01b600052602260045260246000fd5b91607f169162002423565b9060405191826000825492620024668462002413565b908184526001948581169081600014620024dd575060011462002496575b5050620024949250038362002396565b565b9093915060005260209081600020936000915b818310620024c4575050620024949350820101388062002484565b85548884018501529485019487945091830191620024a9565b9150506200249494506020925060ff191682840152151560051b820101388062002484565b6001546001600160a01b031633036200251757565b60405163118cdaa760e01b8152336004820152602490fd5b919082018092116200253d57565b634e487b7160e01b600052601160045260246000fd5b60026000541462002565576002600055565b604051633ee5aeb560e01b8152600490fd5b156200257f57565b60405162461bcd60e51b815260206004820152600f60248201526e151bdad95b881b9bdd08199bdd5b99608a1b6044820152606490fd5b15620025be57565b60405162461bcd60e51b815260206004820152600f60248201526e151bdad95b8819dc98591d585d1959608a1b6044820152606490fd5b818102929181159184041417156200253d57565b811562002614570490565b634e487b7160e01b600052601260045260246000fd5b919082039182116200253d57565b906000602091828151910182855af11562002698576000513d6200268e57506001600160a01b0381163b155b6200266c5750565b604051635274afe760e01b81526001600160a01b039091166004820152602490fd5b6001141562002664565b6040513d6000823e3d90fd5b908160209103126200229c575180151581036200229c5790565b80156200270a5760018082018083116200253d57811c90825b838310620026e55750505090565b909192506200270083620026fa818462002609565b6200252f565b821c9190620026d7565b50600090565b60018060a01b03809116600052600260205260406000206040519162002736836200234f565b8082541683526001820154166020830152600281015460408301526003810154606083015260048101549160808101928352600582015460a0820152610140620027cf600a60ff6006860154169460c0850195151586526200279b6007820162002450565b60e0860152620027ae6008820162002450565b610100860152620027c26009820162002450565b6101208601520162002450565b910152516200270a57620027e4905162002932565b90565b9060018060a01b0380921660005260026020526040600020604051926200280e846200234f565b8082541684526001820154166020840152600281015460408401526003810154606084015260048101549260808101938452600582015460a082015261014062002873600a60ff6006860154169460c0850195151586526200279b6007820162002450565b910152516200288957620027e4915190620029b5565b5050600090565b9060018060a01b038092166000526002602052604060002060405192620028b7846200234f565b8082541684526001820154166020840152600281015460408401526003810154606084015260048101549260808101938452600582015460a08201526101406200291c600a60ff6006860154169460c0850195151586526200279b6007820162002450565b910152516200288957620027e491519062002a36565b6b0295be96e640669720000000811015620029875762002952906200298e565b80156200297f57670de0b6b3a7640000918281029281840414901517156200253d57620027e49162002609565b505060001990565b5060001990565b906801a055690d9db80000916b037790968dc8efffd10000009081039081116200253d5790565b6b0295be96e640669720000000908183101562002a2e57620029f362002a0062002a0792620029fa620029e8876200298e565b94819386926200252f565b92620025f5565b62002609565b906200262a565b918162002a1584836200252f565b1162002a2057505090565b8103915081116200253d5790565b505050600090565b8115801562002a72575b620028895762002a0062002a6a620029fa62002a60620027e4956200298e565b929094836200252f565b9184620025f5565b5081811162002a4056fe604060c08152346200075b5762001b78803803806200001e8162000760565b928339810160c0828203126200075b5781516001600160401b0392908381116200075b57826200005091830162000786565b91602092838301518581116200075b57826200006e91850162000786565b94868401518181116200075b57836200008991860162000786565b926060850151908282116200075b57620000a591860162000786565b92620000c260a0620000ba60808801620007f8565b9601620007f8565b9383519083821162000658576003928354926001968785811c9516801562000750575b8b8610146200073a5781908b601f96878111620006e1575b50508b908683116001146200067a576000926200066e575b505060001982871b1c191690871b1784555b8951858111620006585760049a8b548881811c911680156200064d575b8c8210146200053557908b8287859411620005f4575b50508b908683116001146200058d5760009262000581575b505060001982871b1c191690871b178a555b6001600160a01b039788169081156200056a57600580546001600160a01b03198116841782559092908a167f8be0079c531659141344cd1fd0a4f28419497f9722a3daafe3b4186f6b6457e0600080a380519086821162000555576006548881811c911680156200054a575b8c8210146200053557908b8287859411620004dd575b50508b90868311600114620004725760009262000466575b505060001982871b1c191690871b176006555b81519485116200045157600754908682811c9216801562000446575b8a8310146200043157838211620003e7575b5050879184116001146200037a579383949184926000956200036e575b50501b92600019911b1c1916176007555b806080523360a0521691821562000357576002546b033b2e3c9fd0803ce80000009182820180921162000342575060025560008381528083528481208054830190558451918252917fddf252ad1be2c89b69c2b068fc378daa952ba7f163c4a11628f55a4df523b3ef91a35161136a90816200080e823960805181818161054701528181610b9e01528181610ec20152611081015260a051818181610363015281816105bd0152818161060f0152610c840152f35b601190634e487b7160e01b6000525260246000fd5b602490600085519163ec442f0560e01b8352820152fd5b0151935038806200027c565b9190601f19841692600760005284896000209460005b8b89838310620003cf5750505010620003b4575b50505050811b016007556200028d565b01519060f884600019921b161c1916905538808080620003a4565b86860151895590970196948501948893500162000390565b6007600052896000209084808801821c8301938c891062000427575b01901c019086905b8281106200041a57506200025f565b600081550186906200040b565b9350829362000403565b60228b634e487b7160e01b6000525260246000fd5b91607f16916200024d565b60418a634e487b7160e01b6000525260246000fd5b0151905038806200021e565b899350908c91601f198416600660005283600020936000905b828210620004c55750508411620004ac575b505050811b0160065562000231565b015160001983891b60f8161c191690553880806200049d565b8385015186558d979095019493840193018f6200048b565b909192506006600052868260002091818601871c83019386106200052b575b918b918695949301871c01915b8281106200051b57508d915062000206565b600081558594508b910162000509565b92508192620004fc565b60228d634e487b7160e01b6000525260246000fd5b90607f1690620001f0565b60418c634e487b7160e01b6000525260246000fd5b8b51631e4fbdf760e01b81526000818d0152602490fd5b01519050388062000172565b60008e81528d81208b9550929190601f198516908f5b828210620005dc5750508411620005c3575b505050811b018a5562000184565b015160001983891b60f8161c19169055388080620005b5565b8385015186558d979095019493840193018f620005a3565b909192508d60005286826000209181860160051c830193861062000643575b918b91869594930160051c01915b8281106200063357508d91506200015a565b600081558594508b910162000621565b9250819262000613565b90607f169062000144565b634e487b7160e01b600052604160045260246000fd5b01519050388062000115565b60008881528d81208b9550929190601f198516908f5b828210620006c95750508411620006b0575b505050811b01845562000127565b015160001983891b60f8161c19169055388080620006a2565b8385015186558d979095019493840193018f62000690565b909192508760005286826000209181860160051c830193861062000730575b918b91869594930160051c01915b8281106200072057508d9150620000fd565b600081558594508b91016200070e565b9250819262000700565b634e487b7160e01b600052602260045260246000fd5b94607f1694620000e5565b600080fd5b6040519190601f01601f191682016001600160401b038111838210176200065857604052565b919080601f840112156200075b5782516001600160401b0381116200065857602090620007bc601f8201601f1916830162000760565b928184528282870101116200075b5760005b818110620007e457508260009394955001015290565b8581018301518482018401528201620007ce565b51906001600160a01b03821682036200075b5756fe608060408181526004918236101561001657600080fd5b600092833560e01c91826302669b5214610eae5750816306fdde0314610e04578163095ea7b314610dda57816318160ddd14610dbb57816323b872dd14610cc7578163313ce56714610cab57816340c10f1914610b7257816342966c6814610b545781634ada218b14610b3057816356ce0e6c1461083d57816370a0823114610806578163715018a6146107a65781637284e416146106fc57816379cc6790146105e65781638a8c523c146105265781638da5cb5b146104fd578163902d55a5146104d657816395d89b4114610401578163a9059cbb146103d0578163aa2fe91b14610392578163c45a01551461034e578163dd62ed3e14610305578163ed58bad8146102af578163f2fde38b1461021b575063fc04b5e11461013857600080fd5b346102175781600319360112610217578051908260065461015881611026565b808552916001918083169081156101ef5750600114610192575b5050506101848261018e940383610f6b565b5191829182610ef1565b0390f35b9450600685527ff652222313e28459528d920b65115c16c04f3efc82aaedc97be59f3f377c0d3f5b8286106101d75750505061018482602061018e9582010194610172565b805460208787018101919091529095019481016101ba565b61018e97508693506020925061018494915060ff191682840152151560051b82010194610172565b5080fd5b9050346102ab5760203660031901126102ab57610236610f3a565b9061023f610ffa565b6001600160a01b03918216928315610295575050600554826bffffffffffffffffffffffff60a01b821617600555167f8be0079c531659141344cd1fd0a4f28419497f9722a3daafe3b4186f6b6457e08380a380f35b51631e4fbdf760e01b8152908101849052602490fd5b8280fd5b5050346102175780600319360112610217576102c9610f3a565b9060243591821515809303610301576102e0610ffa565b60018060a01b03168352600960205282209060ff8019835416911617905580f35b8380fd5b50503461021757806003193601126102175780602092610323610f3a565b61032b610f55565b6001600160a01b0391821683526001865283832091168252845220549051908152f35b505034610217578160031936011261021757517f00000000000000000000000000000000000000000000000000000000000000006001600160a01b03168152602090f35b5050346102175760203660031901126102175760209160ff9082906001600160a01b036103bd610f3a565b1681526009855220541690519015158152f35b5050346102175780600319360112610217576020906103fa6103f0610f3a565b6024359033611060565b5160018152f35b919050346102ab57826003193601126102ab578051918381549061042482611026565b808652926001928084169081156104ab575060011461044f575b61018e8686610184828b0383610f6b565b815294507f8a35acfbc15ff81a39ae7d344fd709f28e8600b4aa8c65c6b64bfe7fe36bd19b5b8286106104935750505061018482602061018e95820101943861043e565b80546020878701810191909152909501948101610475565b905061018e97508693506020925061018494915060ff191682840152151560051b820101943861043e565b505034610217578160031936011261021757602090516b033b2e3c9fd0803ce80000008152f35b50503461021757816003193601126102175760055490516001600160a01b039091168152602090f35b5050346102175781600319360112610217576105869060018060a01b0390817f00000000000000000000000000000000000000000000000000000000000000001633149182156105ba575b82156105ac575b508115610596575b506112f7565b600160ff19600854161760085580f35b60ff915033845260096020528320541638610580565b600554163314915038610578565b337f00000000000000000000000000000000000000000000000000000000000000008216149250610571565b838334610217578060031936011261021757610600610f3a565b602435916001600160a01b03337f000000000000000000000000000000000000000000000000000000000000000082161415806106ee575b61064b575b846106488585611258565b80f35b82168452600160205280842033855260205280842054908382106106a0575082810390811161068d576106489394506106859033836111c5565b83928561063d565b634e487b7160e01b845260118552602484fd5b5162461bcd60e51b81526020818701526024808201527f45524332303a206275726e20616d6f756e74206578636565647320616c6c6f77604482015263616e636560e01b6064820152608490fd5b508060055416331415610638565b5050346102175781600319360112610217578051908260075461071e81611026565b808552916001918083169081156101ef5750600114610749575050506101848261018e940383610f6b565b9450600785527fa66cc928b5edb82af9bd49922954155ab7b0942694bea4ce44661d9a8736c6885b82861061078e5750505061018482602061018e9582010194610172565b80546020878701810191909152909501948101610771565b83346108035780600319360112610803576107bf610ffa565b600580546001600160a01b0319811690915581906001600160a01b03167f8be0079c531659141344cd1fd0a4f28419497f9722a3daafe3b4186f6b6457e08280a380f35b80fd5b5050346102175760203660031901126102175760209181906001600160a01b0361082e610f3a565b16815280845220549051908152f35b838334610217573660031901126108035767ffffffffffffffff82358181116102ab5761086d9036908501610fa3565b92602435828111610301576108859036908301610fa3565b9061088e610ffa565b8451838111610b1d57806108a3600654611026565b96601f97888111610ab1575b50602090888311600114610a2e578792610a23575b50508160011b916000199060031b1c1916176006555b8151928311610a1057506108ef600754611026565b8481116109b0575b50602093821160011461093257928293829392610927575b50508160011b916000199060031b1c19161760075580f35b01519050838061090f565b60078352601f198216937fa66cc928b5edb82af9bd49922954155ab7b0942694bea4ce44661d9a8736c68891845b868110610998575083600195961061097f575b505050811b0160075580f35b015160001960f88460031b161c19169055838080610973565b91926020600181928685015181550194019201610960565b600784527fa66cc928b5edb82af9bd49922954155ab7b0942694bea4ce44661d9a8736c6888580850160051c82019260208610610a07575b0160051c01905b8181106109fc57506108f7565b8481556001016109ef565b925081926109e8565b634e487b7160e01b845260419052602483fd5b0151905087806108c4565b600688527ff652222313e28459528d920b65115c16c04f3efc82aaedc97be59f3f377c0d3f9250601f198416885b818110610a995750908460019594939210610a80575b505050811b016006556108da565b015160001960f88460031b161c19169055878080610a72565b92936020600181928786015181550195019301610a5c565b909150600687527ff652222313e28459528d920b65115c16c04f3efc82aaedc97be59f3f377c0d3f8880850160051c82019260208610610b14575b9085949392910160051c01905b818110610b0657506108af565b888155849350600101610af9565b92508192610aec565b634e487b7160e01b855260418252602485fd5b50503461021757816003193601126102175760209060ff6008541690519015158152f35b83903461021757602036600319011261021757610648903533611258565b919050346102ab57806003193601126102ab57610b8d610f3a565b60243591906001600160a01b0390337f00000000000000000000000000000000000000000000000000000000000000008316148015610c80575b8015610c73575b8015610c5e575b610bde906112f7565b16928315610c495760025490838201809211610c36575084927fddf252ad1be2c89b69c2b068fc378daa952ba7f163c4a11628f55a4df523b3ef9260209260025585855284835280852082815401905551908152a380f35b634e487b7160e01b865260119052602485fd5b84602492519163ec442f0560e01b8352820152fd5b5033865260096020528286205460ff16610bd5565b5081600554163314610bce565b50817f0000000000000000000000000000000000000000000000000000000000000000163314610bc7565b5050346102175781600319360112610217576020905160128152f35b9050823461080357606036600319011261080357610ce3610f3a565b610ceb610f55565b916044359360018060a01b038316808352600160205286832033845260205286832054916000198310610d27575b6020886103fa898989611060565b868310610d8f578115610d78573315610d61575082526001602090815286832033845281529186902090859003905582906103fa87610d19565b8751634a1406b160e11b8152908101849052602490fd5b875163e602df0560e01b8152908101849052602490fd5b8751637dc7a0d960e11b8152339181019182526020820193909352604081018790528291506060010390fd5b5050346102175781600319360112610217576020906002549051908152f35b5050346102175780600319360112610217576020906103fa610dfa610f3a565b60243590336111c5565b50503461021757816003193601126102175780519082600354610e2681611026565b808552916001918083169081156101ef5750600114610e51575050506101848261018e940383610f6b565b9450600385527fc2575a0e9e593c00f959f8c92f12db2869c3395a3b0502d05e2516446f71f85b5b828610610e965750505061018482602061018e9582010194610172565b80546020878701810191909152909501948101610e79565b8490346102175781600319360112610217577f00000000000000000000000000000000000000000000000000000000000000006001600160a01b03168152602090f35b6020808252825181830181905290939260005b828110610f2657505060409293506000838284010152601f8019910116010190565b818101860151848201604001528501610f04565b600435906001600160a01b0382168203610f5057565b600080fd5b602435906001600160a01b0382168203610f5057565b90601f8019910116810190811067ffffffffffffffff821117610f8d57604052565b634e487b7160e01b600052604160045260246000fd5b81601f82011215610f505780359067ffffffffffffffff8211610f8d5760405192610fd8601f8401601f191660200185610f6b565b82845260208383010111610f5057816000926020809301838601378301015290565b6005546001600160a01b0316330361100e57565b60405163118cdaa760e01b8152336004820152602490fd5b90600182811c92168015611056575b602083101461104057565b634e487b7160e01b600052602260045260246000fd5b91607f1691611035565b6001600160a01b03928382169290919083156111ac578416938415611193577f000000000000000000000000000000000000000000000000000000000000000016808414159081611188575b50611143575b60009083825281602052604082205490838210611111575091604082827fddf252ad1be2c89b69c2b068fc378daa952ba7f163c4a11628f55a4df523b3ef958760209652828652038282205586815220818154019055604051908152a3565b60405163391434e360e21b81526001600160a01b03919091166004820152602481019190915260448101839052606490fd5b60ff600854166110b25760405162461bcd60e51b8152602060048201526013602482015272151c98591a5b99c81b9bdd08195b98589b1959606a1b6044820152606490fd5b9050841415386110ac565b60405163ec442f0560e01b815260006004820152602490fd5b604051634b637e8f60e11b815260006004820152602490fd5b6001600160a01b0390811691821561123f57169182156112265760207f8c5be1e5ebec7d5bd14f71427d1e84f3dd0314c0f7b2291e5b200ac8c7c3b925918360005260018252604060002085600052825280604060002055604051908152a3565b604051634a1406b160e11b815260006004820152602490fd5b60405163e602df0560e01b815260006004820152602490fd5b906001600160a01b0382169081156111ac57600092828452836020526040842054908282106112c55750817fddf252ad1be2c89b69c2b068fc378daa952ba7f163c4a11628f55a4df523b3ef926020928587528684520360408620558060025403600255604051908152a3565b60405163391434e360e21b81526001600160a01b03919091166004820152602481019190915260448101829052606490fd5b156112fe57565b60405162461bcd60e51b815260206004820152600e60248201526d139bdd08185d5d1a1bdc9a5e995960921b6044820152606490fdfea264697066735822122018623635a3fe5e0fb096acad7db31d8dba84cb658fd8741074fad014ce0235b364736f6c63430008140033a2646970667358221220476e8f4d6c55b4538bf68c54de46127f8ef00d29daf208e444a312cd84a6707064736f6c63430008140033",
  "linkReferences": {},
  "deployedLinkReferences": {}
}