{"contracts/FeeManager.sol":{"FeeManager":{"abi":[{"inputs":[{"internalType":"address","name":"_registry","type":"address"},{"internalType":"address","name":"_treasury","type":"address"}],"stateMutability":"nonpayable","type":"constructor"},{"inputs":[{"internalType":"address","name":"owner","type":"address"}],"name":"OwnableInvalidOwner","type":"error"},{"inputs":[{"internalType":"address","name":"account","type":"address"}],"name":"OwnableUnauthorizedAccount","type":"error"},{"inputs":[],"name":"ReentrancyGuardReentrantCall","type":"error"},{"anonymous":false,"inputs":[{"indexed":true,"internalType":"address","name":"token","type":"address"},{"indexed":true,"internalType":"address","name":"from","type":"address"},{"indexed":false,"internalType":"uint256","name":"amount","type":"uint256"},{"indexed":false,"internalType":"string","name":"transactionType","type":"string"}],"name":"FeeCollected","type":"event"},{"anonymous":false,"inputs":[{"indexed":true,"internalType":"address","name":"previousOwner","type":"address"},{"indexed":true,"internalType":"address","name":"newOwner","type":"address"}],"name":"OwnershipTransferred","type":"event"},{"anonymous":false,"inputs":[{"indexed":true,"internalType":"address","name":"user","type":"address"},{"indexed":false,"internalType":"uint256","name":"amount","type":"uint256"}],"name":"RewardsClaimed","type":"event"},{"anonymous":false,"inputs":[{"indexed":true,"internalType":"address","name":"token","type":"address"},{"indexed":true,"internalType":"address","name":"creator","type":"address"},{"indexed":false,"internalType":"uint256","name":"creatorAmount","type":"uint256"},{"indexed":false,"internalType":"uint256","name":"stakersAmount","type":"uint256"},{"indexed":false,"internalType":"uint256","name":"lpAmount","type":"uint256"}],"name":"RewardsDistributed","type":"event"},{"anonymous":false,"inputs":[{"indexed":true,"internalType":"address","name":"newTreasury","type":"address"}],"name":"TreasuryUpdated","type":"event"},{"inputs":[],"name":"CREATOR_FEE_PERCENT","outputs":[{"internalType":"uint256","name":"","type":"uint256"}],"stateMutability":"view","type":"function"},{"inputs":[],"name":"FEE_DENOMINATOR","outputs":[{"internalType":"uint256","name":"","type":"uint256"}],"stateMutability":"view","type":"function"},{"inputs":[],"name":"LP_FEE_PERCENT","outputs":[{"internalType":"uint256","name":"","type":"uint256"}],"stateMutability":"view","type":"function"},{"inputs":[],"name":"PLATFORM_FEE_PERCENT","outputs":[{"internalType":"uint256","name":"","type":"uint256"}],"stateMutability":"view","type":"function"},{"inputs":[],"name":"REFERRER_FEE_PERCENT","outputs":[{"internalType":"uint256","name":"","type":"uint256"}],"stateMutability":"view","type":"function"},{"inputs":[],"name":"STAKERS_FEE_PERCENT","outputs":[{"internalType":"uint256","name":"","type":"uint256"}],"stateMutability":"view","type":"function"},{"inputs":[{"internalType":"uint256","name":"amount","type":"uint256"}],"name":"calculateFeeDistribution","outputs":[{"components":[{"internalType":"uint256","name":"platformFee","type":"uint256"},{"internalType":"uint256","name":"creatorFee","type":"uint256"},{"internalType":"uint256","name":"stakersFee","type":"uint256"},{"internalType":"uint256","name":"liquidityProvidersFee","type":"uint256"},{"internalType":"uint256","name":"referrerFee","type":"uint256"}],"internalType":"struct FeeManager.FeeDistribution","name":"","type":"tuple"}],"stateMutability":"pure","type":"function"},{"inputs":[],"name":"claimRewards","outputs":[],"stateMutability":"nonpayable","type":"function"},{"inputs":[{"internalType":"address","name":"token","type":"address"},{"internalType":"address","name":"from","type":"address"},{"internalType":"uint256","name":"amount","type":"uint256"},{"internalType":"string","name":"transactionType","type":"string"}],"name":"collectFee","outputs":[],"stateMutability":"payable","type":"function"},{"inputs":[{"internalType":"address","name":"referrer","type":"address"},{"internalType":"uint256","name":"amount","type":"uint256"}],"name":"distributeReferrerReward","outputs":[],"stateMutability":"nonpayable","type":"function"},{"inputs":[{"internalType":"address","name":"token","type":"address"},{"internalType":"address","name":"tokenCreator","type":"address"},{"internalType":"address[]","name":"stakers","type":"address[]"},{"internalType":"address[]","name":"liquidityProviders","type":"address[]"}],"name":"distributeRewards","outputs":[],"stateMutability":"nonpayable","type":"function"},{"inputs":[],"name":"emergencyWithdraw","outputs":[],"stateMutability":"nonpayable","type":"function"},{"inputs":[{"internalType":"address","name":"user","type":"address"}],"name":"getPendingRewards","outputs":[{"internalType":"uint256","name":"","type":"uint256"}],"stateMutability":"view","type":"function"},{"inputs":[{"internalType":"address","name":"token","type":"address"}],"name":"getTokenFeeInfo","outputs":[{"internalType":"uint256","name":"totalCollected","type":"uint256"},{"internalType":"uint256","name":"creatorClaimed","type":"uint256"},{"internalType":"uint256","name":"platformClaimed","type":"uint256"}],"stateMutability":"view","type":"function"},{"inputs":[{"internalType":"address","name":"user","type":"address"},{"internalType":"address","name":"token","type":"address"}],"name":"getUserRewardInfo","outputs":[{"internalType":"uint256","name":"stakerRewards","type":"uint256"},{"internalType":"uint256","name":"lpRewards","type":"uint256"},{"internalType":"uint256","name":"referrerRewards","type":"uint256"}],"stateMutability":"view","type":"function"},{"inputs":[],"name":"owner","outputs":[{"internalType":"address","name":"","type":"address"}],"stateMutability":"view","type":"function"},{"inputs":[],"name":"registry","outputs":[{"internalType":"contract IRegistry","name":"","type":"address"}],"stateMutability":"view","type":"function"},{"inputs":[],"name":"renounceOwnership","outputs":[],"stateMutability":"nonpayable","type":"function"},{"inputs":[{"internalType":"address","name":"_treasury","type":"address"}],"name":"setTreasuryAddress","outputs":[],"stateMutability":"nonpayable","type":"function"},{"inputs":[{"internalType":"address","name":"","type":"address"}],"name":"tokenFees","outputs":[{"internalType":"uint256","name":"totalCollected","type":"uint256"},{"internalType":"uint256","name":"creatorClaimed","type":"uint256"},{"internalType":"uint256","name":"platformClaimed","type":"uint256"}],"stateMutability":"view","type":"function"},{"inputs":[],"name":"totalCreatorFees","outputs":[{"internalType":"uint256","name":"","type":"uint256"}],"stateMutability":"view","type":"function"},{"inputs":[],"name":"totalLPFees","outputs":[{"internalType":"uint256","name":"","type":"uint256"}],"stateMutability":"view","type":"function"},{"inputs":[],"name":"totalPlatformFees","outputs":[{"internalType":"uint256","name":"","type":"uint256"}],"stateMutability":"view","type":"function"},{"inputs":[],"name":"totalReferrerFees","outputs":[{"internalType":"uint256","name":"","type":"uint256"}],"stateMutability":"view","type":"function"},{"inputs":[],"name":"totalStakersFees","outputs":[{"internalType":"uint256","name":"","type":"uint256"}],"stateMutability":"view","type":"function"},{"inputs":[{"internalType":"address","name":"newOwner","type":"address"}],"name":"transferOwnership","outputs":[],"stateMutability":"nonpayable","type":"function"},{"inputs":[],"name":"treasuryAddress","outputs":[{"internalType":"address","name":"","type":"address"}],"stateMutability":"view","type":"function"},{"inputs":[{"internalType":"address","name":"","type":"address"}],"name":"userClaimedRewards","outputs":[{"internalType":"uint256","name":"","type":"uint256"}],"stateMutability":"view","type":"function"},{"inputs":[{"internalType":"address","name":"","type":"address"}],"name":"userTotalRewards","outputs":[{"internalType":"uint256","name":"","type":"uint256"}],"stateMutability":"view","type":"function"},{"inputs":[],"name":"withdrawPlatformFees","outputs":[],"stateMutability":"nonpayable","type":"function"},{"stateMutability":"payable","type":"receive"}],"evm":{"bytecode":{"linkReferences":{},"object":"6080346100e657601f61160638819003918201601f19168301916001600160401b038311848410176100eb5780849260409485528339810103126100e657610052602061004b83610101565b9201610101565b33156100cd5760008054336001600160a01b0319808316821784556040519590946001600160a01b03949093859391908416907f8be0079c531659141344cd1fd0a4f28419497f9722a3daafe3b4186f6b6457e09080a360018055168360025416176002551690600b541617600b556114f090816101168239f35b604051631e4fbdf760e01b815260006004820152602490fd5b600080fd5b634e487b7160e01b600052604160045260246000fd5b51906001600160a01b03821682036100e65756fe6080604081815260049182361015610022575b505050361561002057600080fd5b005b600092833560e01c918262f1197c146111835750816311aa08d21461023c5781631cbce8d214610f385781632104973014610d5a578163265b6f0514610eea578163372500ab14610db657816339e16d6414610d5a578163560d52d414610d3e5781636605bfda14610c8d578163715018a614610c30578163737baa4014610c11578163774a724f14610bf25781637b10399914610bc95781638da5cb5b14610ba1578163c5f956af14610b78578163cae7343c14610af9578163d0b7830b14610a33578163d3631fa514610a14578163d73792a9146109f7578163da23eb6314610645578163dad511b7146106cf578163db2e21bc1461064a578163e3051f3a14610645578163ec185a07146102c8578163f2fde38b14610241578163f3d428ae1461023c578163f6a3f3cf14610206578163f6ed2017146101ba57508063f82371e41461019c5763fe2b214c1461017b5780610012565b346101985781600319360112610198576020906007549051908152f35b5080fd5b50346101985781600319360112610198576020906009549051908152f35b905034610202576020366003190112610202576020926101fb916001600160a01b036101e46111b7565b1682528452828082205491600586522054906113ef565b9051908152f35b8280fd5b9050346102025760203660031901126102025760209282916001600160a01b0361022e6111b7565b168252845220549051908152f35b6111e8565b9050346102025760203660031901126102025761025c6111b7565b906102656112eb565b6001600160a01b039182169283156102b257505082546001600160a01b0319811683178455167f8be0079c531659141344cd1fd0a4f28419497f9722a3daafe3b4186f6b6457e08380a380f35b51631e4fbdf760e01b8152908101849052602490fd5b90506080366003190112610202576102de6111b7565b6102e66111d2565b604435906064359367ffffffffffffffff918286116106415736602387011215610641578582013592831161062e5786519388602097601f19956103318a88601f8401160189611252565b8088523660248284010111610202578060248b9301838a01378701015288546001600160a01b0393908416331480156105df575b8015610590575b8015610541575b80156104d1575b61038390611336565b81158015906104c8575b1561049157508290341561048b575034955b1695868952600381528789206103b6878254611373565b90556103c1866113fc565b946103cf8651600654611373565b6006556103e182870151600754611373565b6007556103f389870151600854611373565b60085561041a608060609761040d89820151600954611373565b6009550151600a54611373565b600a558851968752888288015280518099880152895b8981106104785750505091601f8594939285938a868b7f3d1f64091552f4e26b3a2f7bc8f412a53d092711f4a657e136311d9e4b4ea3349a010152169701168101030190a380f35b8181018301518882018801528201610430565b9561039f565b885162461bcd60e51b81529081018890526011602482015270139bc8199959481d1bc818dbdb1b1958dd607a1b6044820152606490fd5b5034151561038d565b50808885600254168b519283809263ebdccebb60e01b82525afa908115610537576103839186918d9161050a575b50163314905061037a565b61052a91508b3d8d11610530575b6105228183611252565b810190611317565b386104ff565b503d610518565b8a513d8d823e3d90fd5b50808885600254168b51928380926395ddbe8960e01b82525afa80156105375785918c91610573575b50163314610373565b61058a91508a3d8c11610530576105228183611252565b3861056a565b50808885600254168b519283809263faac38ef60e01b82525afa80156105375785918c916105c2575b5016331461036c565b6105d991508a3d8c11610530576105228183611252565b386105b9565b50808885600254168b519283809263492eb5d160e11b82525afa80156105375785918c91610611575b50163314610365565b61062891508a3d8c11610530576105228183611252565b38610608565b634e487b7160e01b885260418252602488fd5b8780fd5b611204565b9050346102025782600319360112610202576106646112eb565b479081156106955750825483918291829182916001600160a01b031682f11561068b575080f35b51903d90823e3d90fd5b606490602084519162461bcd60e51b835282015260146024820152734e6f2066756e647320746f20776974686472617760601b6044820152fd5b905034610202576080366003190112610202576106ea6111b7565b916106f36111d2565b906044359367ffffffffffffffff948581116109f3576107169036908601611274565b946064359081116109f35761072e9036908601611274565b6107366112eb565b60018060a01b03809216948588526020926003845284892092835480156109b85761076183916113fc565b971698891515806109ac575b610978575b80518015158061096c575b6108e1575b50508051801515806108d4575b610841575b5050917f07f269db192de987f6138ac3ced504f0da8a4dcc0b49d59d964f33d19cfd4d97959493916107ff93600b54169081151580610837575b610805575b505050830151916060818501519401519051938493846040919493926060820195825260208201520152565b0390a380f35b8651918b52835261081a858b20918254611373565b905561082d600286519201918254611373565b90553880806107d3565b50865115156107ce565b6108569060608994969b939598990151611396565b97898701928b5b8c86518210156108ba57908a6108b59289610878848b6113c5565b51168152878b528d61088e838320918254611373565b90558961089b848b6113c5565b511681528b8b52206108ae8d8254611373565b90556113b6565b61085d565b50929a9199509796909490935091508290506107ff610794565b506060880151151561078f565b6108f990888a9b9396999a9c949c9795970151611396565b9860038401938c5b8d875182101561095957908c6108ae8d610954948e8e8e6109468f8f908a918461092b84846113c5565b51168852855287872061093f8b8254611373565b90556113c5565b511683525220918254611373565b610901565b5050959350979693509750973880610782565b5087890151151561077d565b8a8a61099389898c01938451938152888b5220918254611373565b9055516109a560018701918254611373565b9055610772565b5085880151151561076d565b865162461bcd60e51b815280850187905260156024820152744e6f206665657320746f206469737472696275746560581b6044820152606490fd5b8680fd5b505034610198578160031936011261019857602090516127108152f35b5050346101985781600319360112610198576020906006549051908152f35b905034610202578260031936011261020257610a4d6112eb565b600654908115610ab657600b546001600160a01b0316908115610a8057508380809381938260065582f11561068b575080f35b606490602085519162461bcd60e51b8352820152601060248201526f151c99585cdd5c9e481b9bdd081cd95d60821b6044820152fd5b606490602084519162461bcd60e51b8352820152601c60248201527f4e6f20706c6174666f726d206665657320746f207769746864726177000000006044820152fd5b9190503461020257806003193601126102025780610b7491610b196111b7565b946001600160a01b0380610b2b6111d2565b1682526003602052828220961681526003860160205281812054948601602052600582822054960160205220549051938493846040919493926060820195825260208201520152565b0390f35b505034610198578160031936011261019857600b5490516001600160a01b039091168152602090f35b505034610198578160031936011261019857905490516001600160a01b039091168152602090f35b50503461019857816003193601126101985760025490516001600160a01b039091168152602090f35b5050346101985781600319360112610198576020906008549051908152f35b505034610198578160031936011261019857602090600a549051908152f35b8334610c8a5780600319360112610c8a57610c496112eb565b80546001600160a01b03198116825581906001600160a01b03167f8be0079c531659141344cd1fd0a4f28419497f9722a3daafe3b4186f6b6457e08280a380f35b80fd5b90503461020257602036600319011261020257610ca86111b7565b610cb06112eb565b6001600160a01b0316918215610cfb575050600b80546001600160a01b031916821790557f7dae230f18360d76a040c81f050aa14eb9d6dc7901b20fc5d855e2a20fe814d18280a280f35b906020606492519162461bcd60e51b8352820152601860248201527f496e76616c6964207472656173757279206164647265737300000000000000006044820152fd5b5050346101985781600319360112610198576020905160c88152f35b505034610198576020366003190112610198579081906001600160a01b03610d806111b7565b16815260036020522090610b74825491600260018501549401549051938493846040919493926060820195825260208201520152565b905034610202578260031936011261020257600260015414610edc5760026001553383526020818152610df4838520546005835284862054906113ef565b918215610ea557824710610e64575033845260058152828420610e18838254611373565b905583808080853382f115610e58577ffc30cddea38e2bf4d6ea7d3f9ed3b6ad7f176419f4963bd81318067a4aee73fe9192519283523392a26001805580f35b505051903d90823e3d90fd5b60649184519162461bcd60e51b8352820152601d60248201527f496e73756666696369656e7420636f6e74726163742062616c616e63650000006044820152fd5b60649184519162461bcd60e51b835282015260136024820152724e6f207265776172647320746f20636c61696d60681b6044820152fd5b9051633ee5aeb560e01b8152fd5b828434610c8a576020366003190112610c8a57506080610f0c60a093356113fc565b825192815184526020820151602085015280820151908401526060810151606084015201516080820152f35b838334610198578060031936011261019857610f526111b7565b825460243592916001600160a01b0391821633148015611130575b80156110dd575b801561108a575b8015611028575b610f8b90611336565b16938415610ff3578215610fc0578394610fba94526020528320610fb0828254611373565b9055600a54611373565b600a5580f35b6020606492519162461bcd60e51b8352820152600e60248201526d125b9d985b1a5908185b5bdd5b9d60921b6044820152fd5b6020606492519162461bcd60e51b8352820152601060248201526f24b73b30b634b2103932b332b93932b960811b6044820152fd5b50856020836002541685519283809263ebdccebb60e01b82525afa90811561108057610f8b9184918891611062575b501633149050610f82565b61107a915060203d8111610530576105228183611252565b89611057565b84513d88823e3d90fd5b5085602083600254168551928380926395ddbe8960e01b82525afa9081156110805790839187916110bf575b50163314610f7b565b6110d7915060203d8111610530576105228183611252565b886110b6565b50856020836002541685519283809263faac38ef60e01b82525afa908115611080579083918791611112575b50163314610f74565b61112a915060203d8111610530576105228183611252565b88611109565b50856020836002541685519283809263492eb5d160e11b82525afa908115611080579083918791611165575b50163314610f6d565b61117d915060203d8111610530576105228183611252565b8861115c565b84908434610202576020366003190112610202576020926001600160a01b036111aa6111b7565b1681526005845220548152f35b600435906001600160a01b03821682036111cd57565b600080fd5b602435906001600160a01b03821682036111cd57565b346111cd5760003660031901126111cd57602060405160328152f35b346111cd5760003660031901126111cd57602060405160648152f35b60a0810190811067ffffffffffffffff82111761123c57604052565b634e487b7160e01b600052604160045260246000fd5b90601f8019910116810190811067ffffffffffffffff82111761123c57604052565b9080601f830112156111cd5781359067ffffffffffffffff821161123c578160051b604051936020936112a985840187611252565b855283808601928201019283116111cd578301905b8282106112cc575050505090565b81356001600160a01b03811681036111cd5781529083019083016112be565b6000546001600160a01b031633036112ff57565b60405163118cdaa760e01b8152336004820152602490fd5b908160209103126111cd57516001600160a01b03811681036111cd5790565b1561133d57565b60405162461bcd60e51b815260206004820152600e60248201526d139bdd08185d5d1a1bdc9a5e995960921b6044820152606490fd5b9190820180921161138057565b634e487b7160e01b600052601160045260246000fd5b81156113a0570490565b634e487b7160e01b600052601260045260246000fd5b60001981146113805760010190565b80518210156113d95760209160051b010190565b634e487b7160e01b600052603260045260246000fd5b9190820391821161138057565b608060405161140a81611220565b6000918183809352826020820152826040820152826060820152015260c882029180159080840460c8148217156114a657606481029281840460641483171561149257612710809404926032830292830460321417156114925750829004916040519361147685611220565b0483528060208401526040830152806060830152608082015290565b634e487b7160e01b81526011600452602490fd5b634e487b7160e01b83526011600452602483fdfea26469706673582212206138aa0f1456fb3e2ae1bfd2b1649b0a88d6db6ee3d5425c5816040e58cf742c64736f6c63430008140033","opcodes":"PUSH1 0x80 CALLVALUE PUSH2 0xE6 JUMPI PUSH1 0x1F PUSH2 0x1606 CODESIZE DUP2 SWAP1 SUB SWAP2 DUP3 ADD PUSH1 0x1F NOT AND DUP4 ADD SWAP2 PUSH1 0x1 PUSH1 0x1 PUSH1 0x40 SHL SUB DUP4 GT DUP5 DUP5 LT OR PUSH2 0xEB JUMPI DUP1 DUP5 SWAP3 PUSH1 0x40 SWAP5 DUP6 MSTORE DUP4 CODECOPY DUP2 ADD SUB SLT PUSH2 0xE6 JUMPI PUSH2 0x52 PUSH1 0x20 PUSH2 0x4B DUP4 PUSH2 0x101 JUMP JUMPDEST SWAP3 ADD PUSH2 0x101 JUMP JUMPDEST CALLER ISZERO PUSH2 0xCD JUMPI PUSH1 0x0 DUP1 SLOAD CALLER PUSH1 0x1 PUSH1 0x1 PUSH1 0xA0 SHL SUB NOT DUP1 DUP4 AND DUP3 OR DUP5 SSTORE PUSH1 0x40 MLOAD SWAP6 SWAP1 SWAP5 PUSH1 0x1 PUSH1 0x1 PUSH1 0xA0 SHL SUB SWAP5 SWAP1 SWAP4 DUP6 SWAP4 SWAP2 SWAP1 DUP5 AND SWAP1 PUSH32 0x8BE0079C531659141344CD1FD0A4F28419497F9722A3DAAFE3B4186F6B6457E0 SWAP1 DUP1 LOG3 PUSH1 0x1 DUP1 SSTORE AND DUP4 PUSH1 0x2 SLOAD AND OR PUSH1 0x2 SSTORE AND SWAP1 PUSH1 0xB SLOAD AND OR PUSH1 0xB SSTORE PUSH2 0x14F0 SWAP1 DUP2 PUSH2 0x116 DUP3 CODECOPY RETURN JUMPDEST PUSH1 0x40 MLOAD PUSH4 0x1E4FBDF7 PUSH1 0xE0 SHL DUP2 MSTORE PUSH1 0x0 PUSH1 0x4 DUP3 ADD MSTORE PUSH1 0x24 SWAP1 REVERT JUMPDEST PUSH1 0x0 DUP1 REVERT JUMPDEST PUSH4 0x4E487B71 PUSH1 0xE0 SHL PUSH1 0x0 MSTORE PUSH1 0x41 PUSH1 0x4 MSTORE PUSH1 0x24 PUSH1 0x0 REVERT JUMPDEST MLOAD SWAP1 PUSH1 0x1 PUSH1 0x1 PUSH1 0xA0 SHL SUB DUP3 AND DUP3 SUB PUSH2 0xE6 JUMPI JUMP INVALID PUSH1 0x80 PUSH1 0x40 DUP2 DUP2 MSTORE PUSH1 0x4 SWAP2 DUP3 CALLDATASIZE LT ISZERO PUSH2 0x22 JUMPI JUMPDEST POP POP POP CALLDATASIZE ISZERO PUSH2 0x20 JUMPI PUSH1 0x0 DUP1 REVERT JUMPDEST STOP JUMPDEST PUSH1 0x0 SWAP3 DUP4 CALLDATALOAD PUSH1 0xE0 SHR SWAP2 DUP3 PUSH3 0xF1197C EQ PUSH2 0x1183 JUMPI POP DUP2 PUSH4 0x11AA08D2 EQ PUSH2 0x23C JUMPI DUP2 PUSH4 0x1CBCE8D2 EQ PUSH2 0xF38 JUMPI DUP2 PUSH4 0x21049730 EQ PUSH2 0xD5A JUMPI DUP2 PUSH4 0x265B6F05 EQ PUSH2 0xEEA JUMPI DUP2 PUSH4 0x372500AB EQ PUSH2 0xDB6 JUMPI DUP2 PUSH4 0x39E16D64 EQ PUSH2 0xD5A JUMPI DUP2 PUSH4 0x560D52D4 EQ PUSH2 0xD3E JUMPI DUP2 PUSH4 0x6605BFDA EQ PUSH2 0xC8D JUMPI DUP2 PUSH4 0x715018A6 EQ PUSH2 0xC30 JUMPI DUP2 PUSH4 0x737BAA40 EQ PUSH2 0xC11 JUMPI DUP2 PUSH4 0x774A724F EQ PUSH2 0xBF2 JUMPI DUP2 PUSH4 0x7B103999 EQ PUSH2 0xBC9 JUMPI DUP2 PUSH4 0x8DA5CB5B EQ PUSH2 0xBA1 JUMPI DUP2 PUSH4 0xC5F956AF EQ PUSH2 0xB78 JUMPI DUP2 PUSH4 0xCAE7343C EQ PUSH2 0xAF9 JUMPI DUP2 PUSH4 0xD0B7830B EQ PUSH2 0xA33 JUMPI DUP2 PUSH4 0xD3631FA5 EQ PUSH2 0xA14 JUMPI DUP2 PUSH4 0xD73792A9 EQ PUSH2 0x9F7 JUMPI DUP2 PUSH4 0xDA23EB63 EQ PUSH2 0x645 JUMPI DUP2 PUSH4 0xDAD511B7 EQ PUSH2 0x6CF JUMPI DUP2 PUSH4 0xDB2E21BC EQ PUSH2 0x64A JUMPI DUP2 PUSH4 0xE3051F3A EQ PUSH2 0x645 JUMPI DUP2 PUSH4 0xEC185A07 EQ PUSH2 0x2C8 JUMPI DUP2 PUSH4 0xF2FDE38B EQ PUSH2 0x241 JUMPI DUP2 PUSH4 0xF3D428AE EQ PUSH2 0x23C JUMPI DUP2 PUSH4 0xF6A3F3CF EQ PUSH2 0x206 JUMPI DUP2 PUSH4 0xF6ED2017 EQ PUSH2 0x1BA JUMPI POP DUP1 PUSH4 0xF82371E4 EQ PUSH2 0x19C JUMPI PUSH4 0xFE2B214C EQ PUSH2 0x17B JUMPI DUP1 PUSH2 0x12 JUMP JUMPDEST CALLVALUE PUSH2 0x198 JUMPI DUP2 PUSH1 0x3 NOT CALLDATASIZE ADD SLT PUSH2 0x198 JUMPI PUSH1 0x20 SWAP1 PUSH1 0x7 SLOAD SWAP1 MLOAD SWAP1 DUP2 MSTORE RETURN JUMPDEST POP DUP1 REVERT JUMPDEST POP CALLVALUE PUSH2 0x198 JUMPI DUP2 PUSH1 0x3 NOT CALLDATASIZE ADD SLT PUSH2 0x198 JUMPI PUSH1 0x20 SWAP1 PUSH1 0x9 SLOAD SWAP1 MLOAD SWAP1 DUP2 MSTORE RETURN JUMPDEST SWAP1 POP CALLVALUE PUSH2 0x202 JUMPI PUSH1 0x20 CALLDATASIZE PUSH1 0x3 NOT ADD SLT PUSH2 0x202 JUMPI PUSH1 0x20 SWAP3 PUSH2 0x1FB SWAP2 PUSH1 0x1 PUSH1 0x1 PUSH1 0xA0 SHL SUB PUSH2 0x1E4 PUSH2 0x11B7 JUMP JUMPDEST AND DUP3 MSTORE DUP5 MSTORE DUP3 DUP1 DUP3 KECCAK256 SLOAD SWAP2 PUSH1 0x5 DUP7 MSTORE KECCAK256 SLOAD SWAP1 PUSH2 0x13EF JUMP JUMPDEST SWAP1 MLOAD SWAP1 DUP2 MSTORE RETURN JUMPDEST DUP3 DUP1 REVERT JUMPDEST SWAP1 POP CALLVALUE PUSH2 0x202 JUMPI PUSH1 0x20 CALLDATASIZE PUSH1 0x3 NOT ADD SLT PUSH2 0x202 JUMPI PUSH1 0x20 SWAP3 DUP3 SWAP2 PUSH1 0x1 PUSH1 0x1 PUSH1 0xA0 SHL SUB PUSH2 0x22E PUSH2 0x11B7 JUMP JUMPDEST AND DUP3 MSTORE DUP5 MSTORE KECCAK256 SLOAD SWAP1 MLOAD SWAP1 DUP2 MSTORE RETURN JUMPDEST PUSH2 0x11E8 JUMP JUMPDEST SWAP1 POP CALLVALUE PUSH2 0x202 JUMPI PUSH1 0x20 CALLDATASIZE PUSH1 0x3 NOT ADD SLT PUSH2 0x202 JUMPI PUSH2 0x25C PUSH2 0x11B7 JUMP JUMPDEST SWAP1 PUSH2 0x265 PUSH2 0x12EB JUMP JUMPDEST PUSH1 0x1 PUSH1 0x1 PUSH1 0xA0 SHL SUB SWAP2 DUP3 AND SWAP3 DUP4 ISZERO PUSH2 0x2B2 JUMPI POP POP DUP3 SLOAD PUSH1 0x1 PUSH1 0x1 PUSH1 0xA0 SHL SUB NOT DUP2 AND DUP4 OR DUP5 SSTORE AND PUSH32 0x8BE0079C531659141344CD1FD0A4F28419497F9722A3DAAFE3B4186F6B6457E0 DUP4 DUP1 LOG3 DUP1 RETURN JUMPDEST MLOAD PUSH4 0x1E4FBDF7 PUSH1 0xE0 SHL DUP2 MSTORE SWAP1 DUP2 ADD DUP5 SWAP1 MSTORE PUSH1 0x24 SWAP1 REVERT JUMPDEST SWAP1 POP PUSH1 0x80 CALLDATASIZE PUSH1 0x3 NOT ADD SLT PUSH2 0x202 JUMPI PUSH2 0x2DE PUSH2 0x11B7 JUMP JUMPDEST PUSH2 0x2E6 PUSH2 0x11D2 JUMP JUMPDEST PUSH1 0x44 CALLDATALOAD SWAP1 PUSH1 0x64 CALLDATALOAD SWAP4 PUSH8 0xFFFFFFFFFFFFFFFF SWAP2 DUP3 DUP7 GT PUSH2 0x641 JUMPI CALLDATASIZE PUSH1 0x23 DUP8 ADD SLT ISZERO PUSH2 0x641 JUMPI DUP6 DUP3 ADD CALLDATALOAD SWAP3 DUP4 GT PUSH2 0x62E JUMPI DUP7 MLOAD SWAP4 DUP9 PUSH1 0x20 SWAP8 PUSH1 0x1F NOT SWAP6 PUSH2 0x331 DUP11 DUP9 PUSH1 0x1F DUP5 ADD AND ADD DUP10 PUSH2 0x1252 JUMP JUMPDEST DUP1 DUP9 MSTORE CALLDATASIZE PUSH1 0x24 DUP3 DUP5 ADD ADD GT PUSH2 0x202 JUMPI DUP1 PUSH1 0x24 DUP12 SWAP4 ADD DUP4 DUP11 ADD CALLDATACOPY DUP8 ADD ADD MSTORE DUP9 SLOAD PUSH1 0x1 PUSH1 0x1 PUSH1 0xA0 SHL SUB SWAP4 SWAP1 DUP5 AND CALLER EQ DUP1 ISZERO PUSH2 0x5DF JUMPI JUMPDEST DUP1 ISZERO PUSH2 0x590 JUMPI JUMPDEST DUP1 ISZERO PUSH2 0x541 JUMPI JUMPDEST DUP1 ISZERO PUSH2 0x4D1 JUMPI JUMPDEST PUSH2 0x383 SWAP1 PUSH2 0x1336 JUMP JUMPDEST DUP2 ISZERO DUP1 ISZERO SWAP1 PUSH2 0x4C8 JUMPI JUMPDEST ISZERO PUSH2 0x491 JUMPI POP DUP3 SWAP1 CALLVALUE ISZERO PUSH2 0x48B JUMPI POP CALLVALUE SWAP6 JUMPDEST AND SWAP6 DUP7 DUP10 MSTORE PUSH1 0x3 DUP2 MSTORE DUP8 DUP10 KECCAK256 PUSH2 0x3B6 DUP8 DUP3 SLOAD PUSH2 0x1373 JUMP JUMPDEST SWAP1 SSTORE PUSH2 0x3C1 DUP7 PUSH2 0x13FC JUMP JUMPDEST SWAP5 PUSH2 0x3CF DUP7 MLOAD PUSH1 0x6 SLOAD PUSH2 0x1373 JUMP JUMPDEST PUSH1 0x6 SSTORE PUSH2 0x3E1 DUP3 DUP8 ADD MLOAD PUSH1 0x7 SLOAD PUSH2 0x1373 JUMP JUMPDEST PUSH1 0x7 SSTORE PUSH2 0x3F3 DUP10 DUP8 ADD MLOAD PUSH1 0x8 SLOAD PUSH2 0x1373 JUMP JUMPDEST PUSH1 0x8 SSTORE PUSH2 0x41A PUSH1 0x80 PUSH1 0x60 SWAP8 PUSH2 0x40D DUP10 DUP3 ADD MLOAD PUSH1 0x9 SLOAD PUSH2 0x1373 JUMP JUMPDEST PUSH1 0x9 SSTORE ADD MLOAD PUSH1 0xA SLOAD PUSH2 0x1373 JUMP JUMPDEST PUSH1 0xA SSTORE DUP9 MLOAD SWAP7 DUP8 MSTORE DUP9 DUP3 DUP9 ADD MSTORE DUP1 MLOAD DUP1 SWAP10 DUP9 ADD MSTORE DUP10 JUMPDEST DUP10 DUP2 LT PUSH2 0x478 JUMPI POP POP POP SWAP2 PUSH1 0x1F DUP6 SWAP5 SWAP4 SWAP3 DUP6 SWAP4 DUP11 DUP7 DUP12 PUSH32 0x3D1F64091552F4E26B3A2F7BC8F412A53D092711F4A657E136311D9E4B4EA334 SWAP11 ADD ADD MSTORE AND SWAP8 ADD AND DUP2 ADD SUB ADD SWAP1 LOG3 DUP1 RETURN JUMPDEST DUP2 DUP2 ADD DUP4 ADD MLOAD DUP9 DUP3 ADD DUP9 ADD MSTORE DUP3 ADD PUSH2 0x430 JUMP JUMPDEST SWAP6 PUSH2 0x39F JUMP JUMPDEST DUP9 MLOAD PUSH3 0x461BCD PUSH1 0xE5 SHL DUP2 MSTORE SWAP1 DUP2 ADD DUP9 SWAP1 MSTORE PUSH1 0x11 PUSH1 0x24 DUP3 ADD MSTORE PUSH17 0x139BC8199959481D1BC818DBDB1B1958DD PUSH1 0x7A SHL PUSH1 0x44 DUP3 ADD MSTORE PUSH1 0x64 SWAP1 REVERT JUMPDEST POP CALLVALUE ISZERO ISZERO PUSH2 0x38D JUMP JUMPDEST POP DUP1 DUP9 DUP6 PUSH1 0x2 SLOAD AND DUP12 MLOAD SWAP3 DUP4 DUP1 SWAP3 PUSH4 0xEBDCCEBB PUSH1 0xE0 SHL DUP3 MSTORE GAS STATICCALL SWAP1 DUP2 ISZERO PUSH2 0x537 JUMPI PUSH2 0x383 SWAP2 DUP7 SWAP2 DUP14 SWAP2 PUSH2 0x50A JUMPI JUMPDEST POP AND CALLER EQ SWAP1 POP PUSH2 0x37A JUMP JUMPDEST PUSH2 0x52A SWAP2 POP DUP12 RETURNDATASIZE DUP14 GT PUSH2 0x530 JUMPI JUMPDEST PUSH2 0x522 DUP2 DUP4 PUSH2 0x1252 JUMP JUMPDEST DUP2 ADD SWAP1 PUSH2 0x1317 JUMP JUMPDEST CODESIZE PUSH2 0x4FF JUMP JUMPDEST POP RETURNDATASIZE PUSH2 0x518 JUMP JUMPDEST DUP11 MLOAD RETURNDATASIZE DUP14 DUP3 RETURNDATACOPY RETURNDATASIZE SWAP1 REVERT JUMPDEST POP DUP1 DUP9 DUP6 PUSH1 0x2 SLOAD AND DUP12 MLOAD SWAP3 DUP4 DUP1 SWAP3 PUSH4 0x95DDBE89 PUSH1 0xE0 SHL DUP3 MSTORE GAS STATICCALL DUP1 ISZERO PUSH2 0x537 JUMPI DUP6 SWAP2 DUP13 SWAP2 PUSH2 0x573 JUMPI JUMPDEST POP AND CALLER EQ PUSH2 0x373 JUMP JUMPDEST PUSH2 0x58A SWAP2 POP DUP11 RETURNDATASIZE DUP13 GT PUSH2 0x530 JUMPI PUSH2 0x522 DUP2 DUP4 PUSH2 0x1252 JUMP JUMPDEST CODESIZE PUSH2 0x56A JUMP JUMPDEST POP DUP1 DUP9 DUP6 PUSH1 0x2 SLOAD AND DUP12 MLOAD SWAP3 DUP4 DUP1 SWAP3 PUSH4 0xFAAC38EF PUSH1 0xE0 SHL DUP3 MSTORE GAS STATICCALL DUP1 ISZERO PUSH2 0x537 JUMPI DUP6 SWAP2 DUP13 SWAP2 PUSH2 0x5C2 JUMPI JUMPDEST POP AND CALLER EQ PUSH2 0x36C JUMP JUMPDEST PUSH2 0x5D9 SWAP2 POP DUP11 RETURNDATASIZE DUP13 GT PUSH2 0x530 JUMPI PUSH2 0x522 DUP2 DUP4 PUSH2 0x1252 JUMP JUMPDEST CODESIZE PUSH2 0x5B9 JUMP JUMPDEST POP DUP1 DUP9 DUP6 PUSH1 0x2 SLOAD AND DUP12 MLOAD SWAP3 DUP4 DUP1 SWAP3 PUSH4 0x492EB5D1 PUSH1 0xE1 SHL DUP3 MSTORE GAS STATICCALL DUP1 ISZERO PUSH2 0x537 JUMPI DUP6 SWAP2 DUP13 SWAP2 PUSH2 0x611 JUMPI JUMPDEST POP AND CALLER EQ PUSH2 0x365 JUMP JUMPDEST PUSH2 0x628 SWAP2 POP DUP11 RETURNDATASIZE DUP13 GT PUSH2 0x530 JUMPI PUSH2 0x522 DUP2 DUP4 PUSH2 0x1252 JUMP JUMPDEST CODESIZE PUSH2 0x608 JUMP JUMPDEST PUSH4 0x4E487B71 PUSH1 0xE0 SHL DUP9 MSTORE PUSH1 0x41 DUP3 MSTORE PUSH1 0x24 DUP9 REVERT JUMPDEST DUP8 DUP1 REVERT JUMPDEST PUSH2 0x1204 JUMP JUMPDEST SWAP1 POP CALLVALUE PUSH2 0x202 JUMPI DUP3 PUSH1 0x3 NOT CALLDATASIZE ADD SLT PUSH2 0x202 JUMPI PUSH2 0x664 PUSH2 0x12EB JUMP JUMPDEST SELFBALANCE SWAP1 DUP2 ISZERO PUSH2 0x695 JUMPI POP DUP3 SLOAD DUP4 SWAP2 DUP3 SWAP2 DUP3 SWAP2 DUP3 SWAP2 PUSH1 0x1 PUSH1 0x1 PUSH1 0xA0 SHL SUB AND DUP3 CALL ISZERO PUSH2 0x68B JUMPI POP DUP1 RETURN JUMPDEST MLOAD SWAP1 RETURNDATASIZE SWAP1 DUP3 RETURNDATACOPY RETURNDATASIZE SWAP1 REVERT JUMPDEST PUSH1 0x64 SWAP1 PUSH1 0x20 DUP5 MLOAD SWAP2 PUSH3 0x461BCD PUSH1 0xE5 SHL DUP4 MSTORE DUP3 ADD MSTORE PUSH1 0x14 PUSH1 0x24 DUP3 ADD MSTORE PUSH20 0x4E6F2066756E647320746F207769746864726177 PUSH1 0x60 SHL PUSH1 0x44 DUP3 ADD MSTORE REVERT JUMPDEST SWAP1 POP CALLVALUE PUSH2 0x202 JUMPI PUSH1 0x80 CALLDATASIZE PUSH1 0x3 NOT ADD SLT PUSH2 0x202 JUMPI PUSH2 0x6EA PUSH2 0x11B7 JUMP JUMPDEST SWAP2 PUSH2 0x6F3 PUSH2 0x11D2 JUMP JUMPDEST SWAP1 PUSH1 0x44 CALLDATALOAD SWAP4 PUSH8 0xFFFFFFFFFFFFFFFF SWAP5 DUP6 DUP2 GT PUSH2 0x9F3 JUMPI PUSH2 0x716 SWAP1 CALLDATASIZE SWAP1 DUP7 ADD PUSH2 0x1274 JUMP JUMPDEST SWAP5 PUSH1 0x64 CALLDATALOAD SWAP1 DUP2 GT PUSH2 0x9F3 JUMPI PUSH2 0x72E SWAP1 CALLDATASIZE SWAP1 DUP7 ADD PUSH2 0x1274 JUMP JUMPDEST PUSH2 0x736 PUSH2 0x12EB JUMP JUMPDEST PUSH1 0x1 DUP1 PUSH1 0xA0 SHL SUB DUP1 SWAP3 AND SWAP5 DUP6 DUP9 MSTORE PUSH1 0x20 SWAP3 PUSH1 0x3 DUP5 MSTORE DUP5 DUP10 KECCAK256 SWAP3 DUP4 SLOAD DUP1 ISZERO PUSH2 0x9B8 JUMPI PUSH2 0x761 DUP4 SWAP2 PUSH2 0x13FC JUMP JUMPDEST SWAP8 AND SWAP9 DUP10 ISZERO ISZERO DUP1 PUSH2 0x9AC JUMPI JUMPDEST PUSH2 0x978 JUMPI JUMPDEST DUP1 MLOAD DUP1 ISZERO ISZERO DUP1 PUSH2 0x96C JUMPI JUMPDEST PUSH2 0x8E1 JUMPI JUMPDEST POP POP DUP1 MLOAD DUP1 ISZERO ISZERO DUP1 PUSH2 0x8D4 JUMPI JUMPDEST PUSH2 0x841 JUMPI JUMPDEST POP POP SWAP2 PUSH32 0x7F269DB192DE987F6138AC3CED504F0DA8A4DCC0B49D59D964F33D19CFD4D97 SWAP6 SWAP5 SWAP4 SWAP2 PUSH2 0x7FF SWAP4 PUSH1 0xB SLOAD AND SWAP1 DUP2 ISZERO ISZERO DUP1 PUSH2 0x837 JUMPI JUMPDEST PUSH2 0x805 JUMPI JUMPDEST POP POP POP DUP4 ADD MLOAD SWAP2 PUSH1 0x60 DUP2 DUP6 ADD MLOAD SWAP5 ADD MLOAD SWAP1 MLOAD SWAP4 DUP5 SWAP4 DUP5 PUSH1 0x40 SWAP2 SWAP5 SWAP4 SWAP3 PUSH1 0x60 DUP3 ADD SWAP6 DUP3 MSTORE PUSH1 0x20 DUP3 ADD MSTORE ADD MSTORE JUMP JUMPDEST SUB SWAP1 LOG3 DUP1 RETURN JUMPDEST DUP7 MLOAD SWAP2 DUP12 MSTORE DUP4 MSTORE PUSH2 0x81A DUP6 DUP12 KECCAK256 SWAP2 DUP3 SLOAD PUSH2 0x1373 JUMP JUMPDEST SWAP1 SSTORE PUSH2 0x82D PUSH1 0x2 DUP7 MLOAD SWAP3 ADD SWAP2 DUP3 SLOAD PUSH2 0x1373 JUMP JUMPDEST SWAP1 SSTORE CODESIZE DUP1 DUP1 PUSH2 0x7D3 JUMP JUMPDEST POP DUP7 MLOAD ISZERO ISZERO PUSH2 0x7CE JUMP JUMPDEST PUSH2 0x856 SWAP1 PUSH1 0x60 DUP10 SWAP5 SWAP7 SWAP12 SWAP4 SWAP6 SWAP9 SWAP10 ADD MLOAD PUSH2 0x1396 JUMP JUMPDEST SWAP8 DUP10 DUP8 ADD SWAP3 DUP12 JUMPDEST DUP13 DUP7 MLOAD DUP3 LT ISZERO PUSH2 0x8BA JUMPI SWAP1 DUP11 PUSH2 0x8B5 SWAP3 DUP10 PUSH2 0x878 DUP5 DUP12 PUSH2 0x13C5 JUMP JUMPDEST MLOAD AND DUP2 MSTORE DUP8 DUP12 MSTORE DUP14 PUSH2 0x88E DUP4 DUP4 KECCAK256 SWAP2 DUP3 SLOAD PUSH2 0x1373 JUMP JUMPDEST SWAP1 SSTORE DUP10 PUSH2 0x89B DUP5 DUP12 PUSH2 0x13C5 JUMP JUMPDEST MLOAD AND DUP2 MSTORE DUP12 DUP12 MSTORE KECCAK256 PUSH2 0x8AE DUP14 DUP3 SLOAD PUSH2 0x1373 JUMP JUMPDEST SWAP1 SSTORE PUSH2 0x13B6 JUMP JUMPDEST PUSH2 0x85D JUMP JUMPDEST POP SWAP3 SWAP11 SWAP2 SWAP10 POP SWAP8 SWAP7 SWAP1 SWAP5 SWAP1 SWAP4 POP SWAP2 POP DUP3 SWAP1 POP PUSH2 0x7FF PUSH2 0x794 JUMP JUMPDEST POP PUSH1 0x60 DUP9 ADD MLOAD ISZERO ISZERO PUSH2 0x78F JUMP JUMPDEST PUSH2 0x8F9 SWAP1 DUP9 DUP11 SWAP12 SWAP4 SWAP7 SWAP10 SWAP11 SWAP13 SWAP5 SWAP13 SWAP8 SWAP6 SWAP8 ADD MLOAD PUSH2 0x1396 JUMP JUMPDEST SWAP9 PUSH1 0x3 DUP5 ADD SWAP4 DUP13 JUMPDEST DUP14 DUP8 MLOAD DUP3 LT ISZERO PUSH2 0x959 JUMPI SWAP1 DUP13 PUSH2 0x8AE DUP14 PUSH2 0x954 SWAP5 DUP15 DUP15 DUP15 PUSH2 0x946 DUP16 DUP16 SWAP1 DUP11 SWAP2 DUP5 PUSH2 0x92B DUP5 DUP5 PUSH2 0x13C5 JUMP JUMPDEST MLOAD AND DUP9 MSTORE DUP6 MSTORE DUP8 DUP8 KECCAK256 PUSH2 0x93F DUP12 DUP3 SLOAD PUSH2 0x1373 JUMP JUMPDEST SWAP1 SSTORE PUSH2 0x13C5 JUMP JUMPDEST MLOAD AND DUP4 MSTORE MSTORE KECCAK256 SWAP2 DUP3 SLOAD PUSH2 0x1373 JUMP JUMPDEST PUSH2 0x901 JUMP JUMPDEST POP POP SWAP6 SWAP4 POP SWAP8 SWAP7 SWAP4 POP SWAP8 POP SWAP8 CODESIZE DUP1 PUSH2 0x782 JUMP JUMPDEST POP DUP8 DUP10 ADD MLOAD ISZERO ISZERO PUSH2 0x77D JUMP JUMPDEST DUP11 DUP11 PUSH2 0x993 DUP10 DUP10 DUP13 ADD SWAP4 DUP5 MLOAD SWAP4 DUP2 MSTORE DUP9 DUP12 MSTORE KECCAK256 SWAP2 DUP3 SLOAD PUSH2 0x1373 JUMP JUMPDEST SWAP1 SSTORE MLOAD PUSH2 0x9A5 PUSH1 0x1 DUP8 ADD SWAP2 DUP3 SLOAD PUSH2 0x1373 JUMP JUMPDEST SWAP1 SSTORE PUSH2 0x772 JUMP JUMPDEST POP DUP6 DUP9 ADD MLOAD ISZERO ISZERO PUSH2 0x76D JUMP JUMPDEST DUP7 MLOAD PUSH3 0x461BCD PUSH1 0xE5 SHL DUP2 MSTORE DUP1 DUP6 ADD DUP8 SWAP1 MSTORE PUSH1 0x15 PUSH1 0x24 DUP3 ADD MSTORE PUSH21 0x4E6F206665657320746F2064697374726962757465 PUSH1 0x58 SHL PUSH1 0x44 DUP3 ADD MSTORE PUSH1 0x64 SWAP1 REVERT JUMPDEST DUP7 DUP1 REVERT JUMPDEST POP POP CALLVALUE PUSH2 0x198 JUMPI DUP2 PUSH1 0x3 NOT CALLDATASIZE ADD SLT PUSH2 0x198 JUMPI PUSH1 0x20 SWAP1 MLOAD PUSH2 0x2710 DUP2 MSTORE RETURN JUMPDEST POP POP CALLVALUE PUSH2 0x198 JUMPI DUP2 PUSH1 0x3 NOT CALLDATASIZE ADD SLT PUSH2 0x198 JUMPI PUSH1 0x20 SWAP1 PUSH1 0x6 SLOAD SWAP1 MLOAD SWAP1 DUP2 MSTORE RETURN JUMPDEST SWAP1 POP CALLVALUE PUSH2 0x202 JUMPI DUP3 PUSH1 0x3 NOT CALLDATASIZE ADD SLT PUSH2 0x202 JUMPI PUSH2 0xA4D PUSH2 0x12EB JUMP JUMPDEST PUSH1 0x6 SLOAD SWAP1 DUP2 ISZERO PUSH2 0xAB6 JUMPI PUSH1 0xB SLOAD PUSH1 0x1 PUSH1 0x1 PUSH1 0xA0 SHL SUB AND SWAP1 DUP2 ISZERO PUSH2 0xA80 JUMPI POP DUP4 DUP1 DUP1 SWAP4 DUP2 SWAP4 DUP3 PUSH1 0x6 SSTORE DUP3 CALL ISZERO PUSH2 0x68B JUMPI POP DUP1 RETURN JUMPDEST PUSH1 0x64 SWAP1 PUSH1 0x20 DUP6 MLOAD SWAP2 PUSH3 0x461BCD PUSH1 0xE5 SHL DUP4 MSTORE DUP3 ADD MSTORE PUSH1 0x10 PUSH1 0x24 DUP3 ADD MSTORE PUSH16 0x151C99585CDD5C9E481B9BDD081CD95D PUSH1 0x82 SHL PUSH1 0x44 DUP3 ADD MSTORE REVERT JUMPDEST PUSH1 0x64 SWAP1 PUSH1 0x20 DUP5 MLOAD SWAP2 PUSH3 0x461BCD PUSH1 0xE5 SHL DUP4 MSTORE DUP3 ADD MSTORE PUSH1 0x1C PUSH1 0x24 DUP3 ADD MSTORE PUSH32 0x4E6F20706C6174666F726D206665657320746F20776974686472617700000000 PUSH1 0x44 DUP3 ADD MSTORE REVERT JUMPDEST SWAP2 SWAP1 POP CALLVALUE PUSH2 0x202 JUMPI DUP1 PUSH1 0x3 NOT CALLDATASIZE ADD SLT PUSH2 0x202 JUMPI DUP1 PUSH2 0xB74 SWAP2 PUSH2 0xB19 PUSH2 0x11B7 JUMP JUMPDEST SWAP5 PUSH1 0x1 PUSH1 0x1 PUSH1 0xA0 SHL SUB DUP1 PUSH2 0xB2B PUSH2 0x11D2 JUMP JUMPDEST AND DUP3 MSTORE PUSH1 0x3 PUSH1 0x20 MSTORE DUP3 DUP3 KECCAK256 SWAP7 AND DUP2 MSTORE PUSH1 0x3 DUP7 ADD PUSH1 0x20 MSTORE DUP2 DUP2 KECCAK256 SLOAD SWAP5 DUP7 ADD PUSH1 0x20 MSTORE PUSH1 0x5 DUP3 DUP3 KECCAK256 SLOAD SWAP7 ADD PUSH1 0x20 MSTORE KECCAK256 SLOAD SWAP1 MLOAD SWAP4 DUP5 SWAP4 DUP5 PUSH1 0x40 SWAP2 SWAP5 SWAP4 SWAP3 PUSH1 0x60 DUP3 ADD SWAP6 DUP3 MSTORE PUSH1 0x20 DUP3 ADD MSTORE ADD MSTORE JUMP JUMPDEST SUB SWAP1 RETURN JUMPDEST POP POP CALLVALUE PUSH2 0x198 JUMPI DUP2 PUSH1 0x3 NOT CALLDATASIZE ADD SLT PUSH2 0x198 JUMPI PUSH1 0xB SLOAD SWAP1 MLOAD PUSH1 0x1 PUSH1 0x1 PUSH1 0xA0 SHL SUB SWAP1 SWAP2 AND DUP2 MSTORE PUSH1 0x20 SWAP1 RETURN JUMPDEST POP POP CALLVALUE PUSH2 0x198 JUMPI DUP2 PUSH1 0x3 NOT CALLDATASIZE ADD SLT PUSH2 0x198 JUMPI SWAP1 SLOAD SWAP1 MLOAD PUSH1 0x1 PUSH1 0x1 PUSH1 0xA0 SHL SUB SWAP1 SWAP2 AND DUP2 MSTORE PUSH1 0x20 SWAP1 RETURN JUMPDEST POP POP CALLVALUE PUSH2 0x198 JUMPI DUP2 PUSH1 0x3 NOT CALLDATASIZE ADD SLT PUSH2 0x198 JUMPI PUSH1 0x2 SLOAD SWAP1 MLOAD PUSH1 0x1 PUSH1 0x1 PUSH1 0xA0 SHL SUB SWAP1 SWAP2 AND DUP2 MSTORE PUSH1 0x20 SWAP1 RETURN JUMPDEST POP POP CALLVALUE PUSH2 0x198 JUMPI DUP2 PUSH1 0x3 NOT CALLDATASIZE ADD SLT PUSH2 0x198 JUMPI PUSH1 0x20 SWAP1 PUSH1 0x8 SLOAD SWAP1 MLOAD SWAP1 DUP2 MSTORE RETURN JUMPDEST POP POP CALLVALUE PUSH2 0x198 JUMPI DUP2 PUSH1 0x3 NOT CALLDATASIZE ADD SLT PUSH2 0x198 JUMPI PUSH1 0x20 SWAP1 PUSH1 0xA SLOAD SWAP1 MLOAD SWAP1 DUP2 MSTORE RETURN JUMPDEST DUP4 CALLVALUE PUSH2 0xC8A JUMPI DUP1 PUSH1 0x3 NOT CALLDATASIZE ADD SLT PUSH2 0xC8A JUMPI PUSH2 0xC49 PUSH2 0x12EB JUMP JUMPDEST DUP1 SLOAD PUSH1 0x1 PUSH1 0x1 PUSH1 0xA0 SHL SUB NOT DUP2 AND DUP3 SSTORE DUP2 SWAP1 PUSH1 0x1 PUSH1 0x1 PUSH1 0xA0 SHL SUB AND PUSH32 0x8BE0079C531659141344CD1FD0A4F28419497F9722A3DAAFE3B4186F6B6457E0 DUP3 DUP1 LOG3 DUP1 RETURN JUMPDEST DUP1 REVERT JUMPDEST SWAP1 POP CALLVALUE PUSH2 0x202 JUMPI PUSH1 0x20 CALLDATASIZE PUSH1 0x3 NOT ADD SLT PUSH2 0x202 JUMPI PUSH2 0xCA8 PUSH2 0x11B7 JUMP JUMPDEST PUSH2 0xCB0 PUSH2 0x12EB JUMP JUMPDEST PUSH1 0x1 PUSH1 0x1 PUSH1 0xA0 SHL SUB AND SWAP2 DUP3 ISZERO PUSH2 0xCFB JUMPI POP POP PUSH1 0xB DUP1 SLOAD PUSH1 0x1 PUSH1 0x1 PUSH1 0xA0 SHL SUB NOT AND DUP3 OR SWAP1 SSTORE PUSH32 0x7DAE230F18360D76A040C81F050AA14EB9D6DC7901B20FC5D855E2A20FE814D1 DUP3 DUP1 LOG2 DUP1 RETURN JUMPDEST SWAP1 PUSH1 0x20 PUSH1 0x64 SWAP3 MLOAD SWAP2 PUSH3 0x461BCD PUSH1 0xE5 SHL DUP4 MSTORE DUP3 ADD MSTORE PUSH1 0x18 PUSH1 0x24 DUP3 ADD MSTORE PUSH32 0x496E76616C696420747265617375727920616464726573730000000000000000 PUSH1 0x44 DUP3 ADD MSTORE REVERT JUMPDEST POP POP CALLVALUE PUSH2 0x198 JUMPI DUP2 PUSH1 0x3 NOT CALLDATASIZE ADD SLT PUSH2 0x198 JUMPI PUSH1 0x20 SWAP1 MLOAD PUSH1 0xC8 DUP2 MSTORE RETURN JUMPDEST POP POP CALLVALUE PUSH2 0x198 JUMPI PUSH1 0x20 CALLDATASIZE PUSH1 0x3 NOT ADD SLT PUSH2 0x198 JUMPI SWAP1 DUP2 SWAP1 PUSH1 0x1 PUSH1 0x1 PUSH1 0xA0 SHL SUB PUSH2 0xD80 PUSH2 0x11B7 JUMP JUMPDEST AND DUP2 MSTORE PUSH1 0x3 PUSH1 0x20 MSTORE KECCAK256 SWAP1 PUSH2 0xB74 DUP3 SLOAD SWAP2 PUSH1 0x2 PUSH1 0x1 DUP6 ADD SLOAD SWAP5 ADD SLOAD SWAP1 MLOAD SWAP4 DUP5 SWAP4 DUP5 PUSH1 0x40 SWAP2 SWAP5 SWAP4 SWAP3 PUSH1 0x60 DUP3 ADD SWAP6 DUP3 MSTORE PUSH1 0x20 DUP3 ADD MSTORE ADD MSTORE JUMP JUMPDEST SWAP1 POP CALLVALUE PUSH2 0x202 JUMPI DUP3 PUSH1 0x3 NOT CALLDATASIZE ADD SLT PUSH2 0x202 JUMPI PUSH1 0x2 PUSH1 0x1 SLOAD EQ PUSH2 0xEDC JUMPI PUSH1 0x2 PUSH1 0x1 SSTORE CALLER DUP4 MSTORE PUSH1 0x20 DUP2 DUP2 MSTORE PUSH2 0xDF4 DUP4 DUP6 KECCAK256 SLOAD PUSH1 0x5 DUP4 MSTORE DUP5 DUP7 KECCAK256 SLOAD SWAP1 PUSH2 0x13EF JUMP JUMPDEST SWAP2 DUP3 ISZERO PUSH2 0xEA5 JUMPI DUP3 SELFBALANCE LT PUSH2 0xE64 JUMPI POP CALLER DUP5 MSTORE PUSH1 0x5 DUP2 MSTORE DUP3 DUP5 KECCAK256 PUSH2 0xE18 DUP4 DUP3 SLOAD PUSH2 0x1373 JUMP JUMPDEST SWAP1 SSTORE DUP4 DUP1 DUP1 DUP1 DUP6 CALLER DUP3 CALL ISZERO PUSH2 0xE58 JUMPI PUSH32 0xFC30CDDEA38E2BF4D6EA7D3F9ED3B6AD7F176419F4963BD81318067A4AEE73FE SWAP2 SWAP3 MLOAD SWAP3 DUP4 MSTORE CALLER SWAP3 LOG2 PUSH1 0x1 DUP1 SSTORE DUP1 RETURN JUMPDEST POP POP MLOAD SWAP1 RETURNDATASIZE SWAP1 DUP3 RETURNDATACOPY RETURNDATASIZE SWAP1 REVERT JUMPDEST PUSH1 0x64 SWAP2 DUP5 MLOAD SWAP2 PUSH3 0x461BCD PUSH1 0xE5 SHL DUP4 MSTORE DUP3 ADD MSTORE PUSH1 0x1D PUSH1 0x24 DUP3 ADD MSTORE PUSH32 0x496E73756666696369656E7420636F6E74726163742062616C616E6365000000 PUSH1 0x44 DUP3 ADD MSTORE REVERT JUMPDEST PUSH1 0x64 SWAP2 DUP5 MLOAD SWAP2 PUSH3 0x461BCD PUSH1 0xE5 SHL DUP4 MSTORE DUP3 ADD MSTORE PUSH1 0x13 PUSH1 0x24 DUP3 ADD MSTORE PUSH19 0x4E6F207265776172647320746F20636C61696D PUSH1 0x68 SHL PUSH1 0x44 DUP3 ADD MSTORE REVERT JUMPDEST SWAP1 MLOAD PUSH4 0x3EE5AEB5 PUSH1 0xE0 SHL DUP2 MSTORE REVERT JUMPDEST DUP3 DUP5 CALLVALUE PUSH2 0xC8A JUMPI PUSH1 0x20 CALLDATASIZE PUSH1 0x3 NOT ADD SLT PUSH2 0xC8A JUMPI POP PUSH1 0x80 PUSH2 0xF0C PUSH1 0xA0 SWAP4 CALLDATALOAD PUSH2 0x13FC JUMP JUMPDEST DUP3 MLOAD SWAP3 DUP2 MLOAD DUP5 MSTORE PUSH1 0x20 DUP3 ADD MLOAD PUSH1 0x20 DUP6 ADD MSTORE DUP1 DUP3 ADD MLOAD SWAP1 DUP5 ADD MSTORE PUSH1 0x60 DUP2 ADD MLOAD PUSH1 0x60 DUP5 ADD MSTORE ADD MLOAD PUSH1 0x80 DUP3 ADD MSTORE RETURN JUMPDEST DUP4 DUP4 CALLVALUE PUSH2 0x198 JUMPI DUP1 PUSH1 0x3 NOT CALLDATASIZE ADD SLT PUSH2 0x198 JUMPI PUSH2 0xF52 PUSH2 0x11B7 JUMP JUMPDEST DUP3 SLOAD PUSH1 0x24 CALLDATALOAD SWAP3 SWAP2 PUSH1 0x1 PUSH1 0x1 PUSH1 0xA0 SHL SUB SWAP2 DUP3 AND CALLER EQ DUP1 ISZERO PUSH2 0x1130 JUMPI JUMPDEST DUP1 ISZERO PUSH2 0x10DD JUMPI JUMPDEST DUP1 ISZERO PUSH2 0x108A JUMPI JUMPDEST DUP1 ISZERO PUSH2 0x1028 JUMPI JUMPDEST PUSH2 0xF8B SWAP1 PUSH2 0x1336 JUMP JUMPDEST AND SWAP4 DUP5 ISZERO PUSH2 0xFF3 JUMPI DUP3 ISZERO PUSH2 0xFC0 JUMPI DUP4 SWAP5 PUSH2 0xFBA SWAP5 MSTORE PUSH1 0x20 MSTORE DUP4 KECCAK256 PUSH2 0xFB0 DUP3 DUP3 SLOAD PUSH2 0x1373 JUMP JUMPDEST SWAP1 SSTORE PUSH1 0xA SLOAD PUSH2 0x1373 JUMP JUMPDEST PUSH1 0xA SSTORE DUP1 RETURN JUMPDEST PUSH1 0x20 PUSH1 0x64 SWAP3 MLOAD SWAP2 PUSH3 0x461BCD PUSH1 0xE5 SHL DUP4 MSTORE DUP3 ADD MSTORE PUSH1 0xE PUSH1 0x24 DUP3 ADD MSTORE PUSH14 0x125B9D985B1A5908185B5BDD5B9D PUSH1 0x92 SHL PUSH1 0x44 DUP3 ADD MSTORE REVERT JUMPDEST PUSH1 0x20 PUSH1 0x64 SWAP3 MLOAD SWAP2 PUSH3 0x461BCD PUSH1 0xE5 SHL DUP4 MSTORE DUP3 ADD MSTORE PUSH1 0x10 PUSH1 0x24 DUP3 ADD MSTORE PUSH16 0x24B73B30B634B2103932B332B93932B9 PUSH1 0x81 SHL PUSH1 0x44 DUP3 ADD MSTORE REVERT JUMPDEST POP DUP6 PUSH1 0x20 DUP4 PUSH1 0x2 SLOAD AND DUP6 MLOAD SWAP3 DUP4 DUP1 SWAP3 PUSH4 0xEBDCCEBB PUSH1 0xE0 SHL DUP3 MSTORE GAS STATICCALL SWAP1 DUP2 ISZERO PUSH2 0x1080 JUMPI PUSH2 0xF8B SWAP2 DUP5 SWAP2 DUP9 SWAP2 PUSH2 0x1062 JUMPI JUMPDEST POP AND CALLER EQ SWAP1 POP PUSH2 0xF82 JUMP JUMPDEST PUSH2 0x107A SWAP2 POP PUSH1 0x20 RETURNDATASIZE DUP2 GT PUSH2 0x530 JUMPI PUSH2 0x522 DUP2 DUP4 PUSH2 0x1252 JUMP JUMPDEST DUP10 PUSH2 0x1057 JUMP JUMPDEST DUP5 MLOAD RETURNDATASIZE DUP9 DUP3 RETURNDATACOPY RETURNDATASIZE SWAP1 REVERT JUMPDEST POP DUP6 PUSH1 0x20 DUP4 PUSH1 0x2 SLOAD AND DUP6 MLOAD SWAP3 DUP4 DUP1 SWAP3 PUSH4 0x95DDBE89 PUSH1 0xE0 SHL DUP3 MSTORE GAS STATICCALL SWAP1 DUP2 ISZERO PUSH2 0x1080 JUMPI SWAP1 DUP4 SWAP2 DUP8 SWAP2 PUSH2 0x10BF JUMPI JUMPDEST POP AND CALLER EQ PUSH2 0xF7B JUMP JUMPDEST PUSH2 0x10D7 SWAP2 POP PUSH1 0x20 RETURNDATASIZE DUP2 GT PUSH2 0x530 JUMPI PUSH2 0x522 DUP2 DUP4 PUSH2 0x1252 JUMP JUMPDEST DUP9 PUSH2 0x10B6 JUMP JUMPDEST POP DUP6 PUSH1 0x20 DUP4 PUSH1 0x2 SLOAD AND DUP6 MLOAD SWAP3 DUP4 DUP1 SWAP3 PUSH4 0xFAAC38EF PUSH1 0xE0 SHL DUP3 MSTORE GAS STATICCALL SWAP1 DUP2 ISZERO PUSH2 0x1080 JUMPI SWAP1 DUP4 SWAP2 DUP8 SWAP2 PUSH2 0x1112 JUMPI JUMPDEST POP AND CALLER EQ PUSH2 0xF74 JUMP JUMPDEST PUSH2 0x112A SWAP2 POP PUSH1 0x20 RETURNDATASIZE DUP2 GT PUSH2 0x530 JUMPI PUSH2 0x522 DUP2 DUP4 PUSH2 0x1252 JUMP JUMPDEST DUP9 PUSH2 0x1109 JUMP JUMPDEST POP DUP6 PUSH1 0x20 DUP4 PUSH1 0x2 SLOAD AND DUP6 MLOAD SWAP3 DUP4 DUP1 SWAP3 PUSH4 0x492EB5D1 PUSH1 0xE1 SHL DUP3 MSTORE GAS STATICCALL SWAP1 DUP2 ISZERO PUSH2 0x1080 JUMPI SWAP1 DUP4 SWAP2 DUP8 SWAP2 PUSH2 0x1165 JUMPI JUMPDEST POP AND CALLER EQ PUSH2 0xF6D JUMP JUMPDEST PUSH2 0x117D SWAP2 POP PUSH1 0x20 RETURNDATASIZE DUP2 GT PUSH2 0x530 JUMPI PUSH2 0x522 DUP2 DUP4 PUSH2 0x1252 JUMP JUMPDEST DUP9 PUSH2 0x115C JUMP JUMPDEST DUP5 SWAP1 DUP5 CALLVALUE PUSH2 0x202 JUMPI PUSH1 0x20 CALLDATASIZE PUSH1 0x3 NOT ADD SLT PUSH2 0x202 JUMPI PUSH1 0x20 SWAP3 PUSH1 0x1 PUSH1 0x1 PUSH1 0xA0 SHL SUB PUSH2 0x11AA PUSH2 0x11B7 JUMP JUMPDEST AND DUP2 MSTORE PUSH1 0x5 DUP5 MSTORE KECCAK256 SLOAD DUP2 MSTORE RETURN JUMPDEST PUSH1 0x4 CALLDATALOAD SWAP1 PUSH1 0x1 PUSH1 0x1 PUSH1 0xA0 SHL SUB DUP3 AND DUP3 SUB PUSH2 0x11CD JUMPI JUMP JUMPDEST PUSH1 0x0 DUP1 REVERT JUMPDEST PUSH1 0x24 CALLDATALOAD SWAP1 PUSH1 0x1 PUSH1 0x1 PUSH1 0xA0 SHL SUB DUP3 AND DUP3 SUB PUSH2 0x11CD JUMPI JUMP JUMPDEST CALLVALUE PUSH2 0x11CD JUMPI PUSH1 0x0 CALLDATASIZE PUSH1 0x3 NOT ADD SLT PUSH2 0x11CD JUMPI PUSH1 0x20 PUSH1 0x40 MLOAD PUSH1 0x32 DUP2 MSTORE RETURN JUMPDEST CALLVALUE PUSH2 0x11CD JUMPI PUSH1 0x0 CALLDATASIZE PUSH1 0x3 NOT ADD SLT PUSH2 0x11CD JUMPI PUSH1 0x20 PUSH1 0x40 MLOAD PUSH1 0x64 DUP2 MSTORE RETURN JUMPDEST PUSH1 0xA0 DUP2 ADD SWAP1 DUP2 LT PUSH8 0xFFFFFFFFFFFFFFFF DUP3 GT OR PUSH2 0x123C JUMPI PUSH1 0x40 MSTORE JUMP JUMPDEST PUSH4 0x4E487B71 PUSH1 0xE0 SHL PUSH1 0x0 MSTORE PUSH1 0x41 PUSH1 0x4 MSTORE PUSH1 0x24 PUSH1 0x0 REVERT JUMPDEST SWAP1 PUSH1 0x1F DUP1 NOT SWAP2 ADD AND DUP2 ADD SWAP1 DUP2 LT PUSH8 0xFFFFFFFFFFFFFFFF DUP3 GT OR PUSH2 0x123C JUMPI PUSH1 0x40 MSTORE JUMP JUMPDEST SWAP1 DUP1 PUSH1 0x1F DUP4 ADD SLT ISZERO PUSH2 0x11CD JUMPI DUP2 CALLDATALOAD SWAP1 PUSH8 0xFFFFFFFFFFFFFFFF DUP3 GT PUSH2 0x123C JUMPI DUP2 PUSH1 0x5 SHL PUSH1 0x40 MLOAD SWAP4 PUSH1 0x20 SWAP4 PUSH2 0x12A9 DUP6 DUP5 ADD DUP8 PUSH2 0x1252 JUMP JUMPDEST DUP6 MSTORE DUP4 DUP1 DUP7 ADD SWAP3 DUP3 ADD ADD SWAP3 DUP4 GT PUSH2 0x11CD JUMPI DUP4 ADD SWAP1 JUMPDEST DUP3 DUP3 LT PUSH2 0x12CC JUMPI POP POP POP POP SWAP1 JUMP JUMPDEST DUP2 CALLDATALOAD PUSH1 0x1 PUSH1 0x1 PUSH1 0xA0 SHL SUB DUP2 AND DUP2 SUB PUSH2 0x11CD JUMPI DUP2 MSTORE SWAP1 DUP4 ADD SWAP1 DUP4 ADD PUSH2 0x12BE JUMP JUMPDEST PUSH1 0x0 SLOAD PUSH1 0x1 PUSH1 0x1 PUSH1 0xA0 SHL SUB AND CALLER SUB PUSH2 0x12FF JUMPI JUMP JUMPDEST PUSH1 0x40 MLOAD PUSH4 0x118CDAA7 PUSH1 0xE0 SHL DUP2 MSTORE CALLER PUSH1 0x4 DUP3 ADD MSTORE PUSH1 0x24 SWAP1 REVERT JUMPDEST SWAP1 DUP2 PUSH1 0x20 SWAP2 SUB SLT PUSH2 0x11CD JUMPI MLOAD PUSH1 0x1 PUSH1 0x1 PUSH1 0xA0 SHL SUB DUP2 AND DUP2 SUB PUSH2 0x11CD JUMPI SWAP1 JUMP JUMPDEST ISZERO PUSH2 0x133D JUMPI JUMP JUMPDEST PUSH1 0x40 MLOAD PUSH3 0x461BCD PUSH1 0xE5 SHL DUP2 MSTORE PUSH1 0x20 PUSH1 0x4 DUP3 ADD MSTORE PUSH1 0xE PUSH1 0x24 DUP3 ADD MSTORE PUSH14 0x139BDD08185D5D1A1BDC9A5E9959 PUSH1 0x92 SHL PUSH1 0x44 DUP3 ADD MSTORE PUSH1 0x64 SWAP1 REVERT JUMPDEST SWAP2 SWAP1 DUP3 ADD DUP1 SWAP3 GT PUSH2 0x1380 JUMPI JUMP JUMPDEST PUSH4 0x4E487B71 PUSH1 0xE0 SHL PUSH1 0x0 MSTORE PUSH1 0x11 PUSH1 0x4 MSTORE PUSH1 0x24 PUSH1 0x0 REVERT JUMPDEST DUP2 ISZERO PUSH2 0x13A0 JUMPI DIV SWAP1 JUMP JUMPDEST PUSH4 0x4E487B71 PUSH1 0xE0 SHL PUSH1 0x0 MSTORE PUSH1 0x12 PUSH1 0x4 MSTORE PUSH1 0x24 PUSH1 0x0 REVERT JUMPDEST PUSH1 0x0 NOT DUP2 EQ PUSH2 0x1380 JUMPI PUSH1 0x1 ADD SWAP1 JUMP JUMPDEST DUP1 MLOAD DUP3 LT ISZERO PUSH2 0x13D9 JUMPI PUSH1 0x20 SWAP2 PUSH1 0x5 SHL ADD ADD SWAP1 JUMP JUMPDEST PUSH4 0x4E487B71 PUSH1 0xE0 SHL PUSH1 0x0 MSTORE PUSH1 0x32 PUSH1 0x4 MSTORE PUSH1 0x24 PUSH1 0x0 REVERT JUMPDEST SWAP2 SWAP1 DUP3 SUB SWAP2 DUP3 GT PUSH2 0x1380 JUMPI JUMP JUMPDEST PUSH1 0x80 PUSH1 0x40 MLOAD PUSH2 0x140A DUP2 PUSH2 0x1220 JUMP JUMPDEST PUSH1 0x0 SWAP2 DUP2 DUP4 DUP1 SWAP4 MSTORE DUP3 PUSH1 0x20 DUP3 ADD MSTORE DUP3 PUSH1 0x40 DUP3 ADD MSTORE DUP3 PUSH1 0x60 DUP3 ADD MSTORE ADD MSTORE PUSH1 0xC8 DUP3 MUL SWAP2 DUP1 ISZERO SWAP1 DUP1 DUP5 DIV PUSH1 0xC8 EQ DUP3 OR ISZERO PUSH2 0x14A6 JUMPI PUSH1 0x64 DUP2 MUL SWAP3 DUP2 DUP5 DIV PUSH1 0x64 EQ DUP4 OR ISZERO PUSH2 0x1492 JUMPI PUSH2 0x2710 DUP1 SWAP5 DIV SWAP3 PUSH1 0x32 DUP4 MUL SWAP3 DUP4 DIV PUSH1 0x32 EQ OR ISZERO PUSH2 0x1492 JUMPI POP DUP3 SWAP1 DIV SWAP2 PUSH1 0x40 MLOAD SWAP4 PUSH2 0x1476 DUP6 PUSH2 0x1220 JUMP JUMPDEST DIV DUP4 MSTORE DUP1 PUSH1 0x20 DUP5 ADD MSTORE PUSH1 0x40 DUP4 ADD MSTORE DUP1 PUSH1 0x60 DUP4 ADD MSTORE PUSH1 0x80 DUP3 ADD MSTORE SWAP1 JUMP JUMPDEST PUSH4 0x4E487B71 PUSH1 0xE0 SHL DUP2 MSTORE PUSH1 0x11 PUSH1 0x4 MSTORE PUSH1 0x24 SWAP1 REVERT JUMPDEST PUSH4 0x4E487B71 PUSH1 0xE0 SHL DUP4 MSTORE PUSH1 0x11 PUSH1 0x4 MSTORE PUSH1 0x24 DUP4 REVERT INVALID LOG2 PUSH5 0x6970667358 0x22 SLT KECCAK256 PUSH2 0x38AA 0xF EQ JUMP 0xFB RETURNDATACOPY 0x2A 0xE1 0xBF 0xD2 0xB1 PUSH5 0x9B0A88D6DB PUSH15 0xE3D5425C5816040E58CF742C64736F PUSH13 0x63430008140033000000000000 "},"methodIdentifiers":{"CREATOR_FEE_PERCENT()":"da23eb63","FEE_DENOMINATOR()":"d73792a9","LP_FEE_PERCENT()":"11aa08d2","PLATFORM_FEE_PERCENT()":"560d52d4","REFERRER_FEE_PERCENT()":"f3d428ae","STAKERS_FEE_PERCENT()":"e3051f3a","calculateFeeDistribution(uint256)":"265b6f05","claimRewards()":"372500ab","collectFee(address,address,uint256,string)":"ec185a07","distributeReferrerReward(address,uint256)":"1cbce8d2","distributeRewards(address,address,address[],address[])":"dad511b7","emergencyWithdraw()":"db2e21bc","getPendingRewards(address)":"f6ed2017","getTokenFeeInfo(address)":"21049730","getUserRewardInfo(address,address)":"cae7343c","owner()":"8da5cb5b","registry()":"7b103999","renounceOwnership()":"715018a6","setTreasuryAddress(address)":"6605bfda","tokenFees(address)":"39e16d64","totalCreatorFees()":"fe2b214c","totalLPFees()":"f82371e4","totalPlatformFees()":"d3631fa5","totalReferrerFees()":"737baa40","totalStakersFees()":"774a724f","transferOwnership(address)":"f2fde38b","treasuryAddress()":"c5f956af","userClaimedRewards(address)":"00f1197c","userTotalRewards(address)":"f6a3f3cf","withdrawPlatformFees()":"d0b7830b"}}}}}