{"contracts/LiquidityPoolContract.sol":{"LiquidityPoolContract":{"abi":[{"inputs":[{"internalType":"address","name":"_registry","type":"address"}],"stateMutability":"nonpayable","type":"constructor"},{"inputs":[{"internalType":"address","name":"owner","type":"address"}],"name":"OwnableInvalidOwner","type":"error"},{"inputs":[{"internalType":"address","name":"account","type":"address"}],"name":"OwnableUnauthorizedAccount","type":"error"},{"inputs":[],"name":"ReentrancyGuardReentrantCall","type":"error"},{"inputs":[{"internalType":"address","name":"token","type":"address"}],"name":"SafeERC20FailedOperation","type":"error"},{"anonymous":false,"inputs":[{"indexed":true,"internalType":"address","name":"user","type":"address"},{"indexed":true,"internalType":"address","name":"tokenA","type":"address"},{"indexed":true,"internalType":"address","name":"tokenB","type":"address"},{"indexed":false,"internalType":"uint256","name":"amountA","type":"uint256"},{"indexed":false,"internalType":"uint256","name":"amountB","type":"uint256"},{"indexed":false,"internalType":"uint256","name":"lpTokens","type":"uint256"}],"name":"LiquidityAdded","type":"event"},{"anonymous":false,"inputs":[{"indexed":true,"internalType":"address","name":"user","type":"address"},{"indexed":true,"internalType":"address","name":"tokenA","type":"address"},{"indexed":true,"internalType":"address","name":"tokenB","type":"address"},{"indexed":false,"internalType":"uint256","name":"amountA","type":"uint256"},{"indexed":false,"internalType":"uint256","name":"amountB","type":"uint256"},{"indexed":false,"internalType":"uint256","name":"lpTokens","type":"uint256"}],"name":"LiquidityRemoved","type":"event"},{"anonymous":false,"inputs":[{"indexed":true,"internalType":"address","name":"previousOwner","type":"address"},{"indexed":true,"internalType":"address","name":"newOwner","type":"address"}],"name":"OwnershipTransferred","type":"event"},{"anonymous":false,"inputs":[{"indexed":true,"internalType":"address","name":"user","type":"address"},{"indexed":true,"internalType":"address","name":"tokenIn","type":"address"},{"indexed":true,"internalType":"address","name":"tokenOut","type":"address"},{"indexed":false,"internalType":"uint256","name":"amountIn","type":"uint256"},{"indexed":false,"internalType":"uint256","name":"amountOut","type":"uint256"}],"name":"Swapped","type":"event"},{"inputs":[],"name":"FEE_DENOMINATOR","outputs":[{"internalType":"uint256","name":"","type":"uint256"}],"stateMutability":"view","type":"function"},{"inputs":[],"name":"FEE_PERCENT","outputs":[{"internalType":"uint256","name":"","type":"uint256"}],"stateMutability":"view","type":"function"},{"inputs":[],"name":"MINIMUM_LIQUIDITY","outputs":[{"internalType":"uint256","name":"","type":"uint256"}],"stateMutability":"view","type":"function"},{"inputs":[{"internalType":"address","name":"user","type":"address"},{"internalType":"address","name":"tokenA","type":"address"},{"internalType":"address","name":"tokenB","type":"address"},{"internalType":"uint256","name":"amountA","type":"uint256"},{"internalType":"uint256","name":"amountB","type":"uint256"}],"name":"addLiquidity","outputs":[{"internalType":"uint256","name":"lpTokens","type":"uint256"}],"stateMutability":"nonpayable","type":"function"},{"inputs":[{"internalType":"address","name":"tokenA","type":"address"},{"internalType":"address","name":"tokenB","type":"address"}],"name":"createPool","outputs":[],"stateMutability":"nonpayable","type":"function"},{"inputs":[{"internalType":"address","name":"tokenA","type":"address"},{"internalType":"address","name":"tokenB","type":"address"}],"name":"getPoolId","outputs":[{"internalType":"bytes32","name":"","type":"bytes32"}],"stateMutability":"pure","type":"function"},{"inputs":[{"internalType":"address","name":"tokenA","type":"address"},{"internalType":"address","name":"tokenB","type":"address"}],"name":"getPoolInfo","outputs":[{"components":[{"internalType":"address","name":"tokenA","type":"address"},{"internalType":"address","name":"tokenB","type":"address"},{"internalType":"uint256","name":"reserveA","type":"uint256"},{"internalType":"uint256","name":"reserveB","type":"uint256"},{"internalType":"uint256","name":"totalLPTokens","type":"uint256"},{"internalType":"bool","name":"active","type":"bool"}],"internalType":"struct LiquidityPoolContract.Pool","name":"","type":"tuple"}],"stateMutability":"view","type":"function"},{"inputs":[{"internalType":"address","name":"user","type":"address"}],"name":"getUserPools","outputs":[{"internalType":"bytes32[]","name":"","type":"bytes32[]"}],"stateMutability":"view","type":"function"},{"inputs":[{"internalType":"address","name":"user","type":"address"},{"internalType":"address","name":"tokenA","type":"address"},{"internalType":"address","name":"tokenB","type":"address"}],"name":"getUserPosition","outputs":[{"components":[{"internalType":"uint256","name":"lpTokens","type":"uint256"},{"internalType":"uint256","name":"tokenADeposited","type":"uint256"},{"internalType":"uint256","name":"tokenBDeposited","type":"uint256"}],"internalType":"struct LiquidityPoolContract.LPPosition","name":"","type":"tuple"}],"stateMutability":"view","type":"function"},{"inputs":[],"name":"owner","outputs":[{"internalType":"address","name":"","type":"address"}],"stateMutability":"view","type":"function"},{"inputs":[{"internalType":"bytes32","name":"","type":"bytes32"}],"name":"pools","outputs":[{"internalType":"address","name":"tokenA","type":"address"},{"internalType":"address","name":"tokenB","type":"address"},{"internalType":"uint256","name":"reserveA","type":"uint256"},{"internalType":"uint256","name":"reserveB","type":"uint256"},{"internalType":"uint256","name":"totalLPTokens","type":"uint256"},{"internalType":"bool","name":"active","type":"bool"}],"stateMutability":"view","type":"function"},{"inputs":[{"internalType":"bytes32","name":"","type":"bytes32"},{"internalType":"address","name":"","type":"address"}],"name":"positions","outputs":[{"internalType":"uint256","name":"lpTokens","type":"uint256"},{"internalType":"uint256","name":"tokenADeposited","type":"uint256"},{"internalType":"uint256","name":"tokenBDeposited","type":"uint256"}],"stateMutability":"view","type":"function"},{"inputs":[],"name":"registry","outputs":[{"internalType":"contract IRegistry","name":"","type":"address"}],"stateMutability":"view","type":"function"},{"inputs":[{"internalType":"address","name":"user","type":"address"},{"internalType":"uint256","name":"lpTokens","type":"uint256"},{"internalType":"address","name":"tokenA","type":"address"},{"internalType":"address","name":"tokenB","type":"address"}],"name":"removeLiquidity","outputs":[{"internalType":"uint256","name":"amountA","type":"uint256"},{"internalType":"uint256","name":"amountB","type":"uint256"}],"stateMutability":"nonpayable","type":"function"},{"inputs":[],"name":"renounceOwnership","outputs":[],"stateMutability":"nonpayable","type":"function"},{"inputs":[{"internalType":"address","name":"user","type":"address"},{"internalType":"address","name":"tokenIn","type":"address"},{"internalType":"address","name":"tokenOut","type":"address"},{"internalType":"uint256","name":"amountIn","type":"uint256"}],"name":"swap","outputs":[{"internalType":"uint256","name":"amountOut","type":"uint256"}],"stateMutability":"nonpayable","type":"function"},{"inputs":[{"internalType":"address","name":"newOwner","type":"address"}],"name":"transferOwnership","outputs":[],"stateMutability":"nonpayable","type":"function"},{"inputs":[{"internalType":"address","name":"","type":"address"},{"internalType":"uint256","name":"","type":"uint256"}],"name":"userPools","outputs":[{"internalType":"bytes32","name":"","type":"bytes32"}],"stateMutability":"view","type":"function"}],"evm":{"bytecode":{"linkReferences":{},"object":"6080346100ca57601f61163538819003918201601f19168301916001600160401b038311848410176100cf578084926020946040528339810103126100ca57516001600160a01b0390818116908190036100ca5733156100b15760005460018060a01b0319903382821617600055604051933391167f8be0079c531659141344cd1fd0a4f28419497f9722a3daafe3b4186f6b6457e0600080a360018055600254161760025561154f90816100e68239f35b604051631e4fbdf760e01b815260006004820152602490fd5b600080fd5b634e487b7160e01b600052604160045260246000fdfe6080604052600436101561001257600080fd5b60003560e01c80631064aa55146110c957806329d885941461105c5780632ef61c2114611028578063486e51f414610f375780634ea5efef14610b87578063715018a614610b2e578063719b67ce1461092e5780637b103999146109055780638da5cb5b146108dc5780639816af5814610828578063a9678a18146104b7578063b5217bb414610444578063ba9a7a5614610427578063d73792a91461040a578063e343361514610239578063e8aa691b1461018c578063eaf98d23146101705763f2fde38b146100e257600080fd5b3461016b57602036600319011261016b576100fb611121565b610103611191565b6001600160a01b0390811690811561015257600054826001600160601b0360a01b821617600055167f8be0079c531659141344cd1fd0a4f28419497f9722a3daafe3b4186f6b6457e0600080a3005b604051631e4fbdf760e01b815260006004820152602490fd5b600080fd5b3461016b57600036600319011261016b576020604051601e8152f35b3461016b57606036600319011261016b576101a5611121565b6101d86101b0611137565b6101b861114d565b906000604080516101c8816111d9565b8281528260208201520152611217565b600052600460205260406000209060018060a01b031660005260205260606040600020604051610207816111d9565b815491828252604060026001830154926020850193845201549201918252604051928352516020830152516040820152f35b3461016b57604036600319011261016b57610252611121565b61025a611137565b6001600160a01b0381811692808216929091908385146103d257831515806103c9575b156103945761028c8184611217565b9485600052600360205260ff60056040600020015416610361576005941092831561035a5780935b1561035357505b81604051936102c9856111bd565b168352816020840191168152604083016000815260608401916000835260808501936000855260a0860197600189526000526003602052806040600020965116906001600160601b0360a01b91828854161787556001870192511690825416179055516002840155516003830155516004820155019051151560ff80198354169116179055600080f35b90506102bb565b81936102b4565b60405162461bcd60e51b815260206004820152600b60248201526a506f6f6c2065786973747360a81b6044820152606490fd5b60405162461bcd60e51b815260206004820152600d60248201526c24b73b30b634b2103a37b5b2b760991b6044820152606490fd5b5084151561027d565b60405162461bcd60e51b815260206004820152601060248201526f4964656e746963616c20746f6b656e7360801b6044820152606490fd5b3461016b57600036600319011261016b5760206040516127108152f35b3461016b57600036600319011261016b5760206040516103e88152f35b3461016b57602036600319011261016b57600435600052600360205260c0604060002060018060a01b0390818154169160018201541690600281015460038201549060ff6005600485015494015416936040519586526020860152604085015260608401526080830152151560a0820152f35b3461016b57608036600319011261016b576104d0611121565b6104d8611137565b6104e061114d565b90606435916104ed6113aa565b82156107f2576001600160a01b039281841692808516928385146107c05761051491611217565b6000526020946003865260406000209461053460ff600588015416611268565b8554811684149586156107b5576002810154905b87156107aa576003810154975b6126f286026126f119878204016106a6576105708a826112a6565b61271094858102908082048714901517156106a65761059892610592916112d9565b906112b9565b988915610765578910156107275790600492916105b78730888b6112f3565b6105c28a878b6113cd565b1561070057806002600392016105d98882546112d9565b9055016105e78982546112e6565b90555b8883600254166040519384809263796b1c1360e11b82525afa9182156106f4576000926106bc575b5082821661065b575b50506040907f6782190c91d4a7e8ad2a867deed6ec0a970cab8ff137ae2bd4abd92b3810f4d392825194855287898601521692a460018055604051908152f35b919092601e8502858104601e036106a6577f6782190c91d4a7e8ad2a867deed6ec0a970cab8ff137ae2bd4abd92b3810f4d39460409461069d920490886113cd565b9281925061061b565b634e487b7160e01b600052601160045260246000fd5b9091508881813d83116106ed575b6106d481836111f5565b8101031261016b5751828116810361016b579089610612565b503d6106ca565b6040513d6000823e3d90fd5b806003600292016107128882546112d9565b9055016107208982546112e6565b90556105ea565b60405162461bcd60e51b8152600481018b90526016602482015275496e73756666696369656e74206c697175696469747960501b6044820152606490fd5b60405162461bcd60e51b8152600481018c9052601a60248201527f496e73756666696369656e74206f757470757420616d6f756e740000000000006044820152606490fd5b600281015497610555565b600381015490610548565b60405162461bcd60e51b815260206004820152600a60248201526929b0b6b2903a37b5b2b760b11b6044820152606490fd5b60405162461bcd60e51b815260206004820152600e60248201526d125b9d985b1a5908185b5bdd5b9d60921b6044820152606490fd5b3461016b5760208060031936011261016b576001600160a01b0361084a611121565b1660005260058152604060002060405190818382549182815201908192600052846000209060005b868282106108c8578686610888828803836111f5565b604051928392818401908285525180915260408401929160005b8281106108b157505050500390f35b8351855286955093810193928101926001016108a2565b835485529093019260019283019201610872565b3461016b57600036600319011261016b576000546040516001600160a01b039091168152602090f35b3461016b57600036600319011261016b576002546040516001600160a01b039091168152602090f35b3461016b57608036600319011261016b57610947611121565b60243561095261114d565b6001600160a01b0391606435838116929083810361016b576109726113aa565b8215610af5576109829082611217565b938460005260036020526040600020946109a260ff600588015416611268565b60005260046020526040600020918187169283600052602052604060002096875496858810610ab7578381600288930180546109de90856112a6565b9060048301805492836109f0916112b9565b9d60038501938454610a0290896112a6565b90610a0c916112b9565b9d8e97610a18916112e6565b90558a815490610a27916112e6565b90558c815490610a36916112e6565b905583815490610a45916112e6565b9055838b8383541691610a57926113cd565b600101541691610a66926113cd565b60408051888152602081018890529081019490945216917fd765e08eef31c0983ecca03ecd166297ac485ecd5dd69e291c848f0a020333c190606090a4600180556040519182526020820152604090f35b60405162461bcd60e51b8152602060048201526016602482015275496e73756666696369656e74204c5020746f6b656e7360501b6044820152606490fd5b60405162461bcd60e51b8152602060048201526011602482015270125b9d985b1a5908131408185b5bdd5b9d607a1b6044820152606490fd5b3461016b57600036600319011261016b57610b47611191565b600080546001600160a01b0319811682556001600160a01b03167f8be0079c531659141344cd1fd0a4f28419497f9722a3daafe3b4186f6b6457e08280a3005b3461016b5760a036600319011261016b57610ba0611121565b610ba8611137565b90610bb161114d565b9160843591610bbe6113aa565b8290606435151580610f2e575b15610ef757610bda8584611217565b806000526003602052604060002094610bf960ff600588015416611268565b60028601549081159182610eea575b8215610e6f575b50610c29905060643530856001600160a01b0389166112f3565b610c3e8430856001600160a01b038b166112f3565b15610e1157610c57610c52846064356112a6565b61141d565b946103e7198601908682116106a6576003919660048201555b610c8060643560028301546112d9565b600282015501610c918482546112d9565b9055806000526004602052610d248160406000209360018060a01b03811694856000526020526040600020610cc78982546112d9565b90558160005260046020526040600020856000526020526001604060002001610cf360643582546112d9565b90558160005260046020526040600020856000526020526002604060002001610d1d8782546112d9565b9055611467565b610d84575b5060408051606435815260208082019490945290810185905291946001600160a01b039081169316917f43c967b388d3a4ccad3f7ab80167852e322e5a3fde9893f530252281b2ae8b7090606090a460018055604051908152f35b9481600052600560205260406000209081549068010000000000000000821015610dfb57602097610ddd837f43c967b388d3a4ccad3f7ab80167852e322e5a3fde9893f530252281b2ae8b709560018b96018155611163565b819291549060031b91821b91600019901b1916179055965050610d29565b634e487b7160e01b600052604160045260246000fd5b6003600486015495610e5e610e36610e2b896064356112a6565b6002840154906112b9565b610e4d610e438a896112a6565b85850154906112b9565b80821015610e6857505b80986112d9565b6004820155610c70565b9050610e57565b610e8890610e8360038a01546064356112a6565b6112b9565b90818110610ea5578110610e9d575b80610c0f565b935087610e97565b60405162461bcd60e51b815260206004820152601a60248201527f496e73756666696369656e7420746f6b656e4220616d6f756e740000000000006044820152606490fd5b6003880154159250610c08565b60405162461bcd60e51b815260206004820152600f60248201526e496e76616c696420616d6f756e747360881b6044820152606490fd5b50831515610bcb565b3461016b57604036600319011261016b57610f8e610f53611121565b610f5b611137565b90600060a0604051610f6c816111bd565b8281528260208201528260408201528260608201528260808201520152611217565b600052600360205260c06040600020604051610fa9816111bd565b60018060a01b03918281541692838352806001830154169060208401918252600283015490604085019182526003840154926060860193845260a060ff600560048801549760808a01988952015416960195151586526040519687525116602086015251604085015251606084015251608083015251151560a0820152f35b3461016b57604036600319011261016b576020611054611046611121565b61104e611137565b90611217565b604051908152f35b3461016b57604036600319011261016b57611075611137565b600435600052600460205260406000209060018060a01b0316600052602052604060002080546110c560026001840154930154604051938493846040919493926060820195825260208201520152565b0390f35b3461016b57604036600319011261016b576110e2611121565b6001600160a01b031660009081526005602052604090208054602435919082101561016b5760209161111391611163565b90546040519160031b1c8152f35b600435906001600160a01b038216820361016b57565b602435906001600160a01b038216820361016b57565b604435906001600160a01b038216820361016b57565b805482101561117b5760005260206000200190600090565b634e487b7160e01b600052603260045260246000fd5b6000546001600160a01b031633036111a557565b60405163118cdaa760e01b8152336004820152602490fd5b60c0810190811067ffffffffffffffff821117610dfb57604052565b6060810190811067ffffffffffffffff821117610dfb57604052565b90601f8019910116810190811067ffffffffffffffff821117610dfb57604052565b6001600160a01b038281169082161015611262575b6040519060208201926001600160601b0319809260601b16845260601b1660348201526028815261125c816111d9565b51902090565b9061122c565b1561126f57565b60405162461bcd60e51b815260206004820152600f60248201526e506f6f6c206e6f742061637469766560881b6044820152606490fd5b818102929181159184041417156106a657565b81156112c3570490565b634e487b7160e01b600052601260045260246000fd5b919082018092116106a657565b919082039182116106a657565b6040516323b872dd60e01b60208201526001600160a01b03928316602482015292909116604483015260648083019390935291815260a081019181831067ffffffffffffffff841117610dfb5761134c9260405261134e565b565b906000602091828151910182855af1156106f4576000513d6113a157506001600160a01b0381163b155b61137f5750565b604051635274afe760e01b81526001600160a01b039091166004820152602490fd5b60011415611378565b6002600154146113bb576002600155565b604051633ee5aeb560e01b8152600490fd5b60405163a9059cbb60e01b60208201526001600160a01b039092166024830152604480830193909352918152608081019167ffffffffffffffff831182841017610dfb5761134c9260405261134e565b80156114615760018082018083116106a657811c90825b8383106114415750505090565b909192506114588361145381846112b9565b6112d9565b821c9190611434565b50600090565b909160009160018060a01b03168252600592602084815260408420604051808284829454938481520190885284882092885b86828210611503575050506114b0925003826111f5565b845b81518110156114f757838382891b84010151146114ee5760001981146114da576001016114b2565b634e487b7160e01b86526011600452602486fd5b50505050915090565b50505050915050600190565b855484526001958601958795509301920161149956fea26469706673582212205fa19b9c0148b5b9d536065df90fc76938cebcb26f79f323417dfc739569ba6364736f6c63430008140033","opcodes":"PUSH1 0x80 CALLVALUE PUSH2 0xCA JUMPI PUSH1 0x1F PUSH2 0x1635 CODESIZE DUP2 SWAP1 SUB SWAP2 DUP3 ADD PUSH1 0x1F NOT AND DUP4 ADD SWAP2 PUSH1 0x1 PUSH1 0x1 PUSH1 0x40 SHL SUB DUP4 GT DUP5 DUP5 LT OR PUSH2 0xCF JUMPI DUP1 DUP5 SWAP3 PUSH1 0x20 SWAP5 PUSH1 0x40 MSTORE DUP4 CODECOPY DUP2 ADD SUB SLT PUSH2 0xCA JUMPI MLOAD PUSH1 0x1 PUSH1 0x1 PUSH1 0xA0 SHL SUB SWAP1 DUP2 DUP2 AND SWAP1 DUP2 SWAP1 SUB PUSH2 0xCA JUMPI CALLER ISZERO PUSH2 0xB1 JUMPI PUSH1 0x0 SLOAD PUSH1 0x1 DUP1 PUSH1 0xA0 SHL SUB NOT SWAP1 CALLER DUP3 DUP3 AND OR PUSH1 0x0 SSTORE PUSH1 0x40 MLOAD SWAP4 CALLER SWAP2 AND PUSH32 0x8BE0079C531659141344CD1FD0A4F28419497F9722A3DAAFE3B4186F6B6457E0 PUSH1 0x0 DUP1 LOG3 PUSH1 0x1 DUP1 SSTORE PUSH1 0x2 SLOAD AND OR PUSH1 0x2 SSTORE PUSH2 0x154F SWAP1 DUP2 PUSH2 0xE6 DUP3 CODECOPY RETURN JUMPDEST PUSH1 0x40 MLOAD PUSH4 0x1E4FBDF7 PUSH1 0xE0 SHL DUP2 MSTORE PUSH1 0x0 PUSH1 0x4 DUP3 ADD MSTORE PUSH1 0x24 SWAP1 REVERT JUMPDEST PUSH1 0x0 DUP1 REVERT JUMPDEST PUSH4 0x4E487B71 PUSH1 0xE0 SHL PUSH1 0x0 MSTORE PUSH1 0x41 PUSH1 0x4 MSTORE PUSH1 0x24 PUSH1 0x0 REVERT INVALID PUSH1 0x80 PUSH1 0x40 MSTORE PUSH1 0x4 CALLDATASIZE LT ISZERO PUSH2 0x12 JUMPI PUSH1 0x0 DUP1 REVERT JUMPDEST PUSH1 0x0 CALLDATALOAD PUSH1 0xE0 SHR DUP1 PUSH4 0x1064AA55 EQ PUSH2 0x10C9 JUMPI DUP1 PUSH4 0x29D88594 EQ PUSH2 0x105C JUMPI DUP1 PUSH4 0x2EF61C21 EQ PUSH2 0x1028 JUMPI DUP1 PUSH4 0x486E51F4 EQ PUSH2 0xF37 JUMPI DUP1 PUSH4 0x4EA5EFEF EQ PUSH2 0xB87 JUMPI DUP1 PUSH4 0x715018A6 EQ PUSH2 0xB2E JUMPI DUP1 PUSH4 0x719B67CE EQ PUSH2 0x92E JUMPI DUP1 PUSH4 0x7B103999 EQ PUSH2 0x905 JUMPI DUP1 PUSH4 0x8DA5CB5B EQ PUSH2 0x8DC JUMPI DUP1 PUSH4 0x9816AF58 EQ PUSH2 0x828 JUMPI DUP1 PUSH4 0xA9678A18 EQ PUSH2 0x4B7 JUMPI DUP1 PUSH4 0xB5217BB4 EQ PUSH2 0x444 JUMPI DUP1 PUSH4 0xBA9A7A56 EQ PUSH2 0x427 JUMPI DUP1 PUSH4 0xD73792A9 EQ PUSH2 0x40A JUMPI DUP1 PUSH4 0xE3433615 EQ PUSH2 0x239 JUMPI DUP1 PUSH4 0xE8AA691B EQ PUSH2 0x18C JUMPI DUP1 PUSH4 0xEAF98D23 EQ PUSH2 0x170 JUMPI PUSH4 0xF2FDE38B EQ PUSH2 0xE2 JUMPI PUSH1 0x0 DUP1 REVERT JUMPDEST CALLVALUE PUSH2 0x16B JUMPI PUSH1 0x20 CALLDATASIZE PUSH1 0x3 NOT ADD SLT PUSH2 0x16B JUMPI PUSH2 0xFB PUSH2 0x1121 JUMP JUMPDEST PUSH2 0x103 PUSH2 0x1191 JUMP JUMPDEST PUSH1 0x1 PUSH1 0x1 PUSH1 0xA0 SHL SUB SWAP1 DUP2 AND SWAP1 DUP2 ISZERO PUSH2 0x152 JUMPI PUSH1 0x0 SLOAD DUP3 PUSH1 0x1 PUSH1 0x1 PUSH1 0x60 SHL SUB PUSH1 0xA0 SHL DUP3 AND OR PUSH1 0x0 SSTORE AND PUSH32 0x8BE0079C531659141344CD1FD0A4F28419497F9722A3DAAFE3B4186F6B6457E0 PUSH1 0x0 DUP1 LOG3 STOP JUMPDEST PUSH1 0x40 MLOAD PUSH4 0x1E4FBDF7 PUSH1 0xE0 SHL DUP2 MSTORE PUSH1 0x0 PUSH1 0x4 DUP3 ADD MSTORE PUSH1 0x24 SWAP1 REVERT JUMPDEST PUSH1 0x0 DUP1 REVERT JUMPDEST CALLVALUE PUSH2 0x16B JUMPI PUSH1 0x0 CALLDATASIZE PUSH1 0x3 NOT ADD SLT PUSH2 0x16B JUMPI PUSH1 0x20 PUSH1 0x40 MLOAD PUSH1 0x1E DUP2 MSTORE RETURN JUMPDEST CALLVALUE PUSH2 0x16B JUMPI PUSH1 0x60 CALLDATASIZE PUSH1 0x3 NOT ADD SLT PUSH2 0x16B JUMPI PUSH2 0x1A5 PUSH2 0x1121 JUMP JUMPDEST PUSH2 0x1D8 PUSH2 0x1B0 PUSH2 0x1137 JUMP JUMPDEST PUSH2 0x1B8 PUSH2 0x114D JUMP JUMPDEST SWAP1 PUSH1 0x0 PUSH1 0x40 DUP1 MLOAD PUSH2 0x1C8 DUP2 PUSH2 0x11D9 JUMP JUMPDEST DUP3 DUP2 MSTORE DUP3 PUSH1 0x20 DUP3 ADD MSTORE ADD MSTORE PUSH2 0x1217 JUMP JUMPDEST PUSH1 0x0 MSTORE PUSH1 0x4 PUSH1 0x20 MSTORE PUSH1 0x40 PUSH1 0x0 KECCAK256 SWAP1 PUSH1 0x1 DUP1 PUSH1 0xA0 SHL SUB AND PUSH1 0x0 MSTORE PUSH1 0x20 MSTORE PUSH1 0x60 PUSH1 0x40 PUSH1 0x0 KECCAK256 PUSH1 0x40 MLOAD PUSH2 0x207 DUP2 PUSH2 0x11D9 JUMP JUMPDEST DUP2 SLOAD SWAP2 DUP3 DUP3 MSTORE PUSH1 0x40 PUSH1 0x2 PUSH1 0x1 DUP4 ADD SLOAD SWAP3 PUSH1 0x20 DUP6 ADD SWAP4 DUP5 MSTORE ADD SLOAD SWAP3 ADD SWAP2 DUP3 MSTORE PUSH1 0x40 MLOAD SWAP3 DUP4 MSTORE MLOAD PUSH1 0x20 DUP4 ADD MSTORE MLOAD PUSH1 0x40 DUP3 ADD MSTORE RETURN JUMPDEST CALLVALUE PUSH2 0x16B JUMPI PUSH1 0x40 CALLDATASIZE PUSH1 0x3 NOT ADD SLT PUSH2 0x16B JUMPI PUSH2 0x252 PUSH2 0x1121 JUMP JUMPDEST PUSH2 0x25A PUSH2 0x1137 JUMP JUMPDEST PUSH1 0x1 PUSH1 0x1 PUSH1 0xA0 SHL SUB DUP2 DUP2 AND SWAP3 DUP1 DUP3 AND SWAP3 SWAP1 SWAP2 SWAP1 DUP4 DUP6 EQ PUSH2 0x3D2 JUMPI DUP4 ISZERO ISZERO DUP1 PUSH2 0x3C9 JUMPI JUMPDEST ISZERO PUSH2 0x394 JUMPI PUSH2 0x28C DUP2 DUP5 PUSH2 0x1217 JUMP JUMPDEST SWAP5 DUP6 PUSH1 0x0 MSTORE PUSH1 0x3 PUSH1 0x20 MSTORE PUSH1 0xFF PUSH1 0x5 PUSH1 0x40 PUSH1 0x0 KECCAK256 ADD SLOAD AND PUSH2 0x361 JUMPI PUSH1 0x5 SWAP5 LT SWAP3 DUP4 ISZERO PUSH2 0x35A JUMPI DUP1 SWAP4 JUMPDEST ISZERO PUSH2 0x353 JUMPI POP JUMPDEST DUP2 PUSH1 0x40 MLOAD SWAP4 PUSH2 0x2C9 DUP6 PUSH2 0x11BD JUMP JUMPDEST AND DUP4 MSTORE DUP2 PUSH1 0x20 DUP5 ADD SWAP2 AND DUP2 MSTORE PUSH1 0x40 DUP4 ADD PUSH1 0x0 DUP2 MSTORE PUSH1 0x60 DUP5 ADD SWAP2 PUSH1 0x0 DUP4 MSTORE PUSH1 0x80 DUP6 ADD SWAP4 PUSH1 0x0 DUP6 MSTORE PUSH1 0xA0 DUP7 ADD SWAP8 PUSH1 0x1 DUP10 MSTORE PUSH1 0x0 MSTORE PUSH1 0x3 PUSH1 0x20 MSTORE DUP1 PUSH1 0x40 PUSH1 0x0 KECCAK256 SWAP7 MLOAD AND SWAP1 PUSH1 0x1 PUSH1 0x1 PUSH1 0x60 SHL SUB PUSH1 0xA0 SHL SWAP2 DUP3 DUP9 SLOAD AND OR DUP8 SSTORE PUSH1 0x1 DUP8 ADD SWAP3 MLOAD AND SWAP1 DUP3 SLOAD AND OR SWAP1 SSTORE MLOAD PUSH1 0x2 DUP5 ADD SSTORE MLOAD PUSH1 0x3 DUP4 ADD SSTORE MLOAD PUSH1 0x4 DUP3 ADD SSTORE ADD SWAP1 MLOAD ISZERO ISZERO PUSH1 0xFF DUP1 NOT DUP4 SLOAD AND SWAP2 AND OR SWAP1 SSTORE PUSH1 0x0 DUP1 RETURN JUMPDEST SWAP1 POP PUSH2 0x2BB JUMP JUMPDEST DUP2 SWAP4 PUSH2 0x2B4 JUMP JUMPDEST PUSH1 0x40 MLOAD PUSH3 0x461BCD PUSH1 0xE5 SHL DUP2 MSTORE PUSH1 0x20 PUSH1 0x4 DUP3 ADD MSTORE PUSH1 0xB PUSH1 0x24 DUP3 ADD MSTORE PUSH11 0x506F6F6C20657869737473 PUSH1 0xA8 SHL PUSH1 0x44 DUP3 ADD MSTORE PUSH1 0x64 SWAP1 REVERT JUMPDEST PUSH1 0x40 MLOAD PUSH3 0x461BCD PUSH1 0xE5 SHL DUP2 MSTORE PUSH1 0x20 PUSH1 0x4 DUP3 ADD MSTORE PUSH1 0xD PUSH1 0x24 DUP3 ADD MSTORE PUSH13 0x24B73B30B634B2103A37B5B2B7 PUSH1 0x99 SHL PUSH1 0x44 DUP3 ADD MSTORE PUSH1 0x64 SWAP1 REVERT JUMPDEST POP DUP5 ISZERO ISZERO PUSH2 0x27D JUMP JUMPDEST PUSH1 0x40 MLOAD PUSH3 0x461BCD PUSH1 0xE5 SHL DUP2 MSTORE PUSH1 0x20 PUSH1 0x4 DUP3 ADD MSTORE PUSH1 0x10 PUSH1 0x24 DUP3 ADD MSTORE PUSH16 0x4964656E746963616C20746F6B656E73 PUSH1 0x80 SHL PUSH1 0x44 DUP3 ADD MSTORE PUSH1 0x64 SWAP1 REVERT JUMPDEST CALLVALUE PUSH2 0x16B JUMPI PUSH1 0x0 CALLDATASIZE PUSH1 0x3 NOT ADD SLT PUSH2 0x16B JUMPI PUSH1 0x20 PUSH1 0x40 MLOAD PUSH2 0x2710 DUP2 MSTORE RETURN JUMPDEST CALLVALUE PUSH2 0x16B JUMPI PUSH1 0x0 CALLDATASIZE PUSH1 0x3 NOT ADD SLT PUSH2 0x16B JUMPI PUSH1 0x20 PUSH1 0x40 MLOAD PUSH2 0x3E8 DUP2 MSTORE RETURN JUMPDEST CALLVALUE PUSH2 0x16B JUMPI PUSH1 0x20 CALLDATASIZE PUSH1 0x3 NOT ADD SLT PUSH2 0x16B JUMPI PUSH1 0x4 CALLDATALOAD PUSH1 0x0 MSTORE PUSH1 0x3 PUSH1 0x20 MSTORE PUSH1 0xC0 PUSH1 0x40 PUSH1 0x0 KECCAK256 PUSH1 0x1 DUP1 PUSH1 0xA0 SHL SUB SWAP1 DUP2 DUP2 SLOAD AND SWAP2 PUSH1 0x1 DUP3 ADD SLOAD AND SWAP1 PUSH1 0x2 DUP2 ADD SLOAD PUSH1 0x3 DUP3 ADD SLOAD SWAP1 PUSH1 0xFF PUSH1 0x5 PUSH1 0x4 DUP6 ADD SLOAD SWAP5 ADD SLOAD AND SWAP4 PUSH1 0x40 MLOAD SWAP6 DUP7 MSTORE PUSH1 0x20 DUP7 ADD MSTORE PUSH1 0x40 DUP6 ADD MSTORE PUSH1 0x60 DUP5 ADD MSTORE PUSH1 0x80 DUP4 ADD MSTORE ISZERO ISZERO PUSH1 0xA0 DUP3 ADD MSTORE RETURN JUMPDEST CALLVALUE PUSH2 0x16B JUMPI PUSH1 0x80 CALLDATASIZE PUSH1 0x3 NOT ADD SLT PUSH2 0x16B JUMPI PUSH2 0x4D0 PUSH2 0x1121 JUMP JUMPDEST PUSH2 0x4D8 PUSH2 0x1137 JUMP JUMPDEST PUSH2 0x4E0 PUSH2 0x114D JUMP JUMPDEST SWAP1 PUSH1 0x64 CALLDATALOAD SWAP2 PUSH2 0x4ED PUSH2 0x13AA JUMP JUMPDEST DUP3 ISZERO PUSH2 0x7F2 JUMPI PUSH1 0x1 PUSH1 0x1 PUSH1 0xA0 SHL SUB SWAP3 DUP2 DUP5 AND SWAP3 DUP1 DUP6 AND SWAP3 DUP4 DUP6 EQ PUSH2 0x7C0 JUMPI PUSH2 0x514 SWAP2 PUSH2 0x1217 JUMP JUMPDEST PUSH1 0x0 MSTORE PUSH1 0x20 SWAP5 PUSH1 0x3 DUP7 MSTORE PUSH1 0x40 PUSH1 0x0 KECCAK256 SWAP5 PUSH2 0x534 PUSH1 0xFF PUSH1 0x5 DUP9 ADD SLOAD AND PUSH2 0x1268 JUMP JUMPDEST DUP6 SLOAD DUP2 AND DUP5 EQ SWAP6 DUP7 ISZERO PUSH2 0x7B5 JUMPI PUSH1 0x2 DUP2 ADD SLOAD SWAP1 JUMPDEST DUP8 ISZERO PUSH2 0x7AA JUMPI PUSH1 0x3 DUP2 ADD SLOAD SWAP8 JUMPDEST PUSH2 0x26F2 DUP7 MUL PUSH2 0x26F1 NOT DUP8 DUP3 DIV ADD PUSH2 0x6A6 JUMPI PUSH2 0x570 DUP11 DUP3 PUSH2 0x12A6 JUMP JUMPDEST PUSH2 0x2710 SWAP5 DUP6 DUP2 MUL SWAP1 DUP1 DUP3 DIV DUP8 EQ SWAP1 ISZERO OR ISZERO PUSH2 0x6A6 JUMPI PUSH2 0x598 SWAP3 PUSH2 0x592 SWAP2 PUSH2 0x12D9 JUMP JUMPDEST SWAP1 PUSH2 0x12B9 JUMP JUMPDEST SWAP9 DUP10 ISZERO PUSH2 0x765 JUMPI DUP10 LT ISZERO PUSH2 0x727 JUMPI SWAP1 PUSH1 0x4 SWAP3 SWAP2 PUSH2 0x5B7 DUP8 ADDRESS DUP9 DUP12 PUSH2 0x12F3 JUMP JUMPDEST PUSH2 0x5C2 DUP11 DUP8 DUP12 PUSH2 0x13CD JUMP JUMPDEST ISZERO PUSH2 0x700 JUMPI DUP1 PUSH1 0x2 PUSH1 0x3 SWAP3 ADD PUSH2 0x5D9 DUP9 DUP3 SLOAD PUSH2 0x12D9 JUMP JUMPDEST SWAP1 SSTORE ADD PUSH2 0x5E7 DUP10 DUP3 SLOAD PUSH2 0x12E6 JUMP JUMPDEST SWAP1 SSTORE JUMPDEST DUP9 DUP4 PUSH1 0x2 SLOAD AND PUSH1 0x40 MLOAD SWAP4 DUP5 DUP1 SWAP3 PUSH4 0x796B1C13 PUSH1 0xE1 SHL DUP3 MSTORE GAS STATICCALL SWAP2 DUP3 ISZERO PUSH2 0x6F4 JUMPI PUSH1 0x0 SWAP3 PUSH2 0x6BC JUMPI JUMPDEST POP DUP3 DUP3 AND PUSH2 0x65B JUMPI JUMPDEST POP POP PUSH1 0x40 SWAP1 PUSH32 0x6782190C91D4A7E8AD2A867DEED6EC0A970CAB8FF137AE2BD4ABD92B3810F4D3 SWAP3 DUP3 MLOAD SWAP5 DUP6 MSTORE DUP8 DUP10 DUP7 ADD MSTORE AND SWAP3 LOG4 PUSH1 0x1 DUP1 SSTORE PUSH1 0x40 MLOAD SWAP1 DUP2 MSTORE RETURN JUMPDEST SWAP2 SWAP1 SWAP3 PUSH1 0x1E DUP6 MUL DUP6 DUP2 DIV PUSH1 0x1E SUB PUSH2 0x6A6 JUMPI PUSH32 0x6782190C91D4A7E8AD2A867DEED6EC0A970CAB8FF137AE2BD4ABD92B3810F4D3 SWAP5 PUSH1 0x40 SWAP5 PUSH2 0x69D SWAP3 DIV SWAP1 DUP9 PUSH2 0x13CD JUMP JUMPDEST SWAP3 DUP2 SWAP3 POP PUSH2 0x61B JUMP JUMPDEST PUSH4 0x4E487B71 PUSH1 0xE0 SHL PUSH1 0x0 MSTORE PUSH1 0x11 PUSH1 0x4 MSTORE PUSH1 0x24 PUSH1 0x0 REVERT JUMPDEST SWAP1 SWAP2 POP DUP9 DUP2 DUP2 RETURNDATASIZE DUP4 GT PUSH2 0x6ED JUMPI JUMPDEST PUSH2 0x6D4 DUP2 DUP4 PUSH2 0x11F5 JUMP JUMPDEST DUP2 ADD SUB SLT PUSH2 0x16B JUMPI MLOAD DUP3 DUP2 AND DUP2 SUB PUSH2 0x16B JUMPI SWAP1 DUP10 PUSH2 0x612 JUMP JUMPDEST POP RETURNDATASIZE PUSH2 0x6CA JUMP JUMPDEST PUSH1 0x40 MLOAD RETURNDATASIZE PUSH1 0x0 DUP3 RETURNDATACOPY RETURNDATASIZE SWAP1 REVERT JUMPDEST DUP1 PUSH1 0x3 PUSH1 0x2 SWAP3 ADD PUSH2 0x712 DUP9 DUP3 SLOAD PUSH2 0x12D9 JUMP JUMPDEST SWAP1 SSTORE ADD PUSH2 0x720 DUP10 DUP3 SLOAD PUSH2 0x12E6 JUMP JUMPDEST SWAP1 SSTORE PUSH2 0x5EA JUMP JUMPDEST PUSH1 0x40 MLOAD PUSH3 0x461BCD PUSH1 0xE5 SHL DUP2 MSTORE PUSH1 0x4 DUP2 ADD DUP12 SWAP1 MSTORE PUSH1 0x16 PUSH1 0x24 DUP3 ADD MSTORE PUSH22 0x496E73756666696369656E74206C6971756964697479 PUSH1 0x50 SHL PUSH1 0x44 DUP3 ADD MSTORE PUSH1 0x64 SWAP1 REVERT JUMPDEST PUSH1 0x40 MLOAD PUSH3 0x461BCD PUSH1 0xE5 SHL DUP2 MSTORE PUSH1 0x4 DUP2 ADD DUP13 SWAP1 MSTORE PUSH1 0x1A PUSH1 0x24 DUP3 ADD MSTORE PUSH32 0x496E73756666696369656E74206F757470757420616D6F756E74000000000000 PUSH1 0x44 DUP3 ADD MSTORE PUSH1 0x64 SWAP1 REVERT JUMPDEST PUSH1 0x2 DUP2 ADD SLOAD SWAP8 PUSH2 0x555 JUMP JUMPDEST PUSH1 0x3 DUP2 ADD SLOAD SWAP1 PUSH2 0x548 JUMP JUMPDEST PUSH1 0x40 MLOAD PUSH3 0x461BCD PUSH1 0xE5 SHL DUP2 MSTORE PUSH1 0x20 PUSH1 0x4 DUP3 ADD MSTORE PUSH1 0xA PUSH1 0x24 DUP3 ADD MSTORE PUSH10 0x29B0B6B2903A37B5B2B7 PUSH1 0xB1 SHL PUSH1 0x44 DUP3 ADD MSTORE PUSH1 0x64 SWAP1 REVERT JUMPDEST PUSH1 0x40 MLOAD PUSH3 0x461BCD PUSH1 0xE5 SHL DUP2 MSTORE PUSH1 0x20 PUSH1 0x4 DUP3 ADD MSTORE PUSH1 0xE PUSH1 0x24 DUP3 ADD MSTORE PUSH14 0x125B9D985B1A5908185B5BDD5B9D PUSH1 0x92 SHL PUSH1 0x44 DUP3 ADD MSTORE PUSH1 0x64 SWAP1 REVERT JUMPDEST CALLVALUE PUSH2 0x16B JUMPI PUSH1 0x20 DUP1 PUSH1 0x3 NOT CALLDATASIZE ADD SLT PUSH2 0x16B JUMPI PUSH1 0x1 PUSH1 0x1 PUSH1 0xA0 SHL SUB PUSH2 0x84A PUSH2 0x1121 JUMP JUMPDEST AND PUSH1 0x0 MSTORE PUSH1 0x5 DUP2 MSTORE PUSH1 0x40 PUSH1 0x0 KECCAK256 PUSH1 0x40 MLOAD SWAP1 DUP2 DUP4 DUP3 SLOAD SWAP2 DUP3 DUP2 MSTORE ADD SWAP1 DUP2 SWAP3 PUSH1 0x0 MSTORE DUP5 PUSH1 0x0 KECCAK256 SWAP1 PUSH1 0x0 JUMPDEST DUP7 DUP3 DUP3 LT PUSH2 0x8C8 JUMPI DUP7 DUP7 PUSH2 0x888 DUP3 DUP9 SUB DUP4 PUSH2 0x11F5 JUMP JUMPDEST PUSH1 0x40 MLOAD SWAP3 DUP4 SWAP3 DUP2 DUP5 ADD SWAP1 DUP3 DUP6 MSTORE MLOAD DUP1 SWAP2 MSTORE PUSH1 0x40 DUP5 ADD SWAP3 SWAP2 PUSH1 0x0 JUMPDEST DUP3 DUP2 LT PUSH2 0x8B1 JUMPI POP POP POP POP SUB SWAP1 RETURN JUMPDEST DUP4 MLOAD DUP6 MSTORE DUP7 SWAP6 POP SWAP4 DUP2 ADD SWAP4 SWAP3 DUP2 ADD SWAP3 PUSH1 0x1 ADD PUSH2 0x8A2 JUMP JUMPDEST DUP4 SLOAD DUP6 MSTORE SWAP1 SWAP4 ADD SWAP3 PUSH1 0x1 SWAP3 DUP4 ADD SWAP3 ADD PUSH2 0x872 JUMP JUMPDEST CALLVALUE PUSH2 0x16B JUMPI PUSH1 0x0 CALLDATASIZE PUSH1 0x3 NOT ADD SLT PUSH2 0x16B JUMPI PUSH1 0x0 SLOAD PUSH1 0x40 MLOAD PUSH1 0x1 PUSH1 0x1 PUSH1 0xA0 SHL SUB SWAP1 SWAP2 AND DUP2 MSTORE PUSH1 0x20 SWAP1 RETURN JUMPDEST CALLVALUE PUSH2 0x16B JUMPI PUSH1 0x0 CALLDATASIZE PUSH1 0x3 NOT ADD SLT PUSH2 0x16B JUMPI PUSH1 0x2 SLOAD PUSH1 0x40 MLOAD PUSH1 0x1 PUSH1 0x1 PUSH1 0xA0 SHL SUB SWAP1 SWAP2 AND DUP2 MSTORE PUSH1 0x20 SWAP1 RETURN JUMPDEST CALLVALUE PUSH2 0x16B JUMPI PUSH1 0x80 CALLDATASIZE PUSH1 0x3 NOT ADD SLT PUSH2 0x16B JUMPI PUSH2 0x947 PUSH2 0x1121 JUMP JUMPDEST PUSH1 0x24 CALLDATALOAD PUSH2 0x952 PUSH2 0x114D JUMP JUMPDEST PUSH1 0x1 PUSH1 0x1 PUSH1 0xA0 SHL SUB SWAP2 PUSH1 0x64 CALLDATALOAD DUP4 DUP2 AND SWAP3 SWAP1 DUP4 DUP2 SUB PUSH2 0x16B JUMPI PUSH2 0x972 PUSH2 0x13AA JUMP JUMPDEST DUP3 ISZERO PUSH2 0xAF5 JUMPI PUSH2 0x982 SWAP1 DUP3 PUSH2 0x1217 JUMP JUMPDEST SWAP4 DUP5 PUSH1 0x0 MSTORE PUSH1 0x3 PUSH1 0x20 MSTORE PUSH1 0x40 PUSH1 0x0 KECCAK256 SWAP5 PUSH2 0x9A2 PUSH1 0xFF PUSH1 0x5 DUP9 ADD SLOAD AND PUSH2 0x1268 JUMP JUMPDEST PUSH1 0x0 MSTORE PUSH1 0x4 PUSH1 0x20 MSTORE PUSH1 0x40 PUSH1 0x0 KECCAK256 SWAP2 DUP2 DUP8 AND SWAP3 DUP4 PUSH1 0x0 MSTORE PUSH1 0x20 MSTORE PUSH1 0x40 PUSH1 0x0 KECCAK256 SWAP7 DUP8 SLOAD SWAP7 DUP6 DUP9 LT PUSH2 0xAB7 JUMPI DUP4 DUP2 PUSH1 0x2 DUP9 SWAP4 ADD DUP1 SLOAD PUSH2 0x9DE SWAP1 DUP6 PUSH2 0x12A6 JUMP JUMPDEST SWAP1 PUSH1 0x4 DUP4 ADD DUP1 SLOAD SWAP3 DUP4 PUSH2 0x9F0 SWAP2 PUSH2 0x12B9 JUMP JUMPDEST SWAP14 PUSH1 0x3 DUP6 ADD SWAP4 DUP5 SLOAD PUSH2 0xA02 SWAP1 DUP10 PUSH2 0x12A6 JUMP JUMPDEST SWAP1 PUSH2 0xA0C SWAP2 PUSH2 0x12B9 JUMP JUMPDEST SWAP14 DUP15 SWAP8 PUSH2 0xA18 SWAP2 PUSH2 0x12E6 JUMP JUMPDEST SWAP1 SSTORE DUP11 DUP2 SLOAD SWAP1 PUSH2 0xA27 SWAP2 PUSH2 0x12E6 JUMP JUMPDEST SWAP1 SSTORE DUP13 DUP2 SLOAD SWAP1 PUSH2 0xA36 SWAP2 PUSH2 0x12E6 JUMP JUMPDEST SWAP1 SSTORE DUP4 DUP2 SLOAD SWAP1 PUSH2 0xA45 SWAP2 PUSH2 0x12E6 JUMP JUMPDEST SWAP1 SSTORE DUP4 DUP12 DUP4 DUP4 SLOAD AND SWAP2 PUSH2 0xA57 SWAP3 PUSH2 0x13CD JUMP JUMPDEST PUSH1 0x1 ADD SLOAD AND SWAP2 PUSH2 0xA66 SWAP3 PUSH2 0x13CD JUMP JUMPDEST PUSH1 0x40 DUP1 MLOAD DUP9 DUP2 MSTORE PUSH1 0x20 DUP2 ADD DUP9 SWAP1 MSTORE SWAP1 DUP2 ADD SWAP5 SWAP1 SWAP5 MSTORE AND SWAP2 PUSH32 0xD765E08EEF31C0983ECCA03ECD166297AC485ECD5DD69E291C848F0A020333C1 SWAP1 PUSH1 0x60 SWAP1 LOG4 PUSH1 0x1 DUP1 SSTORE PUSH1 0x40 MLOAD SWAP2 DUP3 MSTORE PUSH1 0x20 DUP3 ADD MSTORE PUSH1 0x40 SWAP1 RETURN JUMPDEST PUSH1 0x40 MLOAD PUSH3 0x461BCD PUSH1 0xE5 SHL DUP2 MSTORE PUSH1 0x20 PUSH1 0x4 DUP3 ADD MSTORE PUSH1 0x16 PUSH1 0x24 DUP3 ADD MSTORE PUSH22 0x496E73756666696369656E74204C5020746F6B656E73 PUSH1 0x50 SHL PUSH1 0x44 DUP3 ADD MSTORE PUSH1 0x64 SWAP1 REVERT JUMPDEST PUSH1 0x40 MLOAD PUSH3 0x461BCD PUSH1 0xE5 SHL DUP2 MSTORE PUSH1 0x20 PUSH1 0x4 DUP3 ADD MSTORE PUSH1 0x11 PUSH1 0x24 DUP3 ADD MSTORE PUSH17 0x125B9D985B1A5908131408185B5BDD5B9D PUSH1 0x7A SHL PUSH1 0x44 DUP3 ADD MSTORE PUSH1 0x64 SWAP1 REVERT JUMPDEST CALLVALUE PUSH2 0x16B JUMPI PUSH1 0x0 CALLDATASIZE PUSH1 0x3 NOT ADD SLT PUSH2 0x16B JUMPI PUSH2 0xB47 PUSH2 0x1191 JUMP JUMPDEST PUSH1 0x0 DUP1 SLOAD PUSH1 0x1 PUSH1 0x1 PUSH1 0xA0 SHL SUB NOT DUP2 AND DUP3 SSTORE PUSH1 0x1 PUSH1 0x1 PUSH1 0xA0 SHL SUB AND PUSH32 0x8BE0079C531659141344CD1FD0A4F28419497F9722A3DAAFE3B4186F6B6457E0 DUP3 DUP1 LOG3 STOP JUMPDEST CALLVALUE PUSH2 0x16B JUMPI PUSH1 0xA0 CALLDATASIZE PUSH1 0x3 NOT ADD SLT PUSH2 0x16B JUMPI PUSH2 0xBA0 PUSH2 0x1121 JUMP JUMPDEST PUSH2 0xBA8 PUSH2 0x1137 JUMP JUMPDEST SWAP1 PUSH2 0xBB1 PUSH2 0x114D JUMP JUMPDEST SWAP2 PUSH1 0x84 CALLDATALOAD SWAP2 PUSH2 0xBBE PUSH2 0x13AA JUMP JUMPDEST DUP3 SWAP1 PUSH1 0x64 CALLDATALOAD ISZERO ISZERO DUP1 PUSH2 0xF2E JUMPI JUMPDEST ISZERO PUSH2 0xEF7 JUMPI PUSH2 0xBDA DUP6 DUP5 PUSH2 0x1217 JUMP JUMPDEST DUP1 PUSH1 0x0 MSTORE PUSH1 0x3 PUSH1 0x20 MSTORE PUSH1 0x40 PUSH1 0x0 KECCAK256 SWAP5 PUSH2 0xBF9 PUSH1 0xFF PUSH1 0x5 DUP9 ADD SLOAD AND PUSH2 0x1268 JUMP JUMPDEST PUSH1 0x2 DUP7 ADD SLOAD SWAP1 DUP2 ISZERO SWAP2 DUP3 PUSH2 0xEEA JUMPI JUMPDEST DUP3 ISZERO PUSH2 0xE6F JUMPI JUMPDEST POP PUSH2 0xC29 SWAP1 POP PUSH1 0x64 CALLDATALOAD ADDRESS DUP6 PUSH1 0x1 PUSH1 0x1 PUSH1 0xA0 SHL SUB DUP10 AND PUSH2 0x12F3 JUMP JUMPDEST PUSH2 0xC3E DUP5 ADDRESS DUP6 PUSH1 0x1 PUSH1 0x1 PUSH1 0xA0 SHL SUB DUP12 AND PUSH2 0x12F3 JUMP JUMPDEST ISZERO PUSH2 0xE11 JUMPI PUSH2 0xC57 PUSH2 0xC52 DUP5 PUSH1 0x64 CALLDATALOAD PUSH2 0x12A6 JUMP JUMPDEST PUSH2 0x141D JUMP JUMPDEST SWAP5 PUSH2 0x3E7 NOT DUP7 ADD SWAP1 DUP7 DUP3 GT PUSH2 0x6A6 JUMPI PUSH1 0x3 SWAP2 SWAP7 PUSH1 0x4 DUP3 ADD SSTORE JUMPDEST PUSH2 0xC80 PUSH1 0x64 CALLDATALOAD PUSH1 0x2 DUP4 ADD SLOAD PUSH2 0x12D9 JUMP JUMPDEST PUSH1 0x2 DUP3 ADD SSTORE ADD PUSH2 0xC91 DUP5 DUP3 SLOAD PUSH2 0x12D9 JUMP JUMPDEST SWAP1 SSTORE DUP1 PUSH1 0x0 MSTORE PUSH1 0x4 PUSH1 0x20 MSTORE PUSH2 0xD24 DUP2 PUSH1 0x40 PUSH1 0x0 KECCAK256 SWAP4 PUSH1 0x1 DUP1 PUSH1 0xA0 SHL SUB DUP2 AND SWAP5 DUP6 PUSH1 0x0 MSTORE PUSH1 0x20 MSTORE PUSH1 0x40 PUSH1 0x0 KECCAK256 PUSH2 0xCC7 DUP10 DUP3 SLOAD PUSH2 0x12D9 JUMP JUMPDEST SWAP1 SSTORE DUP2 PUSH1 0x0 MSTORE PUSH1 0x4 PUSH1 0x20 MSTORE PUSH1 0x40 PUSH1 0x0 KECCAK256 DUP6 PUSH1 0x0 MSTORE PUSH1 0x20 MSTORE PUSH1 0x1 PUSH1 0x40 PUSH1 0x0 KECCAK256 ADD PUSH2 0xCF3 PUSH1 0x64 CALLDATALOAD DUP3 SLOAD PUSH2 0x12D9 JUMP JUMPDEST SWAP1 SSTORE DUP2 PUSH1 0x0 MSTORE PUSH1 0x4 PUSH1 0x20 MSTORE PUSH1 0x40 PUSH1 0x0 KECCAK256 DUP6 PUSH1 0x0 MSTORE PUSH1 0x20 MSTORE PUSH1 0x2 PUSH1 0x40 PUSH1 0x0 KECCAK256 ADD PUSH2 0xD1D DUP8 DUP3 SLOAD PUSH2 0x12D9 JUMP JUMPDEST SWAP1 SSTORE PUSH2 0x1467 JUMP JUMPDEST PUSH2 0xD84 JUMPI JUMPDEST POP PUSH1 0x40 DUP1 MLOAD PUSH1 0x64 CALLDATALOAD DUP2 MSTORE PUSH1 0x20 DUP1 DUP3 ADD SWAP5 SWAP1 SWAP5 MSTORE SWAP1 DUP2 ADD DUP6 SWAP1 MSTORE SWAP2 SWAP5 PUSH1 0x1 PUSH1 0x1 PUSH1 0xA0 SHL SUB SWAP1 DUP2 AND SWAP4 AND SWAP2 PUSH32 0x43C967B388D3A4CCAD3F7AB80167852E322E5A3FDE9893F530252281B2AE8B70 SWAP1 PUSH1 0x60 SWAP1 LOG4 PUSH1 0x1 DUP1 SSTORE PUSH1 0x40 MLOAD SWAP1 DUP2 MSTORE RETURN JUMPDEST SWAP5 DUP2 PUSH1 0x0 MSTORE PUSH1 0x5 PUSH1 0x20 MSTORE PUSH1 0x40 PUSH1 0x0 KECCAK256 SWAP1 DUP2 SLOAD SWAP1 PUSH9 0x10000000000000000 DUP3 LT ISZERO PUSH2 0xDFB JUMPI PUSH1 0x20 SWAP8 PUSH2 0xDDD DUP4 PUSH32 0x43C967B388D3A4CCAD3F7AB80167852E322E5A3FDE9893F530252281B2AE8B70 SWAP6 PUSH1 0x1 DUP12 SWAP7 ADD DUP2 SSTORE PUSH2 0x1163 JUMP JUMPDEST DUP2 SWAP3 SWAP2 SLOAD SWAP1 PUSH1 0x3 SHL SWAP2 DUP3 SHL SWAP2 PUSH1 0x0 NOT SWAP1 SHL NOT AND OR SWAP1 SSTORE SWAP7 POP POP PUSH2 0xD29 JUMP JUMPDEST PUSH4 0x4E487B71 PUSH1 0xE0 SHL PUSH1 0x0 MSTORE PUSH1 0x41 PUSH1 0x4 MSTORE PUSH1 0x24 PUSH1 0x0 REVERT JUMPDEST PUSH1 0x3 PUSH1 0x4 DUP7 ADD SLOAD SWAP6 PUSH2 0xE5E PUSH2 0xE36 PUSH2 0xE2B DUP10 PUSH1 0x64 CALLDATALOAD PUSH2 0x12A6 JUMP JUMPDEST PUSH1 0x2 DUP5 ADD SLOAD SWAP1 PUSH2 0x12B9 JUMP JUMPDEST PUSH2 0xE4D PUSH2 0xE43 DUP11 DUP10 PUSH2 0x12A6 JUMP JUMPDEST DUP6 DUP6 ADD SLOAD SWAP1 PUSH2 0x12B9 JUMP JUMPDEST DUP1 DUP3 LT ISZERO PUSH2 0xE68 JUMPI POP JUMPDEST DUP1 SWAP9 PUSH2 0x12D9 JUMP JUMPDEST PUSH1 0x4 DUP3 ADD SSTORE PUSH2 0xC70 JUMP JUMPDEST SWAP1 POP PUSH2 0xE57 JUMP JUMPDEST PUSH2 0xE88 SWAP1 PUSH2 0xE83 PUSH1 0x3 DUP11 ADD SLOAD PUSH1 0x64 CALLDATALOAD PUSH2 0x12A6 JUMP JUMPDEST PUSH2 0x12B9 JUMP JUMPDEST SWAP1 DUP2 DUP2 LT PUSH2 0xEA5 JUMPI DUP2 LT PUSH2 0xE9D JUMPI JUMPDEST DUP1 PUSH2 0xC0F JUMP JUMPDEST SWAP4 POP DUP8 PUSH2 0xE97 JUMP JUMPDEST PUSH1 0x40 MLOAD PUSH3 0x461BCD PUSH1 0xE5 SHL DUP2 MSTORE PUSH1 0x20 PUSH1 0x4 DUP3 ADD MSTORE PUSH1 0x1A PUSH1 0x24 DUP3 ADD MSTORE PUSH32 0x496E73756666696369656E7420746F6B656E4220616D6F756E74000000000000 PUSH1 0x44 DUP3 ADD MSTORE PUSH1 0x64 SWAP1 REVERT JUMPDEST PUSH1 0x3 DUP9 ADD SLOAD ISZERO SWAP3 POP PUSH2 0xC08 JUMP JUMPDEST PUSH1 0x40 MLOAD PUSH3 0x461BCD PUSH1 0xE5 SHL DUP2 MSTORE PUSH1 0x20 PUSH1 0x4 DUP3 ADD MSTORE PUSH1 0xF PUSH1 0x24 DUP3 ADD MSTORE PUSH15 0x496E76616C696420616D6F756E7473 PUSH1 0x88 SHL PUSH1 0x44 DUP3 ADD MSTORE PUSH1 0x64 SWAP1 REVERT JUMPDEST POP DUP4 ISZERO ISZERO PUSH2 0xBCB JUMP JUMPDEST CALLVALUE PUSH2 0x16B JUMPI PUSH1 0x40 CALLDATASIZE PUSH1 0x3 NOT ADD SLT PUSH2 0x16B JUMPI PUSH2 0xF8E PUSH2 0xF53 PUSH2 0x1121 JUMP JUMPDEST PUSH2 0xF5B PUSH2 0x1137 JUMP JUMPDEST SWAP1 PUSH1 0x0 PUSH1 0xA0 PUSH1 0x40 MLOAD PUSH2 0xF6C DUP2 PUSH2 0x11BD JUMP JUMPDEST DUP3 DUP2 MSTORE DUP3 PUSH1 0x20 DUP3 ADD MSTORE DUP3 PUSH1 0x40 DUP3 ADD MSTORE DUP3 PUSH1 0x60 DUP3 ADD MSTORE DUP3 PUSH1 0x80 DUP3 ADD MSTORE ADD MSTORE PUSH2 0x1217 JUMP JUMPDEST PUSH1 0x0 MSTORE PUSH1 0x3 PUSH1 0x20 MSTORE PUSH1 0xC0 PUSH1 0x40 PUSH1 0x0 KECCAK256 PUSH1 0x40 MLOAD PUSH2 0xFA9 DUP2 PUSH2 0x11BD JUMP JUMPDEST PUSH1 0x1 DUP1 PUSH1 0xA0 SHL SUB SWAP2 DUP3 DUP2 SLOAD AND SWAP3 DUP4 DUP4 MSTORE DUP1 PUSH1 0x1 DUP4 ADD SLOAD AND SWAP1 PUSH1 0x20 DUP5 ADD SWAP2 DUP3 MSTORE PUSH1 0x2 DUP4 ADD SLOAD SWAP1 PUSH1 0x40 DUP6 ADD SWAP2 DUP3 MSTORE PUSH1 0x3 DUP5 ADD SLOAD SWAP3 PUSH1 0x60 DUP7 ADD SWAP4 DUP5 MSTORE PUSH1 0xA0 PUSH1 0xFF PUSH1 0x5 PUSH1 0x4 DUP9 ADD SLOAD SWAP8 PUSH1 0x80 DUP11 ADD SWAP9 DUP10 MSTORE ADD SLOAD AND SWAP7 ADD SWAP6 ISZERO ISZERO DUP7 MSTORE PUSH1 0x40 MLOAD SWAP7 DUP8 MSTORE MLOAD AND PUSH1 0x20 DUP7 ADD MSTORE MLOAD PUSH1 0x40 DUP6 ADD MSTORE MLOAD PUSH1 0x60 DUP5 ADD MSTORE MLOAD PUSH1 0x80 DUP4 ADD MSTORE MLOAD ISZERO ISZERO PUSH1 0xA0 DUP3 ADD MSTORE RETURN JUMPDEST CALLVALUE PUSH2 0x16B JUMPI PUSH1 0x40 CALLDATASIZE PUSH1 0x3 NOT ADD SLT PUSH2 0x16B JUMPI PUSH1 0x20 PUSH2 0x1054 PUSH2 0x1046 PUSH2 0x1121 JUMP JUMPDEST PUSH2 0x104E PUSH2 0x1137 JUMP JUMPDEST SWAP1 PUSH2 0x1217 JUMP JUMPDEST PUSH1 0x40 MLOAD SWAP1 DUP2 MSTORE RETURN JUMPDEST CALLVALUE PUSH2 0x16B JUMPI PUSH1 0x40 CALLDATASIZE PUSH1 0x3 NOT ADD SLT PUSH2 0x16B JUMPI PUSH2 0x1075 PUSH2 0x1137 JUMP JUMPDEST PUSH1 0x4 CALLDATALOAD PUSH1 0x0 MSTORE PUSH1 0x4 PUSH1 0x20 MSTORE PUSH1 0x40 PUSH1 0x0 KECCAK256 SWAP1 PUSH1 0x1 DUP1 PUSH1 0xA0 SHL SUB AND PUSH1 0x0 MSTORE PUSH1 0x20 MSTORE PUSH1 0x40 PUSH1 0x0 KECCAK256 DUP1 SLOAD PUSH2 0x10C5 PUSH1 0x2 PUSH1 0x1 DUP5 ADD SLOAD SWAP4 ADD SLOAD PUSH1 0x40 MLOAD SWAP4 DUP5 SWAP4 DUP5 PUSH1 0x40 SWAP2 SWAP5 SWAP4 SWAP3 PUSH1 0x60 DUP3 ADD SWAP6 DUP3 MSTORE PUSH1 0x20 DUP3 ADD MSTORE ADD MSTORE JUMP JUMPDEST SUB SWAP1 RETURN JUMPDEST CALLVALUE PUSH2 0x16B JUMPI PUSH1 0x40 CALLDATASIZE PUSH1 0x3 NOT ADD SLT PUSH2 0x16B JUMPI PUSH2 0x10E2 PUSH2 0x1121 JUMP JUMPDEST PUSH1 0x1 PUSH1 0x1 PUSH1 0xA0 SHL SUB AND PUSH1 0x0 SWAP1 DUP2 MSTORE PUSH1 0x5 PUSH1 0x20 MSTORE PUSH1 0x40 SWAP1 KECCAK256 DUP1 SLOAD PUSH1 0x24 CALLDATALOAD SWAP2 SWAP1 DUP3 LT ISZERO PUSH2 0x16B JUMPI PUSH1 0x20 SWAP2 PUSH2 0x1113 SWAP2 PUSH2 0x1163 JUMP JUMPDEST SWAP1 SLOAD PUSH1 0x40 MLOAD SWAP2 PUSH1 0x3 SHL SHR DUP2 MSTORE RETURN JUMPDEST PUSH1 0x4 CALLDATALOAD SWAP1 PUSH1 0x1 PUSH1 0x1 PUSH1 0xA0 SHL SUB DUP3 AND DUP3 SUB PUSH2 0x16B JUMPI JUMP JUMPDEST PUSH1 0x24 CALLDATALOAD SWAP1 PUSH1 0x1 PUSH1 0x1 PUSH1 0xA0 SHL SUB DUP3 AND DUP3 SUB PUSH2 0x16B JUMPI JUMP JUMPDEST PUSH1 0x44 CALLDATALOAD SWAP1 PUSH1 0x1 PUSH1 0x1 PUSH1 0xA0 SHL SUB DUP3 AND DUP3 SUB PUSH2 0x16B JUMPI JUMP JUMPDEST DUP1 SLOAD DUP3 LT ISZERO PUSH2 0x117B JUMPI PUSH1 0x0 MSTORE PUSH1 0x20 PUSH1 0x0 KECCAK256 ADD SWAP1 PUSH1 0x0 SWAP1 JUMP JUMPDEST PUSH4 0x4E487B71 PUSH1 0xE0 SHL PUSH1 0x0 MSTORE PUSH1 0x32 PUSH1 0x4 MSTORE PUSH1 0x24 PUSH1 0x0 REVERT JUMPDEST PUSH1 0x0 SLOAD PUSH1 0x1 PUSH1 0x1 PUSH1 0xA0 SHL SUB AND CALLER SUB PUSH2 0x11A5 JUMPI JUMP JUMPDEST PUSH1 0x40 MLOAD PUSH4 0x118CDAA7 PUSH1 0xE0 SHL DUP2 MSTORE CALLER PUSH1 0x4 DUP3 ADD MSTORE PUSH1 0x24 SWAP1 REVERT JUMPDEST PUSH1 0xC0 DUP2 ADD SWAP1 DUP2 LT PUSH8 0xFFFFFFFFFFFFFFFF DUP3 GT OR PUSH2 0xDFB JUMPI PUSH1 0x40 MSTORE JUMP JUMPDEST PUSH1 0x60 DUP2 ADD SWAP1 DUP2 LT PUSH8 0xFFFFFFFFFFFFFFFF DUP3 GT OR PUSH2 0xDFB JUMPI PUSH1 0x40 MSTORE JUMP JUMPDEST SWAP1 PUSH1 0x1F DUP1 NOT SWAP2 ADD AND DUP2 ADD SWAP1 DUP2 LT PUSH8 0xFFFFFFFFFFFFFFFF DUP3 GT OR PUSH2 0xDFB JUMPI PUSH1 0x40 MSTORE JUMP JUMPDEST PUSH1 0x1 PUSH1 0x1 PUSH1 0xA0 SHL SUB DUP3 DUP2 AND SWAP1 DUP3 AND LT ISZERO PUSH2 0x1262 JUMPI JUMPDEST PUSH1 0x40 MLOAD SWAP1 PUSH1 0x20 DUP3 ADD SWAP3 PUSH1 0x1 PUSH1 0x1 PUSH1 0x60 SHL SUB NOT DUP1 SWAP3 PUSH1 0x60 SHL AND DUP5 MSTORE PUSH1 0x60 SHL AND PUSH1 0x34 DUP3 ADD MSTORE PUSH1 0x28 DUP2 MSTORE PUSH2 0x125C DUP2 PUSH2 0x11D9 JUMP JUMPDEST MLOAD SWAP1 KECCAK256 SWAP1 JUMP JUMPDEST SWAP1 PUSH2 0x122C JUMP JUMPDEST ISZERO PUSH2 0x126F JUMPI JUMP JUMPDEST PUSH1 0x40 MLOAD PUSH3 0x461BCD PUSH1 0xE5 SHL DUP2 MSTORE PUSH1 0x20 PUSH1 0x4 DUP3 ADD MSTORE PUSH1 0xF PUSH1 0x24 DUP3 ADD MSTORE PUSH15 0x506F6F6C206E6F7420616374697665 PUSH1 0x88 SHL PUSH1 0x44 DUP3 ADD MSTORE PUSH1 0x64 SWAP1 REVERT JUMPDEST DUP2 DUP2 MUL SWAP3 SWAP2 DUP2 ISZERO SWAP2 DUP5 DIV EQ OR ISZERO PUSH2 0x6A6 JUMPI JUMP JUMPDEST DUP2 ISZERO PUSH2 0x12C3 JUMPI DIV SWAP1 JUMP JUMPDEST PUSH4 0x4E487B71 PUSH1 0xE0 SHL PUSH1 0x0 MSTORE PUSH1 0x12 PUSH1 0x4 MSTORE PUSH1 0x24 PUSH1 0x0 REVERT JUMPDEST SWAP2 SWAP1 DUP3 ADD DUP1 SWAP3 GT PUSH2 0x6A6 JUMPI JUMP JUMPDEST SWAP2 SWAP1 DUP3 SUB SWAP2 DUP3 GT PUSH2 0x6A6 JUMPI JUMP JUMPDEST PUSH1 0x40 MLOAD PUSH4 0x23B872DD PUSH1 0xE0 SHL PUSH1 0x20 DUP3 ADD MSTORE PUSH1 0x1 PUSH1 0x1 PUSH1 0xA0 SHL SUB SWAP3 DUP4 AND PUSH1 0x24 DUP3 ADD MSTORE SWAP3 SWAP1 SWAP2 AND PUSH1 0x44 DUP4 ADD MSTORE PUSH1 0x64 DUP1 DUP4 ADD SWAP4 SWAP1 SWAP4 MSTORE SWAP2 DUP2 MSTORE PUSH1 0xA0 DUP2 ADD SWAP2 DUP2 DUP4 LT PUSH8 0xFFFFFFFFFFFFFFFF DUP5 GT OR PUSH2 0xDFB JUMPI PUSH2 0x134C SWAP3 PUSH1 0x40 MSTORE PUSH2 0x134E JUMP JUMPDEST JUMP JUMPDEST SWAP1 PUSH1 0x0 PUSH1 0x20 SWAP2 DUP3 DUP2 MLOAD SWAP2 ADD DUP3 DUP6 GAS CALL ISZERO PUSH2 0x6F4 JUMPI PUSH1 0x0 MLOAD RETURNDATASIZE PUSH2 0x13A1 JUMPI POP PUSH1 0x1 PUSH1 0x1 PUSH1 0xA0 SHL SUB DUP2 AND EXTCODESIZE ISZERO JUMPDEST PUSH2 0x137F JUMPI POP JUMP JUMPDEST PUSH1 0x40 MLOAD PUSH4 0x5274AFE7 PUSH1 0xE0 SHL DUP2 MSTORE PUSH1 0x1 PUSH1 0x1 PUSH1 0xA0 SHL SUB SWAP1 SWAP2 AND PUSH1 0x4 DUP3 ADD MSTORE PUSH1 0x24 SWAP1 REVERT JUMPDEST PUSH1 0x1 EQ ISZERO PUSH2 0x1378 JUMP JUMPDEST PUSH1 0x2 PUSH1 0x1 SLOAD EQ PUSH2 0x13BB JUMPI PUSH1 0x2 PUSH1 0x1 SSTORE JUMP JUMPDEST PUSH1 0x40 MLOAD PUSH4 0x3EE5AEB5 PUSH1 0xE0 SHL DUP2 MSTORE PUSH1 0x4 SWAP1 REVERT JUMPDEST PUSH1 0x40 MLOAD PUSH4 0xA9059CBB PUSH1 0xE0 SHL PUSH1 0x20 DUP3 ADD MSTORE PUSH1 0x1 PUSH1 0x1 PUSH1 0xA0 SHL SUB SWAP1 SWAP3 AND PUSH1 0x24 DUP4 ADD MSTORE PUSH1 0x44 DUP1 DUP4 ADD SWAP4 SWAP1 SWAP4 MSTORE SWAP2 DUP2 MSTORE PUSH1 0x80 DUP2 ADD SWAP2 PUSH8 0xFFFFFFFFFFFFFFFF DUP4 GT DUP3 DUP5 LT OR PUSH2 0xDFB JUMPI PUSH2 0x134C SWAP3 PUSH1 0x40 MSTORE PUSH2 0x134E JUMP JUMPDEST DUP1 ISZERO PUSH2 0x1461 JUMPI PUSH1 0x1 DUP1 DUP3 ADD DUP1 DUP4 GT PUSH2 0x6A6 JUMPI DUP2 SHR SWAP1 DUP3 JUMPDEST DUP4 DUP4 LT PUSH2 0x1441 JUMPI POP POP POP SWAP1 JUMP JUMPDEST SWAP1 SWAP2 SWAP3 POP PUSH2 0x1458 DUP4 PUSH2 0x1453 DUP2 DUP5 PUSH2 0x12B9 JUMP JUMPDEST PUSH2 0x12D9 JUMP JUMPDEST DUP3 SHR SWAP2 SWAP1 PUSH2 0x1434 JUMP JUMPDEST POP PUSH1 0x0 SWAP1 JUMP JUMPDEST SWAP1 SWAP2 PUSH1 0x0 SWAP2 PUSH1 0x1 DUP1 PUSH1 0xA0 SHL SUB AND DUP3 MSTORE PUSH1 0x5 SWAP3 PUSH1 0x20 DUP5 DUP2 MSTORE PUSH1 0x40 DUP5 KECCAK256 PUSH1 0x40 MLOAD DUP1 DUP3 DUP5 DUP3 SWAP5 SLOAD SWAP4 DUP5 DUP2 MSTORE ADD SWAP1 DUP9 MSTORE DUP5 DUP9 KECCAK256 SWAP3 DUP9 JUMPDEST DUP7 DUP3 DUP3 LT PUSH2 0x1503 JUMPI POP POP POP PUSH2 0x14B0 SWAP3 POP SUB DUP3 PUSH2 0x11F5 JUMP JUMPDEST DUP5 JUMPDEST DUP2 MLOAD DUP2 LT ISZERO PUSH2 0x14F7 JUMPI DUP4 DUP4 DUP3 DUP10 SHL DUP5 ADD ADD MLOAD EQ PUSH2 0x14EE JUMPI PUSH1 0x0 NOT DUP2 EQ PUSH2 0x14DA JUMPI PUSH1 0x1 ADD PUSH2 0x14B2 JUMP JUMPDEST PUSH4 0x4E487B71 PUSH1 0xE0 SHL DUP7 MSTORE PUSH1 0x11 PUSH1 0x4 MSTORE PUSH1 0x24 DUP7 REVERT JUMPDEST POP POP POP POP SWAP2 POP SWAP1 JUMP JUMPDEST POP POP POP POP SWAP2 POP POP PUSH1 0x1 SWAP1 JUMP JUMPDEST DUP6 SLOAD DUP5 MSTORE PUSH1 0x1 SWAP6 DUP7 ADD SWAP6 DUP8 SWAP6 POP SWAP4 ADD SWAP3 ADD PUSH2 0x1499 JUMP INVALID LOG2 PUSH5 0x6970667358 0x22 SLT KECCAK256 PUSH0 LOG1 SWAP12 SWAP13 ADD BASEFEE 0xB5 0xB9 0xD5 CALLDATASIZE MOD 0x5D 0xF9 0xF 0xC7 PUSH10 0x38CEBCB26F79F323417D 0xFC PUSH20 0x9569BA6364736F6C634300081400330000000000 "},"methodIdentifiers":{"FEE_DENOMINATOR()":"d73792a9","FEE_PERCENT()":"eaf98d23","MINIMUM_LIQUIDITY()":"ba9a7a56","addLiquidity(address,address,address,uint256,uint256)":"4ea5efef","createPool(address,address)":"e3433615","getPoolId(address,address)":"2ef61c21","getPoolInfo(address,address)":"486e51f4","getUserPools(address)":"9816af58","getUserPosition(address,address,address)":"e8aa691b","owner()":"8da5cb5b","pools(bytes32)":"b5217bb4","positions(bytes32,address)":"29d88594","registry()":"7b103999","removeLiquidity(address,uint256,address,address)":"719b67ce","renounceOwnership()":"715018a6","swap(address,address,address,uint256)":"a9678a18","transferOwnership(address)":"f2fde38b","userPools(address,uint256)":"1064aa55"}}}}}