{"contracts/UserManagement.sol":{"UserManagement":{"abi":[{"inputs":[{"internalType":"address","name":"_registry","type":"address"}],"stateMutability":"nonpayable","type":"constructor"},{"inputs":[{"internalType":"address","name":"owner","type":"address"}],"name":"OwnableInvalidOwner","type":"error"},{"inputs":[{"internalType":"address","name":"account","type":"address"}],"name":"OwnableUnauthorizedAccount","type":"error"},{"anonymous":false,"inputs":[{"indexed":true,"internalType":"address","name":"user","type":"address"},{"indexed":false,"internalType":"string","name":"reason","type":"string"}],"name":"AccessDenied","type":"event"},{"anonymous":false,"inputs":[{"indexed":true,"internalType":"address","name":"user","type":"address"}],"name":"AccessGranted","type":"event"},{"anonymous":false,"inputs":[{"indexed":true,"internalType":"address","name":"previousOwner","type":"address"},{"indexed":true,"internalType":"address","name":"newOwner","type":"address"}],"name":"OwnershipTransferred","type":"event"},{"anonymous":false,"inputs":[{"indexed":true,"internalType":"address","name":"user","type":"address"},{"indexed":false,"internalType":"uint256","name":"spamScore","type":"uint256"}],"name":"SpamFlagged","type":"event"},{"anonymous":false,"inputs":[{"indexed":true,"internalType":"address","name":"user","type":"address"},{"indexed":true,"internalType":"address","name":"referrer","type":"address"}],"name":"UserAdded","type":"event"},{"anonymous":false,"inputs":[{"indexed":true,"internalType":"address","name":"user","type":"address"},{"indexed":false,"internalType":"string","name":"reason","type":"string"}],"name":"UserBlacklisted","type":"event"},{"anonymous":false,"inputs":[{"indexed":true,"internalType":"address","name":"user","type":"address"}],"name":"UserRemoved","type":"event"},{"anonymous":false,"inputs":[{"indexed":true,"internalType":"address","name":"user","type":"address"}],"name":"UserWhitelisted","type":"event"},{"inputs":[],"name":"COOLDOWN_PERIOD","outputs":[{"internalType":"uint256","name":"","type":"uint256"}],"stateMutability":"view","type":"function"},{"inputs":[],"name":"DEFAULT_TOKEN_CREATION_LIMIT","outputs":[{"internalType":"uint256","name":"","type":"uint256"}],"stateMutability":"view","type":"function"},{"inputs":[],"name":"SPAM_THRESHOLD","outputs":[{"internalType":"uint256","name":"","type":"uint256"}],"stateMutability":"view","type":"function"},{"inputs":[{"internalType":"address","name":"user","type":"address"}],"name":"addUser","outputs":[{"internalType":"bool","name":"","type":"bool"}],"stateMutability":"nonpayable","type":"function"},{"inputs":[{"internalType":"address","name":"user","type":"address"},{"internalType":"address","name":"referrer","type":"address"}],"name":"addUserWithReferral","outputs":[{"internalType":"bool","name":"","type":"bool"}],"stateMutability":"nonpayable","type":"function"},{"inputs":[{"internalType":"address","name":"user","type":"address"},{"internalType":"string","name":"reason","type":"string"}],"name":"blacklistUser","outputs":[],"stateMutability":"nonpayable","type":"function"},{"inputs":[{"internalType":"address","name":"user","type":"address"}],"name":"canCreateToken","outputs":[{"internalType":"bool","name":"","type":"bool"}],"stateMutability":"view","type":"function"},{"inputs":[{"internalType":"address","name":"user","type":"address"}],"name":"checkAccess","outputs":[{"internalType":"bool","name":"","type":"bool"}],"stateMutability":"view","type":"function"},{"inputs":[{"internalType":"address","name":"user","type":"address"}],"name":"flagSpam","outputs":[],"stateMutability":"nonpayable","type":"function"},{"inputs":[{"internalType":"address","name":"user","type":"address"}],"name":"getReferrals","outputs":[{"internalType":"address[]","name":"","type":"address[]"}],"stateMutability":"view","type":"function"},{"inputs":[{"internalType":"address","name":"user","type":"address"}],"name":"getReferrer","outputs":[{"internalType":"address","name":"","type":"address"}],"stateMutability":"view","type":"function"},{"inputs":[{"internalType":"address","name":"user","type":"address"}],"name":"getUserInfo","outputs":[{"components":[{"internalType":"bool","name":"whitelisted","type":"bool"},{"internalType":"bool","name":"blacklisted","type":"bool"},{"internalType":"uint256","name":"spamScore","type":"uint256"},{"internalType":"uint256","name":"transactionCount","type":"uint256"},{"internalType":"uint256","name":"firstSeenAt","type":"uint256"},{"internalType":"uint256","name":"lastActivityAt","type":"uint256"},{"internalType":"uint256","name":"tokenCreationLimit","type":"uint256"},{"internalType":"uint256","name":"tokensCreated","type":"uint256"}],"internalType":"struct UserManagement.UserInfo","name":"","type":"tuple"}],"stateMutability":"view","type":"function"},{"inputs":[{"internalType":"address","name":"user","type":"address"}],"name":"incrementTokensCreated","outputs":[],"stateMutability":"nonpayable","type":"function"},{"inputs":[],"name":"owner","outputs":[{"internalType":"address","name":"","type":"address"}],"stateMutability":"view","type":"function"},{"inputs":[{"internalType":"address","name":"","type":"address"},{"internalType":"uint256","name":"","type":"uint256"}],"name":"referrals","outputs":[{"internalType":"address","name":"","type":"address"}],"stateMutability":"view","type":"function"},{"inputs":[{"internalType":"address","name":"","type":"address"}],"name":"referredBy","outputs":[{"internalType":"address","name":"","type":"address"}],"stateMutability":"view","type":"function"},{"inputs":[],"name":"registry","outputs":[{"internalType":"contract IRegistry","name":"","type":"address"}],"stateMutability":"view","type":"function"},{"inputs":[{"internalType":"address","name":"user","type":"address"}],"name":"removeUser","outputs":[],"stateMutability":"nonpayable","type":"function"},{"inputs":[],"name":"renounceOwnership","outputs":[],"stateMutability":"nonpayable","type":"function"},{"inputs":[{"internalType":"address","name":"user","type":"address"}],"name":"resetSpamScore","outputs":[],"stateMutability":"nonpayable","type":"function"},{"inputs":[{"internalType":"bool","name":"enabled","type":"bool"}],"name":"setSpamProtectionEnabled","outputs":[],"stateMutability":"nonpayable","type":"function"},{"inputs":[{"internalType":"address","name":"user","type":"address"},{"internalType":"uint256","name":"limit","type":"uint256"}],"name":"setTokenCreationLimit","outputs":[],"stateMutability":"nonpayable","type":"function"},{"inputs":[{"internalType":"bool","name":"enabled","type":"bool"}],"name":"setWhitelistEnabled","outputs":[],"stateMutability":"nonpayable","type":"function"},{"inputs":[],"name":"spamProtectionEnabled","outputs":[{"internalType":"bool","name":"","type":"bool"}],"stateMutability":"view","type":"function"},{"inputs":[{"internalType":"address","name":"newOwner","type":"address"}],"name":"transferOwnership","outputs":[],"stateMutability":"nonpayable","type":"function"},{"inputs":[{"internalType":"address","name":"","type":"address"}],"name":"users","outputs":[{"internalType":"bool","name":"whitelisted","type":"bool"},{"internalType":"bool","name":"blacklisted","type":"bool"},{"internalType":"uint256","name":"spamScore","type":"uint256"},{"internalType":"uint256","name":"transactionCount","type":"uint256"},{"internalType":"uint256","name":"firstSeenAt","type":"uint256"},{"internalType":"uint256","name":"lastActivityAt","type":"uint256"},{"internalType":"uint256","name":"tokenCreationLimit","type":"uint256"},{"internalType":"uint256","name":"tokensCreated","type":"uint256"}],"stateMutability":"view","type":"function"},{"inputs":[{"internalType":"address","name":"user","type":"address"}],"name":"validateAccess","outputs":[{"internalType":"bool","name":"","type":"bool"}],"stateMutability":"nonpayable","type":"function"},{"inputs":[],"name":"whitelistEnabled","outputs":[{"internalType":"bool","name":"","type":"bool"}],"stateMutability":"view","type":"function"},{"inputs":[{"internalType":"address","name":"user","type":"address"}],"name":"whitelistUser","outputs":[],"stateMutability":"nonpayable","type":"function"}],"evm":{"bytecode":{"linkReferences":{},"object":"6080346100d557601f61176738819003918201601f19168301916001600160401b038311848410176100da578084926020946040528339810103126100d557516001600160a01b0390818116908190036100d55733156100bc5760005460018060a01b0319903382821617600055604051933391167f8be0079c531659141344cd1fd0a4f28419497f9722a3daafe3b4186f6b6457e0600080a361010061ffff196005541617600555600154161760015561167690816100f18239f35b604051631e4fbdf760e01b815260006004820152602490fd5b600080fd5b634e487b7160e01b600052604160045260246000fdfe6040608081526004908136101561001557600080fd5b60009160e0908335821c918263052d9e7e1461102b5782631770fcd11461100457826325fde04a14610fe75782633936265714610fa957826341a0894d14610efe578263421b2d8b14610ed7578263466a014614610eb05782634a4c560d14610ddb5782634a9fefc714610daf5782634d0970c614610c6057826351fb012d14610c3b5782636116f91314610b235782636386c1c714610a1d5782636e99d52f146109ff578263715018a6146109a557826372126a4a146107355782637790e501146107055782637b103999146106db5782638da5cb5b146106b2578263985751881461062a578263a87430ba146105a057508163a90f8e9a1461056657838263b672edb51461050f57508163b8c16771146102ec578163dc92f2ed146102d0578163e697b5d814610274578163eb079bab1461024d578163f2fde38b146101c2575063f3df224e1461016757600080fd5b346101be57806003193601126101be5761017f611062565b610187611100565b6001600160a01b03168083526002602052818320600301546101aa901515611259565b825260026020526005602435918320015580f35b5080fd5b905034610249576020366003190112610249576101dd611062565b906101e6611100565b6001600160a01b0391821692831561023357505082546001600160a01b0319811683178455167f8be0079c531659141344cd1fd0a4f28419497f9722a3daafe3b4186f6b6457e08380a380f35b51631e4fbdf760e01b8152908101849052602490fd5b8280fd5b5050346101be57816003193601126101be5760209060ff60055460081c1690519015158152f35b5050346101be57806003193601126101be5761028e611062565b6001600160a01b0390811683526003602052818320805460243594908510156102cd57506020936102be916110d2565b90549060031b1c169051908152f35b80fd5b5050346101be57816003193601126101be5760209051600a8152f35b9050346102495760208060031936011261050b57610308611062565b8454336001600160a01b03918216149390919084156104b0575b841561041f575b506103547f8889dc63dbb3361d8f26c598288df02fad32c364fb705a6b3d6c4b19fffc9cc194611367565b16928385526002825261036e600382872001541515611259565b8385526002825260018186200161038581546113a4565b9055838552600282528085206005600182015410156103b7575b5083855260028252600181862001549051908152a280f35b61010061ff0019825416179055837fcc1cf21b75158e751a071cc4770b92cde8bb2bc34f9187eedd0592b874a55669606083518581526017868201527f5370616d207468726573686f6c6420657863656564656400000000000000000085820152a23861039f565b600154865163faac38ef60e01b8152955084918691829086165afa80156104a65782610354917f8889dc63dbb3361d8f26c598288df02fad32c364fb705a6b3d6c4b19fffc9cc1968991610479575b501633149450610329565b6104999150863d881161049f575b61049181836110b0565b810190611348565b3861046e565b503d610487565b85513d88823e3d90fd5b80945083836001541687519283809263492eb5d160e11b82525afa801561050157839188916104e4575b5016331493610322565b6104fb9150853d871161049f5761049181836110b0565b386104da565b86513d89823e3d90fd5b8380fd5b8084346105635760203660031901126105635760019061052d611062565b610535611100565b828060a01b03168084526002602052610555600383862001541515611259565b835260026020528220015580f35b50fd5b905034610249576020366003190112610249576020926001600160a01b039183919083610591611062565b16825285522054169051908152f35b909291503461050b57602036600319011261050b576101009382906001600160a01b036105cb611062565b168152600260205220805493600182015490600283015460038401549184015492600660058601549501549660ff81519981811615158b5260081c16151560208a01528801526060870152608086015260a085015260c0840152820152f35b505050346101be5760203660031901126101be57610646611062565b61064e611100565b6001600160a01b0316808352600260205281832060030154909190610674901515611259565b81835260026020528220805461ffff19166101001790557fe9dce8c992623ce791725b21e857e33248d1f190a25b5168313420eebdaae99d8280a280f35b505050346101be57816003193601126101be57905490516001600160a01b039091168152602090f35b505050346101be57816003193601126101be5760015490516001600160a01b039091168152602090f35b505050346101be5760203660031901126101be5760209061072c610727611062565b6113c9565b90519015158152f35b939150346101be57826003193601126101be57610750611062565b6001600160a01b0360243581811694929085900361024957811692831561096b578484146109305783835285602097600289526003828620015415610799575b88825160018152f35b84600a60069260ff600554161590898d61082588519889956107ba8761107d565b865261080e83870191898352896002828a019682885260608b0198838a5260808c019a428c5260a08d019c8d42905260c081019e8f52019d8e52835252209a5115158b9060ff801983541691151516179055565b51895461ff00191690151560081b61ff0016178955565b5160018801555160028701555160038601555185850155516005840155519101558415158061091e575b610886575b5050807f3d48e23e10bd950af477b393a250740762bbfa1547b0aafea39792683d4fdb1d91a338808080808581610790565b83835280875285832080546001600160a01b03191686179055848352600387528583208054916801000000000000000083101561090b5750816108f19160017f3d48e23e10bd950af477b393a250740762bbfa1547b0aafea39792683d4fdb1d9695940181556110d2565b819291549060031b9186831b921b19161790559038610854565b634e487b7160e01b855260419052602484fd5b5084835260038684200154151561084f565b606490602087519162461bcd60e51b8352820152601560248201527421b0b73737ba103932b332b9103cb7bab939b2b63360591b6044820152fd5b606490602087519162461bcd60e51b83528201526014602482015273496e76616c69642075736572206164647265737360601b6044820152fd5b84346102cd57806003193601126102cd576109be611100565b80546001600160a01b03198116825581906001600160a01b03167f8be0079c531659141344cd1fd0a4f28419497f9722a3daafe3b4186f6b6457e08280a380f35b505050346101be57816003193601126101be5760209051610e108152f35b91503461050b57602036600319011261050b578261010094610a3d611062565b81858451610a4a8161107d565b82815282602082015282868201528260608201528260808201528260a08201528260c0820152015260018060a01b03168152600260205220835191610a8e8361107d565b81549060ff821615159586855260ff602086019360081c161515835260018401549080860191825260028501549160608701928352600386015493608088019485528601549460a0880195865288600660058901549860c08b01998a52015498019788528251998a5251151560208a015251908801525160608701525160808601525160a08501525160c08401525190820152f35b50905034610249576020908160031936011261050b57610b41611062565b60018060a01b0391828654163314908115610bea575b8115610b86575b50916006949391610b70600294611367565b16855252822001610b8181546113a4565b905580f35b600154865163faac38ef60e01b8152925085918391829087165afa9081156104a65791610b70846002959360069897958a91610bcd575b5016331492945050919394610b5e565b610be49150863d881161049f5761049181836110b0565b38610bbd565b80915084846001541687519283809263492eb5d160e11b82525afa80156105015784918891610c1e575b5016331490610b57565b610c359150863d881161049f5761049181836110b0565b38610c14565b505050346101be57816003193601126101be5760209060ff6005541690519015158152f35b50905034610249578160031936011261024957610c7b611062565b916024359167ffffffffffffffff90818411610dab5736602385011215610dab5783810135918211610d985750815185602094601f1993610cc38786601f84011601856110b0565b8084523660248284010111610249578060248893018386013783010152610ce8611100565b6001600160a01b038516808752600285528387206003015490959015610d88575b508486526002845282862061010061ffff198254161790558251938085528151918282870152875b838110610d7557505050928291601f858884967fcc1cf21b75158e751a071cc4770b92cde8bb2bc34f9187eedd0592b874a55669988601015201168101030190a280f35b8181018301518782018701528201610d31565b610d919061112c565b5038610d09565b634e487b7160e01b865260419052602485fd5b8580fd5b50905034610249576020366003190112610249576020926001600160a01b039183919083610591611062565b8482853461024957602036600319011261024957610df7611062565b610dff611100565b6001600160a01b0316808452600260205281842060030154909290610e25901515611259565b828452600260205260ff8285205460081c16610e78575081835260026020528220805460ff191660011790557f7409cb8e690bcd1487fd4fd27dad3fa92388d201ba6f953631d6d6b26299f8498280a280f35b6020606492519162461bcd60e51b83528201526013602482015272155cd95c881a5cc8189b1858dadb1a5cdd1959606a1b6044820152fd5b505050346101be5760203660031901126101be5760209061072c610ed2611062565b611296565b505050346101be5760203660031901126101be5760209061072c610ef9611062565b61112c565b505050346101be57602080600319360112610249576001600160a01b039283610f25611062565b1681526003825282812091835190818185549182815201908195855282852090855b818110610f935750505082610f5d9103836110b0565b8451948186019282875251809352850193925b828110610f7d5785850386f35b8351871685529381019392810192600101610f70565b82548a1684529284019260019283019201610f47565b8482346101be5760203660031901126101be57358015158091036101be57610fcf611100565b61ff006005549160081b169061ff0019161760055580f35b505050346101be57816003193601126101be576020905160058152f35b505050346101be5760203660031901126101be5760209061072c611026611062565b61159b565b8482346101be5760203660031901126101be57358015158091036101be57611051611100565b60ff80196005541691161760055580f35b600435906001600160a01b038216820361107857565b600080fd5b610100810190811067ffffffffffffffff82111761109a57604052565b634e487b7160e01b600052604160045260246000fd5b90601f8019910116810190811067ffffffffffffffff82111761109a57604052565b80548210156110ea5760005260206000200190600090565b634e487b7160e01b600052603260045260246000fd5b6000546001600160a01b0316330361111457565b60405163118cdaa760e01b8152336004820152602490fd5b6001600160a01b0316801561121d57600090808252600260205260036040832001541561115b575b5050600190565b60ff60055416156040519061116f8261107d565b815260066020820184815260408301858152606084018681526080850142815260a086019142835260c0870193600a85526111d060e08901968b88528a8c52600260205261080e60408d209a5115158b9060ff801983541691151516179055565b516001880155516002870155516003860155516004850155516005840155519101557f3d48e23e10bd950af477b393a250740762bbfa1547b0aafea39792683d4fdb1d8280a33880611154565b60405162461bcd60e51b8152602060048201526014602482015273496e76616c69642075736572206164647265737360601b6044820152606490fd5b1561126057565b60405162461bcd60e51b815260206004820152600e60248201526d155cd95c881b9bdd08199bdd5b9960921b6044820152606490fd5b6001600160a01b031660009081526002602052604081208054600881901c60ff16611337576005549060ff8216908161133c575b506113375760081c60ff1680611328575b611324576004015480151590816112fb575b506112f85750600190565b90565b9050420342811161131057610e1011386112ed565b634e487b7160e01b82526011600452602482fd5b5090565b506005600182015410156112db565b505090565b60ff91501615386112ca565b9081602091031261107857516001600160a01b03811681036110785790565b1561136e57565b60405162461bcd60e51b815260206004820152600e60248201526d139bdd08185d5d1a1bdc9a5e995960921b6044820152606490fd5b60001981146113b35760010190565b634e487b7160e01b600052601160045260246000fd5b6001600160a01b03811660008181526002602081815260408084206003015491959092911561158b575b5083835280855260ff8284205460081c1661153e5760055460ff81168061152a575b6114dd5760081c60ff16806114c6575b6114765783947fdeb5c31899474fe8c086c95ff9344480d19365676a6a1d22d37bb8e3e7c0ef18948452818152818385200161146181546113a4565b905585845252600442918320015580a2600190565b507fc4738e778dde4dee72d2281c845cba69dc6ab3553240330c2ca692cc864866069193720a6e0c2da40e6c6dee4ca40e8dede40d0d2ced606b1b8260136060945193808552840152820152a290565b508383528085526005600183852001541015611425565b50507fc4738e778dde4dee72d2281c845cba69dc6ab3553240330c2ca692cc8648660691936e139bdd081dda1a5d195b1a5cdd1959608a1b82600f6060945193808552840152820152a290565b5084845281865260ff838520541615611415565b507fc4738e778dde4dee72d2281c845cba69dc6ab3553240330c2ca692cc8648660691936f155cd95c88189b1858dadb1a5cdd195960821b8260106060945193808552840152820152a290565b6115949061112c565b50386113f3565b60405163233500a360e11b81526001600160a01b039091166004820181905290602081602481305afa908115611634576000916115fa575b50156115f45760005260026020526040600020600560068201549101541190565b50600090565b6020813d821161162c575b81611612602093836110b0565b810103126101be57519081151582036102cd5750386115d3565b3d9150611605565b6040513d6000823e3d90fdfea2646970667358221220d287c49b53f741b01ab7b50048c13018b330fa1afe5ff2109da18bc0b6e6301264736f6c63430008140033","opcodes":"PUSH1 0x80 CALLVALUE PUSH2 0xD5 JUMPI PUSH1 0x1F PUSH2 0x1767 CODESIZE DUP2 SWAP1 SUB SWAP2 DUP3 ADD PUSH1 0x1F NOT AND DUP4 ADD SWAP2 PUSH1 0x1 PUSH1 0x1 PUSH1 0x40 SHL SUB DUP4 GT DUP5 DUP5 LT OR PUSH2 0xDA JUMPI DUP1 DUP5 SWAP3 PUSH1 0x20 SWAP5 PUSH1 0x40 MSTORE DUP4 CODECOPY DUP2 ADD SUB SLT PUSH2 0xD5 JUMPI MLOAD PUSH1 0x1 PUSH1 0x1 PUSH1 0xA0 SHL SUB SWAP1 DUP2 DUP2 AND SWAP1 DUP2 SWAP1 SUB PUSH2 0xD5 JUMPI CALLER ISZERO PUSH2 0xBC JUMPI PUSH1 0x0 SLOAD PUSH1 0x1 DUP1 PUSH1 0xA0 SHL SUB NOT SWAP1 CALLER DUP3 DUP3 AND OR PUSH1 0x0 SSTORE PUSH1 0x40 MLOAD SWAP4 CALLER SWAP2 AND PUSH32 0x8BE0079C531659141344CD1FD0A4F28419497F9722A3DAAFE3B4186F6B6457E0 PUSH1 0x0 DUP1 LOG3 PUSH2 0x100 PUSH2 0xFFFF NOT PUSH1 0x5 SLOAD AND OR PUSH1 0x5 SSTORE PUSH1 0x1 SLOAD AND OR PUSH1 0x1 SSTORE PUSH2 0x1676 SWAP1 DUP2 PUSH2 0xF1 DUP3 CODECOPY RETURN JUMPDEST PUSH1 0x40 MLOAD PUSH4 0x1E4FBDF7 PUSH1 0xE0 SHL DUP2 MSTORE PUSH1 0x0 PUSH1 0x4 DUP3 ADD MSTORE PUSH1 0x24 SWAP1 REVERT JUMPDEST PUSH1 0x0 DUP1 REVERT JUMPDEST PUSH4 0x4E487B71 PUSH1 0xE0 SHL PUSH1 0x0 MSTORE PUSH1 0x41 PUSH1 0x4 MSTORE PUSH1 0x24 PUSH1 0x0 REVERT INVALID PUSH1 0x40 PUSH1 0x80 DUP2 MSTORE PUSH1 0x4 SWAP1 DUP2 CALLDATASIZE LT ISZERO PUSH2 0x15 JUMPI PUSH1 0x0 DUP1 REVERT JUMPDEST PUSH1 0x0 SWAP2 PUSH1 0xE0 SWAP1 DUP4 CALLDATALOAD DUP3 SHR SWAP2 DUP3 PUSH4 0x52D9E7E EQ PUSH2 0x102B JUMPI DUP3 PUSH4 0x1770FCD1 EQ PUSH2 0x1004 JUMPI DUP3 PUSH4 0x25FDE04A EQ PUSH2 0xFE7 JUMPI DUP3 PUSH4 0x39362657 EQ PUSH2 0xFA9 JUMPI DUP3 PUSH4 0x41A0894D EQ PUSH2 0xEFE JUMPI DUP3 PUSH4 0x421B2D8B EQ PUSH2 0xED7 JUMPI DUP3 PUSH4 0x466A0146 EQ PUSH2 0xEB0 JUMPI DUP3 PUSH4 0x4A4C560D EQ PUSH2 0xDDB JUMPI DUP3 PUSH4 0x4A9FEFC7 EQ PUSH2 0xDAF JUMPI DUP3 PUSH4 0x4D0970C6 EQ PUSH2 0xC60 JUMPI DUP3 PUSH4 0x51FB012D EQ PUSH2 0xC3B JUMPI DUP3 PUSH4 0x6116F913 EQ PUSH2 0xB23 JUMPI DUP3 PUSH4 0x6386C1C7 EQ PUSH2 0xA1D JUMPI DUP3 PUSH4 0x6E99D52F EQ PUSH2 0x9FF JUMPI DUP3 PUSH4 0x715018A6 EQ PUSH2 0x9A5 JUMPI DUP3 PUSH4 0x72126A4A EQ PUSH2 0x735 JUMPI DUP3 PUSH4 0x7790E501 EQ PUSH2 0x705 JUMPI DUP3 PUSH4 0x7B103999 EQ PUSH2 0x6DB JUMPI DUP3 PUSH4 0x8DA5CB5B EQ PUSH2 0x6B2 JUMPI DUP3 PUSH4 0x98575188 EQ PUSH2 0x62A JUMPI DUP3 PUSH4 0xA87430BA EQ PUSH2 0x5A0 JUMPI POP DUP2 PUSH4 0xA90F8E9A EQ PUSH2 0x566 JUMPI DUP4 DUP3 PUSH4 0xB672EDB5 EQ PUSH2 0x50F JUMPI POP DUP2 PUSH4 0xB8C16771 EQ PUSH2 0x2EC JUMPI DUP2 PUSH4 0xDC92F2ED EQ PUSH2 0x2D0 JUMPI DUP2 PUSH4 0xE697B5D8 EQ PUSH2 0x274 JUMPI DUP2 PUSH4 0xEB079BAB EQ PUSH2 0x24D JUMPI DUP2 PUSH4 0xF2FDE38B EQ PUSH2 0x1C2 JUMPI POP PUSH4 0xF3DF224E EQ PUSH2 0x167 JUMPI PUSH1 0x0 DUP1 REVERT JUMPDEST CALLVALUE PUSH2 0x1BE JUMPI DUP1 PUSH1 0x3 NOT CALLDATASIZE ADD SLT PUSH2 0x1BE JUMPI PUSH2 0x17F PUSH2 0x1062 JUMP JUMPDEST PUSH2 0x187 PUSH2 0x1100 JUMP JUMPDEST PUSH1 0x1 PUSH1 0x1 PUSH1 0xA0 SHL SUB AND DUP1 DUP4 MSTORE PUSH1 0x2 PUSH1 0x20 MSTORE DUP2 DUP4 KECCAK256 PUSH1 0x3 ADD SLOAD PUSH2 0x1AA SWAP1 ISZERO ISZERO PUSH2 0x1259 JUMP JUMPDEST DUP3 MSTORE PUSH1 0x2 PUSH1 0x20 MSTORE PUSH1 0x5 PUSH1 0x24 CALLDATALOAD SWAP2 DUP4 KECCAK256 ADD SSTORE DUP1 RETURN JUMPDEST POP DUP1 REVERT JUMPDEST SWAP1 POP CALLVALUE PUSH2 0x249 JUMPI PUSH1 0x20 CALLDATASIZE PUSH1 0x3 NOT ADD SLT PUSH2 0x249 JUMPI PUSH2 0x1DD PUSH2 0x1062 JUMP JUMPDEST SWAP1 PUSH2 0x1E6 PUSH2 0x1100 JUMP JUMPDEST PUSH1 0x1 PUSH1 0x1 PUSH1 0xA0 SHL SUB SWAP2 DUP3 AND SWAP3 DUP4 ISZERO PUSH2 0x233 JUMPI POP POP DUP3 SLOAD PUSH1 0x1 PUSH1 0x1 PUSH1 0xA0 SHL SUB NOT DUP2 AND DUP4 OR DUP5 SSTORE AND PUSH32 0x8BE0079C531659141344CD1FD0A4F28419497F9722A3DAAFE3B4186F6B6457E0 DUP4 DUP1 LOG3 DUP1 RETURN JUMPDEST MLOAD PUSH4 0x1E4FBDF7 PUSH1 0xE0 SHL DUP2 MSTORE SWAP1 DUP2 ADD DUP5 SWAP1 MSTORE PUSH1 0x24 SWAP1 REVERT JUMPDEST DUP3 DUP1 REVERT JUMPDEST POP POP CALLVALUE PUSH2 0x1BE JUMPI DUP2 PUSH1 0x3 NOT CALLDATASIZE ADD SLT PUSH2 0x1BE JUMPI PUSH1 0x20 SWAP1 PUSH1 0xFF PUSH1 0x5 SLOAD PUSH1 0x8 SHR AND SWAP1 MLOAD SWAP1 ISZERO ISZERO DUP2 MSTORE RETURN JUMPDEST POP POP CALLVALUE PUSH2 0x1BE JUMPI DUP1 PUSH1 0x3 NOT CALLDATASIZE ADD SLT PUSH2 0x1BE JUMPI PUSH2 0x28E PUSH2 0x1062 JUMP JUMPDEST PUSH1 0x1 PUSH1 0x1 PUSH1 0xA0 SHL SUB SWAP1 DUP2 AND DUP4 MSTORE PUSH1 0x3 PUSH1 0x20 MSTORE DUP2 DUP4 KECCAK256 DUP1 SLOAD PUSH1 0x24 CALLDATALOAD SWAP5 SWAP1 DUP6 LT ISZERO PUSH2 0x2CD JUMPI POP PUSH1 0x20 SWAP4 PUSH2 0x2BE SWAP2 PUSH2 0x10D2 JUMP JUMPDEST SWAP1 SLOAD SWAP1 PUSH1 0x3 SHL SHR AND SWAP1 MLOAD SWAP1 DUP2 MSTORE RETURN JUMPDEST DUP1 REVERT JUMPDEST POP POP CALLVALUE PUSH2 0x1BE JUMPI DUP2 PUSH1 0x3 NOT CALLDATASIZE ADD SLT PUSH2 0x1BE JUMPI PUSH1 0x20 SWAP1 MLOAD PUSH1 0xA DUP2 MSTORE RETURN JUMPDEST SWAP1 POP CALLVALUE PUSH2 0x249 JUMPI PUSH1 0x20 DUP1 PUSH1 0x3 NOT CALLDATASIZE ADD SLT PUSH2 0x50B JUMPI PUSH2 0x308 PUSH2 0x1062 JUMP JUMPDEST DUP5 SLOAD CALLER PUSH1 0x1 PUSH1 0x1 PUSH1 0xA0 SHL SUB SWAP2 DUP3 AND EQ SWAP4 SWAP1 SWAP2 SWAP1 DUP5 ISZERO PUSH2 0x4B0 JUMPI JUMPDEST DUP5 ISZERO PUSH2 0x41F JUMPI JUMPDEST POP PUSH2 0x354 PUSH32 0x8889DC63DBB3361D8F26C598288DF02FAD32C364FB705A6B3D6C4B19FFFC9CC1 SWAP5 PUSH2 0x1367 JUMP JUMPDEST AND SWAP3 DUP4 DUP6 MSTORE PUSH1 0x2 DUP3 MSTORE PUSH2 0x36E PUSH1 0x3 DUP3 DUP8 KECCAK256 ADD SLOAD ISZERO ISZERO PUSH2 0x1259 JUMP JUMPDEST DUP4 DUP6 MSTORE PUSH1 0x2 DUP3 MSTORE PUSH1 0x1 DUP2 DUP7 KECCAK256 ADD PUSH2 0x385 DUP2 SLOAD PUSH2 0x13A4 JUMP JUMPDEST SWAP1 SSTORE DUP4 DUP6 MSTORE PUSH1 0x2 DUP3 MSTORE DUP1 DUP6 KECCAK256 PUSH1 0x5 PUSH1 0x1 DUP3 ADD SLOAD LT ISZERO PUSH2 0x3B7 JUMPI JUMPDEST POP DUP4 DUP6 MSTORE PUSH1 0x2 DUP3 MSTORE PUSH1 0x1 DUP2 DUP7 KECCAK256 ADD SLOAD SWAP1 MLOAD SWAP1 DUP2 MSTORE LOG2 DUP1 RETURN JUMPDEST PUSH2 0x100 PUSH2 0xFF00 NOT DUP3 SLOAD AND OR SWAP1 SSTORE DUP4 PUSH32 0xCC1CF21B75158E751A071CC4770B92CDE8BB2BC34F9187EEDD0592B874A55669 PUSH1 0x60 DUP4 MLOAD DUP6 DUP2 MSTORE PUSH1 0x17 DUP7 DUP3 ADD MSTORE PUSH32 0x5370616D207468726573686F6C64206578636565646564000000000000000000 DUP6 DUP3 ADD MSTORE LOG2 CODESIZE PUSH2 0x39F JUMP JUMPDEST PUSH1 0x1 SLOAD DUP7 MLOAD PUSH4 0xFAAC38EF PUSH1 0xE0 SHL DUP2 MSTORE SWAP6 POP DUP5 SWAP2 DUP7 SWAP2 DUP3 SWAP1 DUP7 AND GAS STATICCALL DUP1 ISZERO PUSH2 0x4A6 JUMPI DUP3 PUSH2 0x354 SWAP2 PUSH32 0x8889DC63DBB3361D8F26C598288DF02FAD32C364FB705A6B3D6C4B19FFFC9CC1 SWAP7 DUP10 SWAP2 PUSH2 0x479 JUMPI JUMPDEST POP AND CALLER EQ SWAP5 POP PUSH2 0x329 JUMP JUMPDEST PUSH2 0x499 SWAP2 POP DUP7 RETURNDATASIZE DUP9 GT PUSH2 0x49F JUMPI JUMPDEST PUSH2 0x491 DUP2 DUP4 PUSH2 0x10B0 JUMP JUMPDEST DUP2 ADD SWAP1 PUSH2 0x1348 JUMP JUMPDEST CODESIZE PUSH2 0x46E JUMP JUMPDEST POP RETURNDATASIZE PUSH2 0x487 JUMP JUMPDEST DUP6 MLOAD RETURNDATASIZE DUP9 DUP3 RETURNDATACOPY RETURNDATASIZE SWAP1 REVERT JUMPDEST DUP1 SWAP5 POP DUP4 DUP4 PUSH1 0x1 SLOAD AND DUP8 MLOAD SWAP3 DUP4 DUP1 SWAP3 PUSH4 0x492EB5D1 PUSH1 0xE1 SHL DUP3 MSTORE GAS STATICCALL DUP1 ISZERO PUSH2 0x501 JUMPI DUP4 SWAP2 DUP9 SWAP2 PUSH2 0x4E4 JUMPI JUMPDEST POP AND CALLER EQ SWAP4 PUSH2 0x322 JUMP JUMPDEST PUSH2 0x4FB SWAP2 POP DUP6 RETURNDATASIZE DUP8 GT PUSH2 0x49F JUMPI PUSH2 0x491 DUP2 DUP4 PUSH2 0x10B0 JUMP JUMPDEST CODESIZE PUSH2 0x4DA JUMP JUMPDEST DUP7 MLOAD RETURNDATASIZE DUP10 DUP3 RETURNDATACOPY RETURNDATASIZE SWAP1 REVERT JUMPDEST DUP4 DUP1 REVERT JUMPDEST DUP1 DUP5 CALLVALUE PUSH2 0x563 JUMPI PUSH1 0x20 CALLDATASIZE PUSH1 0x3 NOT ADD SLT PUSH2 0x563 JUMPI PUSH1 0x1 SWAP1 PUSH2 0x52D PUSH2 0x1062 JUMP JUMPDEST PUSH2 0x535 PUSH2 0x1100 JUMP JUMPDEST DUP3 DUP1 PUSH1 0xA0 SHL SUB AND DUP1 DUP5 MSTORE PUSH1 0x2 PUSH1 0x20 MSTORE PUSH2 0x555 PUSH1 0x3 DUP4 DUP7 KECCAK256 ADD SLOAD ISZERO ISZERO PUSH2 0x1259 JUMP JUMPDEST DUP4 MSTORE PUSH1 0x2 PUSH1 0x20 MSTORE DUP3 KECCAK256 ADD SSTORE DUP1 RETURN JUMPDEST POP REVERT JUMPDEST SWAP1 POP CALLVALUE PUSH2 0x249 JUMPI PUSH1 0x20 CALLDATASIZE PUSH1 0x3 NOT ADD SLT PUSH2 0x249 JUMPI PUSH1 0x20 SWAP3 PUSH1 0x1 PUSH1 0x1 PUSH1 0xA0 SHL SUB SWAP2 DUP4 SWAP2 SWAP1 DUP4 PUSH2 0x591 PUSH2 0x1062 JUMP JUMPDEST AND DUP3 MSTORE DUP6 MSTORE KECCAK256 SLOAD AND SWAP1 MLOAD SWAP1 DUP2 MSTORE RETURN JUMPDEST SWAP1 SWAP3 SWAP2 POP CALLVALUE PUSH2 0x50B JUMPI PUSH1 0x20 CALLDATASIZE PUSH1 0x3 NOT ADD SLT PUSH2 0x50B JUMPI PUSH2 0x100 SWAP4 DUP3 SWAP1 PUSH1 0x1 PUSH1 0x1 PUSH1 0xA0 SHL SUB PUSH2 0x5CB PUSH2 0x1062 JUMP JUMPDEST AND DUP2 MSTORE PUSH1 0x2 PUSH1 0x20 MSTORE KECCAK256 DUP1 SLOAD SWAP4 PUSH1 0x1 DUP3 ADD SLOAD SWAP1 PUSH1 0x2 DUP4 ADD SLOAD PUSH1 0x3 DUP5 ADD SLOAD SWAP2 DUP5 ADD SLOAD SWAP3 PUSH1 0x6 PUSH1 0x5 DUP7 ADD SLOAD SWAP6 ADD SLOAD SWAP7 PUSH1 0xFF DUP2 MLOAD SWAP10 DUP2 DUP2 AND ISZERO ISZERO DUP12 MSTORE PUSH1 0x8 SHR AND ISZERO ISZERO PUSH1 0x20 DUP11 ADD MSTORE DUP9 ADD MSTORE PUSH1 0x60 DUP8 ADD MSTORE PUSH1 0x80 DUP7 ADD MSTORE PUSH1 0xA0 DUP6 ADD MSTORE PUSH1 0xC0 DUP5 ADD MSTORE DUP3 ADD MSTORE RETURN JUMPDEST POP POP POP CALLVALUE PUSH2 0x1BE JUMPI PUSH1 0x20 CALLDATASIZE PUSH1 0x3 NOT ADD SLT PUSH2 0x1BE JUMPI PUSH2 0x646 PUSH2 0x1062 JUMP JUMPDEST PUSH2 0x64E PUSH2 0x1100 JUMP JUMPDEST PUSH1 0x1 PUSH1 0x1 PUSH1 0xA0 SHL SUB AND DUP1 DUP4 MSTORE PUSH1 0x2 PUSH1 0x20 MSTORE DUP2 DUP4 KECCAK256 PUSH1 0x3 ADD SLOAD SWAP1 SWAP2 SWAP1 PUSH2 0x674 SWAP1 ISZERO ISZERO PUSH2 0x1259 JUMP JUMPDEST DUP2 DUP4 MSTORE PUSH1 0x2 PUSH1 0x20 MSTORE DUP3 KECCAK256 DUP1 SLOAD PUSH2 0xFFFF NOT AND PUSH2 0x100 OR SWAP1 SSTORE PUSH32 0xE9DCE8C992623CE791725B21E857E33248D1F190A25B5168313420EEBDAAE99D DUP3 DUP1 LOG2 DUP1 RETURN JUMPDEST POP POP POP CALLVALUE PUSH2 0x1BE JUMPI DUP2 PUSH1 0x3 NOT CALLDATASIZE ADD SLT PUSH2 0x1BE JUMPI SWAP1 SLOAD SWAP1 MLOAD PUSH1 0x1 PUSH1 0x1 PUSH1 0xA0 SHL SUB SWAP1 SWAP2 AND DUP2 MSTORE PUSH1 0x20 SWAP1 RETURN JUMPDEST POP POP POP CALLVALUE PUSH2 0x1BE JUMPI DUP2 PUSH1 0x3 NOT CALLDATASIZE ADD SLT PUSH2 0x1BE JUMPI PUSH1 0x1 SLOAD SWAP1 MLOAD PUSH1 0x1 PUSH1 0x1 PUSH1 0xA0 SHL SUB SWAP1 SWAP2 AND DUP2 MSTORE PUSH1 0x20 SWAP1 RETURN JUMPDEST POP POP POP CALLVALUE PUSH2 0x1BE JUMPI PUSH1 0x20 CALLDATASIZE PUSH1 0x3 NOT ADD SLT PUSH2 0x1BE JUMPI PUSH1 0x20 SWAP1 PUSH2 0x72C PUSH2 0x727 PUSH2 0x1062 JUMP JUMPDEST PUSH2 0x13C9 JUMP JUMPDEST SWAP1 MLOAD SWAP1 ISZERO ISZERO DUP2 MSTORE RETURN JUMPDEST SWAP4 SWAP2 POP CALLVALUE PUSH2 0x1BE JUMPI DUP3 PUSH1 0x3 NOT CALLDATASIZE ADD SLT PUSH2 0x1BE JUMPI PUSH2 0x750 PUSH2 0x1062 JUMP JUMPDEST PUSH1 0x1 PUSH1 0x1 PUSH1 0xA0 SHL SUB PUSH1 0x24 CALLDATALOAD DUP2 DUP2 AND SWAP5 SWAP3 SWAP1 DUP6 SWAP1 SUB PUSH2 0x249 JUMPI DUP2 AND SWAP3 DUP4 ISZERO PUSH2 0x96B JUMPI DUP5 DUP5 EQ PUSH2 0x930 JUMPI DUP4 DUP4 MSTORE DUP6 PUSH1 0x20 SWAP8 PUSH1 0x2 DUP10 MSTORE PUSH1 0x3 DUP3 DUP7 KECCAK256 ADD SLOAD ISZERO PUSH2 0x799 JUMPI JUMPDEST DUP9 DUP3 MLOAD PUSH1 0x1 DUP2 MSTORE RETURN JUMPDEST DUP5 PUSH1 0xA PUSH1 0x6 SWAP3 PUSH1 0xFF PUSH1 0x5 SLOAD AND ISZERO SWAP1 DUP10 DUP14 PUSH2 0x825 DUP9 MLOAD SWAP9 DUP10 SWAP6 PUSH2 0x7BA DUP8 PUSH2 0x107D JUMP JUMPDEST DUP7 MSTORE PUSH2 0x80E DUP4 DUP8 ADD SWAP2 DUP10 DUP4 MSTORE DUP10 PUSH1 0x2 DUP3 DUP11 ADD SWAP7 DUP3 DUP9 MSTORE PUSH1 0x60 DUP12 ADD SWAP9 DUP4 DUP11 MSTORE PUSH1 0x80 DUP13 ADD SWAP11 TIMESTAMP DUP13 MSTORE PUSH1 0xA0 DUP14 ADD SWAP13 DUP14 TIMESTAMP SWAP1 MSTORE PUSH1 0xC0 DUP2 ADD SWAP15 DUP16 MSTORE ADD SWAP14 DUP15 MSTORE DUP4 MSTORE MSTORE KECCAK256 SWAP11 MLOAD ISZERO ISZERO DUP12 SWAP1 PUSH1 0xFF DUP1 NOT DUP4 SLOAD AND SWAP2 ISZERO ISZERO AND OR SWAP1 SSTORE JUMP JUMPDEST MLOAD DUP10 SLOAD PUSH2 0xFF00 NOT AND SWAP1 ISZERO ISZERO PUSH1 0x8 SHL PUSH2 0xFF00 AND OR DUP10 SSTORE JUMP JUMPDEST MLOAD PUSH1 0x1 DUP9 ADD SSTORE MLOAD PUSH1 0x2 DUP8 ADD SSTORE MLOAD PUSH1 0x3 DUP7 ADD SSTORE MLOAD DUP6 DUP6 ADD SSTORE MLOAD PUSH1 0x5 DUP5 ADD SSTORE MLOAD SWAP2 ADD SSTORE DUP5 ISZERO ISZERO DUP1 PUSH2 0x91E JUMPI JUMPDEST PUSH2 0x886 JUMPI JUMPDEST POP POP DUP1 PUSH32 0x3D48E23E10BD950AF477B393A250740762BBFA1547B0AAFEA39792683D4FDB1D SWAP2 LOG3 CODESIZE DUP1 DUP1 DUP1 DUP1 DUP6 DUP2 PUSH2 0x790 JUMP JUMPDEST DUP4 DUP4 MSTORE DUP1 DUP8 MSTORE DUP6 DUP4 KECCAK256 DUP1 SLOAD PUSH1 0x1 PUSH1 0x1 PUSH1 0xA0 SHL SUB NOT AND DUP7 OR SWAP1 SSTORE DUP5 DUP4 MSTORE PUSH1 0x3 DUP8 MSTORE DUP6 DUP4 KECCAK256 DUP1 SLOAD SWAP2 PUSH9 0x10000000000000000 DUP4 LT ISZERO PUSH2 0x90B JUMPI POP DUP2 PUSH2 0x8F1 SWAP2 PUSH1 0x1 PUSH32 0x3D48E23E10BD950AF477B393A250740762BBFA1547B0AAFEA39792683D4FDB1D SWAP7 SWAP6 SWAP5 ADD DUP2 SSTORE PUSH2 0x10D2 JUMP JUMPDEST DUP2 SWAP3 SWAP2 SLOAD SWAP1 PUSH1 0x3 SHL SWAP2 DUP7 DUP4 SHL SWAP3 SHL NOT AND OR SWAP1 SSTORE SWAP1 CODESIZE PUSH2 0x854 JUMP JUMPDEST PUSH4 0x4E487B71 PUSH1 0xE0 SHL DUP6 MSTORE PUSH1 0x41 SWAP1 MSTORE PUSH1 0x24 DUP5 REVERT JUMPDEST POP DUP5 DUP4 MSTORE PUSH1 0x3 DUP7 DUP5 KECCAK256 ADD SLOAD ISZERO ISZERO PUSH2 0x84F JUMP JUMPDEST PUSH1 0x64 SWAP1 PUSH1 0x20 DUP8 MLOAD SWAP2 PUSH3 0x461BCD PUSH1 0xE5 SHL DUP4 MSTORE DUP3 ADD MSTORE PUSH1 0x15 PUSH1 0x24 DUP3 ADD MSTORE PUSH21 0x21B0B73737BA103932B332B9103CB7BAB939B2B633 PUSH1 0x59 SHL PUSH1 0x44 DUP3 ADD MSTORE REVERT JUMPDEST PUSH1 0x64 SWAP1 PUSH1 0x20 DUP8 MLOAD SWAP2 PUSH3 0x461BCD PUSH1 0xE5 SHL DUP4 MSTORE DUP3 ADD MSTORE PUSH1 0x14 PUSH1 0x24 DUP3 ADD MSTORE PUSH20 0x496E76616C696420757365722061646472657373 PUSH1 0x60 SHL PUSH1 0x44 DUP3 ADD MSTORE REVERT JUMPDEST DUP5 CALLVALUE PUSH2 0x2CD JUMPI DUP1 PUSH1 0x3 NOT CALLDATASIZE ADD SLT PUSH2 0x2CD JUMPI PUSH2 0x9BE PUSH2 0x1100 JUMP JUMPDEST DUP1 SLOAD PUSH1 0x1 PUSH1 0x1 PUSH1 0xA0 SHL SUB NOT DUP2 AND DUP3 SSTORE DUP2 SWAP1 PUSH1 0x1 PUSH1 0x1 PUSH1 0xA0 SHL SUB AND PUSH32 0x8BE0079C531659141344CD1FD0A4F28419497F9722A3DAAFE3B4186F6B6457E0 DUP3 DUP1 LOG3 DUP1 RETURN JUMPDEST POP POP POP CALLVALUE PUSH2 0x1BE JUMPI DUP2 PUSH1 0x3 NOT CALLDATASIZE ADD SLT PUSH2 0x1BE JUMPI PUSH1 0x20 SWAP1 MLOAD PUSH2 0xE10 DUP2 MSTORE RETURN JUMPDEST SWAP2 POP CALLVALUE PUSH2 0x50B JUMPI PUSH1 0x20 CALLDATASIZE PUSH1 0x3 NOT ADD SLT PUSH2 0x50B JUMPI DUP3 PUSH2 0x100 SWAP5 PUSH2 0xA3D PUSH2 0x1062 JUMP JUMPDEST DUP2 DUP6 DUP5 MLOAD PUSH2 0xA4A DUP2 PUSH2 0x107D JUMP JUMPDEST DUP3 DUP2 MSTORE DUP3 PUSH1 0x20 DUP3 ADD MSTORE DUP3 DUP7 DUP3 ADD MSTORE DUP3 PUSH1 0x60 DUP3 ADD MSTORE DUP3 PUSH1 0x80 DUP3 ADD MSTORE DUP3 PUSH1 0xA0 DUP3 ADD MSTORE DUP3 PUSH1 0xC0 DUP3 ADD MSTORE ADD MSTORE PUSH1 0x1 DUP1 PUSH1 0xA0 SHL SUB AND DUP2 MSTORE PUSH1 0x2 PUSH1 0x20 MSTORE KECCAK256 DUP4 MLOAD SWAP2 PUSH2 0xA8E DUP4 PUSH2 0x107D JUMP JUMPDEST DUP2 SLOAD SWAP1 PUSH1 0xFF DUP3 AND ISZERO ISZERO SWAP6 DUP7 DUP6 MSTORE PUSH1 0xFF PUSH1 0x20 DUP7 ADD SWAP4 PUSH1 0x8 SHR AND ISZERO ISZERO DUP4 MSTORE PUSH1 0x1 DUP5 ADD SLOAD SWAP1 DUP1 DUP7 ADD SWAP2 DUP3 MSTORE PUSH1 0x2 DUP6 ADD SLOAD SWAP2 PUSH1 0x60 DUP8 ADD SWAP3 DUP4 MSTORE PUSH1 0x3 DUP7 ADD SLOAD SWAP4 PUSH1 0x80 DUP9 ADD SWAP5 DUP6 MSTORE DUP7 ADD SLOAD SWAP5 PUSH1 0xA0 DUP9 ADD SWAP6 DUP7 MSTORE DUP9 PUSH1 0x6 PUSH1 0x5 DUP10 ADD SLOAD SWAP9 PUSH1 0xC0 DUP12 ADD SWAP10 DUP11 MSTORE ADD SLOAD SWAP9 ADD SWAP8 DUP9 MSTORE DUP3 MLOAD SWAP10 DUP11 MSTORE MLOAD ISZERO ISZERO PUSH1 0x20 DUP11 ADD MSTORE MLOAD SWAP1 DUP9 ADD MSTORE MLOAD PUSH1 0x60 DUP8 ADD MSTORE MLOAD PUSH1 0x80 DUP7 ADD MSTORE MLOAD PUSH1 0xA0 DUP6 ADD MSTORE MLOAD PUSH1 0xC0 DUP5 ADD MSTORE MLOAD SWAP1 DUP3 ADD MSTORE RETURN JUMPDEST POP SWAP1 POP CALLVALUE PUSH2 0x249 JUMPI PUSH1 0x20 SWAP1 DUP2 PUSH1 0x3 NOT CALLDATASIZE ADD SLT PUSH2 0x50B JUMPI PUSH2 0xB41 PUSH2 0x1062 JUMP JUMPDEST PUSH1 0x1 DUP1 PUSH1 0xA0 SHL SUB SWAP2 DUP3 DUP7 SLOAD AND CALLER EQ SWAP1 DUP2 ISZERO PUSH2 0xBEA JUMPI JUMPDEST DUP2 ISZERO PUSH2 0xB86 JUMPI JUMPDEST POP SWAP2 PUSH1 0x6 SWAP5 SWAP4 SWAP2 PUSH2 0xB70 PUSH1 0x2 SWAP5 PUSH2 0x1367 JUMP JUMPDEST AND DUP6 MSTORE MSTORE DUP3 KECCAK256 ADD PUSH2 0xB81 DUP2 SLOAD PUSH2 0x13A4 JUMP JUMPDEST SWAP1 SSTORE DUP1 RETURN JUMPDEST PUSH1 0x1 SLOAD DUP7 MLOAD PUSH4 0xFAAC38EF PUSH1 0xE0 SHL DUP2 MSTORE SWAP3 POP DUP6 SWAP2 DUP4 SWAP2 DUP3 SWAP1 DUP8 AND GAS STATICCALL SWAP1 DUP2 ISZERO PUSH2 0x4A6 JUMPI SWAP2 PUSH2 0xB70 DUP5 PUSH1 0x2 SWAP6 SWAP4 PUSH1 0x6 SWAP9 SWAP8 SWAP6 DUP11 SWAP2 PUSH2 0xBCD JUMPI JUMPDEST POP AND CALLER EQ SWAP3 SWAP5 POP POP SWAP2 SWAP4 SWAP5 PUSH2 0xB5E JUMP JUMPDEST PUSH2 0xBE4 SWAP2 POP DUP7 RETURNDATASIZE DUP9 GT PUSH2 0x49F JUMPI PUSH2 0x491 DUP2 DUP4 PUSH2 0x10B0 JUMP JUMPDEST CODESIZE PUSH2 0xBBD JUMP JUMPDEST DUP1 SWAP2 POP DUP5 DUP5 PUSH1 0x1 SLOAD AND DUP8 MLOAD SWAP3 DUP4 DUP1 SWAP3 PUSH4 0x492EB5D1 PUSH1 0xE1 SHL DUP3 MSTORE GAS STATICCALL DUP1 ISZERO PUSH2 0x501 JUMPI DUP5 SWAP2 DUP9 SWAP2 PUSH2 0xC1E JUMPI JUMPDEST POP AND CALLER EQ SWAP1 PUSH2 0xB57 JUMP JUMPDEST PUSH2 0xC35 SWAP2 POP DUP7 RETURNDATASIZE DUP9 GT PUSH2 0x49F JUMPI PUSH2 0x491 DUP2 DUP4 PUSH2 0x10B0 JUMP JUMPDEST CODESIZE PUSH2 0xC14 JUMP JUMPDEST POP POP POP CALLVALUE PUSH2 0x1BE JUMPI DUP2 PUSH1 0x3 NOT CALLDATASIZE ADD SLT PUSH2 0x1BE JUMPI PUSH1 0x20 SWAP1 PUSH1 0xFF PUSH1 0x5 SLOAD AND SWAP1 MLOAD SWAP1 ISZERO ISZERO DUP2 MSTORE RETURN JUMPDEST POP SWAP1 POP CALLVALUE PUSH2 0x249 JUMPI DUP2 PUSH1 0x3 NOT CALLDATASIZE ADD SLT PUSH2 0x249 JUMPI PUSH2 0xC7B PUSH2 0x1062 JUMP JUMPDEST SWAP2 PUSH1 0x24 CALLDATALOAD SWAP2 PUSH8 0xFFFFFFFFFFFFFFFF SWAP1 DUP2 DUP5 GT PUSH2 0xDAB JUMPI CALLDATASIZE PUSH1 0x23 DUP6 ADD SLT ISZERO PUSH2 0xDAB JUMPI DUP4 DUP2 ADD CALLDATALOAD SWAP2 DUP3 GT PUSH2 0xD98 JUMPI POP DUP2 MLOAD DUP6 PUSH1 0x20 SWAP5 PUSH1 0x1F NOT SWAP4 PUSH2 0xCC3 DUP8 DUP7 PUSH1 0x1F DUP5 ADD AND ADD DUP6 PUSH2 0x10B0 JUMP JUMPDEST DUP1 DUP5 MSTORE CALLDATASIZE PUSH1 0x24 DUP3 DUP5 ADD ADD GT PUSH2 0x249 JUMPI DUP1 PUSH1 0x24 DUP9 SWAP4 ADD DUP4 DUP7 ADD CALLDATACOPY DUP4 ADD ADD MSTORE PUSH2 0xCE8 PUSH2 0x1100 JUMP JUMPDEST PUSH1 0x1 PUSH1 0x1 PUSH1 0xA0 SHL SUB DUP6 AND DUP1 DUP8 MSTORE PUSH1 0x2 DUP6 MSTORE DUP4 DUP8 KECCAK256 PUSH1 0x3 ADD SLOAD SWAP1 SWAP6 SWAP1 ISZERO PUSH2 0xD88 JUMPI JUMPDEST POP DUP5 DUP7 MSTORE PUSH1 0x2 DUP5 MSTORE DUP3 DUP7 KECCAK256 PUSH2 0x100 PUSH2 0xFFFF NOT DUP3 SLOAD AND OR SWAP1 SSTORE DUP3 MLOAD SWAP4 DUP1 DUP6 MSTORE DUP2 MLOAD SWAP2 DUP3 DUP3 DUP8 ADD MSTORE DUP8 JUMPDEST DUP4 DUP2 LT PUSH2 0xD75 JUMPI POP POP POP SWAP3 DUP3 SWAP2 PUSH1 0x1F DUP6 DUP9 DUP5 SWAP7 PUSH32 0xCC1CF21B75158E751A071CC4770B92CDE8BB2BC34F9187EEDD0592B874A55669 SWAP9 DUP7 ADD ADD MSTORE ADD AND DUP2 ADD SUB ADD SWAP1 LOG2 DUP1 RETURN JUMPDEST DUP2 DUP2 ADD DUP4 ADD MLOAD DUP8 DUP3 ADD DUP8 ADD MSTORE DUP3 ADD PUSH2 0xD31 JUMP JUMPDEST PUSH2 0xD91 SWAP1 PUSH2 0x112C JUMP JUMPDEST POP CODESIZE PUSH2 0xD09 JUMP JUMPDEST PUSH4 0x4E487B71 PUSH1 0xE0 SHL DUP7 MSTORE PUSH1 0x41 SWAP1 MSTORE PUSH1 0x24 DUP6 REVERT JUMPDEST DUP6 DUP1 REVERT JUMPDEST POP SWAP1 POP CALLVALUE PUSH2 0x249 JUMPI PUSH1 0x20 CALLDATASIZE PUSH1 0x3 NOT ADD SLT PUSH2 0x249 JUMPI PUSH1 0x20 SWAP3 PUSH1 0x1 PUSH1 0x1 PUSH1 0xA0 SHL SUB SWAP2 DUP4 SWAP2 SWAP1 DUP4 PUSH2 0x591 PUSH2 0x1062 JUMP JUMPDEST DUP5 DUP3 DUP6 CALLVALUE PUSH2 0x249 JUMPI PUSH1 0x20 CALLDATASIZE PUSH1 0x3 NOT ADD SLT PUSH2 0x249 JUMPI PUSH2 0xDF7 PUSH2 0x1062 JUMP JUMPDEST PUSH2 0xDFF PUSH2 0x1100 JUMP JUMPDEST PUSH1 0x1 PUSH1 0x1 PUSH1 0xA0 SHL SUB AND DUP1 DUP5 MSTORE PUSH1 0x2 PUSH1 0x20 MSTORE DUP2 DUP5 KECCAK256 PUSH1 0x3 ADD SLOAD SWAP1 SWAP3 SWAP1 PUSH2 0xE25 SWAP1 ISZERO ISZERO PUSH2 0x1259 JUMP JUMPDEST DUP3 DUP5 MSTORE PUSH1 0x2 PUSH1 0x20 MSTORE PUSH1 0xFF DUP3 DUP6 KECCAK256 SLOAD PUSH1 0x8 SHR AND PUSH2 0xE78 JUMPI POP DUP2 DUP4 MSTORE PUSH1 0x2 PUSH1 0x20 MSTORE DUP3 KECCAK256 DUP1 SLOAD PUSH1 0xFF NOT AND PUSH1 0x1 OR SWAP1 SSTORE PUSH32 0x7409CB8E690BCD1487FD4FD27DAD3FA92388D201BA6F953631D6D6B26299F849 DUP3 DUP1 LOG2 DUP1 RETURN JUMPDEST PUSH1 0x20 PUSH1 0x64 SWAP3 MLOAD SWAP2 PUSH3 0x461BCD PUSH1 0xE5 SHL DUP4 MSTORE DUP3 ADD MSTORE PUSH1 0x13 PUSH1 0x24 DUP3 ADD MSTORE PUSH19 0x155CD95C881A5CC8189B1858DADB1A5CDD1959 PUSH1 0x6A SHL PUSH1 0x44 DUP3 ADD MSTORE REVERT JUMPDEST POP POP POP CALLVALUE PUSH2 0x1BE JUMPI PUSH1 0x20 CALLDATASIZE PUSH1 0x3 NOT ADD SLT PUSH2 0x1BE JUMPI PUSH1 0x20 SWAP1 PUSH2 0x72C PUSH2 0xED2 PUSH2 0x1062 JUMP JUMPDEST PUSH2 0x1296 JUMP JUMPDEST POP POP POP CALLVALUE PUSH2 0x1BE JUMPI PUSH1 0x20 CALLDATASIZE PUSH1 0x3 NOT ADD SLT PUSH2 0x1BE JUMPI PUSH1 0x20 SWAP1 PUSH2 0x72C PUSH2 0xEF9 PUSH2 0x1062 JUMP JUMPDEST PUSH2 0x112C JUMP JUMPDEST POP POP POP CALLVALUE PUSH2 0x1BE JUMPI PUSH1 0x20 DUP1 PUSH1 0x3 NOT CALLDATASIZE ADD SLT PUSH2 0x249 JUMPI PUSH1 0x1 PUSH1 0x1 PUSH1 0xA0 SHL SUB SWAP3 DUP4 PUSH2 0xF25 PUSH2 0x1062 JUMP JUMPDEST AND DUP2 MSTORE PUSH1 0x3 DUP3 MSTORE DUP3 DUP2 KECCAK256 SWAP2 DUP4 MLOAD SWAP1 DUP2 DUP2 DUP6 SLOAD SWAP2 DUP3 DUP2 MSTORE ADD SWAP1 DUP2 SWAP6 DUP6 MSTORE DUP3 DUP6 KECCAK256 SWAP1 DUP6 JUMPDEST DUP2 DUP2 LT PUSH2 0xF93 JUMPI POP POP POP DUP3 PUSH2 0xF5D SWAP2 SUB DUP4 PUSH2 0x10B0 JUMP JUMPDEST DUP5 MLOAD SWAP5 DUP2 DUP7 ADD SWAP3 DUP3 DUP8 MSTORE MLOAD DUP1 SWAP4 MSTORE DUP6 ADD SWAP4 SWAP3 JUMPDEST DUP3 DUP2 LT PUSH2 0xF7D JUMPI DUP6 DUP6 SUB DUP7 RETURN JUMPDEST DUP4 MLOAD DUP8 AND DUP6 MSTORE SWAP4 DUP2 ADD SWAP4 SWAP3 DUP2 ADD SWAP3 PUSH1 0x1 ADD PUSH2 0xF70 JUMP JUMPDEST DUP3 SLOAD DUP11 AND DUP5 MSTORE SWAP3 DUP5 ADD SWAP3 PUSH1 0x1 SWAP3 DUP4 ADD SWAP3 ADD PUSH2 0xF47 JUMP JUMPDEST DUP5 DUP3 CALLVALUE PUSH2 0x1BE JUMPI PUSH1 0x20 CALLDATASIZE PUSH1 0x3 NOT ADD SLT PUSH2 0x1BE JUMPI CALLDATALOAD DUP1 ISZERO ISZERO DUP1 SWAP2 SUB PUSH2 0x1BE JUMPI PUSH2 0xFCF PUSH2 0x1100 JUMP JUMPDEST PUSH2 0xFF00 PUSH1 0x5 SLOAD SWAP2 PUSH1 0x8 SHL AND SWAP1 PUSH2 0xFF00 NOT AND OR PUSH1 0x5 SSTORE DUP1 RETURN JUMPDEST POP POP POP CALLVALUE PUSH2 0x1BE JUMPI DUP2 PUSH1 0x3 NOT CALLDATASIZE ADD SLT PUSH2 0x1BE JUMPI PUSH1 0x20 SWAP1 MLOAD PUSH1 0x5 DUP2 MSTORE RETURN JUMPDEST POP POP POP CALLVALUE PUSH2 0x1BE JUMPI PUSH1 0x20 CALLDATASIZE PUSH1 0x3 NOT ADD SLT PUSH2 0x1BE JUMPI PUSH1 0x20 SWAP1 PUSH2 0x72C PUSH2 0x1026 PUSH2 0x1062 JUMP JUMPDEST PUSH2 0x159B JUMP JUMPDEST DUP5 DUP3 CALLVALUE PUSH2 0x1BE JUMPI PUSH1 0x20 CALLDATASIZE PUSH1 0x3 NOT ADD SLT PUSH2 0x1BE JUMPI CALLDATALOAD DUP1 ISZERO ISZERO DUP1 SWAP2 SUB PUSH2 0x1BE JUMPI PUSH2 0x1051 PUSH2 0x1100 JUMP JUMPDEST PUSH1 0xFF DUP1 NOT PUSH1 0x5 SLOAD AND SWAP2 AND OR PUSH1 0x5 SSTORE DUP1 RETURN JUMPDEST PUSH1 0x4 CALLDATALOAD SWAP1 PUSH1 0x1 PUSH1 0x1 PUSH1 0xA0 SHL SUB DUP3 AND DUP3 SUB PUSH2 0x1078 JUMPI JUMP JUMPDEST PUSH1 0x0 DUP1 REVERT JUMPDEST PUSH2 0x100 DUP2 ADD SWAP1 DUP2 LT PUSH8 0xFFFFFFFFFFFFFFFF DUP3 GT OR PUSH2 0x109A JUMPI PUSH1 0x40 MSTORE JUMP JUMPDEST PUSH4 0x4E487B71 PUSH1 0xE0 SHL PUSH1 0x0 MSTORE PUSH1 0x41 PUSH1 0x4 MSTORE PUSH1 0x24 PUSH1 0x0 REVERT JUMPDEST SWAP1 PUSH1 0x1F DUP1 NOT SWAP2 ADD AND DUP2 ADD SWAP1 DUP2 LT PUSH8 0xFFFFFFFFFFFFFFFF DUP3 GT OR PUSH2 0x109A JUMPI PUSH1 0x40 MSTORE JUMP JUMPDEST DUP1 SLOAD DUP3 LT ISZERO PUSH2 0x10EA JUMPI PUSH1 0x0 MSTORE PUSH1 0x20 PUSH1 0x0 KECCAK256 ADD SWAP1 PUSH1 0x0 SWAP1 JUMP JUMPDEST PUSH4 0x4E487B71 PUSH1 0xE0 SHL PUSH1 0x0 MSTORE PUSH1 0x32 PUSH1 0x4 MSTORE PUSH1 0x24 PUSH1 0x0 REVERT JUMPDEST PUSH1 0x0 SLOAD PUSH1 0x1 PUSH1 0x1 PUSH1 0xA0 SHL SUB AND CALLER SUB PUSH2 0x1114 JUMPI JUMP JUMPDEST PUSH1 0x40 MLOAD PUSH4 0x118CDAA7 PUSH1 0xE0 SHL DUP2 MSTORE CALLER PUSH1 0x4 DUP3 ADD MSTORE PUSH1 0x24 SWAP1 REVERT JUMPDEST PUSH1 0x1 PUSH1 0x1 PUSH1 0xA0 SHL SUB AND DUP1 ISZERO PUSH2 0x121D JUMPI PUSH1 0x0 SWAP1 DUP1 DUP3 MSTORE PUSH1 0x2 PUSH1 0x20 MSTORE PUSH1 0x3 PUSH1 0x40 DUP4 KECCAK256 ADD SLOAD ISZERO PUSH2 0x115B JUMPI JUMPDEST POP POP PUSH1 0x1 SWAP1 JUMP JUMPDEST PUSH1 0xFF PUSH1 0x5 SLOAD AND ISZERO PUSH1 0x40 MLOAD SWAP1 PUSH2 0x116F DUP3 PUSH2 0x107D JUMP JUMPDEST DUP2 MSTORE PUSH1 0x6 PUSH1 0x20 DUP3 ADD DUP5 DUP2 MSTORE PUSH1 0x40 DUP4 ADD DUP6 DUP2 MSTORE PUSH1 0x60 DUP5 ADD DUP7 DUP2 MSTORE PUSH1 0x80 DUP6 ADD TIMESTAMP DUP2 MSTORE PUSH1 0xA0 DUP7 ADD SWAP2 TIMESTAMP DUP4 MSTORE PUSH1 0xC0 DUP8 ADD SWAP4 PUSH1 0xA DUP6 MSTORE PUSH2 0x11D0 PUSH1 0xE0 DUP10 ADD SWAP7 DUP12 DUP9 MSTORE DUP11 DUP13 MSTORE PUSH1 0x2 PUSH1 0x20 MSTORE PUSH2 0x80E PUSH1 0x40 DUP14 KECCAK256 SWAP11 MLOAD ISZERO ISZERO DUP12 SWAP1 PUSH1 0xFF DUP1 NOT DUP4 SLOAD AND SWAP2 ISZERO ISZERO AND OR SWAP1 SSTORE JUMP JUMPDEST MLOAD PUSH1 0x1 DUP9 ADD SSTORE MLOAD PUSH1 0x2 DUP8 ADD SSTORE MLOAD PUSH1 0x3 DUP7 ADD SSTORE MLOAD PUSH1 0x4 DUP6 ADD SSTORE MLOAD PUSH1 0x5 DUP5 ADD SSTORE MLOAD SWAP2 ADD SSTORE PUSH32 0x3D48E23E10BD950AF477B393A250740762BBFA1547B0AAFEA39792683D4FDB1D DUP3 DUP1 LOG3 CODESIZE DUP1 PUSH2 0x1154 JUMP JUMPDEST PUSH1 0x40 MLOAD PUSH3 0x461BCD PUSH1 0xE5 SHL DUP2 MSTORE PUSH1 0x20 PUSH1 0x4 DUP3 ADD MSTORE PUSH1 0x14 PUSH1 0x24 DUP3 ADD MSTORE PUSH20 0x496E76616C696420757365722061646472657373 PUSH1 0x60 SHL PUSH1 0x44 DUP3 ADD MSTORE PUSH1 0x64 SWAP1 REVERT JUMPDEST ISZERO PUSH2 0x1260 JUMPI JUMP JUMPDEST PUSH1 0x40 MLOAD PUSH3 0x461BCD PUSH1 0xE5 SHL DUP2 MSTORE PUSH1 0x20 PUSH1 0x4 DUP3 ADD MSTORE PUSH1 0xE PUSH1 0x24 DUP3 ADD MSTORE PUSH14 0x155CD95C881B9BDD08199BDD5B99 PUSH1 0x92 SHL PUSH1 0x44 DUP3 ADD MSTORE PUSH1 0x64 SWAP1 REVERT JUMPDEST PUSH1 0x1 PUSH1 0x1 PUSH1 0xA0 SHL SUB AND PUSH1 0x0 SWAP1 DUP2 MSTORE PUSH1 0x2 PUSH1 0x20 MSTORE PUSH1 0x40 DUP2 KECCAK256 DUP1 SLOAD PUSH1 0x8 DUP2 SWAP1 SHR PUSH1 0xFF AND PUSH2 0x1337 JUMPI PUSH1 0x5 SLOAD SWAP1 PUSH1 0xFF DUP3 AND SWAP1 DUP2 PUSH2 0x133C JUMPI JUMPDEST POP PUSH2 0x1337 JUMPI PUSH1 0x8 SHR PUSH1 0xFF AND DUP1 PUSH2 0x1328 JUMPI JUMPDEST PUSH2 0x1324 JUMPI PUSH1 0x4 ADD SLOAD DUP1 ISZERO ISZERO SWAP1 DUP2 PUSH2 0x12FB JUMPI JUMPDEST POP PUSH2 0x12F8 JUMPI POP PUSH1 0x1 SWAP1 JUMP JUMPDEST SWAP1 JUMP JUMPDEST SWAP1 POP TIMESTAMP SUB TIMESTAMP DUP2 GT PUSH2 0x1310 JUMPI PUSH2 0xE10 GT CODESIZE PUSH2 0x12ED JUMP JUMPDEST PUSH4 0x4E487B71 PUSH1 0xE0 SHL DUP3 MSTORE PUSH1 0x11 PUSH1 0x4 MSTORE PUSH1 0x24 DUP3 REVERT JUMPDEST POP SWAP1 JUMP JUMPDEST POP PUSH1 0x5 PUSH1 0x1 DUP3 ADD SLOAD LT ISZERO PUSH2 0x12DB JUMP JUMPDEST POP POP SWAP1 JUMP JUMPDEST PUSH1 0xFF SWAP2 POP AND ISZERO CODESIZE PUSH2 0x12CA JUMP JUMPDEST SWAP1 DUP2 PUSH1 0x20 SWAP2 SUB SLT PUSH2 0x1078 JUMPI MLOAD PUSH1 0x1 PUSH1 0x1 PUSH1 0xA0 SHL SUB DUP2 AND DUP2 SUB PUSH2 0x1078 JUMPI SWAP1 JUMP JUMPDEST ISZERO PUSH2 0x136E JUMPI JUMP JUMPDEST PUSH1 0x40 MLOAD PUSH3 0x461BCD PUSH1 0xE5 SHL DUP2 MSTORE PUSH1 0x20 PUSH1 0x4 DUP3 ADD MSTORE PUSH1 0xE PUSH1 0x24 DUP3 ADD MSTORE PUSH14 0x139BDD08185D5D1A1BDC9A5E9959 PUSH1 0x92 SHL PUSH1 0x44 DUP3 ADD MSTORE PUSH1 0x64 SWAP1 REVERT JUMPDEST PUSH1 0x0 NOT DUP2 EQ PUSH2 0x13B3 JUMPI PUSH1 0x1 ADD SWAP1 JUMP JUMPDEST PUSH4 0x4E487B71 PUSH1 0xE0 SHL PUSH1 0x0 MSTORE PUSH1 0x11 PUSH1 0x4 MSTORE PUSH1 0x24 PUSH1 0x0 REVERT JUMPDEST PUSH1 0x1 PUSH1 0x1 PUSH1 0xA0 SHL SUB DUP2 AND PUSH1 0x0 DUP2 DUP2 MSTORE PUSH1 0x2 PUSH1 0x20 DUP2 DUP2 MSTORE PUSH1 0x40 DUP1 DUP5 KECCAK256 PUSH1 0x3 ADD SLOAD SWAP2 SWAP6 SWAP1 SWAP3 SWAP2 ISZERO PUSH2 0x158B JUMPI JUMPDEST POP DUP4 DUP4 MSTORE DUP1 DUP6 MSTORE PUSH1 0xFF DUP3 DUP5 KECCAK256 SLOAD PUSH1 0x8 SHR AND PUSH2 0x153E JUMPI PUSH1 0x5 SLOAD PUSH1 0xFF DUP2 AND DUP1 PUSH2 0x152A JUMPI JUMPDEST PUSH2 0x14DD JUMPI PUSH1 0x8 SHR PUSH1 0xFF AND DUP1 PUSH2 0x14C6 JUMPI JUMPDEST PUSH2 0x1476 JUMPI DUP4 SWAP5 PUSH32 0xDEB5C31899474FE8C086C95FF9344480D19365676A6A1D22D37BB8E3E7C0EF18 SWAP5 DUP5 MSTORE DUP2 DUP2 MSTORE DUP2 DUP4 DUP6 KECCAK256 ADD PUSH2 0x1461 DUP2 SLOAD PUSH2 0x13A4 JUMP JUMPDEST SWAP1 SSTORE DUP6 DUP5 MSTORE MSTORE PUSH1 0x4 TIMESTAMP SWAP2 DUP4 KECCAK256 ADD SSTORE DUP1 LOG2 PUSH1 0x1 SWAP1 JUMP JUMPDEST POP PUSH32 0xC4738E778DDE4DEE72D2281C845CBA69DC6AB3553240330C2CA692CC86486606 SWAP2 SWAP4 PUSH19 0xA6E0C2DA40E6C6DEE4CA40E8DEDE40D0D2CED PUSH1 0x6B SHL DUP3 PUSH1 0x13 PUSH1 0x60 SWAP5 MLOAD SWAP4 DUP1 DUP6 MSTORE DUP5 ADD MSTORE DUP3 ADD MSTORE LOG2 SWAP1 JUMP JUMPDEST POP DUP4 DUP4 MSTORE DUP1 DUP6 MSTORE PUSH1 0x5 PUSH1 0x1 DUP4 DUP6 KECCAK256 ADD SLOAD LT ISZERO PUSH2 0x1425 JUMP JUMPDEST POP POP PUSH32 0xC4738E778DDE4DEE72D2281C845CBA69DC6AB3553240330C2CA692CC86486606 SWAP2 SWAP4 PUSH15 0x139BDD081DDA1A5D195B1A5CDD1959 PUSH1 0x8A SHL DUP3 PUSH1 0xF PUSH1 0x60 SWAP5 MLOAD SWAP4 DUP1 DUP6 MSTORE DUP5 ADD MSTORE DUP3 ADD MSTORE LOG2 SWAP1 JUMP JUMPDEST POP DUP5 DUP5 MSTORE DUP2 DUP7 MSTORE PUSH1 0xFF DUP4 DUP6 KECCAK256 SLOAD AND ISZERO PUSH2 0x1415 JUMP JUMPDEST POP PUSH32 0xC4738E778DDE4DEE72D2281C845CBA69DC6AB3553240330C2CA692CC86486606 SWAP2 SWAP4 PUSH16 0x155CD95C88189B1858DADB1A5CDD1959 PUSH1 0x82 SHL DUP3 PUSH1 0x10 PUSH1 0x60 SWAP5 MLOAD SWAP4 DUP1 DUP6 MSTORE DUP5 ADD MSTORE DUP3 ADD MSTORE LOG2 SWAP1 JUMP JUMPDEST PUSH2 0x1594 SWAP1 PUSH2 0x112C JUMP JUMPDEST POP CODESIZE PUSH2 0x13F3 JUMP JUMPDEST PUSH1 0x40 MLOAD PUSH4 0x233500A3 PUSH1 0xE1 SHL DUP2 MSTORE PUSH1 0x1 PUSH1 0x1 PUSH1 0xA0 SHL SUB SWAP1 SWAP2 AND PUSH1 0x4 DUP3 ADD DUP2 SWAP1 MSTORE SWAP1 PUSH1 0x20 DUP2 PUSH1 0x24 DUP2 ADDRESS GAS STATICCALL SWAP1 DUP2 ISZERO PUSH2 0x1634 JUMPI PUSH1 0x0 SWAP2 PUSH2 0x15FA JUMPI JUMPDEST POP ISZERO PUSH2 0x15F4 JUMPI PUSH1 0x0 MSTORE PUSH1 0x2 PUSH1 0x20 MSTORE PUSH1 0x40 PUSH1 0x0 KECCAK256 PUSH1 0x5 PUSH1 0x6 DUP3 ADD SLOAD SWAP2 ADD SLOAD GT SWAP1 JUMP JUMPDEST POP PUSH1 0x0 SWAP1 JUMP JUMPDEST PUSH1 0x20 DUP2 RETURNDATASIZE DUP3 GT PUSH2 0x162C JUMPI JUMPDEST DUP2 PUSH2 0x1612 PUSH1 0x20 SWAP4 DUP4 PUSH2 0x10B0 JUMP JUMPDEST DUP2 ADD SUB SLT PUSH2 0x1BE JUMPI MLOAD SWAP1 DUP2 ISZERO ISZERO DUP3 SUB PUSH2 0x2CD JUMPI POP CODESIZE PUSH2 0x15D3 JUMP JUMPDEST RETURNDATASIZE SWAP2 POP PUSH2 0x1605 JUMP JUMPDEST PUSH1 0x40 MLOAD RETURNDATASIZE PUSH1 0x0 DUP3 RETURNDATACOPY RETURNDATASIZE SWAP1 REVERT INVALID LOG2 PUSH5 0x6970667358 0x22 SLT KECCAK256 0xD2 DUP8 0xC4 SWAP12 MSTORE8 0xF7 COINBASE 0xB0 BYTE 0xB7 0xB5 STOP BASEFEE 0xC1 ADDRESS XOR 0xB3 ADDRESS STATICCALL BYTE INVALID PUSH0 CALLCODE LT SWAP14 LOG1 DUP12 0xC0 0xB6 0xE6 ADDRESS SLT PUSH5 0x736F6C6343 STOP ADDMOD EQ STOP CALLER "},"methodIdentifiers":{"COOLDOWN_PERIOD()":"6e99d52f","DEFAULT_TOKEN_CREATION_LIMIT()":"dc92f2ed","SPAM_THRESHOLD()":"25fde04a","addUser(address)":"421b2d8b","addUserWithReferral(address,address)":"72126a4a","blacklistUser(address,string)":"4d0970c6","canCreateToken(address)":"1770fcd1","checkAccess(address)":"466a0146","flagSpam(address)":"b8c16771","getReferrals(address)":"41a0894d","getReferrer(address)":"4a9fefc7","getUserInfo(address)":"6386c1c7","incrementTokensCreated(address)":"6116f913","owner()":"8da5cb5b","referrals(address,uint256)":"e697b5d8","referredBy(address)":"a90f8e9a","registry()":"7b103999","removeUser(address)":"98575188","renounceOwnership()":"715018a6","resetSpamScore(address)":"b672edb5","setSpamProtectionEnabled(bool)":"39362657","setTokenCreationLimit(address,uint256)":"f3df224e","setWhitelistEnabled(bool)":"052d9e7e","spamProtectionEnabled()":"eb079bab","transferOwnership(address)":"f2fde38b","users(address)":"a87430ba","validateAccess(address)":"7790e501","whitelistEnabled()":"51fb012d","whitelistUser(address)":"4a4c560d"}}}}}