{"contracts/libraries/BondingCurve.sol":{"BondingCurve":{"abi":[{"inputs":[],"name":"DEFAULT_VIRTUAL_OKB","outputs":[{"internalType":"uint256","name":"","type":"uint256"}],"stateMutability":"view","type":"function"},{"inputs":[],"name":"DEFAULT_VIRTUAL_TOKENS","outputs":[{"internalType":"uint256","name":"","type":"uint256"}],"stateMutability":"view","type":"function"},{"inputs":[],"name":"GRADUATION_THRESHOLD","outputs":[{"internalType":"uint256","name":"","type":"uint256"}],"stateMutability":"view","type":"function"},{"inputs":[],"name":"MAX_SUPPLY_FOR_CURVE","outputs":[{"internalType":"uint256","name":"","type":"uint256"}],"stateMutability":"view","type":"function"}],"evm":{"bytecode":{"linkReferences":{},"object":"6080806040523461001a576101019081610020823930815050f35b600080fdfe6080806040526004361015601257600080fd5b600090813560e01c9081634f39cb361460a7575080639571b275146086578063d73337df1460685763fcfc0c0914604857600080fd5b8060031936011260655760206040516804563918244f4000008152f35b80fd5b508060031936011260655760206040516801a055690d9db800008152f35b508060031936011260655760206040516b037790968dc8efffd10000008152f35b90508160031936011260c757806b0295be96e64066972000000060209252f35b5080fdfea2646970667358221220079d5aeb0ca60d0bce1c49c003eaacd14920179909a385cf309cbc2ef44013c764736f6c63430008140033","opcodes":"PUSH1 0x80 DUP1 PUSH1 0x40 MSTORE CALLVALUE PUSH2 0x1A JUMPI PUSH2 0x101 SWAP1 DUP2 PUSH2 0x20 DUP3 CODECOPY ADDRESS DUP2 POP POP RETURN JUMPDEST PUSH1 0x0 DUP1 REVERT INVALID PUSH1 0x80 DUP1 PUSH1 0x40 MSTORE PUSH1 0x4 CALLDATASIZE LT ISZERO PUSH1 0x12 JUMPI PUSH1 0x0 DUP1 REVERT JUMPDEST PUSH1 0x0 SWAP1 DUP2 CALLDATALOAD PUSH1 0xE0 SHR SWAP1 DUP2 PUSH4 0x4F39CB36 EQ PUSH1 0xA7 JUMPI POP DUP1 PUSH4 0x9571B275 EQ PUSH1 0x86 JUMPI DUP1 PUSH4 0xD73337DF EQ PUSH1 0x68 JUMPI PUSH4 0xFCFC0C09 EQ PUSH1 0x48 JUMPI PUSH1 0x0 DUP1 REVERT JUMPDEST DUP1 PUSH1 0x3 NOT CALLDATASIZE ADD SLT PUSH1 0x65 JUMPI PUSH1 0x20 PUSH1 0x40 MLOAD PUSH9 0x4563918244F400000 DUP2 MSTORE RETURN JUMPDEST DUP1 REVERT JUMPDEST POP DUP1 PUSH1 0x3 NOT CALLDATASIZE ADD SLT PUSH1 0x65 JUMPI PUSH1 0x20 PUSH1 0x40 MLOAD PUSH9 0x1A055690D9DB80000 DUP2 MSTORE RETURN JUMPDEST POP DUP1 PUSH1 0x3 NOT CALLDATASIZE ADD SLT PUSH1 0x65 JUMPI PUSH1 0x20 PUSH1 0x40 MLOAD PUSH12 0x37790968DC8EFFFD1000000 DUP2 MSTORE RETURN JUMPDEST SWAP1 POP DUP2 PUSH1 0x3 NOT CALLDATASIZE ADD SLT PUSH1 0xC7 JUMPI DUP1 PUSH12 0x295BE96E640669720000000 PUSH1 0x20 SWAP3 MSTORE RETURN JUMPDEST POP DUP1 REVERT INVALID LOG2 PUSH5 0x6970667358 0x22 SLT KECCAK256 SMOD SWAP14 GAS 0xEB 0xC 0xA6 0xD SIGNEXTEND 0xCE SHR 0x49 0xC0 SUB 0xEA 0xAC 0xD1 0x49 KECCAK256 OR SWAP10 MULMOD LOG3 DUP6 0xCF ADDRESS SWAP13 0xBC 0x2E DELEGATECALL BLOCKHASH SGT 0xC7 PUSH5 0x736F6C6343 STOP ADDMOD EQ STOP CALLER "},"methodIdentifiers":{"DEFAULT_VIRTUAL_OKB()":"d73337df","DEFAULT_VIRTUAL_TOKENS()":"9571b275","GRADUATION_THRESHOLD()":"fcfc0c09","MAX_SUPPLY_FOR_CURVE()":"4f39cb36"}}}}}