{"contracts/MemeToken.sol":{"MemeToken":{"abi":[{"inputs":[{"internalType":"string","name":"name","type":"string"},{"internalType":"string","name":"symbol","type":"string"},{"internalType":"string","name":"imageUri","type":"string"},{"internalType":"string","name":"desc","type":"string"},{"internalType":"address","name":"creator","type":"address"},{"internalType":"address","name":"_launchpad","type":"address"}],"stateMutability":"nonpayable","type":"constructor"},{"inputs":[{"internalType":"address","name":"spender","type":"address"},{"internalType":"uint256","name":"allowance","type":"uint256"},{"internalType":"uint256","name":"needed","type":"uint256"}],"name":"ERC20InsufficientAllowance","type":"error"},{"inputs":[{"internalType":"address","name":"sender","type":"address"},{"internalType":"uint256","name":"balance","type":"uint256"},{"internalType":"uint256","name":"needed","type":"uint256"}],"name":"ERC20InsufficientBalance","type":"error"},{"inputs":[{"internalType":"address","name":"approver","type":"address"}],"name":"ERC20InvalidApprover","type":"error"},{"inputs":[{"internalType":"address","name":"receiver","type":"address"}],"name":"ERC20InvalidReceiver","type":"error"},{"inputs":[{"internalType":"address","name":"sender","type":"address"}],"name":"ERC20InvalidSender","type":"error"},{"inputs":[{"internalType":"address","name":"spender","type":"address"}],"name":"ERC20InvalidSpender","type":"error"},{"inputs":[{"internalType":"address","name":"owner","type":"address"}],"name":"OwnableInvalidOwner","type":"error"},{"inputs":[{"internalType":"address","name":"account","type":"address"}],"name":"OwnableUnauthorizedAccount","type":"error"},{"anonymous":false,"inputs":[{"indexed":true,"internalType":"address","name":"owner","type":"address"},{"indexed":true,"internalType":"address","name":"spender","type":"address"},{"indexed":false,"internalType":"uint256","name":"value","type":"uint256"}],"name":"Approval","type":"event"},{"anonymous":false,"inputs":[{"indexed":true,"internalType":"address","name":"previousOwner","type":"address"},{"indexed":true,"internalType":"address","name":"newOwner","type":"address"}],"name":"OwnershipTransferred","type":"event"},{"anonymous":false,"inputs":[{"indexed":true,"internalType":"address","name":"from","type":"address"},{"indexed":true,"internalType":"address","name":"to","type":"address"},{"indexed":false,"internalType":"uint256","name":"value","type":"uint256"}],"name":"Transfer","type":"event"},{"inputs":[],"name":"TOTAL_SUPPLY","outputs":[{"internalType":"uint256","name":"","type":"uint256"}],"stateMutability":"view","type":"function"},{"inputs":[{"internalType":"address","name":"owner","type":"address"},{"internalType":"address","name":"spender","type":"address"}],"name":"allowance","outputs":[{"internalType":"uint256","name":"","type":"uint256"}],"stateMutability":"view","type":"function"},{"inputs":[{"internalType":"address","name":"spender","type":"address"},{"internalType":"uint256","name":"value","type":"uint256"}],"name":"approve","outputs":[{"internalType":"bool","name":"","type":"bool"}],"stateMutability":"nonpayable","type":"function"},{"inputs":[{"internalType":"address","name":"","type":"address"}],"name":"authorizedMinters","outputs":[{"internalType":"bool","name":"","type":"bool"}],"stateMutability":"view","type":"function"},{"inputs":[{"internalType":"address","name":"account","type":"address"}],"name":"balanceOf","outputs":[{"internalType":"uint256","name":"","type":"uint256"}],"stateMutability":"view","type":"function"},{"inputs":[{"internalType":"uint256","name":"value","type":"uint256"}],"name":"burn","outputs":[],"stateMutability":"nonpayable","type":"function"},{"inputs":[{"internalType":"address","name":"account","type":"address"},{"internalType":"uint256","name":"amount","type":"uint256"}],"name":"burnFrom","outputs":[],"stateMutability":"nonpayable","type":"function"},{"inputs":[],"name":"decimals","outputs":[{"internalType":"uint8","name":"","type":"uint8"}],"stateMutability":"view","type":"function"},{"inputs":[],"name":"description","outputs":[{"internalType":"string","name":"","type":"string"}],"stateMutability":"view","type":"function"},{"inputs":[],"name":"enableTrading","outputs":[],"stateMutability":"nonpayable","type":"function"},{"inputs":[],"name":"factory","outputs":[{"internalType":"address","name":"","type":"address"}],"stateMutability":"view","type":"function"},{"inputs":[],"name":"launchpad","outputs":[{"internalType":"address","name":"","type":"address"}],"stateMutability":"view","type":"function"},{"inputs":[{"internalType":"address","name":"to","type":"address"},{"internalType":"uint256","name":"amount","type":"uint256"}],"name":"mint","outputs":[],"stateMutability":"nonpayable","type":"function"},{"inputs":[],"name":"name","outputs":[{"internalType":"string","name":"","type":"string"}],"stateMutability":"view","type":"function"},{"inputs":[],"name":"owner","outputs":[{"internalType":"address","name":"","type":"address"}],"stateMutability":"view","type":"function"},{"inputs":[],"name":"renounceOwnership","outputs":[],"stateMutability":"nonpayable","type":"function"},{"inputs":[{"internalType":"address","name":"minter","type":"address"},{"internalType":"bool","name":"authorized","type":"bool"}],"name":"setAuthorizedMinter","outputs":[],"stateMutability":"nonpayable","type":"function"},{"inputs":[],"name":"symbol","outputs":[{"internalType":"string","name":"","type":"string"}],"stateMutability":"view","type":"function"},{"inputs":[],"name":"tokenImageUri","outputs":[{"internalType":"string","name":"","type":"string"}],"stateMutability":"view","type":"function"},{"inputs":[],"name":"totalSupply","outputs":[{"internalType":"uint256","name":"","type":"uint256"}],"stateMutability":"view","type":"function"},{"inputs":[],"name":"tradingEnabled","outputs":[{"internalType":"bool","name":"","type":"bool"}],"stateMutability":"view","type":"function"},{"inputs":[{"internalType":"address","name":"to","type":"address"},{"internalType":"uint256","name":"value","type":"uint256"}],"name":"transfer","outputs":[{"internalType":"bool","name":"","type":"bool"}],"stateMutability":"nonpayable","type":"function"},{"inputs":[{"internalType":"address","name":"from","type":"address"},{"internalType":"address","name":"to","type":"address"},{"internalType":"uint256","name":"value","type":"uint256"}],"name":"transferFrom","outputs":[{"internalType":"bool","name":"","type":"bool"}],"stateMutability":"nonpayable","type":"function"},{"inputs":[{"internalType":"address","name":"newOwner","type":"address"}],"name":"transferOwnership","outputs":[],"stateMutability":"nonpayable","type":"function"},{"inputs":[{"internalType":"string","name":"imageUri","type":"string"},{"internalType":"string","name":"desc","type":"string"}],"name":"updateMetadata","outputs":[],"stateMutability":"nonpayable","type":"function"}],"evm":{"bytecode":{"linkReferences":{},"object":"604060c08152346200075b5762001b78803803806200001e8162000760565b928339810160c0828203126200075b5781516001600160401b0392908381116200075b57826200005091830162000786565b91602092838301518581116200075b57826200006e91850162000786565b94868401518181116200075b57836200008991860162000786565b926060850151908282116200075b57620000a591860162000786565b92620000c260a0620000ba60808801620007f8565b9601620007f8565b9383519083821162000658576003928354926001968785811c9516801562000750575b8b8610146200073a5781908b601f96878111620006e1575b50508b908683116001146200067a576000926200066e575b505060001982871b1c191690871b1784555b8951858111620006585760049a8b548881811c911680156200064d575b8c8210146200053557908b8287859411620005f4575b50508b908683116001146200058d5760009262000581575b505060001982871b1c191690871b178a555b6001600160a01b039788169081156200056a57600580546001600160a01b03198116841782559092908a167f8be0079c531659141344cd1fd0a4f28419497f9722a3daafe3b4186f6b6457e0600080a380519086821162000555576006548881811c911680156200054a575b8c8210146200053557908b8287859411620004dd575b50508b90868311600114620004725760009262000466575b505060001982871b1c191690871b176006555b81519485116200045157600754908682811c9216801562000446575b8a8310146200043157838211620003e7575b5050879184116001146200037a579383949184926000956200036e575b50501b92600019911b1c1916176007555b806080523360a0521691821562000357576002546b033b2e3c9fd0803ce80000009182820180921162000342575060025560008381528083528481208054830190558451918252917fddf252ad1be2c89b69c2b068fc378daa952ba7f163c4a11628f55a4df523b3ef91a35161136a90816200080e823960805181818161054701528181610b9e01528181610ec20152611081015260a051818181610363015281816105bd0152818161060f0152610c840152f35b601190634e487b7160e01b6000525260246000fd5b602490600085519163ec442f0560e01b8352820152fd5b0151935038806200027c565b9190601f19841692600760005284896000209460005b8b89838310620003cf5750505010620003b4575b50505050811b016007556200028d565b01519060f884600019921b161c1916905538808080620003a4565b86860151895590970196948501948893500162000390565b6007600052896000209084808801821c8301938c891062000427575b01901c019086905b8281106200041a57506200025f565b600081550186906200040b565b9350829362000403565b60228b634e487b7160e01b6000525260246000fd5b91607f16916200024d565b60418a634e487b7160e01b6000525260246000fd5b0151905038806200021e565b899350908c91601f198416600660005283600020936000905b828210620004c55750508411620004ac575b505050811b0160065562000231565b015160001983891b60f8161c191690553880806200049d565b8385015186558d979095019493840193018f6200048b565b909192506006600052868260002091818601871c83019386106200052b575b918b918695949301871c01915b8281106200051b57508d915062000206565b600081558594508b910162000509565b92508192620004fc565b60228d634e487b7160e01b6000525260246000fd5b90607f1690620001f0565b60418c634e487b7160e01b6000525260246000fd5b8b51631e4fbdf760e01b81526000818d0152602490fd5b01519050388062000172565b60008e81528d81208b9550929190601f198516908f5b828210620005dc5750508411620005c3575b505050811b018a5562000184565b015160001983891b60f8161c19169055388080620005b5565b8385015186558d979095019493840193018f620005a3565b909192508d60005286826000209181860160051c830193861062000643575b918b91869594930160051c01915b8281106200063357508d91506200015a565b600081558594508b910162000621565b9250819262000613565b90607f169062000144565b634e487b7160e01b600052604160045260246000fd5b01519050388062000115565b60008881528d81208b9550929190601f198516908f5b828210620006c95750508411620006b0575b505050811b01845562000127565b015160001983891b60f8161c19169055388080620006a2565b8385015186558d979095019493840193018f62000690565b909192508760005286826000209181860160051c830193861062000730575b918b91869594930160051c01915b8281106200072057508d9150620000fd565b600081558594508b91016200070e565b9250819262000700565b634e487b7160e01b600052602260045260246000fd5b94607f1694620000e5565b600080fd5b6040519190601f01601f191682016001600160401b038111838210176200065857604052565b919080601f840112156200075b5782516001600160401b0381116200065857602090620007bc601f8201601f1916830162000760565b928184528282870101116200075b5760005b818110620007e457508260009394955001015290565b8581018301518482018401528201620007ce565b51906001600160a01b03821682036200075b5756fe608060408181526004918236101561001657600080fd5b600092833560e01c91826302669b5214610eae5750816306fdde0314610e04578163095ea7b314610dda57816318160ddd14610dbb57816323b872dd14610cc7578163313ce56714610cab57816340c10f1914610b7257816342966c6814610b545781634ada218b14610b3057816356ce0e6c1461083d57816370a0823114610806578163715018a6146107a65781637284e416146106fc57816379cc6790146105e65781638a8c523c146105265781638da5cb5b146104fd578163902d55a5146104d657816395d89b4114610401578163a9059cbb146103d0578163aa2fe91b14610392578163c45a01551461034e578163dd62ed3e14610305578163ed58bad8146102af578163f2fde38b1461021b575063fc04b5e11461013857600080fd5b346102175781600319360112610217578051908260065461015881611026565b808552916001918083169081156101ef5750600114610192575b5050506101848261018e940383610f6b565b5191829182610ef1565b0390f35b9450600685527ff652222313e28459528d920b65115c16c04f3efc82aaedc97be59f3f377c0d3f5b8286106101d75750505061018482602061018e9582010194610172565b805460208787018101919091529095019481016101ba565b61018e97508693506020925061018494915060ff191682840152151560051b82010194610172565b5080fd5b9050346102ab5760203660031901126102ab57610236610f3a565b9061023f610ffa565b6001600160a01b03918216928315610295575050600554826bffffffffffffffffffffffff60a01b821617600555167f8be0079c531659141344cd1fd0a4f28419497f9722a3daafe3b4186f6b6457e08380a380f35b51631e4fbdf760e01b8152908101849052602490fd5b8280fd5b5050346102175780600319360112610217576102c9610f3a565b9060243591821515809303610301576102e0610ffa565b60018060a01b03168352600960205282209060ff8019835416911617905580f35b8380fd5b50503461021757806003193601126102175780602092610323610f3a565b61032b610f55565b6001600160a01b0391821683526001865283832091168252845220549051908152f35b505034610217578160031936011261021757517f00000000000000000000000000000000000000000000000000000000000000006001600160a01b03168152602090f35b5050346102175760203660031901126102175760209160ff9082906001600160a01b036103bd610f3a565b1681526009855220541690519015158152f35b5050346102175780600319360112610217576020906103fa6103f0610f3a565b6024359033611060565b5160018152f35b919050346102ab57826003193601126102ab578051918381549061042482611026565b808652926001928084169081156104ab575060011461044f575b61018e8686610184828b0383610f6b565b815294507f8a35acfbc15ff81a39ae7d344fd709f28e8600b4aa8c65c6b64bfe7fe36bd19b5b8286106104935750505061018482602061018e95820101943861043e565b80546020878701810191909152909501948101610475565b905061018e97508693506020925061018494915060ff191682840152151560051b820101943861043e565b505034610217578160031936011261021757602090516b033b2e3c9fd0803ce80000008152f35b50503461021757816003193601126102175760055490516001600160a01b039091168152602090f35b5050346102175781600319360112610217576105869060018060a01b0390817f00000000000000000000000000000000000000000000000000000000000000001633149182156105ba575b82156105ac575b508115610596575b506112f7565b600160ff19600854161760085580f35b60ff915033845260096020528320541638610580565b600554163314915038610578565b337f00000000000000000000000000000000000000000000000000000000000000008216149250610571565b838334610217578060031936011261021757610600610f3a565b602435916001600160a01b03337f000000000000000000000000000000000000000000000000000000000000000082161415806106ee575b61064b575b846106488585611258565b80f35b82168452600160205280842033855260205280842054908382106106a0575082810390811161068d576106489394506106859033836111c5565b83928561063d565b634e487b7160e01b845260118552602484fd5b5162461bcd60e51b81526020818701526024808201527f45524332303a206275726e20616d6f756e74206578636565647320616c6c6f77604482015263616e636560e01b6064820152608490fd5b508060055416331415610638565b5050346102175781600319360112610217578051908260075461071e81611026565b808552916001918083169081156101ef5750600114610749575050506101848261018e940383610f6b565b9450600785527fa66cc928b5edb82af9bd49922954155ab7b0942694bea4ce44661d9a8736c6885b82861061078e5750505061018482602061018e9582010194610172565b80546020878701810191909152909501948101610771565b83346108035780600319360112610803576107bf610ffa565b600580546001600160a01b0319811690915581906001600160a01b03167f8be0079c531659141344cd1fd0a4f28419497f9722a3daafe3b4186f6b6457e08280a380f35b80fd5b5050346102175760203660031901126102175760209181906001600160a01b0361082e610f3a565b16815280845220549051908152f35b838334610217573660031901126108035767ffffffffffffffff82358181116102ab5761086d9036908501610fa3565b92602435828111610301576108859036908301610fa3565b9061088e610ffa565b8451838111610b1d57806108a3600654611026565b96601f97888111610ab1575b50602090888311600114610a2e578792610a23575b50508160011b916000199060031b1c1916176006555b8151928311610a1057506108ef600754611026565b8481116109b0575b50602093821160011461093257928293829392610927575b50508160011b916000199060031b1c19161760075580f35b01519050838061090f565b60078352601f198216937fa66cc928b5edb82af9bd49922954155ab7b0942694bea4ce44661d9a8736c68891845b868110610998575083600195961061097f575b505050811b0160075580f35b015160001960f88460031b161c19169055838080610973565b91926020600181928685015181550194019201610960565b600784527fa66cc928b5edb82af9bd49922954155ab7b0942694bea4ce44661d9a8736c6888580850160051c82019260208610610a07575b0160051c01905b8181106109fc57506108f7565b8481556001016109ef565b925081926109e8565b634e487b7160e01b845260419052602483fd5b0151905087806108c4565b600688527ff652222313e28459528d920b65115c16c04f3efc82aaedc97be59f3f377c0d3f9250601f198416885b818110610a995750908460019594939210610a80575b505050811b016006556108da565b015160001960f88460031b161c19169055878080610a72565b92936020600181928786015181550195019301610a5c565b909150600687527ff652222313e28459528d920b65115c16c04f3efc82aaedc97be59f3f377c0d3f8880850160051c82019260208610610b14575b9085949392910160051c01905b818110610b0657506108af565b888155849350600101610af9565b92508192610aec565b634e487b7160e01b855260418252602485fd5b50503461021757816003193601126102175760209060ff6008541690519015158152f35b83903461021757602036600319011261021757610648903533611258565b919050346102ab57806003193601126102ab57610b8d610f3a565b60243591906001600160a01b0390337f00000000000000000000000000000000000000000000000000000000000000008316148015610c80575b8015610c73575b8015610c5e575b610bde906112f7565b16928315610c495760025490838201809211610c36575084927fddf252ad1be2c89b69c2b068fc378daa952ba7f163c4a11628f55a4df523b3ef9260209260025585855284835280852082815401905551908152a380f35b634e487b7160e01b865260119052602485fd5b84602492519163ec442f0560e01b8352820152fd5b5033865260096020528286205460ff16610bd5565b5081600554163314610bce565b50817f0000000000000000000000000000000000000000000000000000000000000000163314610bc7565b5050346102175781600319360112610217576020905160128152f35b9050823461080357606036600319011261080357610ce3610f3a565b610ceb610f55565b916044359360018060a01b038316808352600160205286832033845260205286832054916000198310610d27575b6020886103fa898989611060565b868310610d8f578115610d78573315610d61575082526001602090815286832033845281529186902090859003905582906103fa87610d19565b8751634a1406b160e11b8152908101849052602490fd5b875163e602df0560e01b8152908101849052602490fd5b8751637dc7a0d960e11b8152339181019182526020820193909352604081018790528291506060010390fd5b5050346102175781600319360112610217576020906002549051908152f35b5050346102175780600319360112610217576020906103fa610dfa610f3a565b60243590336111c5565b50503461021757816003193601126102175780519082600354610e2681611026565b808552916001918083169081156101ef5750600114610e51575050506101848261018e940383610f6b565b9450600385527fc2575a0e9e593c00f959f8c92f12db2869c3395a3b0502d05e2516446f71f85b5b828610610e965750505061018482602061018e9582010194610172565b80546020878701810191909152909501948101610e79565b8490346102175781600319360112610217577f00000000000000000000000000000000000000000000000000000000000000006001600160a01b03168152602090f35b6020808252825181830181905290939260005b828110610f2657505060409293506000838284010152601f8019910116010190565b818101860151848201604001528501610f04565b600435906001600160a01b0382168203610f5057565b600080fd5b602435906001600160a01b0382168203610f5057565b90601f8019910116810190811067ffffffffffffffff821117610f8d57604052565b634e487b7160e01b600052604160045260246000fd5b81601f82011215610f505780359067ffffffffffffffff8211610f8d5760405192610fd8601f8401601f191660200185610f6b565b82845260208383010111610f5057816000926020809301838601378301015290565b6005546001600160a01b0316330361100e57565b60405163118cdaa760e01b8152336004820152602490fd5b90600182811c92168015611056575b602083101461104057565b634e487b7160e01b600052602260045260246000fd5b91607f1691611035565b6001600160a01b03928382169290919083156111ac578416938415611193577f000000000000000000000000000000000000000000000000000000000000000016808414159081611188575b50611143575b60009083825281602052604082205490838210611111575091604082827fddf252ad1be2c89b69c2b068fc378daa952ba7f163c4a11628f55a4df523b3ef958760209652828652038282205586815220818154019055604051908152a3565b60405163391434e360e21b81526001600160a01b03919091166004820152602481019190915260448101839052606490fd5b60ff600854166110b25760405162461bcd60e51b8152602060048201526013602482015272151c98591a5b99c81b9bdd08195b98589b1959606a1b6044820152606490fd5b9050841415386110ac565b60405163ec442f0560e01b815260006004820152602490fd5b604051634b637e8f60e11b815260006004820152602490fd5b6001600160a01b0390811691821561123f57169182156112265760207f8c5be1e5ebec7d5bd14f71427d1e84f3dd0314c0f7b2291e5b200ac8c7c3b925918360005260018252604060002085600052825280604060002055604051908152a3565b604051634a1406b160e11b815260006004820152602490fd5b60405163e602df0560e01b815260006004820152602490fd5b906001600160a01b0382169081156111ac57600092828452836020526040842054908282106112c55750817fddf252ad1be2c89b69c2b068fc378daa952ba7f163c4a11628f55a4df523b3ef926020928587528684520360408620558060025403600255604051908152a3565b60405163391434e360e21b81526001600160a01b03919091166004820152602481019190915260448101829052606490fd5b156112fe57565b60405162461bcd60e51b815260206004820152600e60248201526d139bdd08185d5d1a1bdc9a5e995960921b6044820152606490fdfea264697066735822122018623635a3fe5e0fb096acad7db31d8dba84cb658fd8741074fad014ce0235b364736f6c63430008140033","opcodes":"PUSH1 0x40 PUSH1 0xC0 DUP2 MSTORE CALLVALUE PUSH3 0x75B JUMPI PUSH3 0x1B78 DUP1 CODESIZE SUB DUP1 PUSH3 0x1E DUP2 PUSH3 0x760 JUMP JUMPDEST SWAP3 DUP4 CODECOPY DUP2 ADD PUSH1 0xC0 DUP3 DUP3 SUB SLT PUSH3 0x75B JUMPI DUP2 MLOAD PUSH1 0x1 PUSH1 0x1 PUSH1 0x40 SHL SUB SWAP3 SWAP1 DUP4 DUP2 GT PUSH3 0x75B JUMPI DUP3 PUSH3 0x50 SWAP2 DUP4 ADD PUSH3 0x786 JUMP JUMPDEST SWAP2 PUSH1 0x20 SWAP3 DUP4 DUP4 ADD MLOAD DUP6 DUP2 GT PUSH3 0x75B JUMPI DUP3 PUSH3 0x6E SWAP2 DUP6 ADD PUSH3 0x786 JUMP JUMPDEST SWAP5 DUP7 DUP5 ADD MLOAD DUP2 DUP2 GT PUSH3 0x75B JUMPI DUP4 PUSH3 0x89 SWAP2 DUP7 ADD PUSH3 0x786 JUMP JUMPDEST SWAP3 PUSH1 0x60 DUP6 ADD MLOAD SWAP1 DUP3 DUP3 GT PUSH3 0x75B JUMPI PUSH3 0xA5 SWAP2 DUP7 ADD PUSH3 0x786 JUMP JUMPDEST SWAP3 PUSH3 0xC2 PUSH1 0xA0 PUSH3 0xBA PUSH1 0x80 DUP9 ADD PUSH3 0x7F8 JUMP JUMPDEST SWAP7 ADD PUSH3 0x7F8 JUMP JUMPDEST SWAP4 DUP4 MLOAD SWAP1 DUP4 DUP3 GT PUSH3 0x658 JUMPI PUSH1 0x3 SWAP3 DUP4 SLOAD SWAP3 PUSH1 0x1 SWAP7 DUP8 DUP6 DUP2 SHR SWAP6 AND DUP1 ISZERO PUSH3 0x750 JUMPI JUMPDEST DUP12 DUP7 LT EQ PUSH3 0x73A JUMPI DUP2 SWAP1 DUP12 PUSH1 0x1F SWAP7 DUP8 DUP2 GT PUSH3 0x6E1 JUMPI JUMPDEST POP POP DUP12 SWAP1 DUP7 DUP4 GT PUSH1 0x1 EQ PUSH3 0x67A JUMPI PUSH1 0x0 SWAP3 PUSH3 0x66E JUMPI JUMPDEST POP POP PUSH1 0x0 NOT DUP3 DUP8 SHL SHR NOT AND SWAP1 DUP8 SHL OR DUP5 SSTORE JUMPDEST DUP10 MLOAD DUP6 DUP2 GT PUSH3 0x658 JUMPI PUSH1 0x4 SWAP11 DUP12 SLOAD DUP9 DUP2 DUP2 SHR SWAP2 AND DUP1 ISZERO PUSH3 0x64D JUMPI JUMPDEST DUP13 DUP3 LT EQ PUSH3 0x535 JUMPI SWAP1 DUP12 DUP3 DUP8 DUP6 SWAP5 GT PUSH3 0x5F4 JUMPI JUMPDEST POP POP DUP12 SWAP1 DUP7 DUP4 GT PUSH1 0x1 EQ PUSH3 0x58D JUMPI PUSH1 0x0 SWAP3 PUSH3 0x581 JUMPI JUMPDEST POP POP PUSH1 0x0 NOT DUP3 DUP8 SHL SHR NOT AND SWAP1 DUP8 SHL OR DUP11 SSTORE JUMPDEST PUSH1 0x1 PUSH1 0x1 PUSH1 0xA0 SHL SUB SWAP8 DUP9 AND SWAP1 DUP2 ISZERO PUSH3 0x56A JUMPI PUSH1 0x5 DUP1 SLOAD PUSH1 0x1 PUSH1 0x1 PUSH1 0xA0 SHL SUB NOT DUP2 AND DUP5 OR DUP3 SSTORE SWAP1 SWAP3 SWAP1 DUP11 AND PUSH32 0x8BE0079C531659141344CD1FD0A4F28419497F9722A3DAAFE3B4186F6B6457E0 PUSH1 0x0 DUP1 LOG3 DUP1 MLOAD SWAP1 DUP7 DUP3 GT PUSH3 0x555 JUMPI PUSH1 0x6 SLOAD DUP9 DUP2 DUP2 SHR SWAP2 AND DUP1 ISZERO PUSH3 0x54A JUMPI JUMPDEST DUP13 DUP3 LT EQ PUSH3 0x535 JUMPI SWAP1 DUP12 DUP3 DUP8 DUP6 SWAP5 GT PUSH3 0x4DD JUMPI JUMPDEST POP POP DUP12 SWAP1 DUP7 DUP4 GT PUSH1 0x1 EQ PUSH3 0x472 JUMPI PUSH1 0x0 SWAP3 PUSH3 0x466 JUMPI JUMPDEST POP POP PUSH1 0x0 NOT DUP3 DUP8 SHL SHR NOT AND SWAP1 DUP8 SHL OR PUSH1 0x6 SSTORE JUMPDEST DUP2 MLOAD SWAP5 DUP6 GT PUSH3 0x451 JUMPI PUSH1 0x7 SLOAD SWAP1 DUP7 DUP3 DUP2 SHR SWAP3 AND DUP1 ISZERO PUSH3 0x446 JUMPI JUMPDEST DUP11 DUP4 LT EQ PUSH3 0x431 JUMPI DUP4 DUP3 GT PUSH3 0x3E7 JUMPI JUMPDEST POP POP DUP8 SWAP2 DUP5 GT PUSH1 0x1 EQ PUSH3 0x37A JUMPI SWAP4 DUP4 SWAP5 SWAP2 DUP5 SWAP3 PUSH1 0x0 SWAP6 PUSH3 0x36E JUMPI JUMPDEST POP POP SHL SWAP3 PUSH1 0x0 NOT SWAP2 SHL SHR NOT AND OR PUSH1 0x7 SSTORE JUMPDEST DUP1 PUSH1 0x80 MSTORE CALLER PUSH1 0xA0 MSTORE AND SWAP2 DUP3 ISZERO PUSH3 0x357 JUMPI PUSH1 0x2 SLOAD PUSH12 0x33B2E3C9FD0803CE8000000 SWAP2 DUP3 DUP3 ADD DUP1 SWAP3 GT PUSH3 0x342 JUMPI POP PUSH1 0x2 SSTORE PUSH1 0x0 DUP4 DUP2 MSTORE DUP1 DUP4 MSTORE DUP5 DUP2 KECCAK256 DUP1 SLOAD DUP4 ADD SWAP1 SSTORE DUP5 MLOAD SWAP2 DUP3 MSTORE SWAP2 PUSH32 0xDDF252AD1BE2C89B69C2B068FC378DAA952BA7F163C4A11628F55A4DF523B3EF SWAP2 LOG3 MLOAD PUSH2 0x136A SWAP1 DUP2 PUSH3 0x80E DUP3 CODECOPY PUSH1 0x80 MLOAD DUP2 DUP2 DUP2 PUSH2 0x547 ADD MSTORE DUP2 DUP2 PUSH2 0xB9E ADD MSTORE DUP2 DUP2 PUSH2 0xEC2 ADD MSTORE PUSH2 0x1081 ADD MSTORE PUSH1 0xA0 MLOAD DUP2 DUP2 DUP2 PUSH2 0x363 ADD MSTORE DUP2 DUP2 PUSH2 0x5BD ADD MSTORE DUP2 DUP2 PUSH2 0x60F ADD MSTORE PUSH2 0xC84 ADD MSTORE RETURN JUMPDEST PUSH1 0x11 SWAP1 PUSH4 0x4E487B71 PUSH1 0xE0 SHL PUSH1 0x0 MSTORE MSTORE PUSH1 0x24 PUSH1 0x0 REVERT JUMPDEST PUSH1 0x24 SWAP1 PUSH1 0x0 DUP6 MLOAD SWAP2 PUSH4 0xEC442F05 PUSH1 0xE0 SHL DUP4 MSTORE DUP3 ADD MSTORE REVERT JUMPDEST ADD MLOAD SWAP4 POP CODESIZE DUP1 PUSH3 0x27C JUMP JUMPDEST SWAP2 SWAP1 PUSH1 0x1F NOT DUP5 AND SWAP3 PUSH1 0x7 PUSH1 0x0 MSTORE DUP5 DUP10 PUSH1 0x0 KECCAK256 SWAP5 PUSH1 0x0 JUMPDEST DUP12 DUP10 DUP4 DUP4 LT PUSH3 0x3CF JUMPI POP POP POP LT PUSH3 0x3B4 JUMPI JUMPDEST POP POP POP POP DUP2 SHL ADD PUSH1 0x7 SSTORE PUSH3 0x28D JUMP JUMPDEST ADD MLOAD SWAP1 PUSH1 0xF8 DUP5 PUSH1 0x0 NOT SWAP3 SHL AND SHR NOT AND SWAP1 SSTORE CODESIZE DUP1 DUP1 DUP1 PUSH3 0x3A4 JUMP JUMPDEST DUP7 DUP7 ADD MLOAD DUP10 SSTORE SWAP1 SWAP8 ADD SWAP7 SWAP5 DUP6 ADD SWAP5 DUP9 SWAP4 POP ADD PUSH3 0x390 JUMP JUMPDEST PUSH1 0x7 PUSH1 0x0 MSTORE DUP10 PUSH1 0x0 KECCAK256 SWAP1 DUP5 DUP1 DUP9 ADD DUP3 SHR DUP4 ADD SWAP4 DUP13 DUP10 LT PUSH3 0x427 JUMPI JUMPDEST ADD SWAP1 SHR ADD SWAP1 DUP7 SWAP1 JUMPDEST DUP3 DUP2 LT PUSH3 0x41A JUMPI POP PUSH3 0x25F JUMP JUMPDEST PUSH1 0x0 DUP2 SSTORE ADD DUP7 SWAP1 PUSH3 0x40B JUMP JUMPDEST SWAP4 POP DUP3 SWAP4 PUSH3 0x403 JUMP JUMPDEST PUSH1 0x22 DUP12 PUSH4 0x4E487B71 PUSH1 0xE0 SHL PUSH1 0x0 MSTORE MSTORE PUSH1 0x24 PUSH1 0x0 REVERT JUMPDEST SWAP2 PUSH1 0x7F AND SWAP2 PUSH3 0x24D JUMP JUMPDEST PUSH1 0x41 DUP11 PUSH4 0x4E487B71 PUSH1 0xE0 SHL PUSH1 0x0 MSTORE MSTORE PUSH1 0x24 PUSH1 0x0 REVERT JUMPDEST ADD MLOAD SWAP1 POP CODESIZE DUP1 PUSH3 0x21E JUMP JUMPDEST DUP10 SWAP4 POP SWAP1 DUP13 SWAP2 PUSH1 0x1F NOT DUP5 AND PUSH1 0x6 PUSH1 0x0 MSTORE DUP4 PUSH1 0x0 KECCAK256 SWAP4 PUSH1 0x0 SWAP1 JUMPDEST DUP3 DUP3 LT PUSH3 0x4C5 JUMPI POP POP DUP5 GT PUSH3 0x4AC JUMPI JUMPDEST POP POP POP DUP2 SHL ADD PUSH1 0x6 SSTORE PUSH3 0x231 JUMP JUMPDEST ADD MLOAD PUSH1 0x0 NOT DUP4 DUP10 SHL PUSH1 0xF8 AND SHR NOT AND SWAP1 SSTORE CODESIZE DUP1 DUP1 PUSH3 0x49D JUMP JUMPDEST DUP4 DUP6 ADD MLOAD DUP7 SSTORE DUP14 SWAP8 SWAP1 SWAP6 ADD SWAP5 SWAP4 DUP5 ADD SWAP4 ADD DUP16 PUSH3 0x48B JUMP JUMPDEST SWAP1 SWAP2 SWAP3 POP PUSH1 0x6 PUSH1 0x0 MSTORE DUP7 DUP3 PUSH1 0x0 KECCAK256 SWAP2 DUP2 DUP7 ADD DUP8 SHR DUP4 ADD SWAP4 DUP7 LT PUSH3 0x52B JUMPI JUMPDEST SWAP2 DUP12 SWAP2 DUP7 SWAP6 SWAP5 SWAP4 ADD DUP8 SHR ADD SWAP2 JUMPDEST DUP3 DUP2 LT PUSH3 0x51B JUMPI POP DUP14 SWAP2 POP PUSH3 0x206 JUMP JUMPDEST PUSH1 0x0 DUP2 SSTORE DUP6 SWAP5 POP DUP12 SWAP2 ADD PUSH3 0x509 JUMP JUMPDEST SWAP3 POP DUP2 SWAP3 PUSH3 0x4FC JUMP JUMPDEST PUSH1 0x22 DUP14 PUSH4 0x4E487B71 PUSH1 0xE0 SHL PUSH1 0x0 MSTORE MSTORE PUSH1 0x24 PUSH1 0x0 REVERT JUMPDEST SWAP1 PUSH1 0x7F AND SWAP1 PUSH3 0x1F0 JUMP JUMPDEST PUSH1 0x41 DUP13 PUSH4 0x4E487B71 PUSH1 0xE0 SHL PUSH1 0x0 MSTORE MSTORE PUSH1 0x24 PUSH1 0x0 REVERT JUMPDEST DUP12 MLOAD PUSH4 0x1E4FBDF7 PUSH1 0xE0 SHL DUP2 MSTORE PUSH1 0x0 DUP2 DUP14 ADD MSTORE PUSH1 0x24 SWAP1 REVERT JUMPDEST ADD MLOAD SWAP1 POP CODESIZE DUP1 PUSH3 0x172 JUMP JUMPDEST PUSH1 0x0 DUP15 DUP2 MSTORE DUP14 DUP2 KECCAK256 DUP12 SWAP6 POP SWAP3 SWAP2 SWAP1 PUSH1 0x1F NOT DUP6 AND SWAP1 DUP16 JUMPDEST DUP3 DUP3 LT PUSH3 0x5DC JUMPI POP POP DUP5 GT PUSH3 0x5C3 JUMPI JUMPDEST POP POP POP DUP2 SHL ADD DUP11 SSTORE PUSH3 0x184 JUMP JUMPDEST ADD MLOAD PUSH1 0x0 NOT DUP4 DUP10 SHL PUSH1 0xF8 AND SHR NOT AND SWAP1 SSTORE CODESIZE DUP1 DUP1 PUSH3 0x5B5 JUMP JUMPDEST DUP4 DUP6 ADD MLOAD DUP7 SSTORE DUP14 SWAP8 SWAP1 SWAP6 ADD SWAP5 SWAP4 DUP5 ADD SWAP4 ADD DUP16 PUSH3 0x5A3 JUMP JUMPDEST SWAP1 SWAP2 SWAP3 POP DUP14 PUSH1 0x0 MSTORE DUP7 DUP3 PUSH1 0x0 KECCAK256 SWAP2 DUP2 DUP7 ADD PUSH1 0x5 SHR DUP4 ADD SWAP4 DUP7 LT PUSH3 0x643 JUMPI JUMPDEST SWAP2 DUP12 SWAP2 DUP7 SWAP6 SWAP5 SWAP4 ADD PUSH1 0x5 SHR ADD SWAP2 JUMPDEST DUP3 DUP2 LT PUSH3 0x633 JUMPI POP DUP14 SWAP2 POP PUSH3 0x15A JUMP JUMPDEST PUSH1 0x0 DUP2 SSTORE DUP6 SWAP5 POP DUP12 SWAP2 ADD PUSH3 0x621 JUMP JUMPDEST SWAP3 POP DUP2 SWAP3 PUSH3 0x613 JUMP JUMPDEST SWAP1 PUSH1 0x7F AND SWAP1 PUSH3 0x144 JUMP JUMPDEST PUSH4 0x4E487B71 PUSH1 0xE0 SHL PUSH1 0x0 MSTORE PUSH1 0x41 PUSH1 0x4 MSTORE PUSH1 0x24 PUSH1 0x0 REVERT JUMPDEST ADD MLOAD SWAP1 POP CODESIZE DUP1 PUSH3 0x115 JUMP JUMPDEST PUSH1 0x0 DUP9 DUP2 MSTORE DUP14 DUP2 KECCAK256 DUP12 SWAP6 POP SWAP3 SWAP2 SWAP1 PUSH1 0x1F NOT DUP6 AND SWAP1 DUP16 JUMPDEST DUP3 DUP3 LT PUSH3 0x6C9 JUMPI POP POP DUP5 GT PUSH3 0x6B0 JUMPI JUMPDEST POP POP POP DUP2 SHL ADD DUP5 SSTORE PUSH3 0x127 JUMP JUMPDEST ADD MLOAD PUSH1 0x0 NOT DUP4 DUP10 SHL PUSH1 0xF8 AND SHR NOT AND SWAP1 SSTORE CODESIZE DUP1 DUP1 PUSH3 0x6A2 JUMP JUMPDEST DUP4 DUP6 ADD MLOAD DUP7 SSTORE DUP14 SWAP8 SWAP1 SWAP6 ADD SWAP5 SWAP4 DUP5 ADD SWAP4 ADD DUP16 PUSH3 0x690 JUMP JUMPDEST SWAP1 SWAP2 SWAP3 POP DUP8 PUSH1 0x0 MSTORE DUP7 DUP3 PUSH1 0x0 KECCAK256 SWAP2 DUP2 DUP7 ADD PUSH1 0x5 SHR DUP4 ADD SWAP4 DUP7 LT PUSH3 0x730 JUMPI JUMPDEST SWAP2 DUP12 SWAP2 DUP7 SWAP6 SWAP5 SWAP4 ADD PUSH1 0x5 SHR ADD SWAP2 JUMPDEST DUP3 DUP2 LT PUSH3 0x720 JUMPI POP DUP14 SWAP2 POP PUSH3 0xFD JUMP JUMPDEST PUSH1 0x0 DUP2 SSTORE DUP6 SWAP5 POP DUP12 SWAP2 ADD PUSH3 0x70E JUMP JUMPDEST SWAP3 POP DUP2 SWAP3 PUSH3 0x700 JUMP JUMPDEST PUSH4 0x4E487B71 PUSH1 0xE0 SHL PUSH1 0x0 MSTORE PUSH1 0x22 PUSH1 0x4 MSTORE PUSH1 0x24 PUSH1 0x0 REVERT JUMPDEST SWAP5 PUSH1 0x7F AND SWAP5 PUSH3 0xE5 JUMP JUMPDEST PUSH1 0x0 DUP1 REVERT JUMPDEST PUSH1 0x40 MLOAD SWAP2 SWAP1 PUSH1 0x1F ADD PUSH1 0x1F NOT AND DUP3 ADD PUSH1 0x1 PUSH1 0x1 PUSH1 0x40 SHL SUB DUP2 GT DUP4 DUP3 LT OR PUSH3 0x658 JUMPI PUSH1 0x40 MSTORE JUMP JUMPDEST SWAP2 SWAP1 DUP1 PUSH1 0x1F DUP5 ADD SLT ISZERO PUSH3 0x75B JUMPI DUP3 MLOAD PUSH1 0x1 PUSH1 0x1 PUSH1 0x40 SHL SUB DUP2 GT PUSH3 0x658 JUMPI PUSH1 0x20 SWAP1 PUSH3 0x7BC PUSH1 0x1F DUP3 ADD PUSH1 0x1F NOT AND DUP4 ADD PUSH3 0x760 JUMP JUMPDEST SWAP3 DUP2 DUP5 MSTORE DUP3 DUP3 DUP8 ADD ADD GT PUSH3 0x75B JUMPI PUSH1 0x0 JUMPDEST DUP2 DUP2 LT PUSH3 0x7E4 JUMPI POP DUP3 PUSH1 0x0 SWAP4 SWAP5 SWAP6 POP ADD ADD MSTORE SWAP1 JUMP JUMPDEST DUP6 DUP2 ADD DUP4 ADD MLOAD DUP5 DUP3 ADD DUP5 ADD MSTORE DUP3 ADD PUSH3 0x7CE JUMP JUMPDEST MLOAD SWAP1 PUSH1 0x1 PUSH1 0x1 PUSH1 0xA0 SHL SUB DUP3 AND DUP3 SUB PUSH3 0x75B JUMPI JUMP INVALID PUSH1 0x80 PUSH1 0x40 DUP2 DUP2 MSTORE PUSH1 0x4 SWAP2 DUP3 CALLDATASIZE LT ISZERO PUSH2 0x16 JUMPI PUSH1 0x0 DUP1 REVERT JUMPDEST PUSH1 0x0 SWAP3 DUP4 CALLDATALOAD PUSH1 0xE0 SHR SWAP2 DUP3 PUSH4 0x2669B52 EQ PUSH2 0xEAE JUMPI POP DUP2 PUSH4 0x6FDDE03 EQ PUSH2 0xE04 JUMPI DUP2 PUSH4 0x95EA7B3 EQ PUSH2 0xDDA JUMPI DUP2 PUSH4 0x18160DDD EQ PUSH2 0xDBB JUMPI DUP2 PUSH4 0x23B872DD EQ PUSH2 0xCC7 JUMPI DUP2 PUSH4 0x313CE567 EQ PUSH2 0xCAB JUMPI DUP2 PUSH4 0x40C10F19 EQ PUSH2 0xB72 JUMPI DUP2 PUSH4 0x42966C68 EQ PUSH2 0xB54 JUMPI DUP2 PUSH4 0x4ADA218B EQ PUSH2 0xB30 JUMPI DUP2 PUSH4 0x56CE0E6C EQ PUSH2 0x83D JUMPI DUP2 PUSH4 0x70A08231 EQ PUSH2 0x806 JUMPI DUP2 PUSH4 0x715018A6 EQ PUSH2 0x7A6 JUMPI DUP2 PUSH4 0x7284E416 EQ PUSH2 0x6FC JUMPI DUP2 PUSH4 0x79CC6790 EQ PUSH2 0x5E6 JUMPI DUP2 PUSH4 0x8A8C523C EQ PUSH2 0x526 JUMPI DUP2 PUSH4 0x8DA5CB5B EQ PUSH2 0x4FD JUMPI DUP2 PUSH4 0x902D55A5 EQ PUSH2 0x4D6 JUMPI DUP2 PUSH4 0x95D89B41 EQ PUSH2 0x401 JUMPI DUP2 PUSH4 0xA9059CBB EQ PUSH2 0x3D0 JUMPI DUP2 PUSH4 0xAA2FE91B EQ PUSH2 0x392 JUMPI DUP2 PUSH4 0xC45A0155 EQ PUSH2 0x34E JUMPI DUP2 PUSH4 0xDD62ED3E EQ PUSH2 0x305 JUMPI DUP2 PUSH4 0xED58BAD8 EQ PUSH2 0x2AF JUMPI DUP2 PUSH4 0xF2FDE38B EQ PUSH2 0x21B JUMPI POP PUSH4 0xFC04B5E1 EQ PUSH2 0x138 JUMPI PUSH1 0x0 DUP1 REVERT JUMPDEST CALLVALUE PUSH2 0x217 JUMPI DUP2 PUSH1 0x3 NOT CALLDATASIZE ADD SLT PUSH2 0x217 JUMPI DUP1 MLOAD SWAP1 DUP3 PUSH1 0x6 SLOAD PUSH2 0x158 DUP2 PUSH2 0x1026 JUMP JUMPDEST DUP1 DUP6 MSTORE SWAP2 PUSH1 0x1 SWAP2 DUP1 DUP4 AND SWAP1 DUP2 ISZERO PUSH2 0x1EF JUMPI POP PUSH1 0x1 EQ PUSH2 0x192 JUMPI JUMPDEST POP POP POP PUSH2 0x184 DUP3 PUSH2 0x18E SWAP5 SUB DUP4 PUSH2 0xF6B JUMP JUMPDEST MLOAD SWAP2 DUP3 SWAP2 DUP3 PUSH2 0xEF1 JUMP JUMPDEST SUB SWAP1 RETURN JUMPDEST SWAP5 POP PUSH1 0x6 DUP6 MSTORE PUSH32 0xF652222313E28459528D920B65115C16C04F3EFC82AAEDC97BE59F3F377C0D3F JUMPDEST DUP3 DUP7 LT PUSH2 0x1D7 JUMPI POP POP POP PUSH2 0x184 DUP3 PUSH1 0x20 PUSH2 0x18E SWAP6 DUP3 ADD ADD SWAP5 PUSH2 0x172 JUMP JUMPDEST DUP1 SLOAD PUSH1 0x20 DUP8 DUP8 ADD DUP2 ADD SWAP2 SWAP1 SWAP2 MSTORE SWAP1 SWAP6 ADD SWAP5 DUP2 ADD PUSH2 0x1BA JUMP JUMPDEST PUSH2 0x18E SWAP8 POP DUP7 SWAP4 POP PUSH1 0x20 SWAP3 POP PUSH2 0x184 SWAP5 SWAP2 POP PUSH1 0xFF NOT AND DUP3 DUP5 ADD MSTORE ISZERO ISZERO PUSH1 0x5 SHL DUP3 ADD ADD SWAP5 PUSH2 0x172 JUMP JUMPDEST POP DUP1 REVERT JUMPDEST SWAP1 POP CALLVALUE PUSH2 0x2AB JUMPI PUSH1 0x20 CALLDATASIZE PUSH1 0x3 NOT ADD SLT PUSH2 0x2AB JUMPI PUSH2 0x236 PUSH2 0xF3A JUMP JUMPDEST SWAP1 PUSH2 0x23F PUSH2 0xFFA JUMP JUMPDEST PUSH1 0x1 PUSH1 0x1 PUSH1 0xA0 SHL SUB SWAP2 DUP3 AND SWAP3 DUP4 ISZERO PUSH2 0x295 JUMPI POP POP PUSH1 0x5 SLOAD DUP3 PUSH12 0xFFFFFFFFFFFFFFFFFFFFFFFF PUSH1 0xA0 SHL DUP3 AND OR PUSH1 0x5 SSTORE AND PUSH32 0x8BE0079C531659141344CD1FD0A4F28419497F9722A3DAAFE3B4186F6B6457E0 DUP4 DUP1 LOG3 DUP1 RETURN JUMPDEST MLOAD PUSH4 0x1E4FBDF7 PUSH1 0xE0 SHL DUP2 MSTORE SWAP1 DUP2 ADD DUP5 SWAP1 MSTORE PUSH1 0x24 SWAP1 REVERT JUMPDEST DUP3 DUP1 REVERT JUMPDEST POP POP CALLVALUE PUSH2 0x217 JUMPI DUP1 PUSH1 0x3 NOT CALLDATASIZE ADD SLT PUSH2 0x217 JUMPI PUSH2 0x2C9 PUSH2 0xF3A JUMP JUMPDEST SWAP1 PUSH1 0x24 CALLDATALOAD SWAP2 DUP3 ISZERO ISZERO DUP1 SWAP4 SUB PUSH2 0x301 JUMPI PUSH2 0x2E0 PUSH2 0xFFA JUMP JUMPDEST PUSH1 0x1 DUP1 PUSH1 0xA0 SHL SUB AND DUP4 MSTORE PUSH1 0x9 PUSH1 0x20 MSTORE DUP3 KECCAK256 SWAP1 PUSH1 0xFF DUP1 NOT DUP4 SLOAD AND SWAP2 AND OR SWAP1 SSTORE DUP1 RETURN JUMPDEST DUP4 DUP1 REVERT JUMPDEST POP POP CALLVALUE PUSH2 0x217 JUMPI DUP1 PUSH1 0x3 NOT CALLDATASIZE ADD SLT PUSH2 0x217 JUMPI DUP1 PUSH1 0x20 SWAP3 PUSH2 0x323 PUSH2 0xF3A JUMP JUMPDEST PUSH2 0x32B PUSH2 0xF55 JUMP JUMPDEST PUSH1 0x1 PUSH1 0x1 PUSH1 0xA0 SHL SUB SWAP2 DUP3 AND DUP4 MSTORE PUSH1 0x1 DUP7 MSTORE DUP4 DUP4 KECCAK256 SWAP2 AND DUP3 MSTORE DUP5 MSTORE KECCAK256 SLOAD SWAP1 MLOAD SWAP1 DUP2 MSTORE RETURN JUMPDEST POP POP CALLVALUE PUSH2 0x217 JUMPI DUP2 PUSH1 0x3 NOT CALLDATASIZE ADD SLT PUSH2 0x217 JUMPI MLOAD PUSH32 0x0 PUSH1 0x1 PUSH1 0x1 PUSH1 0xA0 SHL SUB AND DUP2 MSTORE PUSH1 0x20 SWAP1 RETURN JUMPDEST POP POP CALLVALUE PUSH2 0x217 JUMPI PUSH1 0x20 CALLDATASIZE PUSH1 0x3 NOT ADD SLT PUSH2 0x217 JUMPI PUSH1 0x20 SWAP2 PUSH1 0xFF SWAP1 DUP3 SWAP1 PUSH1 0x1 PUSH1 0x1 PUSH1 0xA0 SHL SUB PUSH2 0x3BD PUSH2 0xF3A JUMP JUMPDEST AND DUP2 MSTORE PUSH1 0x9 DUP6 MSTORE KECCAK256 SLOAD AND SWAP1 MLOAD SWAP1 ISZERO ISZERO DUP2 MSTORE RETURN JUMPDEST POP POP CALLVALUE PUSH2 0x217 JUMPI DUP1 PUSH1 0x3 NOT CALLDATASIZE ADD SLT PUSH2 0x217 JUMPI PUSH1 0x20 SWAP1 PUSH2 0x3FA PUSH2 0x3F0 PUSH2 0xF3A JUMP JUMPDEST PUSH1 0x24 CALLDATALOAD SWAP1 CALLER PUSH2 0x1060 JUMP JUMPDEST MLOAD PUSH1 0x1 DUP2 MSTORE RETURN JUMPDEST SWAP2 SWAP1 POP CALLVALUE PUSH2 0x2AB JUMPI DUP3 PUSH1 0x3 NOT CALLDATASIZE ADD SLT PUSH2 0x2AB JUMPI DUP1 MLOAD SWAP2 DUP4 DUP2 SLOAD SWAP1 PUSH2 0x424 DUP3 PUSH2 0x1026 JUMP JUMPDEST DUP1 DUP7 MSTORE SWAP3 PUSH1 0x1 SWAP3 DUP1 DUP5 AND SWAP1 DUP2 ISZERO PUSH2 0x4AB JUMPI POP PUSH1 0x1 EQ PUSH2 0x44F JUMPI JUMPDEST PUSH2 0x18E DUP7 DUP7 PUSH2 0x184 DUP3 DUP12 SUB DUP4 PUSH2 0xF6B JUMP JUMPDEST DUP2 MSTORE SWAP5 POP PUSH32 0x8A35ACFBC15FF81A39AE7D344FD709F28E8600B4AA8C65C6B64BFE7FE36BD19B JUMPDEST DUP3 DUP7 LT PUSH2 0x493 JUMPI POP POP POP PUSH2 0x184 DUP3 PUSH1 0x20 PUSH2 0x18E SWAP6 DUP3 ADD ADD SWAP5 CODESIZE PUSH2 0x43E JUMP JUMPDEST DUP1 SLOAD PUSH1 0x20 DUP8 DUP8 ADD DUP2 ADD SWAP2 SWAP1 SWAP2 MSTORE SWAP1 SWAP6 ADD SWAP5 DUP2 ADD PUSH2 0x475 JUMP JUMPDEST SWAP1 POP PUSH2 0x18E SWAP8 POP DUP7 SWAP4 POP PUSH1 0x20 SWAP3 POP PUSH2 0x184 SWAP5 SWAP2 POP PUSH1 0xFF NOT AND DUP3 DUP5 ADD MSTORE ISZERO ISZERO PUSH1 0x5 SHL DUP3 ADD ADD SWAP5 CODESIZE PUSH2 0x43E JUMP JUMPDEST POP POP CALLVALUE PUSH2 0x217 JUMPI DUP2 PUSH1 0x3 NOT CALLDATASIZE ADD SLT PUSH2 0x217 JUMPI PUSH1 0x20 SWAP1 MLOAD PUSH12 0x33B2E3C9FD0803CE8000000 DUP2 MSTORE RETURN JUMPDEST POP POP CALLVALUE PUSH2 0x217 JUMPI DUP2 PUSH1 0x3 NOT CALLDATASIZE ADD SLT PUSH2 0x217 JUMPI PUSH1 0x5 SLOAD SWAP1 MLOAD PUSH1 0x1 PUSH1 0x1 PUSH1 0xA0 SHL SUB SWAP1 SWAP2 AND DUP2 MSTORE PUSH1 0x20 SWAP1 RETURN JUMPDEST POP POP CALLVALUE PUSH2 0x217 JUMPI DUP2 PUSH1 0x3 NOT CALLDATASIZE ADD SLT PUSH2 0x217 JUMPI PUSH2 0x586 SWAP1 PUSH1 0x1 DUP1 PUSH1 0xA0 SHL SUB SWAP1 DUP2 PUSH32 0x0 AND CALLER EQ SWAP2 DUP3 ISZERO PUSH2 0x5BA JUMPI JUMPDEST DUP3 ISZERO PUSH2 0x5AC JUMPI JUMPDEST POP DUP2 ISZERO PUSH2 0x596 JUMPI JUMPDEST POP PUSH2 0x12F7 JUMP JUMPDEST PUSH1 0x1 PUSH1 0xFF NOT PUSH1 0x8 SLOAD AND OR PUSH1 0x8 SSTORE DUP1 RETURN JUMPDEST PUSH1 0xFF SWAP2 POP CALLER DUP5 MSTORE PUSH1 0x9 PUSH1 0x20 MSTORE DUP4 KECCAK256 SLOAD AND CODESIZE PUSH2 0x580 JUMP JUMPDEST PUSH1 0x5 SLOAD AND CALLER EQ SWAP2 POP CODESIZE PUSH2 0x578 JUMP JUMPDEST CALLER PUSH32 0x0 DUP3 AND EQ SWAP3 POP PUSH2 0x571 JUMP JUMPDEST DUP4 DUP4 CALLVALUE PUSH2 0x217 JUMPI DUP1 PUSH1 0x3 NOT CALLDATASIZE ADD SLT PUSH2 0x217 JUMPI PUSH2 0x600 PUSH2 0xF3A JUMP JUMPDEST PUSH1 0x24 CALLDATALOAD SWAP2 PUSH1 0x1 PUSH1 0x1 PUSH1 0xA0 SHL SUB CALLER PUSH32 0x0 DUP3 AND EQ ISZERO DUP1 PUSH2 0x6EE JUMPI JUMPDEST PUSH2 0x64B JUMPI JUMPDEST DUP5 PUSH2 0x648 DUP6 DUP6 PUSH2 0x1258 JUMP JUMPDEST DUP1 RETURN JUMPDEST DUP3 AND DUP5 MSTORE PUSH1 0x1 PUSH1 0x20 MSTORE DUP1 DUP5 KECCAK256 CALLER DUP6 MSTORE PUSH1 0x20 MSTORE DUP1 DUP5 KECCAK256 SLOAD SWAP1 DUP4 DUP3 LT PUSH2 0x6A0 JUMPI POP DUP3 DUP2 SUB SWAP1 DUP2 GT PUSH2 0x68D JUMPI PUSH2 0x648 SWAP4 SWAP5 POP PUSH2 0x685 SWAP1 CALLER DUP4 PUSH2 0x11C5 JUMP JUMPDEST DUP4 SWAP3 DUP6 PUSH2 0x63D JUMP JUMPDEST PUSH4 0x4E487B71 PUSH1 0xE0 SHL DUP5 MSTORE PUSH1 0x11 DUP6 MSTORE PUSH1 0x24 DUP5 REVERT JUMPDEST MLOAD PUSH3 0x461BCD PUSH1 0xE5 SHL DUP2 MSTORE PUSH1 0x20 DUP2 DUP8 ADD MSTORE PUSH1 0x24 DUP1 DUP3 ADD MSTORE PUSH32 0x45524332303A206275726E20616D6F756E74206578636565647320616C6C6F77 PUSH1 0x44 DUP3 ADD MSTORE PUSH4 0x616E6365 PUSH1 0xE0 SHL PUSH1 0x64 DUP3 ADD MSTORE PUSH1 0x84 SWAP1 REVERT JUMPDEST POP DUP1 PUSH1 0x5 SLOAD AND CALLER EQ ISZERO PUSH2 0x638 JUMP JUMPDEST POP POP CALLVALUE PUSH2 0x217 JUMPI DUP2 PUSH1 0x3 NOT CALLDATASIZE ADD SLT PUSH2 0x217 JUMPI DUP1 MLOAD SWAP1 DUP3 PUSH1 0x7 SLOAD PUSH2 0x71E DUP2 PUSH2 0x1026 JUMP JUMPDEST DUP1 DUP6 MSTORE SWAP2 PUSH1 0x1 SWAP2 DUP1 DUP4 AND SWAP1 DUP2 ISZERO PUSH2 0x1EF JUMPI POP PUSH1 0x1 EQ PUSH2 0x749 JUMPI POP POP POP PUSH2 0x184 DUP3 PUSH2 0x18E SWAP5 SUB DUP4 PUSH2 0xF6B JUMP JUMPDEST SWAP5 POP PUSH1 0x7 DUP6 MSTORE PUSH32 0xA66CC928B5EDB82AF9BD49922954155AB7B0942694BEA4CE44661D9A8736C688 JUMPDEST DUP3 DUP7 LT PUSH2 0x78E JUMPI POP POP POP PUSH2 0x184 DUP3 PUSH1 0x20 PUSH2 0x18E SWAP6 DUP3 ADD ADD SWAP5 PUSH2 0x172 JUMP JUMPDEST DUP1 SLOAD PUSH1 0x20 DUP8 DUP8 ADD DUP2 ADD SWAP2 SWAP1 SWAP2 MSTORE SWAP1 SWAP6 ADD SWAP5 DUP2 ADD PUSH2 0x771 JUMP JUMPDEST DUP4 CALLVALUE PUSH2 0x803 JUMPI DUP1 PUSH1 0x3 NOT CALLDATASIZE ADD SLT PUSH2 0x803 JUMPI PUSH2 0x7BF PUSH2 0xFFA JUMP JUMPDEST PUSH1 0x5 DUP1 SLOAD PUSH1 0x1 PUSH1 0x1 PUSH1 0xA0 SHL SUB NOT DUP2 AND SWAP1 SWAP2 SSTORE DUP2 SWAP1 PUSH1 0x1 PUSH1 0x1 PUSH1 0xA0 SHL SUB AND PUSH32 0x8BE0079C531659141344CD1FD0A4F28419497F9722A3DAAFE3B4186F6B6457E0 DUP3 DUP1 LOG3 DUP1 RETURN JUMPDEST DUP1 REVERT JUMPDEST POP POP CALLVALUE PUSH2 0x217 JUMPI PUSH1 0x20 CALLDATASIZE PUSH1 0x3 NOT ADD SLT PUSH2 0x217 JUMPI PUSH1 0x20 SWAP2 DUP2 SWAP1 PUSH1 0x1 PUSH1 0x1 PUSH1 0xA0 SHL SUB PUSH2 0x82E PUSH2 0xF3A JUMP JUMPDEST AND DUP2 MSTORE DUP1 DUP5 MSTORE KECCAK256 SLOAD SWAP1 MLOAD SWAP1 DUP2 MSTORE RETURN JUMPDEST DUP4 DUP4 CALLVALUE PUSH2 0x217 JUMPI CALLDATASIZE PUSH1 0x3 NOT ADD SLT PUSH2 0x803 JUMPI PUSH8 0xFFFFFFFFFFFFFFFF DUP3 CALLDATALOAD DUP2 DUP2 GT PUSH2 0x2AB JUMPI PUSH2 0x86D SWAP1 CALLDATASIZE SWAP1 DUP6 ADD PUSH2 0xFA3 JUMP JUMPDEST SWAP3 PUSH1 0x24 CALLDATALOAD DUP3 DUP2 GT PUSH2 0x301 JUMPI PUSH2 0x885 SWAP1 CALLDATASIZE SWAP1 DUP4 ADD PUSH2 0xFA3 JUMP JUMPDEST SWAP1 PUSH2 0x88E PUSH2 0xFFA JUMP JUMPDEST DUP5 MLOAD DUP4 DUP2 GT PUSH2 0xB1D JUMPI DUP1 PUSH2 0x8A3 PUSH1 0x6 SLOAD PUSH2 0x1026 JUMP JUMPDEST SWAP7 PUSH1 0x1F SWAP8 DUP9 DUP2 GT PUSH2 0xAB1 JUMPI JUMPDEST POP PUSH1 0x20 SWAP1 DUP9 DUP4 GT PUSH1 0x1 EQ PUSH2 0xA2E JUMPI DUP8 SWAP3 PUSH2 0xA23 JUMPI JUMPDEST POP POP DUP2 PUSH1 0x1 SHL SWAP2 PUSH1 0x0 NOT SWAP1 PUSH1 0x3 SHL SHR NOT AND OR PUSH1 0x6 SSTORE JUMPDEST DUP2 MLOAD SWAP3 DUP4 GT PUSH2 0xA10 JUMPI POP PUSH2 0x8EF PUSH1 0x7 SLOAD PUSH2 0x1026 JUMP JUMPDEST DUP5 DUP2 GT PUSH2 0x9B0 JUMPI JUMPDEST POP PUSH1 0x20 SWAP4 DUP3 GT PUSH1 0x1 EQ PUSH2 0x932 JUMPI SWAP3 DUP3 SWAP4 DUP3 SWAP4 SWAP3 PUSH2 0x927 JUMPI JUMPDEST POP POP DUP2 PUSH1 0x1 SHL SWAP2 PUSH1 0x0 NOT SWAP1 PUSH1 0x3 SHL SHR NOT AND OR PUSH1 0x7 SSTORE DUP1 RETURN JUMPDEST ADD MLOAD SWAP1 POP DUP4 DUP1 PUSH2 0x90F JUMP JUMPDEST PUSH1 0x7 DUP4 MSTORE PUSH1 0x1F NOT DUP3 AND SWAP4 PUSH32 0xA66CC928B5EDB82AF9BD49922954155AB7B0942694BEA4CE44661D9A8736C688 SWAP2 DUP5 JUMPDEST DUP7 DUP2 LT PUSH2 0x998 JUMPI POP DUP4 PUSH1 0x1 SWAP6 SWAP7 LT PUSH2 0x97F JUMPI JUMPDEST POP POP POP DUP2 SHL ADD PUSH1 0x7 SSTORE DUP1 RETURN JUMPDEST ADD MLOAD PUSH1 0x0 NOT PUSH1 0xF8 DUP5 PUSH1 0x3 SHL AND SHR NOT AND SWAP1 SSTORE DUP4 DUP1 DUP1 PUSH2 0x973 JUMP JUMPDEST SWAP2 SWAP3 PUSH1 0x20 PUSH1 0x1 DUP2 SWAP3 DUP7 DUP6 ADD MLOAD DUP2 SSTORE ADD SWAP5 ADD SWAP3 ADD PUSH2 0x960 JUMP JUMPDEST PUSH1 0x7 DUP5 MSTORE PUSH32 0xA66CC928B5EDB82AF9BD49922954155AB7B0942694BEA4CE44661D9A8736C688 DUP6 DUP1 DUP6 ADD PUSH1 0x5 SHR DUP3 ADD SWAP3 PUSH1 0x20 DUP7 LT PUSH2 0xA07 JUMPI JUMPDEST ADD PUSH1 0x5 SHR ADD SWAP1 JUMPDEST DUP2 DUP2 LT PUSH2 0x9FC JUMPI POP PUSH2 0x8F7 JUMP JUMPDEST DUP5 DUP2 SSTORE PUSH1 0x1 ADD PUSH2 0x9EF JUMP JUMPDEST SWAP3 POP DUP2 SWAP3 PUSH2 0x9E8 JUMP JUMPDEST PUSH4 0x4E487B71 PUSH1 0xE0 SHL DUP5 MSTORE PUSH1 0x41 SWAP1 MSTORE PUSH1 0x24 DUP4 REVERT JUMPDEST ADD MLOAD SWAP1 POP DUP8 DUP1 PUSH2 0x8C4 JUMP JUMPDEST PUSH1 0x6 DUP9 MSTORE PUSH32 0xF652222313E28459528D920B65115C16C04F3EFC82AAEDC97BE59F3F377C0D3F SWAP3 POP PUSH1 0x1F NOT DUP5 AND DUP9 JUMPDEST DUP2 DUP2 LT PUSH2 0xA99 JUMPI POP SWAP1 DUP5 PUSH1 0x1 SWAP6 SWAP5 SWAP4 SWAP3 LT PUSH2 0xA80 JUMPI JUMPDEST POP POP POP DUP2 SHL ADD PUSH1 0x6 SSTORE PUSH2 0x8DA JUMP JUMPDEST ADD MLOAD PUSH1 0x0 NOT PUSH1 0xF8 DUP5 PUSH1 0x3 SHL AND SHR NOT AND SWAP1 SSTORE DUP8 DUP1 DUP1 PUSH2 0xA72 JUMP JUMPDEST SWAP3 SWAP4 PUSH1 0x20 PUSH1 0x1 DUP2 SWAP3 DUP8 DUP7 ADD MLOAD DUP2 SSTORE ADD SWAP6 ADD SWAP4 ADD PUSH2 0xA5C JUMP JUMPDEST SWAP1 SWAP2 POP PUSH1 0x6 DUP8 MSTORE PUSH32 0xF652222313E28459528D920B65115C16C04F3EFC82AAEDC97BE59F3F377C0D3F DUP9 DUP1 DUP6 ADD PUSH1 0x5 SHR DUP3 ADD SWAP3 PUSH1 0x20 DUP7 LT PUSH2 0xB14 JUMPI JUMPDEST SWAP1 DUP6 SWAP5 SWAP4 SWAP3 SWAP2 ADD PUSH1 0x5 SHR ADD SWAP1 JUMPDEST DUP2 DUP2 LT PUSH2 0xB06 JUMPI POP PUSH2 0x8AF JUMP JUMPDEST DUP9 DUP2 SSTORE DUP5 SWAP4 POP PUSH1 0x1 ADD PUSH2 0xAF9 JUMP JUMPDEST SWAP3 POP DUP2 SWAP3 PUSH2 0xAEC JUMP JUMPDEST PUSH4 0x4E487B71 PUSH1 0xE0 SHL DUP6 MSTORE PUSH1 0x41 DUP3 MSTORE PUSH1 0x24 DUP6 REVERT JUMPDEST POP POP CALLVALUE PUSH2 0x217 JUMPI DUP2 PUSH1 0x3 NOT CALLDATASIZE ADD SLT PUSH2 0x217 JUMPI PUSH1 0x20 SWAP1 PUSH1 0xFF PUSH1 0x8 SLOAD AND SWAP1 MLOAD SWAP1 ISZERO ISZERO DUP2 MSTORE RETURN JUMPDEST DUP4 SWAP1 CALLVALUE PUSH2 0x217 JUMPI PUSH1 0x20 CALLDATASIZE PUSH1 0x3 NOT ADD SLT PUSH2 0x217 JUMPI PUSH2 0x648 SWAP1 CALLDATALOAD CALLER PUSH2 0x1258 JUMP JUMPDEST SWAP2 SWAP1 POP CALLVALUE PUSH2 0x2AB JUMPI DUP1 PUSH1 0x3 NOT CALLDATASIZE ADD SLT PUSH2 0x2AB JUMPI PUSH2 0xB8D PUSH2 0xF3A JUMP JUMPDEST PUSH1 0x24 CALLDATALOAD SWAP2 SWAP1 PUSH1 0x1 PUSH1 0x1 PUSH1 0xA0 SHL SUB SWAP1 CALLER PUSH32 0x0 DUP4 AND EQ DUP1 ISZERO PUSH2 0xC80 JUMPI JUMPDEST DUP1 ISZERO PUSH2 0xC73 JUMPI JUMPDEST DUP1 ISZERO PUSH2 0xC5E JUMPI JUMPDEST PUSH2 0xBDE SWAP1 PUSH2 0x12F7 JUMP JUMPDEST AND SWAP3 DUP4 ISZERO PUSH2 0xC49 JUMPI PUSH1 0x2 SLOAD SWAP1 DUP4 DUP3 ADD DUP1 SWAP3 GT PUSH2 0xC36 JUMPI POP DUP5 SWAP3 PUSH32 0xDDF252AD1BE2C89B69C2B068FC378DAA952BA7F163C4A11628F55A4DF523B3EF SWAP3 PUSH1 0x20 SWAP3 PUSH1 0x2 SSTORE DUP6 DUP6 MSTORE DUP5 DUP4 MSTORE DUP1 DUP6 KECCAK256 DUP3 DUP2 SLOAD ADD SWAP1 SSTORE MLOAD SWAP1 DUP2 MSTORE LOG3 DUP1 RETURN JUMPDEST PUSH4 0x4E487B71 PUSH1 0xE0 SHL DUP7 MSTORE PUSH1 0x11 SWAP1 MSTORE PUSH1 0x24 DUP6 REVERT JUMPDEST DUP5 PUSH1 0x24 SWAP3 MLOAD SWAP2 PUSH4 0xEC442F05 PUSH1 0xE0 SHL DUP4 MSTORE DUP3 ADD MSTORE REVERT JUMPDEST POP CALLER DUP7 MSTORE PUSH1 0x9 PUSH1 0x20 MSTORE DUP3 DUP7 KECCAK256 SLOAD PUSH1 0xFF AND PUSH2 0xBD5 JUMP JUMPDEST POP DUP2 PUSH1 0x5 SLOAD AND CALLER EQ PUSH2 0xBCE JUMP JUMPDEST POP DUP2 PUSH32 0x0 AND CALLER EQ PUSH2 0xBC7 JUMP JUMPDEST POP POP CALLVALUE PUSH2 0x217 JUMPI DUP2 PUSH1 0x3 NOT CALLDATASIZE ADD SLT PUSH2 0x217 JUMPI PUSH1 0x20 SWAP1 MLOAD PUSH1 0x12 DUP2 MSTORE RETURN JUMPDEST SWAP1 POP DUP3 CALLVALUE PUSH2 0x803 JUMPI PUSH1 0x60 CALLDATASIZE PUSH1 0x3 NOT ADD SLT PUSH2 0x803 JUMPI PUSH2 0xCE3 PUSH2 0xF3A JUMP JUMPDEST PUSH2 0xCEB PUSH2 0xF55 JUMP JUMPDEST SWAP2 PUSH1 0x44 CALLDATALOAD SWAP4 PUSH1 0x1 DUP1 PUSH1 0xA0 SHL SUB DUP4 AND DUP1 DUP4 MSTORE PUSH1 0x1 PUSH1 0x20 MSTORE DUP7 DUP4 KECCAK256 CALLER DUP5 MSTORE PUSH1 0x20 MSTORE DUP7 DUP4 KECCAK256 SLOAD SWAP2 PUSH1 0x0 NOT DUP4 LT PUSH2 0xD27 JUMPI JUMPDEST PUSH1 0x20 DUP9 PUSH2 0x3FA DUP10 DUP10 DUP10 PUSH2 0x1060 JUMP JUMPDEST DUP7 DUP4 LT PUSH2 0xD8F JUMPI DUP2 ISZERO PUSH2 0xD78 JUMPI CALLER ISZERO PUSH2 0xD61 JUMPI POP DUP3 MSTORE PUSH1 0x1 PUSH1 0x20 SWAP1 DUP2 MSTORE DUP7 DUP4 KECCAK256 CALLER DUP5 MSTORE DUP2 MSTORE SWAP2 DUP7 SWAP1 KECCAK256 SWAP1 DUP6 SWAP1 SUB SWAP1 SSTORE DUP3 SWAP1 PUSH2 0x3FA DUP8 PUSH2 0xD19 JUMP JUMPDEST DUP8 MLOAD PUSH4 0x4A1406B1 PUSH1 0xE1 SHL DUP2 MSTORE SWAP1 DUP2 ADD DUP5 SWAP1 MSTORE PUSH1 0x24 SWAP1 REVERT JUMPDEST DUP8 MLOAD PUSH4 0xE602DF05 PUSH1 0xE0 SHL DUP2 MSTORE SWAP1 DUP2 ADD DUP5 SWAP1 MSTORE PUSH1 0x24 SWAP1 REVERT JUMPDEST DUP8 MLOAD PUSH4 0x7DC7A0D9 PUSH1 0xE1 SHL DUP2 MSTORE CALLER SWAP2 DUP2 ADD SWAP2 DUP3 MSTORE PUSH1 0x20 DUP3 ADD SWAP4 SWAP1 SWAP4 MSTORE PUSH1 0x40 DUP2 ADD DUP8 SWAP1 MSTORE DUP3 SWAP2 POP PUSH1 0x60 ADD SUB SWAP1 REVERT JUMPDEST POP POP CALLVALUE PUSH2 0x217 JUMPI DUP2 PUSH1 0x3 NOT CALLDATASIZE ADD SLT PUSH2 0x217 JUMPI PUSH1 0x20 SWAP1 PUSH1 0x2 SLOAD SWAP1 MLOAD SWAP1 DUP2 MSTORE RETURN JUMPDEST POP POP CALLVALUE PUSH2 0x217 JUMPI DUP1 PUSH1 0x3 NOT CALLDATASIZE ADD SLT PUSH2 0x217 JUMPI PUSH1 0x20 SWAP1 PUSH2 0x3FA PUSH2 0xDFA PUSH2 0xF3A JUMP JUMPDEST PUSH1 0x24 CALLDATALOAD SWAP1 CALLER PUSH2 0x11C5 JUMP JUMPDEST POP POP CALLVALUE PUSH2 0x217 JUMPI DUP2 PUSH1 0x3 NOT CALLDATASIZE ADD SLT PUSH2 0x217 JUMPI DUP1 MLOAD SWAP1 DUP3 PUSH1 0x3 SLOAD PUSH2 0xE26 DUP2 PUSH2 0x1026 JUMP JUMPDEST DUP1 DUP6 MSTORE SWAP2 PUSH1 0x1 SWAP2 DUP1 DUP4 AND SWAP1 DUP2 ISZERO PUSH2 0x1EF JUMPI POP PUSH1 0x1 EQ PUSH2 0xE51 JUMPI POP POP POP PUSH2 0x184 DUP3 PUSH2 0x18E SWAP5 SUB DUP4 PUSH2 0xF6B JUMP JUMPDEST SWAP5 POP PUSH1 0x3 DUP6 MSTORE PUSH32 0xC2575A0E9E593C00F959F8C92F12DB2869C3395A3B0502D05E2516446F71F85B JUMPDEST DUP3 DUP7 LT PUSH2 0xE96 JUMPI POP POP POP PUSH2 0x184 DUP3 PUSH1 0x20 PUSH2 0x18E SWAP6 DUP3 ADD ADD SWAP5 PUSH2 0x172 JUMP JUMPDEST DUP1 SLOAD PUSH1 0x20 DUP8 DUP8 ADD DUP2 ADD SWAP2 SWAP1 SWAP2 MSTORE SWAP1 SWAP6 ADD SWAP5 DUP2 ADD PUSH2 0xE79 JUMP JUMPDEST DUP5 SWAP1 CALLVALUE PUSH2 0x217 JUMPI DUP2 PUSH1 0x3 NOT CALLDATASIZE ADD SLT PUSH2 0x217 JUMPI PUSH32 0x0 PUSH1 0x1 PUSH1 0x1 PUSH1 0xA0 SHL SUB AND DUP2 MSTORE PUSH1 0x20 SWAP1 RETURN JUMPDEST PUSH1 0x20 DUP1 DUP3 MSTORE DUP3 MLOAD DUP2 DUP4 ADD DUP2 SWAP1 MSTORE SWAP1 SWAP4 SWAP3 PUSH1 0x0 JUMPDEST DUP3 DUP2 LT PUSH2 0xF26 JUMPI POP POP PUSH1 0x40 SWAP3 SWAP4 POP PUSH1 0x0 DUP4 DUP3 DUP5 ADD ADD MSTORE PUSH1 0x1F DUP1 NOT SWAP2 ADD AND ADD ADD SWAP1 JUMP JUMPDEST DUP2 DUP2 ADD DUP7 ADD MLOAD DUP5 DUP3 ADD PUSH1 0x40 ADD MSTORE DUP6 ADD PUSH2 0xF04 JUMP JUMPDEST PUSH1 0x4 CALLDATALOAD SWAP1 PUSH1 0x1 PUSH1 0x1 PUSH1 0xA0 SHL SUB DUP3 AND DUP3 SUB PUSH2 0xF50 JUMPI JUMP JUMPDEST PUSH1 0x0 DUP1 REVERT JUMPDEST PUSH1 0x24 CALLDATALOAD SWAP1 PUSH1 0x1 PUSH1 0x1 PUSH1 0xA0 SHL SUB DUP3 AND DUP3 SUB PUSH2 0xF50 JUMPI JUMP JUMPDEST SWAP1 PUSH1 0x1F DUP1 NOT SWAP2 ADD AND DUP2 ADD SWAP1 DUP2 LT PUSH8 0xFFFFFFFFFFFFFFFF DUP3 GT OR PUSH2 0xF8D JUMPI PUSH1 0x40 MSTORE JUMP JUMPDEST PUSH4 0x4E487B71 PUSH1 0xE0 SHL PUSH1 0x0 MSTORE PUSH1 0x41 PUSH1 0x4 MSTORE PUSH1 0x24 PUSH1 0x0 REVERT JUMPDEST DUP2 PUSH1 0x1F DUP3 ADD SLT ISZERO PUSH2 0xF50 JUMPI DUP1 CALLDATALOAD SWAP1 PUSH8 0xFFFFFFFFFFFFFFFF DUP3 GT PUSH2 0xF8D JUMPI PUSH1 0x40 MLOAD SWAP3 PUSH2 0xFD8 PUSH1 0x1F DUP5 ADD PUSH1 0x1F NOT AND PUSH1 0x20 ADD DUP6 PUSH2 0xF6B JUMP JUMPDEST DUP3 DUP5 MSTORE PUSH1 0x20 DUP4 DUP4 ADD ADD GT PUSH2 0xF50 JUMPI DUP2 PUSH1 0x0 SWAP3 PUSH1 0x20 DUP1 SWAP4 ADD DUP4 DUP7 ADD CALLDATACOPY DUP4 ADD ADD MSTORE SWAP1 JUMP JUMPDEST PUSH1 0x5 SLOAD PUSH1 0x1 PUSH1 0x1 PUSH1 0xA0 SHL SUB AND CALLER SUB PUSH2 0x100E JUMPI JUMP JUMPDEST PUSH1 0x40 MLOAD PUSH4 0x118CDAA7 PUSH1 0xE0 SHL DUP2 MSTORE CALLER PUSH1 0x4 DUP3 ADD MSTORE PUSH1 0x24 SWAP1 REVERT JUMPDEST SWAP1 PUSH1 0x1 DUP3 DUP2 SHR SWAP3 AND DUP1 ISZERO PUSH2 0x1056 JUMPI JUMPDEST PUSH1 0x20 DUP4 LT EQ PUSH2 0x1040 JUMPI JUMP JUMPDEST PUSH4 0x4E487B71 PUSH1 0xE0 SHL PUSH1 0x0 MSTORE PUSH1 0x22 PUSH1 0x4 MSTORE PUSH1 0x24 PUSH1 0x0 REVERT JUMPDEST SWAP2 PUSH1 0x7F AND SWAP2 PUSH2 0x1035 JUMP JUMPDEST PUSH1 0x1 PUSH1 0x1 PUSH1 0xA0 SHL SUB SWAP3 DUP4 DUP3 AND SWAP3 SWAP1 SWAP2 SWAP1 DUP4 ISZERO PUSH2 0x11AC JUMPI DUP5 AND SWAP4 DUP5 ISZERO PUSH2 0x1193 JUMPI PUSH32 0x0 AND DUP1 DUP5 EQ ISZERO SWAP1 DUP2 PUSH2 0x1188 JUMPI JUMPDEST POP PUSH2 0x1143 JUMPI JUMPDEST PUSH1 0x0 SWAP1 DUP4 DUP3 MSTORE DUP2 PUSH1 0x20 MSTORE PUSH1 0x40 DUP3 KECCAK256 SLOAD SWAP1 DUP4 DUP3 LT PUSH2 0x1111 JUMPI POP SWAP2 PUSH1 0x40 DUP3 DUP3 PUSH32 0xDDF252AD1BE2C89B69C2B068FC378DAA952BA7F163C4A11628F55A4DF523B3EF SWAP6 DUP8 PUSH1 0x20 SWAP7 MSTORE DUP3 DUP7 MSTORE SUB DUP3 DUP3 KECCAK256 SSTORE DUP7 DUP2 MSTORE KECCAK256 DUP2 DUP2 SLOAD ADD SWAP1 SSTORE PUSH1 0x40 MLOAD SWAP1 DUP2 MSTORE LOG3 JUMP JUMPDEST PUSH1 0x40 MLOAD PUSH4 0x391434E3 PUSH1 0xE2 SHL DUP2 MSTORE PUSH1 0x1 PUSH1 0x1 PUSH1 0xA0 SHL SUB SWAP2 SWAP1 SWAP2 AND PUSH1 0x4 DUP3 ADD MSTORE PUSH1 0x24 DUP2 ADD SWAP2 SWAP1 SWAP2 MSTORE PUSH1 0x44 DUP2 ADD DUP4 SWAP1 MSTORE PUSH1 0x64 SWAP1 REVERT JUMPDEST PUSH1 0xFF PUSH1 0x8 SLOAD AND PUSH2 0x10B2 JUMPI PUSH1 0x40 MLOAD PUSH3 0x461BCD PUSH1 0xE5 SHL DUP2 MSTORE PUSH1 0x20 PUSH1 0x4 DUP3 ADD MSTORE PUSH1 0x13 PUSH1 0x24 DUP3 ADD MSTORE PUSH19 0x151C98591A5B99C81B9BDD08195B98589B1959 PUSH1 0x6A SHL PUSH1 0x44 DUP3 ADD MSTORE PUSH1 0x64 SWAP1 REVERT JUMPDEST SWAP1 POP DUP5 EQ ISZERO CODESIZE PUSH2 0x10AC JUMP JUMPDEST PUSH1 0x40 MLOAD PUSH4 0xEC442F05 PUSH1 0xE0 SHL DUP2 MSTORE PUSH1 0x0 PUSH1 0x4 DUP3 ADD MSTORE PUSH1 0x24 SWAP1 REVERT JUMPDEST PUSH1 0x40 MLOAD PUSH4 0x4B637E8F PUSH1 0xE1 SHL DUP2 MSTORE PUSH1 0x0 PUSH1 0x4 DUP3 ADD MSTORE PUSH1 0x24 SWAP1 REVERT JUMPDEST PUSH1 0x1 PUSH1 0x1 PUSH1 0xA0 SHL SUB SWAP1 DUP2 AND SWAP2 DUP3 ISZERO PUSH2 0x123F JUMPI AND SWAP2 DUP3 ISZERO PUSH2 0x1226 JUMPI PUSH1 0x20 PUSH32 0x8C5BE1E5EBEC7D5BD14F71427D1E84F3DD0314C0F7B2291E5B200AC8C7C3B925 SWAP2 DUP4 PUSH1 0x0 MSTORE PUSH1 0x1 DUP3 MSTORE PUSH1 0x40 PUSH1 0x0 KECCAK256 DUP6 PUSH1 0x0 MSTORE DUP3 MSTORE DUP1 PUSH1 0x40 PUSH1 0x0 KECCAK256 SSTORE PUSH1 0x40 MLOAD SWAP1 DUP2 MSTORE LOG3 JUMP JUMPDEST PUSH1 0x40 MLOAD PUSH4 0x4A1406B1 PUSH1 0xE1 SHL DUP2 MSTORE PUSH1 0x0 PUSH1 0x4 DUP3 ADD MSTORE PUSH1 0x24 SWAP1 REVERT JUMPDEST PUSH1 0x40 MLOAD PUSH4 0xE602DF05 PUSH1 0xE0 SHL DUP2 MSTORE PUSH1 0x0 PUSH1 0x4 DUP3 ADD MSTORE PUSH1 0x24 SWAP1 REVERT JUMPDEST SWAP1 PUSH1 0x1 PUSH1 0x1 PUSH1 0xA0 SHL SUB DUP3 AND SWAP1 DUP2 ISZERO PUSH2 0x11AC JUMPI PUSH1 0x0 SWAP3 DUP3 DUP5 MSTORE DUP4 PUSH1 0x20 MSTORE PUSH1 0x40 DUP5 KECCAK256 SLOAD SWAP1 DUP3 DUP3 LT PUSH2 0x12C5 JUMPI POP DUP2 PUSH32 0xDDF252AD1BE2C89B69C2B068FC378DAA952BA7F163C4A11628F55A4DF523B3EF SWAP3 PUSH1 0x20 SWAP3 DUP6 DUP8 MSTORE DUP7 DUP5 MSTORE SUB PUSH1 0x40 DUP7 KECCAK256 SSTORE DUP1 PUSH1 0x2 SLOAD SUB PUSH1 0x2 SSTORE PUSH1 0x40 MLOAD SWAP1 DUP2 MSTORE LOG3 JUMP JUMPDEST PUSH1 0x40 MLOAD PUSH4 0x391434E3 PUSH1 0xE2 SHL DUP2 MSTORE PUSH1 0x1 PUSH1 0x1 PUSH1 0xA0 SHL SUB SWAP2 SWAP1 SWAP2 AND PUSH1 0x4 DUP3 ADD MSTORE PUSH1 0x24 DUP2 ADD SWAP2 SWAP1 SWAP2 MSTORE PUSH1 0x44 DUP2 ADD DUP3 SWAP1 MSTORE PUSH1 0x64 SWAP1 REVERT JUMPDEST ISZERO PUSH2 0x12FE JUMPI JUMP JUMPDEST PUSH1 0x40 MLOAD PUSH3 0x461BCD PUSH1 0xE5 SHL DUP2 MSTORE PUSH1 0x20 PUSH1 0x4 DUP3 ADD MSTORE PUSH1 0xE PUSH1 0x24 DUP3 ADD MSTORE PUSH14 0x139BDD08185D5D1A1BDC9A5E9959 PUSH1 0x92 SHL PUSH1 0x44 DUP3 ADD MSTORE PUSH1 0x64 SWAP1 REVERT INVALID LOG2 PUSH5 0x6970667358 0x22 SLT KECCAK256 XOR PUSH3 0x3635A3 INVALID 0x5E 0xF 0xB0 SWAP7 0xAC 0xAD PUSH30 0xB31D8DBA84CB658FD8741074FAD014CE0235B364736F6C63430008140033 "},"methodIdentifiers":{"TOTAL_SUPPLY()":"902d55a5","allowance(address,address)":"dd62ed3e","approve(address,uint256)":"095ea7b3","authorizedMinters(address)":"aa2fe91b","balanceOf(address)":"70a08231","burn(uint256)":"42966c68","burnFrom(address,uint256)":"79cc6790","decimals()":"313ce567","description()":"7284e416","enableTrading()":"8a8c523c","factory()":"c45a0155","launchpad()":"02669b52","mint(address,uint256)":"40c10f19","name()":"06fdde03","owner()":"8da5cb5b","renounceOwnership()":"715018a6","setAuthorizedMinter(address,bool)":"ed58bad8","symbol()":"95d89b41","tokenImageUri()":"fc04b5e1","totalSupply()":"18160ddd","tradingEnabled()":"4ada218b","transfer(address,uint256)":"a9059cbb","transferFrom(address,address,uint256)":"23b872dd","transferOwnership(address)":"f2fde38b","updateMetadata(string,string)":"56ce0e6c"}}}}}