{
  "_format": "hh-sol-artifact-1",
  "contractName": "MemeToken",
  "sourceName": "contracts/MemeToken.sol",
  "abi": [
    {
      "inputs": [
        {
          "internalType": "string",
          "name": "name",
          "type": "string"
        },
        {
          "internalType": "string",
          "name": "symbol",
          "type": "string"
        },
        {
          "internalType": "string",
          "name": "imageUri",
          "type": "string"
        },
        {
          "internalType": "string",
          "name": "desc",
          "type": "string"
        },
        {
          "internalType": "address",
          "name": "creator",
          "type": "address"
        },
        {
          "internalType": "address",
          "name": "_launchpad",
          "type": "address"
        }
      ],
      "stateMutability": "nonpayable",
      "type": "constructor"
    },
    {
      "inputs": [
        {
          "internalType": "address",
          "name": "spender",
          "type": "address"
        },
        {
          "internalType": "uint256",
          "name": "allowance",
          "type": "uint256"
        },
        {
          "internalType": "uint256",
          "name": "needed",
          "type": "uint256"
        }
      ],
      "name": "ERC20InsufficientAllowance",
      "type": "error"
    },
    {
      "inputs": [
        {
          "internalType": "address",
          "name": "sender",
          "type": "address"
        },
        {
          "internalType": "uint256",
          "name": "balance",
          "type": "uint256"
        },
        {
          "internalType": "uint256",
          "name": "needed",
          "type": "uint256"
        }
      ],
      "name": "ERC20InsufficientBalance",
      "type": "error"
    },
    {
      "inputs": [
        {
          "internalType": "address",
          "name": "approver",
          "type": "address"
        }
      ],
      "name": "ERC20InvalidApprover",
      "type": "error"
    },
    {
      "inputs": [
        {
          "internalType": "address",
          "name": "receiver",
          "type": "address"
        }
      ],
      "name": "ERC20InvalidReceiver",
      "type": "error"
    },
    {
      "inputs": [
        {
          "internalType": "address",
          "name": "sender",
          "type": "address"
        }
      ],
      "name": "ERC20InvalidSender",
      "type": "error"
    },
    {
      "inputs": [
        {
          "internalType": "address",
          "name": "spender",
          "type": "address"
        }
      ],
      "name": "ERC20InvalidSpender",
      "type": "error"
    },
    {
      "inputs": [
        {
          "internalType": "address",
          "name": "owner",
          "type": "address"
        }
      ],
      "name": "OwnableInvalidOwner",
      "type": "error"
    },
    {
      "inputs": [
        {
          "internalType": "address",
          "name": "account",
          "type": "address"
        }
      ],
      "name": "OwnableUnauthorizedAccount",
      "type": "error"
    },
    {
      "anonymous": false,
      "inputs": [
        {
          "indexed": true,
          "internalType": "address",
          "name": "owner",
          "type": "address"
        },
        {
          "indexed": true,
          "internalType": "address",
          "name": "spender",
          "type": "address"
        },
        {
          "indexed": false,
          "internalType": "uint256",
          "name": "value",
          "type": "uint256"
        }
      ],
      "name": "Approval",
      "type": "event"
    },
    {
      "anonymous": false,
      "inputs": [
        {
          "indexed": true,
          "internalType": "address",
          "name": "previousOwner",
          "type": "address"
        },
        {
          "indexed": true,
          "internalType": "address",
          "name": "newOwner",
          "type": "address"
        }
      ],
      "name": "OwnershipTransferred",
      "type": "event"
    },
    {
      "anonymous": false,
      "inputs": [
        {
          "indexed": true,
          "internalType": "address",
          "name": "from",
          "type": "address"
        },
        {
          "indexed": true,
          "internalType": "address",
          "name": "to",
          "type": "address"
        },
        {
          "indexed": false,
          "internalType": "uint256",
          "name": "value",
          "type": "uint256"
        }
      ],
      "name": "Transfer",
      "type": "event"
    },
    {
      "inputs": [],
      "name": "TOTAL_SUPPLY",
      "outputs": [
        {
          "internalType": "uint256",
          "name": "",
          "type": "uint256"
        }
      ],
      "stateMutability": "view",
      "type": "function"
    },
    {
      "inputs": [
        {
          "internalType": "address",
          "name": "owner",
          "type": "address"
        },
        {
          "internalType": "address",
          "name": "spender",
          "type": "address"
        }
      ],
      "name": "allowance",
      "outputs": [
        {
          "internalType": "uint256",
          "name": "",
          "type": "uint256"
        }
      ],
      "stateMutability": "view",
      "type": "function"
    },
    {
      "inputs": [
        {
          "internalType": "address",
          "name": "spender",
          "type": "address"
        },
        {
          "internalType": "uint256",
          "name": "value",
          "type": "uint256"
        }
      ],
      "name": "approve",
      "outputs": [
        {
          "internalType": "bool",
          "name": "",
          "type": "bool"
        }
      ],
      "stateMutability": "nonpayable",
      "type": "function"
    },
    {
      "inputs": [
        {
          "internalType": "address",
          "name": "",
          "type": "address"
        }
      ],
      "name": "authorizedMinters",
      "outputs": [
        {
          "internalType": "bool",
          "name": "",
          "type": "bool"
        }
      ],
      "stateMutability": "view",
      "type": "function"
    },
    {
      "inputs": [
        {
          "internalType": "address",
          "name": "account",
          "type": "address"
        }
      ],
      "name": "balanceOf",
      "outputs": [
        {
          "internalType": "uint256",
          "name": "",
          "type": "uint256"
        }
      ],
      "stateMutability": "view",
      "type": "function"
    },
    {
      "inputs": [
        {
          "internalType": "uint256",
          "name": "value",
          "type": "uint256"
        }
      ],
      "name": "burn",
      "outputs": [],
      "stateMutability": "nonpayable",
      "type": "function"
    },
    {
      "inputs": [
        {
          "internalType": "address",
          "name": "account",
          "type": "address"
        },
        {
          "internalType": "uint256",
          "name": "amount",
          "type": "uint256"
        }
      ],
      "name": "burnFrom",
      "outputs": [],
      "stateMutability": "nonpayable",
      "type": "function"
    },
    {
      "inputs": [],
      "name": "decimals",
      "outputs": [
        {
          "internalType": "uint8",
          "name": "",
          "type": "uint8"
        }
      ],
      "stateMutability": "view",
      "type": "function"
    },
    {
      "inputs": [],
      "name": "description",
      "outputs": [
        {
          "internalType": "string",
          "name": "",
          "type": "string"
        }
      ],
      "stateMutability": "view",
      "type": "function"
    },
    {
      "inputs": [],
      "name": "enableTrading",
      "outputs": [],
      "stateMutability": "nonpayable",
      "type": "function"
    },
    {
      "inputs": [],
      "name": "factory",
      "outputs": [
        {
          "internalType": "address",
          "name": "",
          "type": "address"
        }
      ],
      "stateMutability": "view",
      "type": "function"
    },
    {
      "inputs": [],
      "name": "launchpad",
      "outputs": [
        {
          "internalType": "address",
          "name": "",
          "type": "address"
        }
      ],
      "stateMutability": "view",
      "type": "function"
    },
    {
      "inputs": [
        {
          "internalType": "address",
          "name": "to",
          "type": "address"
        },
        {
          "internalType": "uint256",
          "name": "amount",
          "type": "uint256"
        }
      ],
      "name": "mint",
      "outputs": [],
      "stateMutability": "nonpayable",
      "type": "function"
    },
    {
      "inputs": [],
      "name": "name",
      "outputs": [
        {
          "internalType": "string",
          "name": "",
          "type": "string"
        }
      ],
      "stateMutability": "view",
      "type": "function"
    },
    {
      "inputs": [],
      "name": "owner",
      "outputs": [
        {
          "internalType": "address",
          "name": "",
          "type": "address"
        }
      ],
      "stateMutability": "view",
      "type": "function"
    },
    {
      "inputs": [],
      "name": "renounceOwnership",
      "outputs": [],
      "stateMutability": "nonpayable",
      "type": "function"
    },
    {
      "inputs": [
        {
          "internalType": "address",
          "name": "minter",
          "type": "address"
        },
        {
          "internalType": "bool",
          "name": "authorized",
          "type": "bool"
        }
      ],
      "name": "setAuthorizedMinter",
      "outputs": [],
      "stateMutability": "nonpayable",
      "type": "function"
    },
    {
      "inputs": [],
      "name": "symbol",
      "outputs": [
        {
          "internalType": "string",
          "name": "",
          "type": "string"
        }
      ],
      "stateMutability": "view",
      "type": "function"
    },
    {
      "inputs": [],
      "name": "tokenImageUri",
      "outputs": [
        {
          "internalType": "string",
          "name": "",
          "type": "string"
        }
      ],
      "stateMutability": "view",
      "type": "function"
    },
    {
      "inputs": [],
      "name": "totalSupply",
      "outputs": [
        {
          "internalType": "uint256",
          "name": "",
          "type": "uint256"
        }
      ],
      "stateMutability": "view",
      "type": "function"
    },
    {
      "inputs": [],
      "name": "tradingEnabled",
      "outputs": [
        {
          "internalType": "bool",
          "name": "",
          "type": "bool"
        }
      ],
      "stateMutability": "view",
      "type": "function"
    },
    {
      "inputs": [
        {
          "internalType": "address",
          "name": "to",
          "type": "address"
        },
        {
          "internalType": "uint256",
          "name": "value",
          "type": "uint256"
        }
      ],
      "name": "transfer",
      "outputs": [
        {
          "internalType": "bool",
          "name": "",
          "type": "bool"
        }
      ],
      "stateMutability": "nonpayable",
      "type": "function"
    },
    {
      "inputs": [
        {
          "internalType": "address",
          "name": "from",
          "type": "address"
        },
        {
          "internalType": "address",
          "name": "to",
          "type": "address"
        },
        {
          "internalType": "uint256",
          "name": "value",
          "type": "uint256"
        }
      ],
      "name": "transferFrom",
      "outputs": [
        {
          "internalType": "bool",
          "name": "",
          "type": "bool"
        }
      ],
      "stateMutability": "nonpayable",
      "type": "function"
    },
    {
      "inputs": [
        {
          "internalType": "address",
          "name": "newOwner",
          "type": "address"
        }
      ],
      "name": "transferOwnership",
      "outputs": [],
      "stateMutability": "nonpayable",
      "type": "function"
    },
    {
      "inputs": [
        {
          "internalType": "string",
          "name": "imageUri",
          "type": "string"
        },
        {
          "internalType": "string",
          "name": "desc",
          "type": "string"
        }
      ],
      "name": "updateMetadata",
      "outputs": [],
      "stateMutability": "nonpayable",
      "type": "function"
    }
  ],
  "bytecode": "0x604060c08152346200075b5762001b78803803806200001e8162000760565b928339810160c0828203126200075b5781516001600160401b0392908381116200075b57826200005091830162000786565b91602092838301518581116200075b57826200006e91850162000786565b94868401518181116200075b57836200008991860162000786565b926060850151908282116200075b57620000a591860162000786565b92620000c260a0620000ba60808801620007f8565b9601620007f8565b9383519083821162000658576003928354926001968785811c9516801562000750575b8b8610146200073a5781908b601f96878111620006e1575b50508b908683116001146200067a576000926200066e575b505060001982871b1c191690871b1784555b8951858111620006585760049a8b548881811c911680156200064d575b8c8210146200053557908b8287859411620005f4575b50508b908683116001146200058d5760009262000581575b505060001982871b1c191690871b178a555b6001600160a01b039788169081156200056a57600580546001600160a01b03198116841782559092908a167f8be0079c531659141344cd1fd0a4f28419497f9722a3daafe3b4186f6b6457e0600080a380519086821162000555576006548881811c911680156200054a575b8c8210146200053557908b8287859411620004dd575b50508b90868311600114620004725760009262000466575b505060001982871b1c191690871b176006555b81519485116200045157600754908682811c9216801562000446575b8a8310146200043157838211620003e7575b5050879184116001146200037a579383949184926000956200036e575b50501b92600019911b1c1916176007555b806080523360a0521691821562000357576002546b033b2e3c9fd0803ce80000009182820180921162000342575060025560008381528083528481208054830190558451918252917fddf252ad1be2c89b69c2b068fc378daa952ba7f163c4a11628f55a4df523b3ef91a35161136a90816200080e823960805181818161054701528181610b9e01528181610ec20152611081015260a051818181610363015281816105bd0152818161060f0152610c840152f35b601190634e487b7160e01b6000525260246000fd5b602490600085519163ec442f0560e01b8352820152fd5b0151935038806200027c565b9190601f19841692600760005284896000209460005b8b89838310620003cf5750505010620003b4575b50505050811b016007556200028d565b01519060f884600019921b161c1916905538808080620003a4565b86860151895590970196948501948893500162000390565b6007600052896000209084808801821c8301938c891062000427575b01901c019086905b8281106200041a57506200025f565b600081550186906200040b565b9350829362000403565b60228b634e487b7160e01b6000525260246000fd5b91607f16916200024d565b60418a634e487b7160e01b6000525260246000fd5b0151905038806200021e565b899350908c91601f198416600660005283600020936000905b828210620004c55750508411620004ac575b505050811b0160065562000231565b015160001983891b60f8161c191690553880806200049d565b8385015186558d979095019493840193018f6200048b565b909192506006600052868260002091818601871c83019386106200052b575b918b918695949301871c01915b8281106200051b57508d915062000206565b600081558594508b910162000509565b92508192620004fc565b60228d634e487b7160e01b6000525260246000fd5b90607f1690620001f0565b60418c634e487b7160e01b6000525260246000fd5b8b51631e4fbdf760e01b81526000818d0152602490fd5b01519050388062000172565b60008e81528d81208b9550929190601f198516908f5b828210620005dc5750508411620005c3575b505050811b018a5562000184565b015160001983891b60f8161c19169055388080620005b5565b8385015186558d979095019493840193018f620005a3565b909192508d60005286826000209181860160051c830193861062000643575b918b91869594930160051c01915b8281106200063357508d91506200015a565b600081558594508b910162000621565b9250819262000613565b90607f169062000144565b634e487b7160e01b600052604160045260246000fd5b01519050388062000115565b60008881528d81208b9550929190601f198516908f5b828210620006c95750508411620006b0575b505050811b01845562000127565b015160001983891b60f8161c19169055388080620006a2565b8385015186558d979095019493840193018f62000690565b909192508760005286826000209181860160051c830193861062000730575b918b91869594930160051c01915b8281106200072057508d9150620000fd565b600081558594508b91016200070e565b9250819262000700565b634e487b7160e01b600052602260045260246000fd5b94607f1694620000e5565b600080fd5b6040519190601f01601f191682016001600160401b038111838210176200065857604052565b919080601f840112156200075b5782516001600160401b0381116200065857602090620007bc601f8201601f1916830162000760565b928184528282870101116200075b5760005b818110620007e457508260009394955001015290565b8581018301518482018401528201620007ce565b51906001600160a01b03821682036200075b5756fe608060408181526004918236101561001657600080fd5b600092833560e01c91826302669b5214610eae5750816306fdde0314610e04578163095ea7b314610dda57816318160ddd14610dbb57816323b872dd14610cc7578163313ce56714610cab57816340c10f1914610b7257816342966c6814610b545781634ada218b14610b3057816356ce0e6c1461083d57816370a0823114610806578163715018a6146107a65781637284e416146106fc57816379cc6790146105e65781638a8c523c146105265781638da5cb5b146104fd578163902d55a5146104d657816395d89b4114610401578163a9059cbb146103d0578163aa2fe91b14610392578163c45a01551461034e578163dd62ed3e14610305578163ed58bad8146102af578163f2fde38b1461021b575063fc04b5e11461013857600080fd5b346102175781600319360112610217578051908260065461015881611026565b808552916001918083169081156101ef5750600114610192575b5050506101848261018e940383610f6b565b5191829182610ef1565b0390f35b9450600685527ff652222313e28459528d920b65115c16c04f3efc82aaedc97be59f3f377c0d3f5b8286106101d75750505061018482602061018e9582010194610172565b805460208787018101919091529095019481016101ba565b61018e97508693506020925061018494915060ff191682840152151560051b82010194610172565b5080fd5b9050346102ab5760203660031901126102ab57610236610f3a565b9061023f610ffa565b6001600160a01b03918216928315610295575050600554826bffffffffffffffffffffffff60a01b821617600555167f8be0079c531659141344cd1fd0a4f28419497f9722a3daafe3b4186f6b6457e08380a380f35b51631e4fbdf760e01b8152908101849052602490fd5b8280fd5b5050346102175780600319360112610217576102c9610f3a565b9060243591821515809303610301576102e0610ffa565b60018060a01b03168352600960205282209060ff8019835416911617905580f35b8380fd5b50503461021757806003193601126102175780602092610323610f3a565b61032b610f55565b6001600160a01b0391821683526001865283832091168252845220549051908152f35b505034610217578160031936011261021757517f00000000000000000000000000000000000000000000000000000000000000006001600160a01b03168152602090f35b5050346102175760203660031901126102175760209160ff9082906001600160a01b036103bd610f3a565b1681526009855220541690519015158152f35b5050346102175780600319360112610217576020906103fa6103f0610f3a565b6024359033611060565b5160018152f35b919050346102ab57826003193601126102ab578051918381549061042482611026565b808652926001928084169081156104ab575060011461044f575b61018e8686610184828b0383610f6b565b815294507f8a35acfbc15ff81a39ae7d344fd709f28e8600b4aa8c65c6b64bfe7fe36bd19b5b8286106104935750505061018482602061018e95820101943861043e565b80546020878701810191909152909501948101610475565b905061018e97508693506020925061018494915060ff191682840152151560051b820101943861043e565b505034610217578160031936011261021757602090516b033b2e3c9fd0803ce80000008152f35b50503461021757816003193601126102175760055490516001600160a01b039091168152602090f35b5050346102175781600319360112610217576105869060018060a01b0390817f00000000000000000000000000000000000000000000000000000000000000001633149182156105ba575b82156105ac575b508115610596575b506112f7565b600160ff19600854161760085580f35b60ff915033845260096020528320541638610580565b600554163314915038610578565b337f00000000000000000000000000000000000000000000000000000000000000008216149250610571565b838334610217578060031936011261021757610600610f3a565b602435916001600160a01b03337f000000000000000000000000000000000000000000000000000000000000000082161415806106ee575b61064b575b846106488585611258565b80f35b82168452600160205280842033855260205280842054908382106106a0575082810390811161068d576106489394506106859033836111c5565b83928561063d565b634e487b7160e01b845260118552602484fd5b5162461bcd60e51b81526020818701526024808201527f45524332303a206275726e20616d6f756e74206578636565647320616c6c6f77604482015263616e636560e01b6064820152608490fd5b508060055416331415610638565b5050346102175781600319360112610217578051908260075461071e81611026565b808552916001918083169081156101ef5750600114610749575050506101848261018e940383610f6b565b9450600785527fa66cc928b5edb82af9bd49922954155ab7b0942694bea4ce44661d9a8736c6885b82861061078e5750505061018482602061018e9582010194610172565b80546020878701810191909152909501948101610771565b83346108035780600319360112610803576107bf610ffa565b600580546001600160a01b0319811690915581906001600160a01b03167f8be0079c531659141344cd1fd0a4f28419497f9722a3daafe3b4186f6b6457e08280a380f35b80fd5b5050346102175760203660031901126102175760209181906001600160a01b0361082e610f3a565b16815280845220549051908152f35b838334610217573660031901126108035767ffffffffffffffff82358181116102ab5761086d9036908501610fa3565b92602435828111610301576108859036908301610fa3565b9061088e610ffa565b8451838111610b1d57806108a3600654611026565b96601f97888111610ab1575b50602090888311600114610a2e578792610a23575b50508160011b916000199060031b1c1916176006555b8151928311610a1057506108ef600754611026565b8481116109b0575b50602093821160011461093257928293829392610927575b50508160011b916000199060031b1c19161760075580f35b01519050838061090f565b60078352601f198216937fa66cc928b5edb82af9bd49922954155ab7b0942694bea4ce44661d9a8736c68891845b868110610998575083600195961061097f575b505050811b0160075580f35b015160001960f88460031b161c19169055838080610973565b91926020600181928685015181550194019201610960565b600784527fa66cc928b5edb82af9bd49922954155ab7b0942694bea4ce44661d9a8736c6888580850160051c82019260208610610a07575b0160051c01905b8181106109fc57506108f7565b8481556001016109ef565b925081926109e8565b634e487b7160e01b845260419052602483fd5b0151905087806108c4565b600688527ff652222313e28459528d920b65115c16c04f3efc82aaedc97be59f3f377c0d3f9250601f198416885b818110610a995750908460019594939210610a80575b505050811b016006556108da565b015160001960f88460031b161c19169055878080610a72565b92936020600181928786015181550195019301610a5c565b909150600687527ff652222313e28459528d920b65115c16c04f3efc82aaedc97be59f3f377c0d3f8880850160051c82019260208610610b14575b9085949392910160051c01905b818110610b0657506108af565b888155849350600101610af9565b92508192610aec565b634e487b7160e01b855260418252602485fd5b50503461021757816003193601126102175760209060ff6008541690519015158152f35b83903461021757602036600319011261021757610648903533611258565b919050346102ab57806003193601126102ab57610b8d610f3a565b60243591906001600160a01b0390337f00000000000000000000000000000000000000000000000000000000000000008316148015610c80575b8015610c73575b8015610c5e575b610bde906112f7565b16928315610c495760025490838201809211610c36575084927fddf252ad1be2c89b69c2b068fc378daa952ba7f163c4a11628f55a4df523b3ef9260209260025585855284835280852082815401905551908152a380f35b634e487b7160e01b865260119052602485fd5b84602492519163ec442f0560e01b8352820152fd5b5033865260096020528286205460ff16610bd5565b5081600554163314610bce565b50817f0000000000000000000000000000000000000000000000000000000000000000163314610bc7565b5050346102175781600319360112610217576020905160128152f35b9050823461080357606036600319011261080357610ce3610f3a565b610ceb610f55565b916044359360018060a01b038316808352600160205286832033845260205286832054916000198310610d27575b6020886103fa898989611060565b868310610d8f578115610d78573315610d61575082526001602090815286832033845281529186902090859003905582906103fa87610d19565b8751634a1406b160e11b8152908101849052602490fd5b875163e602df0560e01b8152908101849052602490fd5b8751637dc7a0d960e11b8152339181019182526020820193909352604081018790528291506060010390fd5b5050346102175781600319360112610217576020906002549051908152f35b5050346102175780600319360112610217576020906103fa610dfa610f3a565b60243590336111c5565b50503461021757816003193601126102175780519082600354610e2681611026565b808552916001918083169081156101ef5750600114610e51575050506101848261018e940383610f6b565b9450600385527fc2575a0e9e593c00f959f8c92f12db2869c3395a3b0502d05e2516446f71f85b5b828610610e965750505061018482602061018e9582010194610172565b80546020878701810191909152909501948101610e79565b8490346102175781600319360112610217577f00000000000000000000000000000000000000000000000000000000000000006001600160a01b03168152602090f35b6020808252825181830181905290939260005b828110610f2657505060409293506000838284010152601f8019910116010190565b818101860151848201604001528501610f04565b600435906001600160a01b0382168203610f5057565b600080fd5b602435906001600160a01b0382168203610f5057565b90601f8019910116810190811067ffffffffffffffff821117610f8d57604052565b634e487b7160e01b600052604160045260246000fd5b81601f82011215610f505780359067ffffffffffffffff8211610f8d5760405192610fd8601f8401601f191660200185610f6b565b82845260208383010111610f5057816000926020809301838601378301015290565b6005546001600160a01b0316330361100e57565b60405163118cdaa760e01b8152336004820152602490fd5b90600182811c92168015611056575b602083101461104057565b634e487b7160e01b600052602260045260246000fd5b91607f1691611035565b6001600160a01b03928382169290919083156111ac578416938415611193577f000000000000000000000000000000000000000000000000000000000000000016808414159081611188575b50611143575b60009083825281602052604082205490838210611111575091604082827fddf252ad1be2c89b69c2b068fc378daa952ba7f163c4a11628f55a4df523b3ef958760209652828652038282205586815220818154019055604051908152a3565b60405163391434e360e21b81526001600160a01b03919091166004820152602481019190915260448101839052606490fd5b60ff600854166110b25760405162461bcd60e51b8152602060048201526013602482015272151c98591a5b99c81b9bdd08195b98589b1959606a1b6044820152606490fd5b9050841415386110ac565b60405163ec442f0560e01b815260006004820152602490fd5b604051634b637e8f60e11b815260006004820152602490fd5b6001600160a01b0390811691821561123f57169182156112265760207f8c5be1e5ebec7d5bd14f71427d1e84f3dd0314c0f7b2291e5b200ac8c7c3b925918360005260018252604060002085600052825280604060002055604051908152a3565b604051634a1406b160e11b815260006004820152602490fd5b60405163e602df0560e01b815260006004820152602490fd5b906001600160a01b0382169081156111ac57600092828452836020526040842054908282106112c55750817fddf252ad1be2c89b69c2b068fc378daa952ba7f163c4a11628f55a4df523b3ef926020928587528684520360408620558060025403600255604051908152a3565b60405163391434e360e21b81526001600160a01b03919091166004820152602481019190915260448101829052606490fd5b156112fe57565b60405162461bcd60e51b815260206004820152600e60248201526d139bdd08185d5d1a1bdc9a5e995960921b6044820152606490fdfea264697066735822122018623635a3fe5e0fb096acad7db31d8dba84cb658fd8741074fad014ce0235b364736f6c63430008140033",
  "linkReferences": {},
  "deployedLinkReferences": {}
}