{
  "_format": "hh-sol-artifact-1",
  "contractName": "FeeManager",
  "sourceName": "contracts/FeeManager.sol",
  "abi": [
    {
      "inputs": [
        {
          "internalType": "address",
          "name": "_registry",
          "type": "address"
        },
        {
          "internalType": "address",
          "name": "_treasury",
          "type": "address"
        }
      ],
      "stateMutability": "nonpayable",
      "type": "constructor"
    },
    {
      "inputs": [
        {
          "internalType": "address",
          "name": "owner",
          "type": "address"
        }
      ],
      "name": "OwnableInvalidOwner",
      "type": "error"
    },
    {
      "inputs": [
        {
          "internalType": "address",
          "name": "account",
          "type": "address"
        }
      ],
      "name": "OwnableUnauthorizedAccount",
      "type": "error"
    },
    {
      "inputs": [],
      "name": "ReentrancyGuardReentrantCall",
      "type": "error"
    },
    {
      "anonymous": false,
      "inputs": [
        {
          "indexed": true,
          "internalType": "address",
          "name": "token",
          "type": "address"
        },
        {
          "indexed": true,
          "internalType": "address",
          "name": "from",
          "type": "address"
        },
        {
          "indexed": false,
          "internalType": "uint256",
          "name": "amount",
          "type": "uint256"
        },
        {
          "indexed": false,
          "internalType": "string",
          "name": "transactionType",
          "type": "string"
        }
      ],
      "name": "FeeCollected",
      "type": "event"
    },
    {
      "anonymous": false,
      "inputs": [
        {
          "indexed": true,
          "internalType": "address",
          "name": "previousOwner",
          "type": "address"
        },
        {
          "indexed": true,
          "internalType": "address",
          "name": "newOwner",
          "type": "address"
        }
      ],
      "name": "OwnershipTransferred",
      "type": "event"
    },
    {
      "anonymous": false,
      "inputs": [
        {
          "indexed": true,
          "internalType": "address",
          "name": "user",
          "type": "address"
        },
        {
          "indexed": false,
          "internalType": "uint256",
          "name": "amount",
          "type": "uint256"
        }
      ],
      "name": "RewardsClaimed",
      "type": "event"
    },
    {
      "anonymous": false,
      "inputs": [
        {
          "indexed": true,
          "internalType": "address",
          "name": "token",
          "type": "address"
        },
        {
          "indexed": true,
          "internalType": "address",
          "name": "creator",
          "type": "address"
        },
        {
          "indexed": false,
          "internalType": "uint256",
          "name": "creatorAmount",
          "type": "uint256"
        },
        {
          "indexed": false,
          "internalType": "uint256",
          "name": "stakersAmount",
          "type": "uint256"
        },
        {
          "indexed": false,
          "internalType": "uint256",
          "name": "lpAmount",
          "type": "uint256"
        }
      ],
      "name": "RewardsDistributed",
      "type": "event"
    },
    {
      "anonymous": false,
      "inputs": [
        {
          "indexed": true,
          "internalType": "address",
          "name": "newTreasury",
          "type": "address"
        }
      ],
      "name": "TreasuryUpdated",
      "type": "event"
    },
    {
      "inputs": [],
      "name": "CREATOR_FEE_PERCENT",
      "outputs": [
        {
          "internalType": "uint256",
          "name": "",
          "type": "uint256"
        }
      ],
      "stateMutability": "view",
      "type": "function"
    },
    {
      "inputs": [],
      "name": "FEE_DENOMINATOR",
      "outputs": [
        {
          "internalType": "uint256",
          "name": "",
          "type": "uint256"
        }
      ],
      "stateMutability": "view",
      "type": "function"
    },
    {
      "inputs": [],
      "name": "LP_FEE_PERCENT",
      "outputs": [
        {
          "internalType": "uint256",
          "name": "",
          "type": "uint256"
        }
      ],
      "stateMutability": "view",
      "type": "function"
    },
    {
      "inputs": [],
      "name": "PLATFORM_FEE_PERCENT",
      "outputs": [
        {
          "internalType": "uint256",
          "name": "",
          "type": "uint256"
        }
      ],
      "stateMutability": "view",
      "type": "function"
    },
    {
      "inputs": [],
      "name": "REFERRER_FEE_PERCENT",
      "outputs": [
        {
          "internalType": "uint256",
          "name": "",
          "type": "uint256"
        }
      ],
      "stateMutability": "view",
      "type": "function"
    },
    {
      "inputs": [],
      "name": "STAKERS_FEE_PERCENT",
      "outputs": [
        {
          "internalType": "uint256",
          "name": "",
          "type": "uint256"
        }
      ],
      "stateMutability": "view",
      "type": "function"
    },
    {
      "inputs": [
        {
          "internalType": "uint256",
          "name": "amount",
          "type": "uint256"
        }
      ],
      "name": "calculateFeeDistribution",
      "outputs": [
        {
          "components": [
            {
              "internalType": "uint256",
              "name": "platformFee",
              "type": "uint256"
            },
            {
              "internalType": "uint256",
              "name": "creatorFee",
              "type": "uint256"
            },
            {
              "internalType": "uint256",
              "name": "stakersFee",
              "type": "uint256"
            },
            {
              "internalType": "uint256",
              "name": "liquidityProvidersFee",
              "type": "uint256"
            },
            {
              "internalType": "uint256",
              "name": "referrerFee",
              "type": "uint256"
            }
          ],
          "internalType": "struct FeeManager.FeeDistribution",
          "name": "",
          "type": "tuple"
        }
      ],
      "stateMutability": "pure",
      "type": "function"
    },
    {
      "inputs": [],
      "name": "claimRewards",
      "outputs": [],
      "stateMutability": "nonpayable",
      "type": "function"
    },
    {
      "inputs": [
        {
          "internalType": "address",
          "name": "token",
          "type": "address"
        },
        {
          "internalType": "address",
          "name": "from",
          "type": "address"
        },
        {
          "internalType": "uint256",
          "name": "amount",
          "type": "uint256"
        },
        {
          "internalType": "string",
          "name": "transactionType",
          "type": "string"
        }
      ],
      "name": "collectFee",
      "outputs": [],
      "stateMutability": "payable",
      "type": "function"
    },
    {
      "inputs": [
        {
          "internalType": "address",
          "name": "referrer",
          "type": "address"
        },
        {
          "internalType": "uint256",
          "name": "amount",
          "type": "uint256"
        }
      ],
      "name": "distributeReferrerReward",
      "outputs": [],
      "stateMutability": "nonpayable",
      "type": "function"
    },
    {
      "inputs": [
        {
          "internalType": "address",
          "name": "token",
          "type": "address"
        },
        {
          "internalType": "address",
          "name": "tokenCreator",
          "type": "address"
        },
        {
          "internalType": "address[]",
          "name": "stakers",
          "type": "address[]"
        },
        {
          "internalType": "address[]",
          "name": "liquidityProviders",
          "type": "address[]"
        }
      ],
      "name": "distributeRewards",
      "outputs": [],
      "stateMutability": "nonpayable",
      "type": "function"
    },
    {
      "inputs": [],
      "name": "emergencyWithdraw",
      "outputs": [],
      "stateMutability": "nonpayable",
      "type": "function"
    },
    {
      "inputs": [
        {
          "internalType": "address",
          "name": "user",
          "type": "address"
        }
      ],
      "name": "getPendingRewards",
      "outputs": [
        {
          "internalType": "uint256",
          "name": "",
          "type": "uint256"
        }
      ],
      "stateMutability": "view",
      "type": "function"
    },
    {
      "inputs": [
        {
          "internalType": "address",
          "name": "token",
          "type": "address"
        }
      ],
      "name": "getTokenFeeInfo",
      "outputs": [
        {
          "internalType": "uint256",
          "name": "totalCollected",
          "type": "uint256"
        },
        {
          "internalType": "uint256",
          "name": "creatorClaimed",
          "type": "uint256"
        },
        {
          "internalType": "uint256",
          "name": "platformClaimed",
          "type": "uint256"
        }
      ],
      "stateMutability": "view",
      "type": "function"
    },
    {
      "inputs": [
        {
          "internalType": "address",
          "name": "user",
          "type": "address"
        },
        {
          "internalType": "address",
          "name": "token",
          "type": "address"
        }
      ],
      "name": "getUserRewardInfo",
      "outputs": [
        {
          "internalType": "uint256",
          "name": "stakerRewards",
          "type": "uint256"
        },
        {
          "internalType": "uint256",
          "name": "lpRewards",
          "type": "uint256"
        },
        {
          "internalType": "uint256",
          "name": "referrerRewards",
          "type": "uint256"
        }
      ],
      "stateMutability": "view",
      "type": "function"
    },
    {
      "inputs": [],
      "name": "owner",
      "outputs": [
        {
          "internalType": "address",
          "name": "",
          "type": "address"
        }
      ],
      "stateMutability": "view",
      "type": "function"
    },
    {
      "inputs": [],
      "name": "registry",
      "outputs": [
        {
          "internalType": "contract IRegistry",
          "name": "",
          "type": "address"
        }
      ],
      "stateMutability": "view",
      "type": "function"
    },
    {
      "inputs": [],
      "name": "renounceOwnership",
      "outputs": [],
      "stateMutability": "nonpayable",
      "type": "function"
    },
    {
      "inputs": [
        {
          "internalType": "address",
          "name": "_treasury",
          "type": "address"
        }
      ],
      "name": "setTreasuryAddress",
      "outputs": [],
      "stateMutability": "nonpayable",
      "type": "function"
    },
    {
      "inputs": [
        {
          "internalType": "address",
          "name": "",
          "type": "address"
        }
      ],
      "name": "tokenFees",
      "outputs": [
        {
          "internalType": "uint256",
          "name": "totalCollected",
          "type": "uint256"
        },
        {
          "internalType": "uint256",
          "name": "creatorClaimed",
          "type": "uint256"
        },
        {
          "internalType": "uint256",
          "name": "platformClaimed",
          "type": "uint256"
        }
      ],
      "stateMutability": "view",
      "type": "function"
    },
    {
      "inputs": [],
      "name": "totalCreatorFees",
      "outputs": [
        {
          "internalType": "uint256",
          "name": "",
          "type": "uint256"
        }
      ],
      "stateMutability": "view",
      "type": "function"
    },
    {
      "inputs": [],
      "name": "totalLPFees",
      "outputs": [
        {
          "internalType": "uint256",
          "name": "",
          "type": "uint256"
        }
      ],
      "stateMutability": "view",
      "type": "function"
    },
    {
      "inputs": [],
      "name": "totalPlatformFees",
      "outputs": [
        {
          "internalType": "uint256",
          "name": "",
          "type": "uint256"
        }
      ],
      "stateMutability": "view",
      "type": "function"
    },
    {
      "inputs": [],
      "name": "totalReferrerFees",
      "outputs": [
        {
          "internalType": "uint256",
          "name": "",
          "type": "uint256"
        }
      ],
      "stateMutability": "view",
      "type": "function"
    },
    {
      "inputs": [],
      "name": "totalStakersFees",
      "outputs": [
        {
          "internalType": "uint256",
          "name": "",
          "type": "uint256"
        }
      ],
      "stateMutability": "view",
      "type": "function"
    },
    {
      "inputs": [
        {
          "internalType": "address",
          "name": "newOwner",
          "type": "address"
        }
      ],
      "name": "transferOwnership",
      "outputs": [],
      "stateMutability": "nonpayable",
      "type": "function"
    },
    {
      "inputs": [],
      "name": "treasuryAddress",
      "outputs": [
        {
          "internalType": "address",
          "name": "",
          "type": "address"
        }
      ],
      "stateMutability": "view",
      "type": "function"
    },
    {
      "inputs": [
        {
          "internalType": "address",
          "name": "",
          "type": "address"
        }
      ],
      "name": "userClaimedRewards",
      "outputs": [
        {
          "internalType": "uint256",
          "name": "",
          "type": "uint256"
        }
      ],
      "stateMutability": "view",
      "type": "function"
    },
    {
      "inputs": [
        {
          "internalType": "address",
          "name": "",
          "type": "address"
        }
      ],
      "name": "userTotalRewards",
      "outputs": [
        {
          "internalType": "uint256",
          "name": "",
          "type": "uint256"
        }
      ],
      "stateMutability": "view",
      "type": "function"
    },
    {
      "inputs": [],
      "name": "withdrawPlatformFees",
      "outputs": [],
      "stateMutability": "nonpayable",
      "type": "function"
    },
    {
      "stateMutability": "payable",
      "type": "receive"
    }
  ],
  "bytecode": "0x6080346100e657601f61160638819003918201601f19168301916001600160401b038311848410176100eb5780849260409485528339810103126100e657610052602061004b83610101565b9201610101565b33156100cd5760008054336001600160a01b0319808316821784556040519590946001600160a01b03949093859391908416907f8be0079c531659141344cd1fd0a4f28419497f9722a3daafe3b4186f6b6457e09080a360018055168360025416176002551690600b541617600b556114f090816101168239f35b604051631e4fbdf760e01b815260006004820152602490fd5b600080fd5b634e487b7160e01b600052604160045260246000fd5b51906001600160a01b03821682036100e65756fe6080604081815260049182361015610022575b505050361561002057600080fd5b005b600092833560e01c918262f1197c146111835750816311aa08d21461023c5781631cbce8d214610f385781632104973014610d5a578163265b6f0514610eea578163372500ab14610db657816339e16d6414610d5a578163560d52d414610d3e5781636605bfda14610c8d578163715018a614610c30578163737baa4014610c11578163774a724f14610bf25781637b10399914610bc95781638da5cb5b14610ba1578163c5f956af14610b78578163cae7343c14610af9578163d0b7830b14610a33578163d3631fa514610a14578163d73792a9146109f7578163da23eb6314610645578163dad511b7146106cf578163db2e21bc1461064a578163e3051f3a14610645578163ec185a07146102c8578163f2fde38b14610241578163f3d428ae1461023c578163f6a3f3cf14610206578163f6ed2017146101ba57508063f82371e41461019c5763fe2b214c1461017b5780610012565b346101985781600319360112610198576020906007549051908152f35b5080fd5b50346101985781600319360112610198576020906009549051908152f35b905034610202576020366003190112610202576020926101fb916001600160a01b036101e46111b7565b1682528452828082205491600586522054906113ef565b9051908152f35b8280fd5b9050346102025760203660031901126102025760209282916001600160a01b0361022e6111b7565b168252845220549051908152f35b6111e8565b9050346102025760203660031901126102025761025c6111b7565b906102656112eb565b6001600160a01b039182169283156102b257505082546001600160a01b0319811683178455167f8be0079c531659141344cd1fd0a4f28419497f9722a3daafe3b4186f6b6457e08380a380f35b51631e4fbdf760e01b8152908101849052602490fd5b90506080366003190112610202576102de6111b7565b6102e66111d2565b604435906064359367ffffffffffffffff918286116106415736602387011215610641578582013592831161062e5786519388602097601f19956103318a88601f8401160189611252565b8088523660248284010111610202578060248b9301838a01378701015288546001600160a01b0393908416331480156105df575b8015610590575b8015610541575b80156104d1575b61038390611336565b81158015906104c8575b1561049157508290341561048b575034955b1695868952600381528789206103b6878254611373565b90556103c1866113fc565b946103cf8651600654611373565b6006556103e182870151600754611373565b6007556103f389870151600854611373565b60085561041a608060609761040d89820151600954611373565b6009550151600a54611373565b600a558851968752888288015280518099880152895b8981106104785750505091601f8594939285938a868b7f3d1f64091552f4e26b3a2f7bc8f412a53d092711f4a657e136311d9e4b4ea3349a010152169701168101030190a380f35b8181018301518882018801528201610430565b9561039f565b885162461bcd60e51b81529081018890526011602482015270139bc8199959481d1bc818dbdb1b1958dd607a1b6044820152606490fd5b5034151561038d565b50808885600254168b519283809263ebdccebb60e01b82525afa908115610537576103839186918d9161050a575b50163314905061037a565b61052a91508b3d8d11610530575b6105228183611252565b810190611317565b386104ff565b503d610518565b8a513d8d823e3d90fd5b50808885600254168b51928380926395ddbe8960e01b82525afa80156105375785918c91610573575b50163314610373565b61058a91508a3d8c11610530576105228183611252565b3861056a565b50808885600254168b519283809263faac38ef60e01b82525afa80156105375785918c916105c2575b5016331461036c565b6105d991508a3d8c11610530576105228183611252565b386105b9565b50808885600254168b519283809263492eb5d160e11b82525afa80156105375785918c91610611575b50163314610365565b61062891508a3d8c11610530576105228183611252565b38610608565b634e487b7160e01b885260418252602488fd5b8780fd5b611204565b9050346102025782600319360112610202576106646112eb565b479081156106955750825483918291829182916001600160a01b031682f11561068b575080f35b51903d90823e3d90fd5b606490602084519162461bcd60e51b835282015260146024820152734e6f2066756e647320746f20776974686472617760601b6044820152fd5b905034610202576080366003190112610202576106ea6111b7565b916106f36111d2565b906044359367ffffffffffffffff948581116109f3576107169036908601611274565b946064359081116109f35761072e9036908601611274565b6107366112eb565b60018060a01b03809216948588526020926003845284892092835480156109b85761076183916113fc565b971698891515806109ac575b610978575b80518015158061096c575b6108e1575b50508051801515806108d4575b610841575b5050917f07f269db192de987f6138ac3ced504f0da8a4dcc0b49d59d964f33d19cfd4d97959493916107ff93600b54169081151580610837575b610805575b505050830151916060818501519401519051938493846040919493926060820195825260208201520152565b0390a380f35b8651918b52835261081a858b20918254611373565b905561082d600286519201918254611373565b90553880806107d3565b50865115156107ce565b6108569060608994969b939598990151611396565b97898701928b5b8c86518210156108ba57908a6108b59289610878848b6113c5565b51168152878b528d61088e838320918254611373565b90558961089b848b6113c5565b511681528b8b52206108ae8d8254611373565b90556113b6565b61085d565b50929a9199509796909490935091508290506107ff610794565b506060880151151561078f565b6108f990888a9b9396999a9c949c9795970151611396565b9860038401938c5b8d875182101561095957908c6108ae8d610954948e8e8e6109468f8f908a918461092b84846113c5565b51168852855287872061093f8b8254611373565b90556113c5565b511683525220918254611373565b610901565b5050959350979693509750973880610782565b5087890151151561077d565b8a8a61099389898c01938451938152888b5220918254611373565b9055516109a560018701918254611373565b9055610772565b5085880151151561076d565b865162461bcd60e51b815280850187905260156024820152744e6f206665657320746f206469737472696275746560581b6044820152606490fd5b8680fd5b505034610198578160031936011261019857602090516127108152f35b5050346101985781600319360112610198576020906006549051908152f35b905034610202578260031936011261020257610a4d6112eb565b600654908115610ab657600b546001600160a01b0316908115610a8057508380809381938260065582f11561068b575080f35b606490602085519162461bcd60e51b8352820152601060248201526f151c99585cdd5c9e481b9bdd081cd95d60821b6044820152fd5b606490602084519162461bcd60e51b8352820152601c60248201527f4e6f20706c6174666f726d206665657320746f207769746864726177000000006044820152fd5b9190503461020257806003193601126102025780610b7491610b196111b7565b946001600160a01b0380610b2b6111d2565b1682526003602052828220961681526003860160205281812054948601602052600582822054960160205220549051938493846040919493926060820195825260208201520152565b0390f35b505034610198578160031936011261019857600b5490516001600160a01b039091168152602090f35b505034610198578160031936011261019857905490516001600160a01b039091168152602090f35b50503461019857816003193601126101985760025490516001600160a01b039091168152602090f35b5050346101985781600319360112610198576020906008549051908152f35b505034610198578160031936011261019857602090600a549051908152f35b8334610c8a5780600319360112610c8a57610c496112eb565b80546001600160a01b03198116825581906001600160a01b03167f8be0079c531659141344cd1fd0a4f28419497f9722a3daafe3b4186f6b6457e08280a380f35b80fd5b90503461020257602036600319011261020257610ca86111b7565b610cb06112eb565b6001600160a01b0316918215610cfb575050600b80546001600160a01b031916821790557f7dae230f18360d76a040c81f050aa14eb9d6dc7901b20fc5d855e2a20fe814d18280a280f35b906020606492519162461bcd60e51b8352820152601860248201527f496e76616c6964207472656173757279206164647265737300000000000000006044820152fd5b5050346101985781600319360112610198576020905160c88152f35b505034610198576020366003190112610198579081906001600160a01b03610d806111b7565b16815260036020522090610b74825491600260018501549401549051938493846040919493926060820195825260208201520152565b905034610202578260031936011261020257600260015414610edc5760026001553383526020818152610df4838520546005835284862054906113ef565b918215610ea557824710610e64575033845260058152828420610e18838254611373565b905583808080853382f115610e58577ffc30cddea38e2bf4d6ea7d3f9ed3b6ad7f176419f4963bd81318067a4aee73fe9192519283523392a26001805580f35b505051903d90823e3d90fd5b60649184519162461bcd60e51b8352820152601d60248201527f496e73756666696369656e7420636f6e74726163742062616c616e63650000006044820152fd5b60649184519162461bcd60e51b835282015260136024820152724e6f207265776172647320746f20636c61696d60681b6044820152fd5b9051633ee5aeb560e01b8152fd5b828434610c8a576020366003190112610c8a57506080610f0c60a093356113fc565b825192815184526020820151602085015280820151908401526060810151606084015201516080820152f35b838334610198578060031936011261019857610f526111b7565b825460243592916001600160a01b0391821633148015611130575b80156110dd575b801561108a575b8015611028575b610f8b90611336565b16938415610ff3578215610fc0578394610fba94526020528320610fb0828254611373565b9055600a54611373565b600a5580f35b6020606492519162461bcd60e51b8352820152600e60248201526d125b9d985b1a5908185b5bdd5b9d60921b6044820152fd5b6020606492519162461bcd60e51b8352820152601060248201526f24b73b30b634b2103932b332b93932b960811b6044820152fd5b50856020836002541685519283809263ebdccebb60e01b82525afa90811561108057610f8b9184918891611062575b501633149050610f82565b61107a915060203d8111610530576105228183611252565b89611057565b84513d88823e3d90fd5b5085602083600254168551928380926395ddbe8960e01b82525afa9081156110805790839187916110bf575b50163314610f7b565b6110d7915060203d8111610530576105228183611252565b886110b6565b50856020836002541685519283809263faac38ef60e01b82525afa908115611080579083918791611112575b50163314610f74565b61112a915060203d8111610530576105228183611252565b88611109565b50856020836002541685519283809263492eb5d160e11b82525afa908115611080579083918791611165575b50163314610f6d565b61117d915060203d8111610530576105228183611252565b8861115c565b84908434610202576020366003190112610202576020926001600160a01b036111aa6111b7565b1681526005845220548152f35b600435906001600160a01b03821682036111cd57565b600080fd5b602435906001600160a01b03821682036111cd57565b346111cd5760003660031901126111cd57602060405160328152f35b346111cd5760003660031901126111cd57602060405160648152f35b60a0810190811067ffffffffffffffff82111761123c57604052565b634e487b7160e01b600052604160045260246000fd5b90601f8019910116810190811067ffffffffffffffff82111761123c57604052565b9080601f830112156111cd5781359067ffffffffffffffff821161123c578160051b604051936020936112a985840187611252565b855283808601928201019283116111cd578301905b8282106112cc575050505090565b81356001600160a01b03811681036111cd5781529083019083016112be565b6000546001600160a01b031633036112ff57565b60405163118cdaa760e01b8152336004820152602490fd5b908160209103126111cd57516001600160a01b03811681036111cd5790565b1561133d57565b60405162461bcd60e51b815260206004820152600e60248201526d139bdd08185d5d1a1bdc9a5e995960921b6044820152606490fd5b9190820180921161138057565b634e487b7160e01b600052601160045260246000fd5b81156113a0570490565b634e487b7160e01b600052601260045260246000fd5b60001981146113805760010190565b80518210156113d95760209160051b010190565b634e487b7160e01b600052603260045260246000fd5b9190820391821161138057565b608060405161140a81611220565b6000918183809352826020820152826040820152826060820152015260c882029180159080840460c8148217156114a657606481029281840460641483171561149257612710809404926032830292830460321417156114925750829004916040519361147685611220565b0483528060208401526040830152806060830152608082015290565b634e487b7160e01b81526011600452602490fd5b634e487b7160e01b83526011600452602483fdfea26469706673582212206138aa0f1456fb3e2ae1bfd2b1649b0a88d6db6ee3d5425c5816040e58cf742c64736f6c63430008140033",
  "linkReferences": {},
  "deployedLinkReferences": {}
}