{
  "_format": "hh-sol-artifact-1",
  "contractName": "BondingCurveContract",
  "sourceName": "contracts/BondingCurveContract.sol",
  "abi": [
    {
      "inputs": [
        {
          "internalType": "address",
          "name": "_registry",
          "type": "address"
        }
      ],
      "stateMutability": "nonpayable",
      "type": "constructor"
    },
    {
      "inputs": [
        {
          "internalType": "address",
          "name": "owner",
          "type": "address"
        }
      ],
      "name": "OwnableInvalidOwner",
      "type": "error"
    },
    {
      "inputs": [
        {
          "internalType": "address",
          "name": "account",
          "type": "address"
        }
      ],
      "name": "OwnableUnauthorizedAccount",
      "type": "error"
    },
    {
      "inputs": [],
      "name": "ReentrancyGuardReentrantCall",
      "type": "error"
    },
    {
      "inputs": [
        {
          "internalType": "address",
          "name": "token",
          "type": "address"
        }
      ],
      "name": "SafeERC20FailedOperation",
      "type": "error"
    },
    {
      "anonymous": false,
      "inputs": [
        {
          "indexed": true,
          "internalType": "address",
          "name": "token",
          "type": "address"
        },
        {
          "indexed": false,
          "internalType": "uint256",
          "name": "virtualOkbReserves",
          "type": "uint256"
        },
        {
          "indexed": false,
          "internalType": "uint256",
          "name": "virtualTokenReserves",
          "type": "uint256"
        }
      ],
      "name": "CurveParametersUpdated",
      "type": "event"
    },
    {
      "anonymous": false,
      "inputs": [
        {
          "indexed": true,
          "internalType": "address",
          "name": "previousOwner",
          "type": "address"
        },
        {
          "indexed": true,
          "internalType": "address",
          "name": "newOwner",
          "type": "address"
        }
      ],
      "name": "OwnershipTransferred",
      "type": "event"
    },
    {
      "anonymous": false,
      "inputs": [
        {
          "indexed": true,
          "internalType": "address",
          "name": "token",
          "type": "address"
        },
        {
          "indexed": true,
          "internalType": "address",
          "name": "buyer",
          "type": "address"
        },
        {
          "indexed": false,
          "internalType": "uint256",
          "name": "okbIn",
          "type": "uint256"
        },
        {
          "indexed": false,
          "internalType": "uint256",
          "name": "tokensOut",
          "type": "uint256"
        },
        {
          "indexed": false,
          "internalType": "uint256",
          "name": "newPrice",
          "type": "uint256"
        }
      ],
      "name": "TokenBought",
      "type": "event"
    },
    {
      "anonymous": false,
      "inputs": [
        {
          "indexed": true,
          "internalType": "address",
          "name": "token",
          "type": "address"
        },
        {
          "indexed": false,
          "internalType": "uint256",
          "name": "okbCollected",
          "type": "uint256"
        }
      ],
      "name": "TokenGraduated",
      "type": "event"
    },
    {
      "anonymous": false,
      "inputs": [
        {
          "indexed": true,
          "internalType": "address",
          "name": "token",
          "type": "address"
        },
        {
          "indexed": true,
          "internalType": "address",
          "name": "seller",
          "type": "address"
        },
        {
          "indexed": false,
          "internalType": "uint256",
          "name": "tokensIn",
          "type": "uint256"
        },
        {
          "indexed": false,
          "internalType": "uint256",
          "name": "okbOut",
          "type": "uint256"
        },
        {
          "indexed": false,
          "internalType": "uint256",
          "name": "newPrice",
          "type": "uint256"
        }
      ],
      "name": "TokenSold",
      "type": "event"
    },
    {
      "inputs": [],
      "name": "DEFAULT_VIRTUAL_OKB",
      "outputs": [
        {
          "internalType": "uint256",
          "name": "",
          "type": "uint256"
        }
      ],
      "stateMutability": "view",
      "type": "function"
    },
    {
      "inputs": [],
      "name": "DEFAULT_VIRTUAL_TOKENS",
      "outputs": [
        {
          "internalType": "uint256",
          "name": "",
          "type": "uint256"
        }
      ],
      "stateMutability": "view",
      "type": "function"
    },
    {
      "inputs": [],
      "name": "GRADUATION_THRESHOLD",
      "outputs": [
        {
          "internalType": "uint256",
          "name": "",
          "type": "uint256"
        }
      ],
      "stateMutability": "view",
      "type": "function"
    },
    {
      "inputs": [],
      "name": "MAX_SUPPLY_FOR_CURVE",
      "outputs": [
        {
          "internalType": "uint256",
          "name": "",
          "type": "uint256"
        }
      ],
      "stateMutability": "view",
      "type": "function"
    },
    {
      "inputs": [
        {
          "internalType": "address",
          "name": "token",
          "type": "address"
        },
        {
          "internalType": "address",
          "name": "user",
          "type": "address"
        },
        {
          "internalType": "uint256",
          "name": "okbAmount",
          "type": "uint256"
        }
      ],
      "name": "buyTokens",
      "outputs": [
        {
          "internalType": "uint256",
          "name": "",
          "type": "uint256"
        }
      ],
      "stateMutability": "payable",
      "type": "function"
    },
    {
      "inputs": [
        {
          "internalType": "address",
          "name": "token",
          "type": "address"
        }
      ],
      "name": "getCurveInfo",
      "outputs": [
        {
          "components": [
            {
              "internalType": "uint256",
              "name": "soldSupply",
              "type": "uint256"
            },
            {
              "internalType": "uint256",
              "name": "okbCollected",
              "type": "uint256"
            },
            {
              "internalType": "uint256",
              "name": "virtualOkbReserves",
              "type": "uint256"
            },
            {
              "internalType": "uint256",
              "name": "virtualTokenReserves",
              "type": "uint256"
            },
            {
              "internalType": "bool",
              "name": "graduated",
              "type": "bool"
            },
            {
              "internalType": "bool",
              "name": "active",
              "type": "bool"
            }
          ],
          "internalType": "struct BondingCurveContract.TokenCurve",
          "name": "",
          "type": "tuple"
        }
      ],
      "stateMutability": "view",
      "type": "function"
    },
    {
      "inputs": [
        {
          "internalType": "address",
          "name": "token",
          "type": "address"
        },
        {
          "internalType": "uint256",
          "name": "amount",
          "type": "uint256"
        }
      ],
      "name": "getPrice",
      "outputs": [
        {
          "internalType": "uint256",
          "name": "",
          "type": "uint256"
        }
      ],
      "stateMutability": "view",
      "type": "function"
    },
    {
      "inputs": [
        {
          "internalType": "address",
          "name": "token",
          "type": "address"
        }
      ],
      "name": "getTokenBalance",
      "outputs": [
        {
          "internalType": "uint256",
          "name": "",
          "type": "uint256"
        }
      ],
      "stateMutability": "view",
      "type": "function"
    },
    {
      "inputs": [
        {
          "internalType": "address",
          "name": "token",
          "type": "address"
        }
      ],
      "name": "initializeCurve",
      "outputs": [],
      "stateMutability": "nonpayable",
      "type": "function"
    },
    {
      "inputs": [],
      "name": "owner",
      "outputs": [
        {
          "internalType": "address",
          "name": "",
          "type": "address"
        }
      ],
      "stateMutability": "view",
      "type": "function"
    },
    {
      "inputs": [],
      "name": "registry",
      "outputs": [
        {
          "internalType": "contract IRegistry",
          "name": "",
          "type": "address"
        }
      ],
      "stateMutability": "view",
      "type": "function"
    },
    {
      "inputs": [],
      "name": "renounceOwnership",
      "outputs": [],
      "stateMutability": "nonpayable",
      "type": "function"
    },
    {
      "inputs": [
        {
          "internalType": "address",
          "name": "token",
          "type": "address"
        },
        {
          "internalType": "address",
          "name": "user",
          "type": "address"
        },
        {
          "internalType": "uint256",
          "name": "tokenAmount",
          "type": "uint256"
        }
      ],
      "name": "sellTokens",
      "outputs": [
        {
          "internalType": "uint256",
          "name": "",
          "type": "uint256"
        }
      ],
      "stateMutability": "nonpayable",
      "type": "function"
    },
    {
      "inputs": [
        {
          "internalType": "address",
          "name": "",
          "type": "address"
        }
      ],
      "name": "tokenBalances",
      "outputs": [
        {
          "internalType": "uint256",
          "name": "",
          "type": "uint256"
        }
      ],
      "stateMutability": "view",
      "type": "function"
    },
    {
      "inputs": [
        {
          "internalType": "address",
          "name": "",
          "type": "address"
        }
      ],
      "name": "tokenCurves",
      "outputs": [
        {
          "internalType": "uint256",
          "name": "soldSupply",
          "type": "uint256"
        },
        {
          "internalType": "uint256",
          "name": "okbCollected",
          "type": "uint256"
        },
        {
          "internalType": "uint256",
          "name": "virtualOkbReserves",
          "type": "uint256"
        },
        {
          "internalType": "uint256",
          "name": "virtualTokenReserves",
          "type": "uint256"
        },
        {
          "internalType": "bool",
          "name": "graduated",
          "type": "bool"
        },
        {
          "internalType": "bool",
          "name": "active",
          "type": "bool"
        }
      ],
      "stateMutability": "view",
      "type": "function"
    },
    {
      "inputs": [
        {
          "internalType": "address",
          "name": "newOwner",
          "type": "address"
        }
      ],
      "name": "transferOwnership",
      "outputs": [],
      "stateMutability": "nonpayable",
      "type": "function"
    },
    {
      "inputs": [
        {
          "internalType": "address",
          "name": "token",
          "type": "address"
        },
        {
          "internalType": "uint256",
          "name": "virtualOkbReserves",
          "type": "uint256"
        },
        {
          "internalType": "uint256",
          "name": "virtualTokenReserves",
          "type": "uint256"
        }
      ],
      "name": "updateCurveParameters",
      "outputs": [],
      "stateMutability": "nonpayable",
      "type": "function"
    },
    {
      "stateMutability": "payable",
      "type": "receive"
    }
  ],
  "bytecode": "0x6080346100ca57601f6116bb38819003918201601f19168301916001600160401b038311848410176100cf578084926020946040528339810103126100ca57516001600160a01b0390818116908190036100ca5733156100b15760005460018060a01b0319903382821617600055604051933391167f8be0079c531659141344cd1fd0a4f28419497f9722a3daafe3b4186f6b6457e0600080a36001805560025416176002556115d590816100e68239f35b604051631e4fbdf760e01b815260006004820152602490fd5b600080fd5b634e487b7160e01b600052604160045260246000fdfe60806040818152600436101561001f575b5050361561001d57600080fd5b005b600091823560e01c908163047f8bc114610f6157508063169f7dee14610eea578063360f2dc214610d035780633aecd0e31461091d5780633eafec21146109a9578063449e815d1461097a5780634f39cb3614610954578063523fba7f1461091d578063715018a6146108c05780637b103999146108985780638da5cb5b146108715780639571b2751461084b578063c8c5b1cb14610744578063d73337df14610721578063dcefa5381461018e578063f2fde38b146101095763fcfc0c09036100105734610105578160031936011261010557602090516804563918244f4000008152f35b5080fd5b503461010557602036600319011261010557610123611038565b61012b611088565b6001600160a01b03908116918215610177575082546001600160a01b0319811683178455167f8be0079c531659141344cd1fd0a4f28419497f9722a3daafe3b4186f6b6457e08380a380f35b51631e4fbdf760e01b815260048101849052602490fd5b509061019936611053565b9291906101a461145a565b600254855163c187645360e01b81526001600160a01b038481166004830152909160209183916024918391165afa90811561071757906101eb9185916106e8575b50611120565b6001600160a01b03821683526003602052848320600401546102129060081c60ff1661115c565b6001600160a01b03821683526003602052848320600401546102379060ff16156112b0565b8334036106ad576102498415156112ee565b6001600160a01b0382168352600360205284832080549490919061026d86826114f8565b958615610673576b0295be96e64066972000000061028b888361133a565b11610639578661029a9161133a565b83556102aa81600185015461133a565b60018401556001600160a01b038416855260046020528685205486116105f5576001600160a01b0384168552600460205286852080546102eb90889061119b565b9055865163a9059cbb60e01b60208201526001600160a01b0383166024820152604480820188905281526080810167ffffffffffffffff8111828210176105e1578852610341906001600160a01b0386166113f2565b600254875163796b1c1360e11b815290602090829060049082906001600160a01b03165afa9081156105d757918087600195936804563918244f400000979582916105b8575b50868060a01b038116610598575b5050507f8692cf5ba66abd64f88cdc1ffa0ee9d9c21ee2d999322a20445ae32393394e3e6103f06103c6855461147d565b8b51938452602084018b9052604084015260a086901b869003938416938816929081906060820190565b0390a30154101561040a575b602083856001805551908152f35b6001600160a01b038116808352600360209081528584206004818101805460ff1916600190811790915591909101548751908152909392917f3774b363547126f466f72012377433ce54030696ae07ad35617ad9317eaf776b91a2600254855163ebdccebb60e01b81529260209184919082906001600160a01b03165afa91821561058e57839261055d575b506001600160a01b0382166104ac575b506103fc565b84516397f548f760e01b602082019081526001600160a01b0390921660248083019190915281526060810167ffffffffffffffff81118282101761054957849392918491885251925af16104fe611366565b501561050c573880806104a6565b815162461bcd60e51b815260206004820152601660248201527511dc98591d585d1a5bdb8818d85b1b0819985a5b195960521b6044820152606490fd5b634e487b7160e01b85526041600452602485fd5b61058091925060203d602011610587575b61057881836110e6565b810190611347565b9038610496565b503d61056e565b85513d85823e3d90fd5b81806105b09481935af16105aa611366565b506113a6565b808738610395565b6105d1915060203d6020116105875761057881836110e6565b38610387565b88513d88823e3d90fd5b634e487b7160e01b87526041600452602487fd5b865162461bcd60e51b815260206004820152601a60248201527f496e73756666696369656e7420746f6b656e2062616c616e63650000000000006044820152606490fd5b875162461bcd60e51b8152602060048201526013602482015272115e18d959591cc818dd5c9d99481b1a5b5a5d606a1b6044820152606490fd5b875162461bcd60e51b81526020600482015260136024820152724e6f20746f6b656e7320617661696c61626c6560681b6044820152606490fd5b845162461bcd60e51b8152602060048201526014602482015273125b98dbdc9c9958dd0813d2d088185b5bdd5b9d60621b6044820152606490fd5b61070a915060203d602011610710575b61070281836110e6565b810190611108565b386101e5565b503d6106f8565b86513d86823e3d90fd5b5034610105578160031936011261010557602090516801a055690d9db800008152f35b50346101055760603660031901126101055761075e611038565b906024356044359261076e611088565b6001600160a01b03168085526003602052828520600401549093906107989060081c60ff1661115c565b83855260036020526107b360ff6004858820015416156112b0565b81151580610842575b1561080957907f69e033b4ae750ca02de6986a1466464b43f15a095bb41bb657e4c19303c6f54a92918486526003602052806003848820846002820155015582519182526020820152a280f35b825162461bcd60e51b8152602060048201526012602482015271496e76616c696420706172616d657465727360701b6044820152606490fd5b508015156107bc565b5034610105578160031936011261010557602090516b037790968dc8efffd10000008152f35b5034610105578160031936011261010557905490516001600160a01b039091168152602090f35b503461010557816003193601126101055760025490516001600160a01b039091168152602090f35b823461091a578060031936011261091a576108d9611088565b80546001600160a01b03198116825581906001600160a01b03167f8be0079c531659141344cd1fd0a4f28419497f9722a3daafe3b4186f6b6457e08280a380f35b80fd5b50346101055760203660031901126101055760209181906001600160a01b03610944611038565b1681526004845220549051908152f35b5034610105578160031936011261010557602090516b0295be96e6406697200000008152f35b50346101055780600319360112610105576020906109a2610999611038565b602435906111f1565b9051908152f35b5034610105576109b836611053565b6109c49392919361145a565b60018060a01b03948560025416918685518098819663c187645360e01b835216948560048301526020998a9160249889915afa908115610cf95790610a0f918591610ce25750611120565b83835260038852610a2b60ff6004888620015460081c1661115c565b83835260038852610a4560ff6004888620015416156112b0565b610a508215156112ee565b8383526003885285832090815497888411610c9f57610a6f898561155d565b988915610c6857894710610c255784610a879161119b565b835560018301610a988a825461119b565b9055818851916323b872dd60e01b8c840152169687818301523060448301528460648301526064825260a082019082821067ffffffffffffffff831117610c13575060049291610aea918a52876113f2565b858552818a52878520610afe85825461133a565b905589816002541689519384809263796b1c1360e11b82525afa918215610c09579089949392918692610bea575b50811615610b9e57610b9191610b6f8680807f9387a595ac4be9038bbb9751abad8baa3dcf219dd9e19abb81552bd521fe35469989610b75975af16105aa611366565b5461147d565b8751938493846040919493926060820195825260208201520152565b0390a36001805551908152f35b5091928080808094968982f115610bdf57507f9387a595ac4be9038bbb9751abad8baa3dcf219dd9e19abb81552bd521fe354691610b91610b758893610b6f565b8551903d90823e3d90fd5b610c029192508b3d8d116105875761057881836110e6565b9038610b2c565b88513d87823e3d90fd5b634e487b7160e01b8752604160045286fd5b885162461bcd60e51b8152600481018c90526018818a01527f496e73756666696369656e74204f4b422062616c616e636500000000000000006044820152606490fd5b885162461bcd60e51b8152600481018c90526011818a0152704e6f204f4b4220746f207265636569766560781b6044820152606490fd5b875162461bcd60e51b8152600481018b9052601a818901527f43616e6e6f742073656c6c206d6f7265207468616e20736f6c640000000000006044820152606490fd5b61070a91508a3d8c116107105761070281836110e6565b87513d86823e3d90fd5b50346101055760209081600319360112610ee657610d1f611038565b600254825163c187645360e01b81526001600160a01b0392831660048201819052929091859183916024918391165afa908115610e815790610d67918691610ecf5750611120565b8084526003835260ff6004838620015460081c16610e8b578151610d8a816110b4565b8481528381018581526004848301926801a055690d9db800008452606081016b037790968dc8efffd10000008152608082019489865260a083019460018652878b5260038a52888b209351845551600184015551600283015551600382015501915115159060ff61ff0084549251151560081b1692169061ffff1916171790558151926370a0823160e01b84523060048501528084602481855afa938415610e81578594610e4e575b5083610e3d578480f35b600491855252822055388080808480f35b9080945081813d8311610e7a575b610e6681836110e6565b81010312610e7657519238610e33565b8480fd5b503d610e5c565b83513d87823e3d90fd5b815162461bcd60e51b815260048101849052601960248201527f437572766520616c726561647920696e697469616c697a6564000000000000006044820152606490fd5b61070a9150853d87116107105761070281836110e6565b8280fd5b50346101055760203660031901126101055760c09160ff9082906001600160a01b03610f14611038565b1681526003602052209182549260018101549160028201549060046003840154930154938151968752602087015285015260608401528181161515608084015260081c16151560a0820152f35b905034610ee6576020366003190112610ee65782829160c09460a0610f84611038565b92610f8e816110b4565b8281528260208201528286820152826060820152826080820152015260018060a01b03168152600360205220908051610fc6816110b4565b82549283825260018101549260208301938452600282015481840190815260046003840154936060860194855201549460ff60a0608087019682891615158852019660081c161515865282519687525160208701525190850152516060840152511515608083015251151560a0820152f35b600435906001600160a01b038216820361104e57565b600080fd5b606090600319011261104e576001600160a01b0390600435828116810361104e5791602435908116810361104e579060443590565b6000546001600160a01b0316330361109c57565b60405163118cdaa760e01b8152336004820152602490fd5b60c0810190811067ffffffffffffffff8211176110d057604052565b634e487b7160e01b600052604160045260246000fd5b90601f8019910116810190811067ffffffffffffffff8211176110d057604052565b9081602091031261104e5751801515810361104e5790565b1561112757565b60405162461bcd60e51b815260206004820152600d60248201526c24b73b30b634b2103a37b5b2b760991b6044820152606490fd5b1561116357565b60405162461bcd60e51b815260206004820152601060248201526f4375727665206e6f742061637469766560801b6044820152606490fd5b919082039182116111a857565b634e487b7160e01b600052601160045260246000fd5b818102929181159184041417156111a857565b81156111db570490565b634e487b7160e01b600052601260045260246000fd5b60018060a01b031660005260036020526040600020604051611212816110b4565b815481526001820154602082015260028201549060408101918252600460038401549360608301948552015461126060ff60808401928181161515845260081c1615158060a085015261115c565b516112a7576112749151925190519061119b565b908115801561129f575b611297576112949261128f916111be565b6111d1565b90565b505050600090565b50821561127e565b50505050600090565b156112b757565b60405162461bcd60e51b815260206004820152600f60248201526e151bdad95b8819dc98591d585d1959608a1b6044820152606490fd5b156112f557565b60405162461bcd60e51b815260206004820152601d60248201527f416d6f756e74206d7573742062652067726561746572207468616e20300000006044820152606490fd5b919082018092116111a857565b9081602091031261104e57516001600160a01b038116810361104e5790565b3d156113a1573d9067ffffffffffffffff82116110d05760405191611395601f8201601f1916602001846110e6565b82523d6000602084013e565b606090565b156113ad57565b60405162461bcd60e51b815260206004820152601b60248201527f466565206d616e61676572207472616e73666572206661696c656400000000006044820152606490fd5b906000602091828151910182855af11561144e576000513d61144557506001600160a01b0381163b155b6114235750565b604051635274afe760e01b81526001600160a01b039091166004820152602490fd5b6001141561141c565b6040513d6000823e3d90fd5b60026001541461146b576002600155565b604051633ee5aeb560e01b8152600490fd5b6b0295be96e6406697200000008110156114cb5761149a906114d2565b80156114c357670de0b6b3a7640000918281029281840414901517156111a857611294916111d1565b505060001990565b5060001990565b906801a055690d9db80000916b037790968dc8efffd10000009081039081116111a85790565b6b0295be96e64066972000000090818310156112975761152e61153461153a9261128f611524876114d2565b948193869261133a565b926111be565b9061119b565b9181611546848361133a565b1161155057505090565b8103915081116111a85790565b81158015611596575b61158f5761153461158861128f61157f611294956114d2565b9290948361133a565b91846111be565b5050600090565b5081811161156656fea2646970667358221220deab62f07714171c07348b13f699594b03e629d1868d1f05237207656c01edb864736f6c63430008140033",
  "linkReferences": {},
  "deployedLinkReferences": {}
}