{
  "_format": "hh-sol-artifact-1",
  "contractName": "MarketGraduation",
  "sourceName": "contracts/MarketGraduation.sol",
  "abi": [
    {
      "inputs": [
        {
          "internalType": "address",
          "name": "_registry",
          "type": "address"
        }
      ],
      "stateMutability": "nonpayable",
      "type": "constructor"
    },
    {
      "inputs": [
        {
          "internalType": "address",
          "name": "owner",
          "type": "address"
        }
      ],
      "name": "OwnableInvalidOwner",
      "type": "error"
    },
    {
      "inputs": [
        {
          "internalType": "address",
          "name": "account",
          "type": "address"
        }
      ],
      "name": "OwnableUnauthorizedAccount",
      "type": "error"
    },
    {
      "inputs": [],
      "name": "ReentrancyGuardReentrantCall",
      "type": "error"
    },
    {
      "anonymous": false,
      "inputs": [
        {
          "indexed": true,
          "internalType": "address",
          "name": "token",
          "type": "address"
        },
        {
          "indexed": false,
          "internalType": "uint256",
          "name": "lpTokenId",
          "type": "uint256"
        }
      ],
      "name": "LiquidityLocked",
      "type": "event"
    },
    {
      "anonymous": false,
      "inputs": [
        {
          "indexed": true,
          "internalType": "address",
          "name": "previousOwner",
          "type": "address"
        },
        {
          "indexed": true,
          "internalType": "address",
          "name": "newOwner",
          "type": "address"
        }
      ],
      "name": "OwnershipTransferred",
      "type": "event"
    },
    {
      "anonymous": false,
      "inputs": [
        {
          "indexed": true,
          "internalType": "address",
          "name": "token",
          "type": "address"
        }
      ],
      "name": "PublicTradingEnabled",
      "type": "event"
    },
    {
      "anonymous": false,
      "inputs": [
        {
          "indexed": true,
          "internalType": "address",
          "name": "token",
          "type": "address"
        },
        {
          "indexed": true,
          "internalType": "address",
          "name": "pool",
          "type": "address"
        },
        {
          "indexed": false,
          "internalType": "uint256",
          "name": "okbLocked",
          "type": "uint256"
        },
        {
          "indexed": false,
          "internalType": "uint256",
          "name": "tokensLocked",
          "type": "uint256"
        }
      ],
      "name": "TokenGraduated",
      "type": "event"
    },
    {
      "inputs": [],
      "name": "GRADUATION_THRESHOLD",
      "outputs": [
        {
          "internalType": "uint256",
          "name": "",
          "type": "uint256"
        }
      ],
      "stateMutability": "view",
      "type": "function"
    },
    {
      "inputs": [],
      "name": "LOCKED_LIQUIDITY_OKB",
      "outputs": [
        {
          "internalType": "uint256",
          "name": "",
          "type": "uint256"
        }
      ],
      "stateMutability": "view",
      "type": "function"
    },
    {
      "inputs": [],
      "name": "LOCKED_LIQUIDITY_TOKENS",
      "outputs": [
        {
          "internalType": "uint256",
          "name": "",
          "type": "uint256"
        }
      ],
      "stateMutability": "view",
      "type": "function"
    },
    {
      "inputs": [],
      "name": "MIN_LIQUIDITY_RATIO",
      "outputs": [
        {
          "internalType": "uint256",
          "name": "",
          "type": "uint256"
        }
      ],
      "stateMutability": "view",
      "type": "function"
    },
    {
      "inputs": [],
      "name": "POOL_FEE",
      "outputs": [
        {
          "internalType": "uint24",
          "name": "",
          "type": "uint24"
        }
      ],
      "stateMutability": "view",
      "type": "function"
    },
    {
      "inputs": [],
      "name": "QUICKSWAP_FACTORY",
      "outputs": [
        {
          "internalType": "address",
          "name": "",
          "type": "address"
        }
      ],
      "stateMutability": "view",
      "type": "function"
    },
    {
      "inputs": [],
      "name": "QUICKSWAP_POSITION_MANAGER",
      "outputs": [
        {
          "internalType": "address",
          "name": "",
          "type": "address"
        }
      ],
      "stateMutability": "view",
      "type": "function"
    },
    {
      "inputs": [
        {
          "internalType": "address",
          "name": "token",
          "type": "address"
        }
      ],
      "name": "checkGraduation",
      "outputs": [
        {
          "internalType": "bool",
          "name": "canGraduate",
          "type": "bool"
        },
        {
          "internalType": "uint256",
          "name": "okbCollected",
          "type": "uint256"
        }
      ],
      "stateMutability": "view",
      "type": "function"
    },
    {
      "inputs": [
        {
          "internalType": "address",
          "name": "token",
          "type": "address"
        }
      ],
      "name": "enablePublicTrading",
      "outputs": [],
      "stateMutability": "nonpayable",
      "type": "function"
    },
    {
      "inputs": [
        {
          "internalType": "address",
          "name": "token",
          "type": "address"
        }
      ],
      "name": "forceGraduation",
      "outputs": [],
      "stateMutability": "nonpayable",
      "type": "function"
    },
    {
      "inputs": [
        {
          "internalType": "address",
          "name": "token",
          "type": "address"
        }
      ],
      "name": "getGraduationInfo",
      "outputs": [
        {
          "components": [
            {
              "internalType": "bool",
              "name": "graduated",
              "type": "bool"
            },
            {
              "internalType": "bool",
              "name": "publicTradingEnabled",
              "type": "bool"
            },
            {
              "internalType": "uint256",
              "name": "graduatedAt",
              "type": "uint256"
            },
            {
              "internalType": "uint256",
              "name": "okbLocked",
              "type": "uint256"
            },
            {
              "internalType": "uint256",
              "name": "tokensLocked",
              "type": "uint256"
            },
            {
              "internalType": "address",
              "name": "poolAddress",
              "type": "address"
            },
            {
              "internalType": "uint256",
              "name": "lpTokenId",
              "type": "uint256"
            }
          ],
          "internalType": "struct MarketGraduation.GraduationInfo",
          "name": "",
          "type": "tuple"
        }
      ],
      "stateMutability": "view",
      "type": "function"
    },
    {
      "inputs": [
        {
          "internalType": "address",
          "name": "token",
          "type": "address"
        }
      ],
      "name": "getPoolAddress",
      "outputs": [
        {
          "internalType": "address",
          "name": "",
          "type": "address"
        }
      ],
      "stateMutability": "view",
      "type": "function"
    },
    {
      "inputs": [
        {
          "internalType": "address",
          "name": "token",
          "type": "address"
        }
      ],
      "name": "graduateToken",
      "outputs": [],
      "stateMutability": "nonpayable",
      "type": "function"
    },
    {
      "inputs": [
        {
          "internalType": "address",
          "name": "",
          "type": "address"
        }
      ],
      "name": "graduationInfo",
      "outputs": [
        {
          "internalType": "bool",
          "name": "graduated",
          "type": "bool"
        },
        {
          "internalType": "bool",
          "name": "publicTradingEnabled",
          "type": "bool"
        },
        {
          "internalType": "uint256",
          "name": "graduatedAt",
          "type": "uint256"
        },
        {
          "internalType": "uint256",
          "name": "okbLocked",
          "type": "uint256"
        },
        {
          "internalType": "uint256",
          "name": "tokensLocked",
          "type": "uint256"
        },
        {
          "internalType": "address",
          "name": "poolAddress",
          "type": "address"
        },
        {
          "internalType": "uint256",
          "name": "lpTokenId",
          "type": "uint256"
        }
      ],
      "stateMutability": "view",
      "type": "function"
    },
    {
      "inputs": [
        {
          "internalType": "address",
          "name": "token",
          "type": "address"
        }
      ],
      "name": "isGraduated",
      "outputs": [
        {
          "internalType": "bool",
          "name": "",
          "type": "bool"
        }
      ],
      "stateMutability": "view",
      "type": "function"
    },
    {
      "inputs": [
        {
          "internalType": "address",
          "name": "token",
          "type": "address"
        }
      ],
      "name": "isPublicTradingEnabled",
      "outputs": [
        {
          "internalType": "bool",
          "name": "",
          "type": "bool"
        }
      ],
      "stateMutability": "view",
      "type": "function"
    },
    {
      "inputs": [
        {
          "internalType": "address",
          "name": "token",
          "type": "address"
        }
      ],
      "name": "listOnDEX",
      "outputs": [
        {
          "internalType": "address",
          "name": "poolAddress",
          "type": "address"
        }
      ],
      "stateMutability": "payable",
      "type": "function"
    },
    {
      "inputs": [],
      "name": "owner",
      "outputs": [
        {
          "internalType": "address",
          "name": "",
          "type": "address"
        }
      ],
      "stateMutability": "view",
      "type": "function"
    },
    {
      "inputs": [],
      "name": "registry",
      "outputs": [
        {
          "internalType": "contract IRegistry",
          "name": "",
          "type": "address"
        }
      ],
      "stateMutability": "view",
      "type": "function"
    },
    {
      "inputs": [],
      "name": "renounceOwnership",
      "outputs": [],
      "stateMutability": "nonpayable",
      "type": "function"
    },
    {
      "inputs": [
        {
          "internalType": "address",
          "name": "newOwner",
          "type": "address"
        }
      ],
      "name": "transferOwnership",
      "outputs": [],
      "stateMutability": "nonpayable",
      "type": "function"
    },
    {
      "stateMutability": "payable",
      "type": "receive"
    }
  ],
  "bytecode": "0x6080346100ca57601f6118c138819003918201601f19168301916001600160401b038311848410176100cf578084926020946040528339810103126100ca57516001600160a01b0390818116908190036100ca5733156100b15760005460018060a01b0319903382821617600055604051933391167f8be0079c531659141344cd1fd0a4f28419497f9722a3daafe3b4186f6b6457e0600080a36001805560025416176002556117db90816100e68239f35b604051631e4fbdf760e01b815260006004820152602490fd5b600080fd5b634e487b7160e01b600052604160045260246000fdfe608080604052600436101561001d575b50361561001b57600080fd5b005b600090813560e01c90816307eca003146113ce5750806310087fcc146113a85780631228cbee14611366578063235177c814611267578063304e02701461124b5780633ba7863f1461121c57806368a4c8b7146111da578063715018a6146111805780637b103999146111575780637dc0450f146108df57806387b6f507146107a8578063888f6de6146107695780638da5cb5b1461074257806397f548f7146104d4578063c9d88f2e146104a5578063d2154ecc146102b9578063dd1b9c4a1461029c578063ea14c1e414610253578063ed841fe3146101c9578063f2fde38b146101335763fcfc0c090361000f573461013057806003193601126101305760206040516804563918244f4000008152f35b80fd5b5034610130576020366003190112610130576004356001600160a01b03818116918290036101c5576101636113f1565b81156101ac57600054826bffffffffffffffffffffffff60a01b821617600055167f8be0079c531659141344cd1fd0a4f28419497f9722a3daafe3b4186f6b6457e0600080a380f35b604051631e4fbdf760e01b815260048101849052602490fd5b8280fd5b5034610130576020366003190112610130576001600160a01b03600435818116908190036101c5578260409160e0945260036020522090815491600181015491600282015460056003840154926004850154169301549360ff604051968181161515885260081c161515602087015260408601526060850152608084015260a083015260c0820152f35b5034610130576020366003190112610130576004356001600160a01b038116908190036102985760408260ff926020945260038452205460081c166040519015158152f35b5080fd5b50346101305780600319360112610130576020604051610bb88152f35b503461013057602080600319360112610298576004356001600160a01b0381811692918390036104a1576102eb6113f1565b60248282600254166040519283809263c187645360e01b82528860048301525afa801561049657859061045c575b6103239150611481565b8284526003825261033a60ff6040862054166116dd565b8284526003825260046040852001541615610424578183526003815260ff604084205460081c166103ee57813b156101c5576040516322a3148f60e21b81528390818160048183885af180156103e3576103cf575b508290526003905260408220805461ff0019166101001790557f0682872b45791f5ba979e24c66b70ba20ce9177586ed6b1d2835db43d7eaaf5b8280a280f35b6103d890611439565b6101c557823861038f565b6040513d84823e3d90fd5b6064906040519062461bcd60e51b82526004820152600f60248201526e105b1c9958591e48195b98589b1959608a1b6044820152fd5b6064906040519062461bcd60e51b82526004820152601160248201527009cdee840d8d2e6e8cac840dedc40888ab607b1b6044820152fd5b508281813d831161048f575b610472818361144d565b8101031261048b576104866103239161146f565b610319565b8480fd5b503d610468565b6040513d87823e3d90fd5b8380fd5b5034610130578060031936011261013057602060405173d2480162aa7f02ead7bf4c127465446150d584528152f35b50346101305760209081600319360112610130576004356001600160a01b03818116918290036101c55780835416331480156106d4575b1561069e5783602491600254166040519283809263c187645360e01b82528660048301525afa801561065d578390610668575b6105489150611481565b8082526003835261056060ff6040842054161561169d565b604051634447b6f360e11b8152816004820152604081602481305afa90811561065d578391610623575b50156105de577f5d5e32a9db9d7b2e8a648cbabb24e8b703a4581f3c2a8d7a888671cedc308ccf6040839483855260038152818520600160ff1982541617815560014291015584825191818352820152a380f35b60405162461bcd60e51b815260048101849052601860248201527f4e6f7420726561647920666f722067726164756174696f6e00000000000000006044820152606490fd5b90506040813d604011610655575b8161063e6040938361144d565b810103126101c55761064f9061146f565b3861058a565b3d9150610631565b6040513d85823e3d90fd5b508381813d8311610697575b61067e818361144d565b810103126101c5576106926105489161146f565b61053e565b503d610674565b60405162461bcd60e51b815260048101859052600e60248201526d139bdd08185d5d1a1bdc9a5e995960921b6044820152606490fd5b5060048482600254166040519283809263faac38ef60e01b82525afa90811561073757908291859161070a575b5016331461050b565b61072a9150863d8811610730575b610722818361144d565b8101906114bd565b38610701565b503d610718565b6040513d86823e3d90fd5b5034610130578060031936011261013057546040516001600160a01b039091168152602090f35b503461013057602036600319011261013057600435906001600160a01b038216820361013057604061079a836114dc565b825191151582526020820152f35b503461013057806020806003193601126108dc576004356001600160a01b0381811692918390036108d057816024916107df6113f1565b600254166040519283809263c187645360e01b82528760048301525afa908115610737578491610878575b507f5d5e32a9db9d7b2e8a648cbabb24e8b703a4581f3c2a8d7a888671cedc308ccf91610838604092611481565b8385526003815261084f60ff83872054161561169d565b83855260038152818520600160ff1982541617815560014291015584825191818352820152a380f35b90508181813d83116108d5575b61088f818361144d565b810103126108d0577f5d5e32a9db9d7b2e8a648cbabb24e8b703a4581f3c2a8d7a888671cedc308ccf916108386108c760409361146f565b9250509161080a565b505050fd5b503d610885565b50fd5b506020366003190112610130576004356001600160a01b03811681036102985760026001541461114557600260018190555460405163c187645360e01b81526001600160a01b0383811660048301529091169190602081602481865afa801561073757849061110a575b6109539150611481565b6001600160a01b0381168352600360205260408320546109759060ff166116dd565b6001600160a01b03818116845260036020526040842060040154166110d45734156110c557345b6801f399b1438a100000811061108d5760206004936040519485809263d908f78d60e01b82525afa92831561073757849361106c575b506001600160a01b038316801561103857803b1561048b57604051630d0e30db60e41b8152858160048186865af18015610f5a57611025575b506040516370a0823160e01b81523060048201526020816024816001600160a01b0388165afa8015610f5a578690610fe8575b6aa56fa5b99019a5c8000000915010610fad5760405163095ea7b360e01b80825273f6ad3ccf71abb3e12becf6b3d2a74c963859adcd60048301526aa56fa5b99019a5c80000006024830152906020816044818a6001600160a01b038a165af18015610fa257610f65575b5060405190815273f6ad3ccf71abb3e12becf6b3d2a74c963859adcd600482015282602482015260208160448189865af18015610f5a57610f1d575b506001600160a01b03831610928315610f165782935b15610f0e57935b600160601b606083901b831584820483141715610efa576aa56fa5b99019a5c800000090048060601b918183041490151715610ee6576001600160a01b0390610b4a90611719565b6040516309f56ab160e11b81526001600160a01b03808816600483015288166024820152610bb8604482015291166064820152936020856084818573f6ad3ccf71abb3e12becf6b3d2a74c963859adcd5af19485156103e3578295610ec5575b506001600160a01b0384811690821614958615610ebe576aa56fa5b99019a5c8000000905b8715610eac5784925b8815610ea5576aa56fa5b99019a5c8000000985b89605f810204605f148a151715610e7f5715610e935785915b82605f810204605f1483151715610e7f5761012c42014211610e7f57604051998a61016081011067ffffffffffffffff6101608d011117610e6957606495605f95620d89b460808e89968b98610160830160405260018060a01b0316825260018060a01b03166020820152610bb86040820152620d89b3196060820152015260a08d015260c08c0152020460e089015202046101008601523061012086015261012c420161014086015261014060405195634418b22b60e11b875260018060a01b03815116600488015260018060a01b03602082015116602488015262ffffff6040820151166044880152606081015160020b6064880152608081015160020b608488015260a081015160a488015260c081015160c488015260e081015160e488015261010081015161010488015260018060a01b03610120820151166101248801520151610144860152608085610164818473f6ad3ccf71abb3e12becf6b3d2a74c963859adcd5af1948515610e5c578195610e0a575b506001600160a01b03928316808252600360208181526040938490206004810180546001600160a01b031916989097169788179096556005860188905560028601949094556aa56fa5b99019a5c800000094019390935551938452927f426f0c0a2e698e1e1dc15965aacaec6b35a143139f5ad496aff205755eefb805908490a260018055604051908152f35b9094506080813d8211610e54575b81610e256080938361144d565b8101031261048b57602081519101516fffffffffffffffffffffffffffffffff81160361048b57936020610d7d565b3d9150610e18565b50604051903d90823e3d90fd5b634e487b7160e01b600052604160045260246000fd5b634e487b7160e01b86526011600452602486fd5b6aa56fa5b99019a5c800000091610c05565b8598610bec565b6aa56fa5b99019a5c800000092610bd8565b8390610bcf565b610edf91955060203d60201161073057610722818361144d565b9338610baa565b634e487b7160e01b82526011600452602482fd5b634e487b7160e01b83526011600452602483fd5b508193610b02565b8093610afb565b6020813d602011610f52575b81610f366020938361144d565b81010312610f4e57610f479061146f565b5038610ae5565b8580fd5b3d9150610f29565b6040513d88823e3d90fd5b6020813d602011610f9a575b81610f7e6020938361144d565b81010312610f9657610f8f9061146f565b5038610aa9565b8680fd5b3d9150610f71565b6040513d89823e3d90fd5b60405162461bcd60e51b8152602060048201526013602482015272496e73756666696369656e7420746f6b656e7360681b6044820152606490fd5b506020813d60201161101d575b816110026020938361144d565b81010312610f4e576aa56fa5b99019a5c80000009051610a3e565b3d9150610ff5565b61103190959195611439565b9338610a0b565b60405162461bcd60e51b815260206004820152600c60248201526b15d3d2d0881b9bdd081cd95d60a21b6044820152606490fd5b61108691935060203d60201161073057610722818361144d565b91386109d2565b60405162461bcd60e51b815260206004820152601060248201526f24b739bab33334b1b4b2b73a1027a5a160811b6044820152606490fd5b6801f399b1438a10000061099c565b60405162461bcd60e51b815260206004820152600e60248201526d105b1c9958591e481b1a5cdd195960921b6044820152606490fd5b506020813d60201161113d575b816111246020938361144d565b810103126104a1576111386109539161146f565b610949565b3d9150611117565b604051633ee5aeb560e01b8152600490fd5b50346101305780600319360112610130576002546040516001600160a01b039091168152602090f35b50346101305780600319360112610130576111996113f1565b80546001600160a01b03198116825581906001600160a01b03167f8be0079c531659141344cd1fd0a4f28419497f9722a3daafe3b4186f6b6457e08280a380f35b5034610130576020366003190112610130576004356001600160a01b038116908190036102985760408260ff9260209452600384522054166040519015158152f35b5034610130578060031936011261013057602060405173f6ad3ccf71abb3e12becf6b3d2a74c963859adcd8152f35b5034610130578060031936011261013057602060405160648152f35b5034610130576020366003190112610130576001600160a01b03600435818116908190036101c5578260409160e09460c084516112a38161141d565b82815282602082015282868201528260608201528260808201528260a08201520152815260036020522090604051906112db8261141d565b82549260ff841615159384845260ff602085019160081c1615158152600182015460408501908152600283015490606086019182526003840154926080870193845260c06005876004880154169660a08a01978852015497019687526040519788525115156020880152516040870152516060860152516080850152511660a08301525160c0820152f35b5034610130576020366003190112610130576001600160a01b03600435818116908190036101c557604083600492602095526003855220015416604051908152f35b503461013057806003193601126101305760206040516aa56fa5b99019a5c80000008152f35b905034610298578160031936011261029857806801f399b1438a10000060209252f35b6000546001600160a01b0316330361140557565b60405163118cdaa760e01b8152336004820152602490fd5b60e0810190811067ffffffffffffffff821117610e6957604052565b67ffffffffffffffff8111610e6957604052565b90601f8019910116810190811067ffffffffffffffff821117610e6957604052565b5190811515820361147c57565b600080fd5b1561148857565b60405162461bcd60e51b815260206004820152600d60248201526c24b73b30b634b2103a37b5b2b760991b6044820152606490fd5b9081602091031261147c57516001600160a01b038116810361147c5790565b6002546040805163c187645360e01b81526001600160a01b0393841660048201819052602095949293909216908581602481855afa80156116925760009061165c575b6115299150611481565b816000526003855260ff83600020541661164f578460049184519283809263faac38ef60e01b82525afa90811561164457600091611627575b508251908582019263047f8bc160e01b8452602483015260248252606082019067ffffffffffffffff9383831085841117610e69576000938493875251915afa913d1561161b573d918211610e695751906115c6601f8201601f191686018361144d565b8152600081943d92013e5b156116135760c08280518101031261147c5761160160c06060840151936115fa60a0820161146f565b500161146f565b506804563918244f4000008210159190565b600091508190565b505091506060916115d1565b61163e9150853d871161073057610722818361144d565b38611562565b83513d6000823e3d90fd5b5050509050600090600090565b8682813d831161168b575b611671818361144d565b8101031261013057506116866115299161146f565b61151f565b503d611667565b84513d6000823e3d90fd5b156116a457565b60405162461bcd60e51b8152602060048201526011602482015270105b1c9958591e4819dc98591d585d1959607a1b6044820152606490fd5b156116e457565b60405162461bcd60e51b815260206004820152600d60248201526c139bdd0819dc98591d585d1959609a1b6044820152606490fd5b801561179f57600180820180831161178957811c9082905b83831061173e5750505090565b919250908280156117745780830490810180911161175f57811c9190611731565b60246000634e487b7160e01b81526011600452fd5b60246000634e487b7160e01b81526012600452fd5b634e487b7160e01b600052601160045260246000fd5b5060009056fea2646970667358221220f85f4c96a747e9c1410859cbeb475968feddb15117d80eca05b2c44ffaedc3e164736f6c63430008140033",
  "linkReferences": {},
  "deployedLinkReferences": {}
}