{
  "_format": "hh-sol-artifact-1",
  "contractName": "UserManagement",
  "sourceName": "contracts/UserManagement.sol",
  "abi": [
    {
      "inputs": [
        {
          "internalType": "address",
          "name": "_registry",
          "type": "address"
        }
      ],
      "stateMutability": "nonpayable",
      "type": "constructor"
    },
    {
      "inputs": [
        {
          "internalType": "address",
          "name": "owner",
          "type": "address"
        }
      ],
      "name": "OwnableInvalidOwner",
      "type": "error"
    },
    {
      "inputs": [
        {
          "internalType": "address",
          "name": "account",
          "type": "address"
        }
      ],
      "name": "OwnableUnauthorizedAccount",
      "type": "error"
    },
    {
      "anonymous": false,
      "inputs": [
        {
          "indexed": true,
          "internalType": "address",
          "name": "user",
          "type": "address"
        },
        {
          "indexed": false,
          "internalType": "string",
          "name": "reason",
          "type": "string"
        }
      ],
      "name": "AccessDenied",
      "type": "event"
    },
    {
      "anonymous": false,
      "inputs": [
        {
          "indexed": true,
          "internalType": "address",
          "name": "user",
          "type": "address"
        }
      ],
      "name": "AccessGranted",
      "type": "event"
    },
    {
      "anonymous": false,
      "inputs": [
        {
          "indexed": true,
          "internalType": "address",
          "name": "previousOwner",
          "type": "address"
        },
        {
          "indexed": true,
          "internalType": "address",
          "name": "newOwner",
          "type": "address"
        }
      ],
      "name": "OwnershipTransferred",
      "type": "event"
    },
    {
      "anonymous": false,
      "inputs": [
        {
          "indexed": true,
          "internalType": "address",
          "name": "user",
          "type": "address"
        },
        {
          "indexed": false,
          "internalType": "uint256",
          "name": "spamScore",
          "type": "uint256"
        }
      ],
      "name": "SpamFlagged",
      "type": "event"
    },
    {
      "anonymous": false,
      "inputs": [
        {
          "indexed": true,
          "internalType": "address",
          "name": "user",
          "type": "address"
        },
        {
          "indexed": true,
          "internalType": "address",
          "name": "referrer",
          "type": "address"
        }
      ],
      "name": "UserAdded",
      "type": "event"
    },
    {
      "anonymous": false,
      "inputs": [
        {
          "indexed": true,
          "internalType": "address",
          "name": "user",
          "type": "address"
        },
        {
          "indexed": false,
          "internalType": "string",
          "name": "reason",
          "type": "string"
        }
      ],
      "name": "UserBlacklisted",
      "type": "event"
    },
    {
      "anonymous": false,
      "inputs": [
        {
          "indexed": true,
          "internalType": "address",
          "name": "user",
          "type": "address"
        }
      ],
      "name": "UserRemoved",
      "type": "event"
    },
    {
      "anonymous": false,
      "inputs": [
        {
          "indexed": true,
          "internalType": "address",
          "name": "user",
          "type": "address"
        }
      ],
      "name": "UserWhitelisted",
      "type": "event"
    },
    {
      "inputs": [],
      "name": "COOLDOWN_PERIOD",
      "outputs": [
        {
          "internalType": "uint256",
          "name": "",
          "type": "uint256"
        }
      ],
      "stateMutability": "view",
      "type": "function"
    },
    {
      "inputs": [],
      "name": "DEFAULT_TOKEN_CREATION_LIMIT",
      "outputs": [
        {
          "internalType": "uint256",
          "name": "",
          "type": "uint256"
        }
      ],
      "stateMutability": "view",
      "type": "function"
    },
    {
      "inputs": [],
      "name": "SPAM_THRESHOLD",
      "outputs": [
        {
          "internalType": "uint256",
          "name": "",
          "type": "uint256"
        }
      ],
      "stateMutability": "view",
      "type": "function"
    },
    {
      "inputs": [
        {
          "internalType": "address",
          "name": "user",
          "type": "address"
        }
      ],
      "name": "addUser",
      "outputs": [
        {
          "internalType": "bool",
          "name": "",
          "type": "bool"
        }
      ],
      "stateMutability": "nonpayable",
      "type": "function"
    },
    {
      "inputs": [
        {
          "internalType": "address",
          "name": "user",
          "type": "address"
        },
        {
          "internalType": "address",
          "name": "referrer",
          "type": "address"
        }
      ],
      "name": "addUserWithReferral",
      "outputs": [
        {
          "internalType": "bool",
          "name": "",
          "type": "bool"
        }
      ],
      "stateMutability": "nonpayable",
      "type": "function"
    },
    {
      "inputs": [
        {
          "internalType": "address",
          "name": "user",
          "type": "address"
        },
        {
          "internalType": "string",
          "name": "reason",
          "type": "string"
        }
      ],
      "name": "blacklistUser",
      "outputs": [],
      "stateMutability": "nonpayable",
      "type": "function"
    },
    {
      "inputs": [
        {
          "internalType": "address",
          "name": "user",
          "type": "address"
        }
      ],
      "name": "canCreateToken",
      "outputs": [
        {
          "internalType": "bool",
          "name": "",
          "type": "bool"
        }
      ],
      "stateMutability": "view",
      "type": "function"
    },
    {
      "inputs": [
        {
          "internalType": "address",
          "name": "user",
          "type": "address"
        }
      ],
      "name": "checkAccess",
      "outputs": [
        {
          "internalType": "bool",
          "name": "",
          "type": "bool"
        }
      ],
      "stateMutability": "view",
      "type": "function"
    },
    {
      "inputs": [
        {
          "internalType": "address",
          "name": "user",
          "type": "address"
        }
      ],
      "name": "flagSpam",
      "outputs": [],
      "stateMutability": "nonpayable",
      "type": "function"
    },
    {
      "inputs": [
        {
          "internalType": "address",
          "name": "user",
          "type": "address"
        }
      ],
      "name": "getReferrals",
      "outputs": [
        {
          "internalType": "address[]",
          "name": "",
          "type": "address[]"
        }
      ],
      "stateMutability": "view",
      "type": "function"
    },
    {
      "inputs": [
        {
          "internalType": "address",
          "name": "user",
          "type": "address"
        }
      ],
      "name": "getReferrer",
      "outputs": [
        {
          "internalType": "address",
          "name": "",
          "type": "address"
        }
      ],
      "stateMutability": "view",
      "type": "function"
    },
    {
      "inputs": [
        {
          "internalType": "address",
          "name": "user",
          "type": "address"
        }
      ],
      "name": "getUserInfo",
      "outputs": [
        {
          "components": [
            {
              "internalType": "bool",
              "name": "whitelisted",
              "type": "bool"
            },
            {
              "internalType": "bool",
              "name": "blacklisted",
              "type": "bool"
            },
            {
              "internalType": "uint256",
              "name": "spamScore",
              "type": "uint256"
            },
            {
              "internalType": "uint256",
              "name": "transactionCount",
              "type": "uint256"
            },
            {
              "internalType": "uint256",
              "name": "firstSeenAt",
              "type": "uint256"
            },
            {
              "internalType": "uint256",
              "name": "lastActivityAt",
              "type": "uint256"
            },
            {
              "internalType": "uint256",
              "name": "tokenCreationLimit",
              "type": "uint256"
            },
            {
              "internalType": "uint256",
              "name": "tokensCreated",
              "type": "uint256"
            }
          ],
          "internalType": "struct UserManagement.UserInfo",
          "name": "",
          "type": "tuple"
        }
      ],
      "stateMutability": "view",
      "type": "function"
    },
    {
      "inputs": [
        {
          "internalType": "address",
          "name": "user",
          "type": "address"
        }
      ],
      "name": "incrementTokensCreated",
      "outputs": [],
      "stateMutability": "nonpayable",
      "type": "function"
    },
    {
      "inputs": [],
      "name": "owner",
      "outputs": [
        {
          "internalType": "address",
          "name": "",
          "type": "address"
        }
      ],
      "stateMutability": "view",
      "type": "function"
    },
    {
      "inputs": [
        {
          "internalType": "address",
          "name": "",
          "type": "address"
        },
        {
          "internalType": "uint256",
          "name": "",
          "type": "uint256"
        }
      ],
      "name": "referrals",
      "outputs": [
        {
          "internalType": "address",
          "name": "",
          "type": "address"
        }
      ],
      "stateMutability": "view",
      "type": "function"
    },
    {
      "inputs": [
        {
          "internalType": "address",
          "name": "",
          "type": "address"
        }
      ],
      "name": "referredBy",
      "outputs": [
        {
          "internalType": "address",
          "name": "",
          "type": "address"
        }
      ],
      "stateMutability": "view",
      "type": "function"
    },
    {
      "inputs": [],
      "name": "registry",
      "outputs": [
        {
          "internalType": "contract IRegistry",
          "name": "",
          "type": "address"
        }
      ],
      "stateMutability": "view",
      "type": "function"
    },
    {
      "inputs": [
        {
          "internalType": "address",
          "name": "user",
          "type": "address"
        }
      ],
      "name": "removeUser",
      "outputs": [],
      "stateMutability": "nonpayable",
      "type": "function"
    },
    {
      "inputs": [],
      "name": "renounceOwnership",
      "outputs": [],
      "stateMutability": "nonpayable",
      "type": "function"
    },
    {
      "inputs": [
        {
          "internalType": "address",
          "name": "user",
          "type": "address"
        }
      ],
      "name": "resetSpamScore",
      "outputs": [],
      "stateMutability": "nonpayable",
      "type": "function"
    },
    {
      "inputs": [
        {
          "internalType": "bool",
          "name": "enabled",
          "type": "bool"
        }
      ],
      "name": "setSpamProtectionEnabled",
      "outputs": [],
      "stateMutability": "nonpayable",
      "type": "function"
    },
    {
      "inputs": [
        {
          "internalType": "address",
          "name": "user",
          "type": "address"
        },
        {
          "internalType": "uint256",
          "name": "limit",
          "type": "uint256"
        }
      ],
      "name": "setTokenCreationLimit",
      "outputs": [],
      "stateMutability": "nonpayable",
      "type": "function"
    },
    {
      "inputs": [
        {
          "internalType": "bool",
          "name": "enabled",
          "type": "bool"
        }
      ],
      "name": "setWhitelistEnabled",
      "outputs": [],
      "stateMutability": "nonpayable",
      "type": "function"
    },
    {
      "inputs": [],
      "name": "spamProtectionEnabled",
      "outputs": [
        {
          "internalType": "bool",
          "name": "",
          "type": "bool"
        }
      ],
      "stateMutability": "view",
      "type": "function"
    },
    {
      "inputs": [
        {
          "internalType": "address",
          "name": "newOwner",
          "type": "address"
        }
      ],
      "name": "transferOwnership",
      "outputs": [],
      "stateMutability": "nonpayable",
      "type": "function"
    },
    {
      "inputs": [
        {
          "internalType": "address",
          "name": "",
          "type": "address"
        }
      ],
      "name": "users",
      "outputs": [
        {
          "internalType": "bool",
          "name": "whitelisted",
          "type": "bool"
        },
        {
          "internalType": "bool",
          "name": "blacklisted",
          "type": "bool"
        },
        {
          "internalType": "uint256",
          "name": "spamScore",
          "type": "uint256"
        },
        {
          "internalType": "uint256",
          "name": "transactionCount",
          "type": "uint256"
        },
        {
          "internalType": "uint256",
          "name": "firstSeenAt",
          "type": "uint256"
        },
        {
          "internalType": "uint256",
          "name": "lastActivityAt",
          "type": "uint256"
        },
        {
          "internalType": "uint256",
          "name": "tokenCreationLimit",
          "type": "uint256"
        },
        {
          "internalType": "uint256",
          "name": "tokensCreated",
          "type": "uint256"
        }
      ],
      "stateMutability": "view",
      "type": "function"
    },
    {
      "inputs": [
        {
          "internalType": "address",
          "name": "user",
          "type": "address"
        }
      ],
      "name": "validateAccess",
      "outputs": [
        {
          "internalType": "bool",
          "name": "",
          "type": "bool"
        }
      ],
      "stateMutability": "nonpayable",
      "type": "function"
    },
    {
      "inputs": [],
      "name": "whitelistEnabled",
      "outputs": [
        {
          "internalType": "bool",
          "name": "",
          "type": "bool"
        }
      ],
      "stateMutability": "view",
      "type": "function"
    },
    {
      "inputs": [
        {
          "internalType": "address",
          "name": "user",
          "type": "address"
        }
      ],
      "name": "whitelistUser",
      "outputs": [],
      "stateMutability": "nonpayable",
      "type": "function"
    }
  ],
  "bytecode": "0x6080346100d557601f61176738819003918201601f19168301916001600160401b038311848410176100da578084926020946040528339810103126100d557516001600160a01b0390818116908190036100d55733156100bc5760005460018060a01b0319903382821617600055604051933391167f8be0079c531659141344cd1fd0a4f28419497f9722a3daafe3b4186f6b6457e0600080a361010061ffff196005541617600555600154161760015561167690816100f18239f35b604051631e4fbdf760e01b815260006004820152602490fd5b600080fd5b634e487b7160e01b600052604160045260246000fdfe6040608081526004908136101561001557600080fd5b60009160e0908335821c918263052d9e7e1461102b5782631770fcd11461100457826325fde04a14610fe75782633936265714610fa957826341a0894d14610efe578263421b2d8b14610ed7578263466a014614610eb05782634a4c560d14610ddb5782634a9fefc714610daf5782634d0970c614610c6057826351fb012d14610c3b5782636116f91314610b235782636386c1c714610a1d5782636e99d52f146109ff578263715018a6146109a557826372126a4a146107355782637790e501146107055782637b103999146106db5782638da5cb5b146106b2578263985751881461062a578263a87430ba146105a057508163a90f8e9a1461056657838263b672edb51461050f57508163b8c16771146102ec578163dc92f2ed146102d0578163e697b5d814610274578163eb079bab1461024d578163f2fde38b146101c2575063f3df224e1461016757600080fd5b346101be57806003193601126101be5761017f611062565b610187611100565b6001600160a01b03168083526002602052818320600301546101aa901515611259565b825260026020526005602435918320015580f35b5080fd5b905034610249576020366003190112610249576101dd611062565b906101e6611100565b6001600160a01b0391821692831561023357505082546001600160a01b0319811683178455167f8be0079c531659141344cd1fd0a4f28419497f9722a3daafe3b4186f6b6457e08380a380f35b51631e4fbdf760e01b8152908101849052602490fd5b8280fd5b5050346101be57816003193601126101be5760209060ff60055460081c1690519015158152f35b5050346101be57806003193601126101be5761028e611062565b6001600160a01b0390811683526003602052818320805460243594908510156102cd57506020936102be916110d2565b90549060031b1c169051908152f35b80fd5b5050346101be57816003193601126101be5760209051600a8152f35b9050346102495760208060031936011261050b57610308611062565b8454336001600160a01b03918216149390919084156104b0575b841561041f575b506103547f8889dc63dbb3361d8f26c598288df02fad32c364fb705a6b3d6c4b19fffc9cc194611367565b16928385526002825261036e600382872001541515611259565b8385526002825260018186200161038581546113a4565b9055838552600282528085206005600182015410156103b7575b5083855260028252600181862001549051908152a280f35b61010061ff0019825416179055837fcc1cf21b75158e751a071cc4770b92cde8bb2bc34f9187eedd0592b874a55669606083518581526017868201527f5370616d207468726573686f6c6420657863656564656400000000000000000085820152a23861039f565b600154865163faac38ef60e01b8152955084918691829086165afa80156104a65782610354917f8889dc63dbb3361d8f26c598288df02fad32c364fb705a6b3d6c4b19fffc9cc1968991610479575b501633149450610329565b6104999150863d881161049f575b61049181836110b0565b810190611348565b3861046e565b503d610487565b85513d88823e3d90fd5b80945083836001541687519283809263492eb5d160e11b82525afa801561050157839188916104e4575b5016331493610322565b6104fb9150853d871161049f5761049181836110b0565b386104da565b86513d89823e3d90fd5b8380fd5b8084346105635760203660031901126105635760019061052d611062565b610535611100565b828060a01b03168084526002602052610555600383862001541515611259565b835260026020528220015580f35b50fd5b905034610249576020366003190112610249576020926001600160a01b039183919083610591611062565b16825285522054169051908152f35b909291503461050b57602036600319011261050b576101009382906001600160a01b036105cb611062565b168152600260205220805493600182015490600283015460038401549184015492600660058601549501549660ff81519981811615158b5260081c16151560208a01528801526060870152608086015260a085015260c0840152820152f35b505050346101be5760203660031901126101be57610646611062565b61064e611100565b6001600160a01b0316808352600260205281832060030154909190610674901515611259565b81835260026020528220805461ffff19166101001790557fe9dce8c992623ce791725b21e857e33248d1f190a25b5168313420eebdaae99d8280a280f35b505050346101be57816003193601126101be57905490516001600160a01b039091168152602090f35b505050346101be57816003193601126101be5760015490516001600160a01b039091168152602090f35b505050346101be5760203660031901126101be5760209061072c610727611062565b6113c9565b90519015158152f35b939150346101be57826003193601126101be57610750611062565b6001600160a01b0360243581811694929085900361024957811692831561096b578484146109305783835285602097600289526003828620015415610799575b88825160018152f35b84600a60069260ff600554161590898d61082588519889956107ba8761107d565b865261080e83870191898352896002828a019682885260608b0198838a5260808c019a428c5260a08d019c8d42905260c081019e8f52019d8e52835252209a5115158b9060ff801983541691151516179055565b51895461ff00191690151560081b61ff0016178955565b5160018801555160028701555160038601555185850155516005840155519101558415158061091e575b610886575b5050807f3d48e23e10bd950af477b393a250740762bbfa1547b0aafea39792683d4fdb1d91a338808080808581610790565b83835280875285832080546001600160a01b03191686179055848352600387528583208054916801000000000000000083101561090b5750816108f19160017f3d48e23e10bd950af477b393a250740762bbfa1547b0aafea39792683d4fdb1d9695940181556110d2565b819291549060031b9186831b921b19161790559038610854565b634e487b7160e01b855260419052602484fd5b5084835260038684200154151561084f565b606490602087519162461bcd60e51b8352820152601560248201527421b0b73737ba103932b332b9103cb7bab939b2b63360591b6044820152fd5b606490602087519162461bcd60e51b83528201526014602482015273496e76616c69642075736572206164647265737360601b6044820152fd5b84346102cd57806003193601126102cd576109be611100565b80546001600160a01b03198116825581906001600160a01b03167f8be0079c531659141344cd1fd0a4f28419497f9722a3daafe3b4186f6b6457e08280a380f35b505050346101be57816003193601126101be5760209051610e108152f35b91503461050b57602036600319011261050b578261010094610a3d611062565b81858451610a4a8161107d565b82815282602082015282868201528260608201528260808201528260a08201528260c0820152015260018060a01b03168152600260205220835191610a8e8361107d565b81549060ff821615159586855260ff602086019360081c161515835260018401549080860191825260028501549160608701928352600386015493608088019485528601549460a0880195865288600660058901549860c08b01998a52015498019788528251998a5251151560208a015251908801525160608701525160808601525160a08501525160c08401525190820152f35b50905034610249576020908160031936011261050b57610b41611062565b60018060a01b0391828654163314908115610bea575b8115610b86575b50916006949391610b70600294611367565b16855252822001610b8181546113a4565b905580f35b600154865163faac38ef60e01b8152925085918391829087165afa9081156104a65791610b70846002959360069897958a91610bcd575b5016331492945050919394610b5e565b610be49150863d881161049f5761049181836110b0565b38610bbd565b80915084846001541687519283809263492eb5d160e11b82525afa80156105015784918891610c1e575b5016331490610b57565b610c359150863d881161049f5761049181836110b0565b38610c14565b505050346101be57816003193601126101be5760209060ff6005541690519015158152f35b50905034610249578160031936011261024957610c7b611062565b916024359167ffffffffffffffff90818411610dab5736602385011215610dab5783810135918211610d985750815185602094601f1993610cc38786601f84011601856110b0565b8084523660248284010111610249578060248893018386013783010152610ce8611100565b6001600160a01b038516808752600285528387206003015490959015610d88575b508486526002845282862061010061ffff198254161790558251938085528151918282870152875b838110610d7557505050928291601f858884967fcc1cf21b75158e751a071cc4770b92cde8bb2bc34f9187eedd0592b874a55669988601015201168101030190a280f35b8181018301518782018701528201610d31565b610d919061112c565b5038610d09565b634e487b7160e01b865260419052602485fd5b8580fd5b50905034610249576020366003190112610249576020926001600160a01b039183919083610591611062565b8482853461024957602036600319011261024957610df7611062565b610dff611100565b6001600160a01b0316808452600260205281842060030154909290610e25901515611259565b828452600260205260ff8285205460081c16610e78575081835260026020528220805460ff191660011790557f7409cb8e690bcd1487fd4fd27dad3fa92388d201ba6f953631d6d6b26299f8498280a280f35b6020606492519162461bcd60e51b83528201526013602482015272155cd95c881a5cc8189b1858dadb1a5cdd1959606a1b6044820152fd5b505050346101be5760203660031901126101be5760209061072c610ed2611062565b611296565b505050346101be5760203660031901126101be5760209061072c610ef9611062565b61112c565b505050346101be57602080600319360112610249576001600160a01b039283610f25611062565b1681526003825282812091835190818185549182815201908195855282852090855b818110610f935750505082610f5d9103836110b0565b8451948186019282875251809352850193925b828110610f7d5785850386f35b8351871685529381019392810192600101610f70565b82548a1684529284019260019283019201610f47565b8482346101be5760203660031901126101be57358015158091036101be57610fcf611100565b61ff006005549160081b169061ff0019161760055580f35b505050346101be57816003193601126101be576020905160058152f35b505050346101be5760203660031901126101be5760209061072c611026611062565b61159b565b8482346101be5760203660031901126101be57358015158091036101be57611051611100565b60ff80196005541691161760055580f35b600435906001600160a01b038216820361107857565b600080fd5b610100810190811067ffffffffffffffff82111761109a57604052565b634e487b7160e01b600052604160045260246000fd5b90601f8019910116810190811067ffffffffffffffff82111761109a57604052565b80548210156110ea5760005260206000200190600090565b634e487b7160e01b600052603260045260246000fd5b6000546001600160a01b0316330361111457565b60405163118cdaa760e01b8152336004820152602490fd5b6001600160a01b0316801561121d57600090808252600260205260036040832001541561115b575b5050600190565b60ff60055416156040519061116f8261107d565b815260066020820184815260408301858152606084018681526080850142815260a086019142835260c0870193600a85526111d060e08901968b88528a8c52600260205261080e60408d209a5115158b9060ff801983541691151516179055565b516001880155516002870155516003860155516004850155516005840155519101557f3d48e23e10bd950af477b393a250740762bbfa1547b0aafea39792683d4fdb1d8280a33880611154565b60405162461bcd60e51b8152602060048201526014602482015273496e76616c69642075736572206164647265737360601b6044820152606490fd5b1561126057565b60405162461bcd60e51b815260206004820152600e60248201526d155cd95c881b9bdd08199bdd5b9960921b6044820152606490fd5b6001600160a01b031660009081526002602052604081208054600881901c60ff16611337576005549060ff8216908161133c575b506113375760081c60ff1680611328575b611324576004015480151590816112fb575b506112f85750600190565b90565b9050420342811161131057610e1011386112ed565b634e487b7160e01b82526011600452602482fd5b5090565b506005600182015410156112db565b505090565b60ff91501615386112ca565b9081602091031261107857516001600160a01b03811681036110785790565b1561136e57565b60405162461bcd60e51b815260206004820152600e60248201526d139bdd08185d5d1a1bdc9a5e995960921b6044820152606490fd5b60001981146113b35760010190565b634e487b7160e01b600052601160045260246000fd5b6001600160a01b03811660008181526002602081815260408084206003015491959092911561158b575b5083835280855260ff8284205460081c1661153e5760055460ff81168061152a575b6114dd5760081c60ff16806114c6575b6114765783947fdeb5c31899474fe8c086c95ff9344480d19365676a6a1d22d37bb8e3e7c0ef18948452818152818385200161146181546113a4565b905585845252600442918320015580a2600190565b507fc4738e778dde4dee72d2281c845cba69dc6ab3553240330c2ca692cc864866069193720a6e0c2da40e6c6dee4ca40e8dede40d0d2ced606b1b8260136060945193808552840152820152a290565b508383528085526005600183852001541015611425565b50507fc4738e778dde4dee72d2281c845cba69dc6ab3553240330c2ca692cc8648660691936e139bdd081dda1a5d195b1a5cdd1959608a1b82600f6060945193808552840152820152a290565b5084845281865260ff838520541615611415565b507fc4738e778dde4dee72d2281c845cba69dc6ab3553240330c2ca692cc8648660691936f155cd95c88189b1858dadb1a5cdd195960821b8260106060945193808552840152820152a290565b6115949061112c565b50386113f3565b60405163233500a360e11b81526001600160a01b039091166004820181905290602081602481305afa908115611634576000916115fa575b50156115f45760005260026020526040600020600560068201549101541190565b50600090565b6020813d821161162c575b81611612602093836110b0565b810103126101be57519081151582036102cd5750386115d3565b3d9150611605565b6040513d6000823e3d90fdfea2646970667358221220d287c49b53f741b01ab7b50048c13018b330fa1afe5ff2109da18bc0b6e6301264736f6c63430008140033",
  "linkReferences": {},
  "deployedLinkReferences": {}
}